:1000000028C1000042C1000040C100003EC1000004
:100010003CC100003AC100000C94340A0C94640AFC
:1000200034C1000032C1000030C100002EC1000008
:100030002CC100002AC1000028C1000026C1000018
:1000400024C1000022C1000020C100001EC1000028
:100050001CC100001AC1000018C1000016C1000038
:100060000C94610B0C946C0B10C100000EC10000CD
:100070000CC100000AC1000008C1000006C1000058
:1000800004C1000002C1000000C10000FEC0000069
:10009000FCC00000FAC00000F8C00000F6C000007C
:1000A000F4C00000F2C00000F0C00000EEC000008C
:1000B000ECC00000EAC00000E8C00000E6C000009C
:1000C000E4C00000E2C00000E0C00000DEC00000AC
:1000D000DCC00000DAC00000D8C00000D6C00000BC
:1000E000D4C00000D2C00000D0C00000CEC00000CC
:1000F000CCC00000CAC00000C8C00000C6C00000DC
:10010000C4C00000C2C00000C0C00000BEC00000EB
:10011000BCC00000BAC00000B8C000007EC400002F
:10012000B4C00000B2C00000B0C00000AEC000000B
:10013000ACC00000AAC00000A8C00000A6C000001B
:10014000A4C00000A2C00000A0C000000C94D60A09
:100150009CC000009AC0000098C0000096C000003B
:1001600094C0000092C0000090C000008EC000004B
:100170008CC000008AC0000088C0000086C000005B
:1001800084C0000082C0000080C000007EC000006B
:100190007CC000007AC0000078C0000076C000007B
:1001A00074C0000072C0000070C000006EC000008B
:1001B0006CC000006AC0000068C0000066C000009B
:1001C00064C0000062C0000060C000005EC00000AB
:1001D0005CC000005AC0000058C0000056C00000BB
:1001E00054C0000052C0000050C000004EC00000CB
:1001F0004CC000000C946E150C941C1606040804E8
:100200000A040C040E041004120414042604280426
:100210002A042C042E04330430043204380D5E0DFD
:10022000850DCD0DD60DDB0D2E0E330E520E590E53
:10023000610E650E650E650E650E650E650E650E2A
:10024000AA0DE70DF10DFB0D090E0B0E0D0E170E8D
:10025000210E11241FBECFEFCDBFDFE2DEBF10E2C3
:10026000A0E0B0E2EAE5FEE202C005900D92AA39F4
:10027000B107D9F72BE2AAE9B0E201C01D92A03E76
:10028000B207E1F779D20C942B17BACE84E08093B1
:1002900056008CE18AD3809363008BEB80936600D9
:1002A00080E88093650081E08093600088ED84BFE2
:1002B0001092410083E08093500080915100833080
:1002C000E1F78091500081608093500088E1809335
:1002D00055008091510080FFFCCF809150008061DB
:1002E000809350008091510084FFFCCF88ED84BF43
:1002F00084E0809340000895E0E7F0E085818E7F00
:100300008583E0E0FAE08FEB9DE586A397A380EE7E
:100310009EE280A391A382E0808308958091200AC9
:100320009091210A813E2EE2920718F020918221BD
:1003300006C0803E2EE2920721F020917F2120937B
:100340006A0020910520222321F080910520815010
:1003500033C0885F9A42813D974080F110929A2085
:1003600080919B2090919C20A0919D20B0919E20F7
:100370000196A11DB11D80939B2090939C20A0937A
:100380009D20B0939E2080919B2090919C20A091D5
:100390009D20B0919E20892F9A2FAB2FBB27809351
:1003A000A22180919B2090919C20A0919D20B091B2
:1003B0009E208093A12186E08093052080910720D4
:1003C000909108200196B1F480910A208F3F91F01E
:1003D00080910620811106C0809106208150809373
:1003E00006200895809114019091150180930720B3
:1003F000909308200895009709F45EC00CF457C04C
:1004000040E020916B0030E02093802130938121E7
:1004100020918021309181213695322F22273795E6
:100420002795209380213093812150916A0020915B
:10043000802130918121250F311D2093802130931F
:1004400081210000209180213091812128173907D6
:1004500028F410928021109281210895209180210A
:1004600030918121280F391F2115304238F08FEF4C
:100470009FE1809380219093812108952091802194
:1004800030918121442329F0A901481B590BCA014D
:1004900002C0820F931F80938021909381218091CD
:1004A0008021909181218F7780936A0008959195A2
:1004B0008195910941E0A5CF0895CF93DF93C09135
:1004C000200AD091210A80910320909104209E015E
:1004D000281B390B209383213093842180919A200B
:1004E00081114BC080918321909184218E3C9F4F3C
:1004F000D4F480918321909184218B369F4F9CF07E
:1005000080910220882321F080910220815008C030
:1005100080916A008093822181E080939A208CE010
:10052000809302202AC08CE0809302208091832156
:10053000909184218A369F4F1CF08FEF9FEF02C06D
:1005400081E090E080937D2190937E2180918321B2
:100550009091842120917D2130917E2160E370E093
:100560000E940217261B370B20937D2130937E219A
:1005700080917D2190917E213EDF80919A20813073
:1005800029F58091832190918421C39794F08091E3
:100590000220882331F08091022081508093022034
:1005A00015C080916A0080937F2183E080939A2018
:1005B0000DC08091832190918421873991051CF48D
:1005C00081E090E002C08FEF9FEF15DFC093032022
:1005D000D0930420DF91CF9108958617970779F083
:1005E0006817790728F49C01261B370BB90109C04D
:1005F0008617970718F4681B790B03C0089560E00D
:1006000070E0CB010895CF93DF938091002090910B
:100610000120892B51F080910020909101200197B9
:10062000809300209093012043C080E490E0809369
:10063000002090930120809107209091082001963E
:10064000B9F1809114019091150120910A20263072
:1006500018F467E771E002C06EEE72E00E94EE16D9
:10066000EC0180910720909108208C179D0758F489
:100670006091072070910820CE01AFDF029718F03B
:1006800080EC9DE511C08091072090910820C8174B
:10069000D90770F46091072070910820CE019DDF8A
:1006A000029730F08FEB9DE58093360A9093370ADE
:1006B000DF91CF910895AC01460F571F861B970B12
:1006C0002091200A3091210A24173507C8F720917C
:1006D000200A3091210A8217930790F70895E0E8E5
:1006E000F6E08FE0808385E0848308951F93CF93A5
:1006F000DF93C0E4D0E0198180E4898340E250E0D8
:1007000068EB7BE280E290E00E94C8101983DF91E1
:10071000CF911F9108951F93CF93DF93C0E4D0E052
:10072000198180E489838BEB95E20E94FE1081E0C1
:100730000E9410111983DF91CF911F9108950895A0
:100740000F931F932091A4208EEE92E0289FA0018A
:10075000299F500D112444525A4D00EA13E02EEE09
:1007600032E060E081E80E94AB141F910F91089580
:100770001CBEEEEFF0E40994B9DF8091B82B88231A
:1007800069F080E2E8EBFBE2ABEBB5E201900D92A1
:100790008A95E1F71092BB25BEDFEADF87E0809300
:1007A000A200789473DDCBDF0E94C70C49D16CD1D5
:1007B00060E080E003D1EFD08CE0E3D0B5D659D72C
:1007C00072D78DDF60E870E28EE891E20E94241714
:1007D0000000000000000000000000000000000019
:1007E00000000000000000000000000080919F2039
:1007F000882371F3E091BA238E2F90E08830910521
:10080000A0F4FC01E250FF4F0C94151768D10DC005
:10081000FCD10BC0B9D209C06ED307C02DD405C01E
:10082000EDD403C0ECD401C084D510929F20D0CF6A
:1008300008950895E0910A208E2F90E08830910568
:1008400090F4FC01EA5FFE4F0C941517DDD10BC04C
:100850009AD209C04FD307C00ED405C0CED403C06E
:1008600067D501C000D680911401809397218091B3
:100870001501809398218091240180939921809182
:10088000250180939A218091200A8093A321809151
:10089000210A8093A421809114019091150186343E
:1008A000914080F08091140190911501893A914016
:1008B00048F480911401909115018093D82B909366
:1008C000D92B00008091A220882339F015DD1092E9
:1008D000A22081E08093A12008958091A120882307
:1008E00041F080919A20833019F418DD8CDE01C02C
:1008F000E4DD8091A020882351F080911401909133
:1009000015018093D82B9093D92B1092A020909111
:10091000A42081E0911180E08093A42008950F939A
:100920001F9381E08093A7208093A22000EA13E028
:100930002DE730E04CED55E260E081E80E94AB1419
:1009400081E01F910F9108951092A720089581E0F2
:10095000089581E0089510922002982F9C71936869
:100960009093200287FF03C080E192E002C080E004
:1009700090E0892B8093210210922202109226028D
:100980000895E0E0F2E010AA836880AB80E181ABDB
:1009900012AA16AA0895E0E0F2E010A683E880A764
:1009A0008FE281A712A616A60895AAECB1E092E004
:1009B0009C93E82FF0E084911C920895909171002F
:1009C0009D7F9093710010920002623011F09CE1C3
:1009D00001C09EE19093010290E490930202811184
:1009E00002C080E401C080EC80930302613011F00A
:1009F00084E001C083E08093040280E2D6DF80932C
:100A00000C0281E2D2DF80930D0210921802109244
:100A1000190281E080930002BECF1F920F920FB6A1
:100A20000F9211248F93000000000000000081E06D
:100A3000809323028F910F900FBE0F901F901895F7
:100A4000CF93DF93E0E7F0E082818B7F8283C0E287
:100A5000D3E08DE0888380E4898389E08A8383E31F
:100A6000A4DF888782E3A1DF898787E39EDF8A8707
:100A700086E39BDF8B87E0E2F6E080818360808302
:100A80001482DF91CF910895E0E7F0E080818E7FBE
:100A9000808380E8809300010895E0E0F1E0108A0F
:100AA00080E4808B10A280A310AA80ABE0E4F1E088
:100AB000108280831092A6201092A5201092A4206C
:100AC00010928C2110928D2110928A2110928B21EC
:100AD00008958093BA2381E080939F200895109217
:100AE0000A20DBDF80910920811105C081E080931D
:100AF000360184E003C01092360184E28093300115
:100B00001092310149E54093320122E020933301F4
:100B100080910C2090910D208093340190933501A9
:100B20008BEB93E2809338019093390110923A0154
:100B30008BE380933C0183E080933D0110923E0162
:100B4000909130019068909330011092460134E208
:100B50003093400110924101409342018093430140
:100B600040910E2050910F20409344015093450135
:100B70004AEA51E2409348015093490110924A01D8
:100B800099E390934C0180934D0110924E01909106
:100B900040019068909340011092100190E490936E
:100BA000100194E0909310018093110185E98093E6
:100BB000120180E18093130187E791E08093140193
:100BC00090931501309318012093190110921A0186
:100BD0008CED95E280931C0190931D0110921E01F3
:100BE00068EC70E084EF91E066DD88EC90E0809343
:100BF00007209093082081E08093062080911001C7
:100C000080688093100108950895CF93C1E0C09348
:100C10000A2043DF1092300180E48093300194E099
:100C20009093300110923101109232018BE4809345
:100C300033011092340110923501109236012BE0ED
:100C400030E2209338013093390110923A0180EA62
:100C500080933C0188E080933D0110923E01809199
:100C60003001806A8093300185E58093A0088093ED
:100C7000A00880910920811105C0C093460190937E
:100C8000400105C01092460184E280934001109219
:100C9000410189E58093420122E020934301809144
:100CA0000C2090910D2080934401909345018BEB93
:100CB00093E2809348019093490110924A018BE39B
:100CC00080934C0183E080934D0110924E019091EE
:100CD000400190689093400134E03093200180936C
:100CE000210195E9909322014BE44093230147E7CA
:100CF00051E0409324015093250160EA609328015C
:100D000068E06093290110922A016AEC78E260930E
:100D10002C0170932D0110922E01309310018093BD
:100D200011019093120180E180931301409314010B
:100D30005093150184E280931801209319011092B9
:100D40001A018CED95E280931C0190931D01109285
:100D50001E0168EC70E084EF91E0ADDC88EC90E07F
:100D6000809307209093082081E080930620809153
:100D70002001806880932001809110018068809319
:100D80001001CF910895089582E080930A2085DEB6
:100D900080910920811105C081E08093360184E0B3
:100DA00003C01092360184E2809330011092310129
:100DB00039E53093320192E09093330140910C2059
:100DC00050910D2040933401509335014BEB53E289
:100DD000409338015093390110923A018BE380938C
:100DE0003C0183E080933D0110923E01209130014F
:100DF0002068209330011092460174E27093400104
:100E000010924101309342018093430120910E20C2
:100E100030910F2020934401309345012AEA31E2BA
:100E2000209348013093490110924A0129E320930D
:100E30004C0180934D0110924E0120914001206899
:100E4000209340011092100120E42093100164E0EF
:100E5000609310018093110155E95093120140E114
:100E60004093130127E731E02093140130931501DB
:100E7000709318019093190110921A01ECEDF5E2AC
:100E8000E0931C01F0931D0110921E01609320015C
:100E90008093210150932201409323012093240148
:100EA0003093250184E380932801909329011092C7
:100EB0002A018AEC98E280932C0190932D011092E4
:100EC0002E0168EC70E084EF91E0F5DB88EC90E0B7
:100ED000809307209093082081E0809306208091E2
:100EE00010018068809310018091200180688093B8
:100EF00020010895089583E080930A20CEDD80913B
:100F00000920811105C081E08093460184E003C07F
:100F10001092460184E2809340011092410129E53C
:100F20002093420182E08093430180910C209091B4
:100F30000D2080934401909345018BEB93E28093C5
:100F400048019093490110924A018BE380934C0130
:100F500083E080934D0110924E0190914001906882
:100F6000909340011092360194E2909330011092D8
:100F70003101209332018093330120910E20309172
:100F80000F2020933401309335012AEA31E2209377
:100F900038013093390110923A0199E390933C0162
:100FA00080933D0110923E019091300190689093A2
:100FB00030011092200160E46093200154E05093CE
:100FC000200110922101109222014BE44093230151
:100FD0001092240110922501109226012BE030E29C
:100FE000209328013093290110922A0130EA30938E
:100FF0002C0128E020932D0110922E0190912001C8
:10100000906A9093200195E59093A00810921001AA
:1010100060931001509310018093110185E9809332
:1010200012014093130187E791E08093140190939C
:101030001501309318012093190110921A018CEDBB
:1010400095E280931C0190931D0110921E0168ECA3
:1010500070E084EF91E02FDB88EC90E08093072034
:101060009093082081E08093062080911001806891
:101070008093100108950895CF93C4E0C0930A208F
:101080000CDD1092300180E480933001C093300178
:1010900010923101109232018BE48093330110924F
:1010A000340110923501109236018BE090E280936A
:1010B00038019093390110923A0180EA80933C0103
:1010C00088E080933D0110923E0180913001806A5A
:1010D0008093300185E58093A008809109208111DB
:1010E00006C081E080934601C093400105C0109284
:1010F000460184E2809340011092410189E580938A
:10110000420182E08093430180910C2090910D2058
:1011100080934401909345018BEB93E280934801C7
:101120009093490110924A018BE380934C0183E034
:1011300080934D0110924E019091400190689093E0
:10114000400154E0509310018093110145E9409310
:1011500012019BE49093130127E731E020931401DF
:101160003093150190EA9093180198E0909319013B
:1011700010921A016CED75E260931C0170931D01D1
:1011800010921E015093200180932101409322016F
:101190008AE480932301209324013093250183EC7A
:1011A000809328019093290110922A018AEC98E2F9
:1011B00080932C0190932D0110922E0168EC70E029
:1011C00084EF91E078DA88EC90E0809307209093A8
:1011D000082081E080930620809110018068809330
:1011E000100180912001806880932001809110017E
:1011F000806180931001CF9108950895FFCF86E01C
:1012000080930A204ADC1092360194E290933001D8
:101210001092310189E58093320183E0809333019C
:1012200020910E2030910F2020933401309335010E
:101230002AEA31E2209338013093390110923A01C1
:1012400029E320933C0180933D0110923E0180915F
:10125000300180688093300180910920811107C09E
:1012600081E08093460184E08093400104C01092A5
:101270004601909340011092410189E5809342011B
:1012800092E09093430120910C2030910D20209307
:101290004401309345012BEB33E220934801309316
:1012A000490110924A018BE380934C0183E08093C3
:1012B0004D0110924E018091400180688093400161
:1012C0001092100180E48093100184E28093100159
:1012D0001092110125E92093120120E120931301BE
:1012E0002CED35E020931401309315018093180103
:1012F0009093190110921A018CED95E280931C01D4
:1013000090931D0110921E0168EC70E084EF91E053
:10131000D2D980E991E0809307209093082081E062
:1013200080930620809110018068809310010895B9
:10133000089587E080930A20B0DB1092360194E292
:10134000909330011092310189E58093320183E05E
:101350008093330120910E2030910F20209334018F
:10136000309335012AEA31E2209338013093390174
:1013700010923A0129E320933C0180933D011092A1
:101380003E01809130018068809330018091092076
:10139000811107C081E08093460184E08093400181
:1013A00004C010924601909340011092410189E5DA
:1013B0008093420192E09093430120910C20309160
:1013C0000D2020934401309345012BEB33E2209311
:1013D00048013093490110924A018BE380934C01FC
:1013E00083E080934D0110924E018091400180680E
:1013F000809340011092100180E48093100185E2F7
:10140000809310011092110185E98093120180E10F
:10141000809313012CED35E02093140130931501D6
:1014200084E2809318019093190110921A018CEDB7
:1014300095E280931C0190931D0110921E0168ECAF
:1014400070E084EF91E037D980E991E08093072044
:101450009093082081E0809306208091100180689D
:1014600080931001089508951F920F920FB60F9266
:1014700011248F939F9381E08093030110921001B8
:1014800084E08093100187E791E0809314019093AA
:1014900015018091A420811103C08EEE92E002C05C
:1014A00080E090E084529A4D80931C0190931D013E
:1014B000809110018068809310019F918F910F900F
:1014C0000FBE0F901F9018951F920F920FB60F929C
:1014D00011248F939F9382E0809303011092200147
:1014E00084E08093200187E791E08093240190932A
:1014F00025018091A420811103C085E694E002C0FB
:1015000087E791E084529A4D80932C0190932D01AE
:10151000809120018068809320019F918F910F908E
:101520000FBE0F901F901895E0E7F0E083818C7F4D
:10153000838384818C7F848380818D7F8083E0E8B6
:10154000F1E080EC8283128688EC81831186A0E032
:10155000B8E034E03C9323E011962C931197149655
:101560001C92149785ED91E096968D939C93979796
:1015700016961C921697E0E4F8E0308321831482DB
:1015800086A397A31682E0E6F6E0808180618083DF
:10159000E0E4F9E083E18183148282E08683A6A3FC
:1015A000B7A310A611A681E0808308951F920F9221
:1015B0000FB60F9211242F933F934F935F938F9306
:1015C0009F93CF93DF931F92CDB7DEB78FEF8093BA
:1015D0004C0980910A20873031F480912C02898354
:1015E00090912D0202C090912C028091A320891B22
:1015F000209168093091690982308CF02A3F374088
:1016000070F4209168093091690989301CF481E0F7
:1016100090E002C086E090E0820F931F18C02091F6
:101620006809309169098F3FB4F42730310598F08B
:101630002091680930916909883F1CF081E090E0B1
:1016400002C086E090E0A901481B590BCA018093B3
:101650007809909379090F90DF91CF919F918F91A5
:101660005F914F913F912F910F900FBE0F901F9060
:101670001895E0E7F0E083818F7E8383E0E4F6E075
:1016800080818A6A80838FEF848388E5828BE0EA99
:10169000F8E080E3838384EC858387E08683178288
:1016A00088E184830895E0E7F0E08381877F838386
:1016B000E0ECF8E0118288E58093550680E68083AF
:1016C00008951F920F920FB60F92112400000F90F1
:1016D0000FBE0F901F9018951F920F920FB60F928A
:1016E00011248F93EF93FF93E0EAF8E080818083E9
:1016F000FF91EF918F910F900FBE0F901F90189553
:101700009FB7F894A0E5B0E016968C911697897F64
:1017100016968C931697E0E6F0E080E885838BEBD5
:10172000868316968C911697846016968C9380818A
:10173000816080839FBF08959FB7F894E82FF0E001
:10174000E059FF4F60958081682360839FBF0895B3
:10175000CF93863011F0C0E001C0C8E18091510004
:1017600081FD0DC09FB7F8948091500082608093F6
:1017700050009FBF8091510081FFFCCFC1DF6C2FD3
:10178000636084E490E0E9D460E480E0CF91D4CF5A
:101790008091A82008958091A820813009F4D4C8B0
:1017A0000895F0D0FC0183818093A820811101C0AD
:1017B000B6C881E008959091AA23892F807697FF7B
:1017C00007C0803491F48091AB2381110EC0C1C851
:1017D000803459F48091AB23811107C08091B023EC
:1017E0009091B123892B09F0B2C880E008958091CF
:1017F000AC238F770C9435149091B020911102C0D6
:1018000080E00895E091AD20F091AE200190F0814C
:10181000E02D94818917A0F7E093AB20F093AC20E2
:10182000228133812E0F3F1FE217F30798F4918135
:10183000943061F49281891309C09381691306C0C1
:10184000E093AB20F093AC2081E008959081E90F04
:10185000F11DEACFE093AB20F093AC20D1CFE09123
:10186000AD20F091AE200190F081E02D22813381F6
:101870002E0F3F1FFC014081E40FF11DE217F3071B
:1018800048F48181843031F0853039F08081E80F6F
:10189000F11DF4CF80E090E00895CF0108951F93EB
:1018A000CF93DF93182FA8DF882339F1C091AB20A5
:1018B000D091AC20CE01D3DFEC01892B41F04C81DB
:1018C0005D816B818A81DED78111F4CF16C0E091F2
:1018D000AD20F091AE2092818381E92FF82FE10FA6
:1018E000F11DE10FF11D0190F081E02D0190F081DB
:1018F000E02DDF91CF911F91099480E0DF91CF918E
:101900001F910895EF92FF921F93CF93DF93C82FFB
:1019100060E072DF811102C010E02DC0E091AD20C7
:10192000F091AE2092818381E92FF82FEC0FF11D09
:10193000EC0FF11DE080F180D7011696ED91FC913E
:1019400017970995682F8C2F57DF182F882321F3BD
:10195000C091AB20D091AC20CE0181DFEC01892B6E
:1019600021F08A810E945515F7CFD7011296ED918B
:10197000FC9113970995812FDF91CF911F91FF90D3
:10198000EF9008958091AB209091AC2008950FC7FF
:10199000CF938091B020882311F0C0E008C010924E
:1019A000B0201092B4201092B520CF910895E0910C
:1019B000AD20F091AE200190F081E02D8481C81718
:1019C00070F78C2F9FDFCF5FF2CFCF938091B02045
:1019D0008823F1F0C0E0E091AD20F091AE20A0812D
:1019E000B18114968C91C81798F492818381E92F64
:1019F000F82FEC0FF11DEC0FF11D0190F081E02D9F
:101A00000084F185E02D309709F00995CF5FE3CF91
:101A1000CF9108950F931F93CF93DF931092B42328
:101A20001092B5231092B6231092B7231092B823C8
:101A30001092B9238091AA2387FF07C02091B02379
:101A40003091B123232B09F482C38076803409F0CE
:101A50003CC1E091AB238E2F90E0FC01E05AF109EC
:101A6000E331F10508F031C1E25FFE4F0C94151728
:101A700081E08093A020809107209091082080939E
:101A80009B21809107209091082090939C21809128
:101A9000822180939D2180917F2180939E2180913E
:101AA0006A0080939F2180916B008093A0216091B8
:101AB000B0237091B1238EE891E201C11092000829
:101AC0008091AC239091AD23809336089093370892
:101AD0008091AE238F70809300086091B023709145
:101AE000B1238AEA91E2C7D68091B0239091B123C5
:101AF00020910E2030910F208217930709F4F2C233
:101B000080930E2090930F2045C081E080930920A0
:101B1000109240088091AC239091AD238093760879
:101B2000909377088091AE238F70809340086091E6
:101B3000B0237091B1238BEB93E29DD68091B023BB
:101B40009091B12320910C2030910D2082179307A2
:101B5000E9F4C8C210920920109240088091AC2389
:101B60009091AD2380937608909377088091AE236F
:101B70008F70809340086091B0237091B1238BEBFC
:101B800093E279D68091B0239091B12380930C2079
:101B900090930D2080910A205EC0109268091092E7
:101BA00069098091AC238093A3209CC28091AC23CF
:101BB0008093240697C2E091AC23F091AD23E830E6
:101BC000F10508F082C0EF5DFE4F0C94151760E040
:101BD00080E00E94DE048091AE230E94AB0480E08E
:101BE0003AC060E080E00E94DE048091AE230E9453
:101BF000AB0481E030C061E081E00E94DE048091AE
:101C0000AE230E94AB048091AF230E94C10482E006
:101C100022C083E020C084E01EC060E080E00E941B
:101C2000DE048091AE230E94AB0485E014C061E025
:101C300080E00E94DE048091AE230E94AB0486E027
:101C40000AC062E080E00E94DE048091AE238068DA
:101C50000E94AB0487E00E94690544C28091AC23D6
:101C6000809384063FC28091AC239091AD23892B51
:101C700091F00E94760380E2E8EBFBE2ABEBB5E289
:101C800001900D928A95E1F781E08093BB250E9437
:101C90008B030E947603E9E7F0E091E088EDF89489
:101CA00084BF90836091B0237091B1238AE890E261
:101CB00006C06091B0237091B12389E890E2DBD532
:101CC00011C20E948F0481110DC28091AA23982F06
:101CD000907609F0C9C187FFFBC02091B0233091F5
:101CE000B1232115310509F4BFC18F7109F09EC0E0
:101CF0008091AB23863071F0883009F48EC0811159
:101D0000B3C12230310509F0AFC162E070E084EB6D
:101D100090E2D5CF8091AC239091AD23292F33272A
:101D200022303105A1F060F42130310509F09CC169
:101D300080911A2090911B20DC016C9170E05BC0B7
:101D40002330310589F12F30310509F18DC1E09142
:101D50001A20F0911B202189821708F085C199274C
:101D6000880F991F880F991FE0911C20F0911D206A
:101D7000E80FF91F80819181FC01628173817BD51D
:101D8000E091B223F091B32382E0818335C080914A
:101D90001E2090911F20009709F466C1DC01129665
:101DA0006D917C91139727C099278130910569F037
:101DB00038F0029709F058C168E08AE690E208C05E
:101DC00064E070E08CE790E216C067E083E790E2A1
:101DD000282FAAE5B0E2FC01819190E08D939D93BC
:101DE0008E2F821B8617C0F3660F6E5F609358209C
:101DF00070E088E590E23FD58091B0239091B123C7
:101E00002091B4233091B5238217930708F06AC15B
:101E10008093B4239093B52365C12130310509F037
:101E200023C161E070E080EB90E249CF8130C1F5E1
:101E30008091AB238A3009F017C12130310509F0B8
:101E400013C18091B020882309F40EC1C091AE2344
:101E5000D091AF230091AD201091AE20D801ED912B
:101E6000FC918481C81708F0FFC060E08C2FC4DCAF
:101E7000882309F4F9C0DD27CC0FDD1FF80182812A
:101E80009381C80FD91FE881F9810680F781E02D81
:101E900009958093B22061E070E082EB90E20FCF71
:101EA000823009F0E1C08091AB238111DDC0223086
:101EB000310509F0D9C08091AE232DD590E08093F3
:101EC000A9209093AA2062E070E089EA90E2F7CE20
:101ED0008F7109F07DC08091AB23833009F4C4C0B9
:101EE00018F48130A1F0C0C0853019F0893039F183
:101EF000BBC08091B0239091B123892B09F0B4C06D
:101F000087EF9BE08093B6239093B723EBC080913B
:101F1000B0239091B123892B09F0A6C08091AC2306
:101F20009091AD23019709F09FC08091B4209091CA
:101F3000B5208D7F8093B4209093B520D3C080913D
:101F4000B0239091B123892B09F08EC091D48823BE
:101F500009F48AC02091AC233091AD233327E0915E
:101F60001A20F0911B20818990E08217930708F4D2
:101F70007BC00EDD8091AC239091AD238093B02087
:101F8000882309F4AFC099278150904C880F991F7E
:101F9000880F991F20911C2030911D20820F931FC4
:101FA0008093AD209093AE20C0E0E091AD20F09101
:101FB000AE200190F081E02D8481C81708F092C016
:101FC00060E08C2F6CDC882309F44EC0CF5FEDCF2E
:101FD0008130E9F48091AB238B3009F045C08091CA
:101FE000B0239091B123892B09F03EC08091B0209D
:101FF000882309F439C0C091AE23D091AC238C2F33
:1020000081DC882389F16D2F8C2F49DC2BC0823035
:1020100059F58091AB23813019F0833089F024C0C9
:102020008091B0239091B123892BF1F48091AC235E
:102030009091AD23892BC1F48091AE2373D412C04B
:102040008091B0239091B123892B71F48091AC23BE
:102050009091AD23892B41F48091AE23F6D48091E9
:10206000AE232CD581113EC08091AA238F7181307F
:10207000D9F58091B020882309F469C0C091AE23BE
:10208000D091AF230091AD201091AE20D801ED91F9
:10209000FC918481C81708F05AC060E08C2FACDB3B
:1020A000882311F1FE01FF27EE0FFF1FD8011296C2
:1020B0008D919C911397E80FF91F00811181D80130
:1020C0001696ED91FC9117970995682F8C2F94DB4C
:1020D000882351F0D8011496ED91FC91159709953C
:1020E000882311F081E034C08091AA238F7182305F
:1020F00071F58091B020882351F1C0E0E091AD20CE
:10210000F091AE20A081B18114968C91C817F8F49B
:1021100092818381E92FF82FEC0FF11DEC0FF11D57
:1021200000811181D8011696ED91FC9117970995C0
:10213000682F8C2F61DB882351F0D8011496ED9124
:10214000FC91159709958111CDCFCF5FD7CF80E056
:10215000DF91CF911F910F9108951BBEFC0128EDD7
:1021600024BF608308958091CF0187FDFCCF08953F
:102170001F93CF93DF93C0ECD1E01A858A8761E08B
:102180008BEC91E0EADF1A87DF91CF911F910895E0
:10219000CF92DF92EF92FF920F931F93CF93DF9333
:1021A0008C017B016A01DFDFCCECD1E088818860A3
:1021B0008883B801705FA601C7013DD68881877FFB
:1021C0008883DF91CF911F910F91FF90EF90DF9067
:1021D000CF900895CF93DF93C82FD62FC4DFACECF8
:1021E000B1E08C9188608C93EC2FF0E0F05FD083AD
:1021F0008C91877F8C93DF91CF9108950F931F93DC
:10220000CF938C01B0DFC0E0F80161918F018C2F7A
:10221000E1DFCF5FC032C1F7CF911F910F910895D9
:10222000CF93C82FA0DF20E2C29FC0011124E0ECB1
:10223000F1E012829183808385E3CF9199CF409121
:10224000CA01E62FF72F8093CA0184914093CA01F7
:102250000895E82FF0E0E652F44D80818F3F09F4B5
:10226000FFCF9FB7F89480818F5F80839FBF0895D1
:10227000E82FF0E0E652F44D8081811101C0FFCFDC
:102280009FB7F8948081815080839FBF0895CF933A
:10229000C82F80917C21C11105C0882339F081E0CD
:1022A000E7DF04C0811102C081E0D3DFC0937C214D
:1022B000CF910895282F2F70082E000C990B392FDD
:1022C000331F3327331F832F90E0820F911D820F1E
:1022D000911D23E0880F991F2A95E1F7885A9E4D9A
:1022E00008950F93E8ECF4E080818F7D80838081F6
:1022F0008F7D8083E0E6F1E202E005931092622197
:102300001092632100E2069300E40693E8E5F1E20F
:1023100000E2069300E40693EAEAF3E214861586E7
:10232000168617861286138610924D210F910895F6
:102330000F9385E080934D21E1E6F1E204E00593FF
:10234000E9E5F1E204E005930F9108950F9383E02E
:1023500080934D211092622110926321E0E6F1E218
:1023600002E006930F910895E091B623F091B72310
:10237000309709F009940895282F2F70082E000C2B
:10238000990B392F331F3327331F832F90E0820F90
:10239000911D820F911D029749E0489F9001499F2E
:1023A000300D1124C90189509F4D0895AF92BF92FD
:1023B000DF92EF92FF920F931F93CF93DF93D82E6C
:1023C000DBDFEC018D2D76DF7C01DC011196EC91D9
:1023D000E770E150E73040F4F0E0EE0FFF1FE45704
:1023E000FF4D0081118102C008E010E02D813E8187
:1023F0008B819C814881D7FE4AC0F7016681778135
:10240000260F371F2D833E8328173907A1F1BC0102
:10241000621B730B9B01211574E0370738F02FEF17
:1024200033E0C901B801DAD4281B390B41FF0AC0D7
:10243000C901B801D3D4AC0191E0452B09F090E07B
:10244000892F01C080E0988180FB91F99883D701A2
:1024500016961D921C92179712962D933C931397E4
:1024600029813A818D819E81820F931F14968D93CD
:102470009C93159708C041FF78C04D7F4883168212
:10248000178212821382F70102E0069385C0D701FA
:102490001296AD90BC90139742FF0FC0E981FA816C
:1024A000B8019CD4B0E4DB9EB001112469587F4D83
:1024B000AC01CF01820F931FBED42D813E812A0D26
:1024C0003B1D2D833E838B819C818217930710F4E3
:1024D0008D839E83F70126813781A216B30609F00A
:1024E00044C02D813E818217930709F43EC0AC01A0
:1024F000421B530B9A01211554E0350750F02FEF82
:1025000033E0C901B8016AD4B901681B790BCB016A
:1025100007C0C901B80162D4D901A81BB90BCD010C
:10252000F701128213828017910798F488818460E2
:102530008883F0E4DF9EC001112489589F4DD701A4
:1025400014968D939C93159716960D931C9317973D
:102550009ACF49815A812D813E81240F351FF70181
:1025600024833583868397838ECF888180FF14C030
:102570008E7F8883EF81F885309771F06D817E8141
:102580004D2D80E0DF91CF911F910F91FF90EF9043
:10259000DF90BF90AF900994DF91CF911F910F9181
:1025A000FF90EF90DF90BF90AF9008950F93CF937F
:1025B000DF9380914D21833029F4D6DEDF91CF91D6
:1025C0000F918FCE2091492130914A21C091B4239F
:1025D000D091B523C21BD30B61F580914B21909113
:1025E0004C21820F931F80934B2190934C2120917B
:1025F000B0233091B1238217930721F08091B62048
:10260000882331F084E080934D21E8E5F1E236C083
:10261000E091B823F091B923309799F00995882378
:1026200081F01092492110924A21C091B423D09197
:10263000B523C034D10528F01092B620C0E4D0E014
:1026400003C081E08093B620C0936221D0936321C0
:102650008091492190914A212091B2233091B32356
:10266000280F391F2093642130936521C80FD91F8B
:10267000C0934921D0934A21E0E6F1E202E00693BB
:10268000DF91CF910F9108950F93CF938091CC0458
:1026900080FF63C021E02093CC0488E591E2FC0137
:1026A00000E80693E0E6F1E200E806932093CA040E
:1026B000FC0100E1069380914D21882329F083508D
:1026C000823008F451DE0DDE80915A2190915B2119
:1026D000089709F044C088E0E9E0F1E2AAEAB3E231
:1026E00001900D928A95E1F78091C80480628093F1
:1026F000C8048091C80480628093C8048BD9C82F15
:10270000811102C015DE2BC08091AA2387FF0DC066
:1027100010924B2110924C211092492110924A2183
:1027200082E080934D2142DF1BC08091B0239091C5
:10273000B123892B11F40ADE13C010924B211092A1
:102740004C211092492110924A2181E080934D2121
:10275000E8E5F1E202E0069303C0C0E001C0C1E099
:102760008C2FCF910F910895CF93CFB7F89481E03C
:102770008EDDEAECF4E080E4808380E28083E1ECAB
:10278000F4E0808181608083A9ECB4E08C91826068
:102790008C93E8ECF4E08081806480838C9181608C
:1027A0008C93808180688083CFBFCF910895CF9331
:1027B0001092600080E30E94A80B8091C0048064A6
:1027C0008093C00481E080936000CFB7F8941092AA
:1027D00059211092612110926921109271218091EA
:1027E000F7208E7F8093F720809100218E7F809349
:1027F00000216AE170E082E022DD8F3F09F48FE181
:102800008093FA046BE170E082E019DD8F3F09F4F8
:102810008FE18093FB048091C00481608093C004A9
:102820008091C00480688093C0048091C00480615E
:102830008093C00488E591E28093C6049093C70416
:102840008091C00480628093C0048FEF8093C504A0
:102850008091C80482608093C80410927C2185E036
:10286000F8DC82DFCFBFCF9108958093C304089531
:102870008091C3040895EAEAF3E280879187628732
:10288000738708951F93CF93DF93162FEA0112DD0C
:10289000FC018181807CD1F5612F6370613019F07A
:1028A00020F080E803C080EC01C080E4C038D1058E
:1028B000E1F050F4C032D105A1F0C034D10599F057
:1028C0006097C9F491E018C0C11592E0D90779F07A
:1028D000CF3F93E0D90769F0C115D14061F495E08D
:1028E0000BC092E009C093E007C094E005C096E0F9
:1028F00003C097E001C090E0118226E02083982B6E
:10290000918381818062818381E001C080E0DF91D9
:10291000CF911F910895CEDCFC01818182FB882735
:1029200080F90895CF93C82FC5DCFC01818182FF17
:102930000FC081818B7F81838C2F1EDDFC019081F4
:1029400090FF06C09E7F90830780F085E02D09955B
:1029500081E0CF910895AF92BF92CF92DF92EF9234
:10296000FF920F931F93CF93DF93D82EC62E5A0159
:10297000790102DDEC018D2D9DDC9C01DC011196BD
:102980008C911197807C09F454C011968C91119709
:10299000807C803C21F011968C9182FD4AC09FB7CB
:1029A000F894888180FF02C09FBF43C08160888304
:1029B0009FBFA982BA82EB82FC821D821E820F8396
:1029C000188791E0C11004C0E114F10409F090E00F
:1029D000888190FB81F98B7F8883D7FE02C0F90143
:1029E00022C0D90111968C911197807C803CC1F452
:1029F0001196EC91E770E150E73040F4F0E0EE0F13
:102A0000FF1FE457FF4D6081718102C068E070E0F4
:102A1000C701E4D1892B21F088818E7F888309C08A
:102A2000F90112821382168217828D2DBFDC81E09C
:102A300001C080E0DF91CF911F910F91FF90EF9047
:102A4000DF90CF90BF90AF900895EF92FF920F93D9
:102A5000CF93C82F2FDC7C018C2F8EDCDC01F7019B
:102A600002E005939C9190FF1BC09E7F9C9317965C
:102A7000ED91FC911897309799F0D701C7FF05C0E9
:102A800016966D917C91179704C012966D917C916A
:102A900013974C2F81E0CF910F91FF90EF90099405
:102AA000CF910F91FF90EF900895CF93C82FCDDF76
:102AB0008C2F00DCFC011182CF9108950F93CF93EE
:102AC000C82FF8DBFC0181818460818301E00693DB
:102AD0008C2FBBDF81E0CF910F9108951F920F9251
:102AE0000FB60F9211240F932F933F934F935F9341
:102AF0006F937F938F939F93AF93BF93EF93FF93C6
:102B00008091CB0487FF08C080E88093CA040E94AC
:102B1000E50C0E941A047EC08091CB0482FF18C08D
:102B200084E08093CA048091602186FF73C0809105
:102B3000CC0481FD6FC0A8DD81116CC080914D2156
:102B4000813011F403DC66C0843009F063C021C019
:102B50008091CB0481FF26C082E08093CA048091DB
:102B6000582186FF57C08091CC0481FD53C08CDD75
:102B7000811150C080914D21823041F484E08093D6
:102B80004D21E8E5F1E202E0069344C0833009F00C
:102B900041C0E1E6F1E204E00593E9E5F1E204E099
:102BA000059338C08091CB0484FF1DC080E18093E1
:102BB000CA040E94C80C1092C3041092592196E0D6
:102BC0009093582183E4809359211092612190932E
:102BD00060218093612189E091E280935C21909350
:102BE0005D217FDB17C08091CB0486FF08C080E4A5
:102BF0008093CA0480E04BDB0E9418040BC08091D4
:102C0000CB0485FF07C080E28093CA0481E03FDBEC
:102C10000E941904FF91EF91BF91AF919F918F9105
:102C20007F916F915F914F913F912F910F910F90F5
:102C30000FBE0F901F9018951F920F920FB60F9214
:102C400011240F931F932F933F934F935F936F9391
:102C50007F938F939F93AF93BF93CF93DF93EF9324
:102C6000FF938091CC0481FF1AC082E08093CC0452
:102C70008091C5048195880FE8E5F1E2E81BF10930
:102C8000208131812855314283E0369527958A95F8
:102C9000E1F7822F869520FD06C0C0E005C0F4DC78
:102CA000882319F386C0C0E8C80F8C2F03DBFC0112
:102CB000208125FF7EC000E20693C11174C080917F
:102CC0004D21843019F450DB0CDB73C000915A2184
:102CD00010915B218091B4239091B523C09149213B
:102CE000D0914A2198012C0F3D1F8217930718F4A9
:102CF0008C010C1B1D0B8091B2239091B323A80172
:102D000069E071E28C0F9D1F96D0C00FD11FC09358
:102D10004921D0934A210034110569F480914B2157
:102D200090914C218C0F9D1F2091B0233091B123A5
:102D30008217930788F0C093B423D093B523E09112
:102D4000B823F091B923309729F00995811102C079
:102D5000EFDA2FC0FBDA2DC08091B4239091B52318
:102D6000C817D907D9F4E091B823F091B923309767
:102D700079F30995882361F320914B2130914C21FF
:102D80008091492190914A21820F931F80934B217A
:102D900090934C211092492110924A21E8E5F1E2EA
:102DA00002E0069306C0C03811F400DC02C08C2F8C
:102DB000FDDAFF91EF91DF91CF91BF91AF919F919C
:102DC0008F917F916F915F914F913F912F911F91C3
:102DD0000F910F900FBE0F901F901895AA1BBB1B51
:102DE00051E107C0AA1FBB1FA617B70710F0A61B0B
:102DF000B70B881F991F5A95A9F780959095BC012C
:102E0000CD01089597FB072E16F4009406D077FDA8
:102E100008D0E4DF07FC05D03EF4909581959F4FE4
:102E20000895709561957F4F0895EE0FFF1F0590EF
:102E3000F491E02D0994FB01DC0102C001900D9298
:102E400041505040D8F70895FB01DC0101900D92EC
:0A2E50000020E1F70895F894FFCF89
:102E5A0040000CE02E0AFFFFFF01FF5580008000B2
:102E6A00D10BCB0BDB0BC80B000044202020000049
:102E7A0028202420102000000902190001010080E6
:102E8A00FA0904000001FFFFFF0007058101FF03A3
:102E9A00010000001201000200000040EB0394BA96
:102EAA00000201020001000000030000000000000F
:102EBA00000000000000000000004C6162726164C2
:102ECA006F72004573706F54656B00000403090448
:102EDA006465627567313233000207001000200012
:0A2EEA004000800000010002FF0319
:00000001FF
