S01500005553425F42554C4B5F544553542E73726563F9
S11300001DC1000037C1000035C1000033C100002C
S113001031C100002FC10000F1C5000025C6000059
S113002059C6000061C6000025C1000023C10000BC
S113003021C100001FC100001DC100001BC1000040
S113004019C1000017C1000015C1000013C1000050
S113005011C100000FC100000DC100000BC1000060
S11300601BC7000007C1000005C1000003C1000058
S113007001C10000FFC00000FDC00000FBC0000083
S1130080F9C00000F7C00000F5C00000F3C0000094
S1130090F1C00000EFC00000EDC00000EBC00000A4
S11300A0E9C00000E7C00000E5C00000E3C00000B4
S11300B0E1C00000DFC00000DDC00000DBC00000C4
S11300C0D9C00000D7C00000D5C00000D3C00000D4
S11300D0D1C00000CFC00000CDC00000CBC00000E4
S11300E0C9C00000C7C00000C5C00000C3C00000F4
S11300F0C1C00000BFC00000BDC00000BBC0000004
S1130100B9C00000B7C00000B5C00000B3C0000013
S1130110B1C00000AFC00000ADC00000ABC0000023
S1130120A9C00000A7C00000A5C00000A3C0000033
S1130130A1C000009FC000009DC000009BC0000043
S113014099C0000097C0000095C000001CC60000C4
S113015091C000008FC000008DC000008BC0000063
S113016089C0000087C0000085C0000083C0000073
S113017081C000007FC000007DC000007BC0000083
S113018079C0000077C0000075C0000073C0000093
S113019071C000006FC000006DC000006BC00000A3
S11301A069C0000067C0000065C0000063C00000B3
S11301B061C000005FC000005DC000005BC00000C3
S11301C059C0000057C0000055C0000053C00000D3
S11301D051C000004FC000004DC000004BC00000E3
S11301E049C0000047C0000045C0000043C00000F3
S11301F041C000000C941E110C94D411BB01BD012C
S1130200BF01C101C301C801C501C7018A098C0925
S1130210B309E609EF09F409410A460A070A100A74
S11302201D0A1F0A210A2A0A340A3F0A000A090A77
S1130230120A1F0A210A230A2C0A360A11241FBE95
S1130240CFEFCDBFDFE2DEBF10E2A0E0B0E2E6E92F
S1130250F5E202C005900D92A03CB107D9F72CE25B
S1130260A0ECB0E201C01D92A536B207E1F73BD085
S11302700C94C912C5CEE0E8F6E08FE0808385E0F7
S11302808483089508954091C1202EEE32E0429F68
S1130290C001439F900D112443E451E06AEF70E0E4
S11302A08E57994DCEC64091C1202EEE32E0429F2A
S11302B0C001439F900D112443E551E06AEF70E0C3
S11302C08458984DCAC64091C1202EEE32E0429F18
S11302D0C001439F900D112443E651E06AEF70E0A2
S11302E08A58974DC6C687E08093A2007894FBD5C0
S11302F0C9DF9AD7DAD0FDD060E080E0A7D093D0F0
S11303008CE087D0FBD4A2D5B9D5B5DF22E836E29C
S113031020937F2480E799E28093802430936D2298
S113032090936C2229EF37E22093672287EE9AE2BA
S113033080935E2C30936E2490936622000000001C
S113034000000000000000000000000000000000A9
S11303500000000000000000F1CF08950895E0912E
S113036000208E2F90E08830910590F4FC01E2503B
S1130370FF4F0C94BA124ED10BC0C5D109C03BD269
S113038007C0B6D205C02BD303C0D4D301C035D423
S1130390F8949091C12081E0911180E08093C12074
S11303A07894089581E08093C42043E451E06EEE94
S11303B072E082E896E245D643E551E06EEE72E0E3
S11303C08CE797E24AD643E651E06EEE72E086E7A8
S11303D098E24FD681E008951092C420089581E0F8
S11303E0089581E0089510922002982F9C719368DB
S11303F09093200287FF03C090E182E002C090E066
S113040080E0892B8093210210922202109226020E
S11304100895E0E0F2E010AA836880AB80E181AB4C
S113042012AA16AA0895E0E0F2E010A683E880A7D5
S11304308FE281A712A616A60895AAECB1E092E075
S11304409C93E82FF0E084911C92089590917100A0
S11304509D7F9093710010920002623011F09CE134
S113046001C09EE19093010290E4909302028111F5
S113047002C080E401C080EC80930302613011F07B
S113048083E001C082E08093040280E2D6DF80939F
S11304900C0281E2D2DF80930D02109218021092B6
S11304A0190281E080930002BECFCF93DF93E0E78F
S11304B0F0E082818B7F8283C0E2D3E08DE0888389
S11304C080E4898389E08A8383E3B7DF888782E3D2
S11304D0B4DF898787E3B1DF8A8786E3AEDF8B8762
S11304E0E0E2F6E08081836080831482DF91CF9123
S11304F00895E0E7F0E080818E7F808382E8809336
S113050000010895E0E0F1E0108A80E4808B10A2FD
S113051080A310AA80ABE0E4F1E010828083109203
S1130520C3201092C22081E08093C12008951092CC
S11305300020E8DFE0E0F1E016AA94E290AB11AA13
S113054049E542AB32E033AB609102207091032065
S113055064AB75AB61E874E260AF71AF12AE8BE36C
S113056084AF83E080933D0110923E0120A920686E
S113057020AB10924601A0E4B1E09C93109241019B
S113058040934201809343014091042050910520FF
S113059040934401509345014EE652E24093480192
S11305A05093490110924A0129E320934C0180930E
S11305B04D0110924E012C9120682C93108A20E456
S11305C0208B24E0208B818B81E9828B80E1838BDB
S11305D047E751E0448B558B908F318F128E4091B9
S11305E0C3202EEE32E0429FC001439F900D1124A0
S11305F08E57994D848F4091C320429FC001439FE1
S1130600900D11248E57994D958F168E8089806890
S1130610808B08950895CF93DF9381E08093002029
S113062071DFE0E0F1E010AA80E480AB94E090ABED
S113063011AA12AA5BE453AB14AA15AA16AA21E0C4
S113064030E220AF31AF12AE40EA44AF38E030932D
S11306503D0110923E0180A9806A80AB85E58093BC
S1130660A00810924601A0E4B1E0D4E2DC93109219
S1130670410189E580934201C2E0C0934301609146
S1130680022070910320609344017093450161E856
S113069074E2609348017093490110924A018BE31C
S11306A080934C0183E080934D0110924E012C9174
S11306B020682C93908B818BA1E9A28B20E1238B62
S11306C067E771E0648B758BD08FC18F128EC2E89F
S11306D0D6E2C48FD58F168E20892068208B90A3F4
S11306E081A3A2A353A364A375A340A731A712A611
S11306F089EF97E284A795A716A680A1806880A3B6
S1130700DF91CF9108950895CF93F894C2E0C093F8
S11307100020F8DEE0E0F1E016AA94E290AB11AA22
S113072039E532AB83E083AB40910420509105203E
S113073044AB55AB4EE652E240AF51AF12AE29E3A3
S113074024AF80933D0110923E0120A9206820AB84
S113075010924601A0E4B1E09C93109241013093C1
S11307604201809343012091022030910320209381
S113077044013093450121E834E220934801309349
S1130780490110924A012BE320934C0180934D01BF
S113079010924E012C9120682C9354E0508B818B45
S11307A041E9428BC38B27E731E0248B358B908F53
S11307B0C18F128E62E876E2648F758F168E50A315
S11307C081A342A381E083A324A335A384E380A768
S11307D0C1A712A689EF97E284A795A716A68089D8
S11307E08068808B00C000C0000080A1806880A366
S11307F07894CF9108950895CF93C3E0C0930020D7
S113080081DEE0E0F1E010A250E450A344E040A314
S113081011A212A23BE433A314A215A216A281E0F2
S113082090E280A791A712A620EA24A798E095A7B2
S113083016A680A1806A80A385E58093A00816AAE5
S113084074E270AB11AA69E562ABC3ABA09104205A
S1130850B0910520A4ABB5ABAEE6B2E2A0AFB1AFA8
S113086012AE89E384AFC0933D0110923E0180A98A
S1130870806880AB10924601A0E4B1E07C931092B2
S113088041016093420182E0809343016091022020
S113089070910320609344017093450161E874E210
S11308A0609348017093490110924A018BE380934D
S11308B04C01C0934D0110924E018C9180688C9331
S11308C0108A508B408BC18B81E9828B338B47E735
S11308D051E0448B558B208F918F128E82E896E2E3
S11308E0848F958F168E80898068808BCF91089530
S11308F00895CF93C4E0C093002004DEE0E0F1E06B
S113090010A280E480A3C0A311A212A24BE443A3CB
S113091014A215A216A281E090E280A791A712A6C4
S113092060EA64A788E085A716A690A1906A90A3C0
S113093095E59093A00810924601A0E4B1E094E2FA
S11309409C931092410199E59093420192E0909317
S113095043012091022030910320209344013093DD
S1130960450121E834E22093480130934901109273
S11309704A019BE390934C0193E090934D011092B4
S11309804E012C9120682C93C08B918B31E9328BD2
S1130990438B47E751E0448B558B608F818F128ED8
S11309A062E876E2648F758F168E20892068208B2A
S11309B0C0AB91AB32AB9AE493AB44AB55AB93EC85
S11309C090AF81AF12AE89EF97E284AF90933D016F
S11309D010923E0180A9806880ABCF91089508955C
S11309E085E0809300208EDDE0E0F1E016AA34E299
S11309F030AB11AA29E522AB83E083AB40910420FC
S1130A005091052044AB55AB4EE652E240AF51AF96
S1130A1012AE99E394AF80933D0110923E0190A9E8
S1130A20906890AB10924601E0E4F1E030831092BC
S1130A30410120934201809343012091042030918D
S1130A400520209344013093450121E834E22093AA
S1130A5048013093490110924A019BE390934C0161
S1130A6080934D0110924E018081806880830895A7
S1130A7086E08093002046DDE0E0F1E016AA94E2EF
S1130A8090AB11AA39E532AB83E083AB40910420EB
S1130A905091052044AB55AB4EE652E240AF51AF06
S1130AA012AE29E324AF80933D0110923E0120A9A8
S1130AB0206820AB10924601A0E4B1E09C93109210
S1130AC041013093420132E03093430140910220CE
S1130AD050910320409344015093450141E854E26E
S1130AE0409348015093490110924A012BE320930B
S1130AF04C0180934D0110924E012C9120682C934F
S1130B00108A20E4208B24E0208B818B81E9828B66
S1130B1080E1838B4EEE52E0448B558B908F318F66
S1130B20128E82E896E2848F958F168E8089806873
S1130B30808B0895089587E080930020E3DCE0E053
S1130B40F1E016AA94E290AB11AA39E532AB83E046
S1130B5083AB409104205091052044AB55AB4EE645
S1130B6052E240AF51AF12AE29E324AF80933D016E
S1130B7010923E0120A9206820AB10924601A0E407
S1130B80B1E09C93109241013093420132E03093E2
S1130B90430140910220509103204093440150931B
S1130BA0450141E854E240934801509349011092B1
S1130BB04A012BE320934C0180934D0110924E0186
S1130BC02C9120682C93108A20E4208B25E0208B24
S1130BD0818B81E9828B80E1838B4EEE52E0448BE2
S1130BE0558B908F318F128E82E896E2848F958F89
S1130BF0168E80898068808B089508951F920F92C5
S1130C000FB60F9211248F939F9387E791E08093FF
S1130C101401909315018091C320882339F08091A9
S1130C20802480931C0180916C2206C080917F24D3
S1130C3080931C0180916D2280931D01809110018D
S1130C408068809310019091C32081E0911180E02D
S1130C508093C32081E0809303019F918F910F9033
S1130C600FBE0F901F9018951F920F920FB60F9200
S1130C7011248F939F9387E791E0809324019093AD
S1130C8025018091C220882339F080915E2C8093C5
S1130C902C018091662206C08091672280932C01EA
S1130CA080916E2480932D0180912001806880932F
S1130CB020019091C22081E0911180E08093C220B4
S1130CC082E0809303019F918F910F900FBE0F904C
S1130CD01F9018951F920F920FB60F9211240F9028
S1130CE00FBE0F901F9018951F920F920FB60F9280
S1130CF011240F900FBE0F901F901895E0E7F0E0BD
S1130D0083818C7F838384818C7F848380818D7FA6
S1130D108083E0E8F1E080EC8283128680E28183C4
S1130D20118682E280831086A0E0B8E034E03C9330
S1130D3023E011962C93119714961C92149785ED29
S1130D4091E096968D939C93979716961C9216977E
S1130D50E0E4F8E030832183148286A397A316820B
S1130D60E0E6F6E0808180618083E0E4F9E083E1FD
S1130D708183148282E08683A6A3B7A310A611A65A
S1130D8081E0808308951F920F920FB60F92112471
S1130D902F933F934F935F938F939F93CF93DF93BF
S1130DA01F92CDB7DEB78FEF80934C09809100205E
S1130DB0873031F480912C02898390912D0202C0F6
S1130DC090912C028091C020891B20916809309158
S1130DD0690982308CF02A3F374070F42091680909
S1130DE03091690989301CF481E090E002C086E00A
S1130DF090E0820F931F18C020916809309169090F
S1130E008F3FB4F42730310598F020916809309170
S1130E106909883F1CF081E090E002C086E090E020
S1130E20A901481B590BCA01809378099093790949
S1130E300F90DF91CF919F918F915F914F913F914F
S1130E402F910F900FBE0F901F901895E0E7F0E0E0
S1130E5083818F7E8383E0E4F6E080818A6A8083E5
S1130E608FEF848388E5828BE0EAF8E084EC858365
S1130E7083E08683178288E184830895E0E7F0E0C5
S1130E808381877F8383E0ECF8E080E480831182B0
S1130E9088E58093550608951F920F920FB60F921E
S1130EA0112400000F900FBE0F901F9018959FB74C
S1130EB0F894A0E5B0E016968C911697897F169663
S1130EC08C931697E0E6F0E080E885838BEB8683CD
S1130ED016968C911697846016968C938081816007
S1130EE080839FBF0895CF93DF9300D000D0CDB708
S1130EF0DEB78FEF8093700080937100809372004F
S1130F0080937300809374008093750080937600BF
S1130F1064E081E490E009D56CE170E082E00BD5F7
S1130F208C836DE170E082E006D58B838B819C819C
S1130F30019621F480E493E28B839C838B819C81D2
S1130F4089839A83809362008A81809363009FB728
S1130F50F894809150008260809350009FBF8091EC
S1130F60510081FFFCCFA3DF61E080E490E0DDD499
S1130F709FB7F894809150008E7F809350009FBF5C
S1130F802496CDBFDEBFDF91CF9108959FB7F8942B
S1130F90E82FF0E0E059FF4F60958081682360837B
S1130FA09FBF0895CF93863011F0C0E001C0C8E11F
S1130FB08091510081FD0DC09FB7F894809150003D
S1130FC08260809350009FBF8091510081FFFCCFCD
S1130FD06EDF6C2F636084E490E0A7D460E480E06B
S1130FE0CF91D4CF8091C52008958091C5208130C0
S1130FF009F4F2C9089513D1FC0183818093C520BB
S1131000811101C0CFC981E0089590916F24892F87
S1131010807697FF07C0803491F480917024811109
S11310200EC0DFC9803459F480917024811107C047
S11310308091752490917624892B09F0D0C980E0A1
S113104008950F931F939B018A01AC0160E081E82E
S11310500E9449101F910F9108950F931F939B01B4
S11310608A01AC0160E082E80E9449101F910F914F
S113107008950F931F939B018A01AC0160E083E8FC
S11310800E9449101F910F910895809171248F77C8
S113109082C79091CC20911102C080E00895E09124
S11310A0CA20F091CB200190F081E02D9481891722
S11310B0A0F7E093C820F093C920228133812E0F3A
S11310C03F1FE217F30798F49181943061F4928101
S11310D0891309C09381691306C0E093C820F09373
S11310E0C92081E008959081E90FF11DEACFE093D2
S11310F0C820F093C920D1CFE091CA20F091CB2031
S11311000190F081E02D228133812E0F3F1FFC01DD
S11311104081E40FF11DE217F30748F48181843024
S113112031F0853039F08081E80FF11DF4CF80E093
S113113090E00895CF0108951F93CF93DF93182F64
S1131140A8DF882339F1C091C820D091C920CE01ED
S1131150D3DFEC01892B41F04C815D816B818A8165
S113116027D78111F4CF16C0E091CA20F091CB208B
S113117092818381E92FF82FE10FF11DE10FF11D19
S11311800190F081E02D0190F081E02DDF91CF916D
S11311901F91099480E0DF91CF911F910895EF9200
S11311A0FF921F93CF93DF93C82F60E072DF81110A
S11311B002C010E02DC0E091CA20F091CB209281B2
S11311C08381E92FF82FEC0FF11DEC0FF11DE08066
S11311D0F180D7011696ED91FC9117970995682F28
S11311E08C2F57DF182F882321F3C091C820D0916A
S11311F0C920CE0181DFEC01892B21F08A810E9474
S11312000511F7CFD7011296ED91FC91139709952B
S1131210812FDF91CF911F91FF90EF9008958091DE
S1131220C8209091C92008953EC6CF938091CC20C8
S1131230811108C01092CC201092D0201092D1209D
S1131240CF910895C0E0E091CA20F091CB200190A5
S1131250F081E02D8481C81768F78C2FA0DFCF5F61
S1131260F2CFCF938091CC208823F1F0C0E0E091BD
S1131270CA20F091CB20A081B18114968C91C8171B
S113128098F492818381E92FF82FEC0FF11DEC0F74
S1131290F11D0190F081E02D0084F185E02D30975F
S11312A009F00995CF5FE3CFCF910895EF92FF92B4
S11312B00F931F93CF93DF931F92CDB7DEB7109296
S11312C0792410927A2410927B2410927C24109218
S11312D07D2410927E2480916F2487FF07C0209183
S11312E0752430917624232B09F416C3982F907615
S11312F0903409F0D2C0E09170248E2F90E0FC016C
S1131300E05AF109E830F10508F095C2EA5FFE4FB2
S11313100C94BA120000FEC210920008809171244D
S113132090917224809336089093370880917324A7
S11313308F708093000860917524709176248EE6F6
S113134092E22FD6209104203091052080917524BB
S1131350909176242817390709F4DCC2809304207D
S11313609093052026C0109240088091712490919A
S113137072248093760890937708809173248F70F9
S113138080934008609175247091762481E894E2FA
S113139008D62091022030910320809175249091E9
S11313A076242817390709F4B5C280930220909354
S11313B00320E09100208E2F90E08830910508F002
S11313C0A9C2FC01E25FFE4F0C94BA1210926809A4
S11313D010926909809171248093C0209BC28091EE
S11313E071248093240696C2E0917124F0917224B2
S11313F0E830F10508F01FC2EA5EFE4F0C94BA1201
S113140060E080E023D8809173240E94F3018FD898
S113141081C260E080E01AD8809173240E94F301B5
S1131420FAD878C261E081E011D8809173240E94D7
S1131430F301809174240E94090266D96BC2DCD93D
S113144069C257DA67C260E080E000D880917324F3
S11314500E94F301C5DA5EC261E080E00E942602C8
S1131460809173240E94F30103DB54C262E080E0A4
S11314700E9426028091732480680E94F3015BDB42
S113148049C2809171248093840644C2E9E7F0E064
S113149091E088EDF89484BF90839111CCC187FFCB
S11314A0FDC020917524309176242115310509F46D
S11314B0C2C18F7109F09FC080917024863071F091
S11314C0883009F48EC08111B6C12230310509F08B
S11314D0B2C162E070E080ED90E28BC08091712433
S11314E090917224292F332722303105A1F064F41E
S11314F02130310509F09FC1809110209091112075
S1131500DC016C9170E05BC02330310589F12F3030
S1131510310509F190C1E0911020F0911120218949
S1131520821708F088C19927880F991F880F991F7F
S1131530E0911220F0911320E80FF91F808191812E
S1131540FC01628173812DD5E0917724F091782498
S113155082E0818335C080911420909115200097FA
S113156009F469C1DC0112966D917C91139727C02F
S113157099278130910569F038F0029709F05BC131
S113158068E18AE890E208C064E070E08EEA90E2E4
S113159016C069E083EA90E2282FAAE5B0E2FC01D4
S11315A0819190E08D939D938E2F821B8617C0F3BB
S11315B0660F6E5F6093582070E088E590E2F1D486
S11315C080917524909176242091792430917A2405
S11315D08217930708F09EC18093792490937A240C
S11315E099C12130310509F026C161E070E08CEC2D
S11315F090E2D7D48FC18130C9F5809170248A30AC
S113160009F019C12130310509F015C18091CC20B0
S1131610882309F410C1E0907324F090742400919D
S1131620CA201091CB20D801ED91FC918481E81659
S113163008F001C160E08E2D2CDD882309F4FBC085
S1131640FF24EE0CFF1CF801828193818E0D9F1DF7
S1131650DC01ED91FC910680F781E02D09958093E2
S1131660CE2061E070E08EEC90E2C3CF823009F0CE
S1131670E2C0809170248111DEC02230310509F06E
S1131680DAC080917324E5D490E08093C6209093CF
S1131690C72062E070E086EC90E2ABCF8F7109F076
S11316A07DC080917024833009F4C5C018F4813062
S11316B0A1F0C1C0853019F0893039F1BCC08091E6
S11316C0752490917624892B09F0B5C085E498E0BF
S11316D080937B2490937C241DC1809175249091E8
S11316E07624892B09F0A7C08091712490917224EB
S11316F0019709F0A0C08091D0209091D1208D7FD6
S11317008093D0209093D12005C18091752490912D
S11317107624892B09F08FC041D4882309F48BC027
S113172020917124309172243327E0911020F0919C
S11317301120818990E08217930708F47CC075DD3D
S113174080917124909172248093CC20882309F491
S1131750E1C099278150904C880F991F880F991FD9
S11317602091122030911320820F931F8093CA205E
S11317709093CB2010E0E091CA20F091CB2001900F
S1131780F081E02D8481181708F0C4C060E0812F37
S1131790D3DC882309F44FC01F5FEDCF8130F1F40F
S11317A0809170248B3009F046C08091752490910B
S11317B07624892B09F03FC08091CC20882309F43A
S11317C03AC01091732460917124812F6983E7DCFE
S11317D06981882381F1812FAFDC2BC0823059F5D8
S11317E080917024813019F0833089F024C0809175
S11317F0752490917624892BF1F480917124909131
S11318007224892BC1F4809173242AD412C080914C
S1131810752490917624892B71F480917124909190
S11318207224892B41F480917324BFD48091732452
S1131830F5D481116FC080916F248F718130B9F517
S11318408091CC20882399F1E0907324F090742443
S11318500091CA201091CB20D801ED91FC91848194
S1131860E81628F560E08E2D14DC882301F1F701D9
S1131870FF27EE0FFF1FD80112968D919C911397AD
S1131880E80FF91F00811181D8011696ED91FC91A2
S113189017970995682F8E2DFCDB882341F0D8011A
S11318A01496ED91FC9115970995811133C080919F
S11318B06F248F71823081F58091CC20882361F16F
S11318C0F12CE091CA20F091CB20A081B181149633
S11318D08C91F81608F592818381E92FF82FEF0D8A
S11318E0F11DEF0DF11D00811181D8011696ED91C6
S11318F0FC9117970995682F8F2DCBDB882361F016
S1131900D8011496ED91FC9115970995811102C0A7
S1131910F394D7CF81E001C080E00F90DF91CF91A5
S11319201F910F91FF90EF9008951BBEFC0128EDCD
S113193024BF608308954091CA01E62FF72F809356
S1131940CA0184914093CA010895E82FF0E0E15A56
S1131950F34D80818F3F09F4FFCF9FB7F8948081C6
S11319608F5F80839FBF0895E82FF0E0E15AF34D25
S11319708081811101C0FFCF9FB7F894808181508D
S113198080839FBF0895CF93C82F80916422C11193
S113199005C0882339F081E0E7DF04C0811102C06B
S11319A081E0D3DFC0936422CF910895282F2F7054
S11319B0082E000C990B392F331F3327331F832F25
S11319C090E0820F911D820F911D23E0880F991FD3
S11319D02A95E1F7805E9D4D08950F93E8ECF4E0BD
S11319E080818F7D808380818F7D8083E8E2F2E235
S11319F002E0059310922A2210922B2200E2069311
S1131A0000E40693E0E2F2E200E2069300E40693C7
S1131A10EFE6F4E214861586168617861286138678
S1131A2010920D220F9108950F9385E080930D225B
S1131A30E9E2F2E204E00593E1E2F2E204E0059374
S1131A400F9108950F9383E080930D2210922A2220
S1131A5010922B22E8E2F2E202E006930F9108953D
S1131A60E0917B24F0917C24309709F00994089547
S1131A70282F2F70082E000C990B392F331F332772
S1131A80331F832F90E0820F911D820F911D0297C7
S1131A9049E0489F9001499F300D1124C9018D569A
S1131AA09E4D08958F929F92AF92BF92DF92EF92D4
S1131AB0FF920F931F93CF93DF93D82ED9DFEC01BE
S1131AC08D2D74DF7C01DC011196EC91E770E150FF
S1131AD0E73040F4F0E0EE0FFF1FEE54FF4D0081BD
S1131AE0118102C008E010E0ED81FE812B813C8170
S1131AF04881D701D7FE48C016968D919C911797BF
S1131B008E0F9F1F8D839E838217930761F1281B7D
S1131B10390B2115B4E03B0738F02FEF33E0C9014E
S1131B20B80114D5281B390B41FF0AC0C901B801FB
S1131B300DD5AC0191E0452B09F090E0892F01C04F
S1131B4080E0988180FB91F99883F70116821782CF
S1131B502283338329813A818D819E81820F931F51
S1131B60848395830EC041FF71C04D7F4883D701A4
S1131B7016961D921C92179712961D921C921397FB
S1131B80F70102E006937BC01296AD90BC901397C8
S1131B9042FF10C089809A80C901B801D7D4B0E44B
S1131BA0DB9EB00111246D567F4DAC01C4018E0F34
S1131BB09F1FE6D48D819E818A0D9B1D8D839E83FC
S1131BC02B813C812817390710F42D833E83F701BC
S1131BD086819781A816B906C9F58D819E818217E1
S1131BE09307A1F1281B390B2115F4E03F0710F0EE
S1131BF02FEF33E0C901B801A9D4281B390BD70151
S1131C0012961D921C9213972017310778F488813D
S1131C1084608883B0E4DB9EC00111248D569F4DFF
S1131C20F7018483958306831783AACF49815A8158
S1131C308D819E81840F951FD70114968D939C935B
S1131C40159716962D933C9317979ACF888180FF0A
S1131C5016C08E7F8883EF81F885309781F06D817F
S1131C607E814D2D80E0DF91CF911F910F91FF90E8
S1131C70EF90DF90BF90AF909F908F900994DF9189
S1131C80CF911F910F91FF90EF90DF90BF90AF9095
S1131C909F908F9008950F93CF93DF9380910D229F
S1131CA0833029F4DDDEDF91CF910F9196CE209120
S1131CB0092230910A22C0917924D0917A24C21B3E
S1131CC0D30B61F580910B2290910C22820F931F0C
S1131CD080930B2290930C222091752430917624CA
S1131CE02817390721F08091D220882331F084E02D
S1131CF080930D22E0E2F2E236C0E0917D24F0917F
S1131D007E24309799F00995882381F01092092256
S1131D1010920A22C0917924D0917A24C034D1053A
S1131D2028F01092D220C0E4D0E003C081E0809378
S1131D30D220C0932A22D0932B2280910922909101
S1131D400A222091772430917824280F391F209378
S1131D502C2230932D22C80FD91FC0930922D0936F
S1131D600A22E8E2F2E202E00693DF91CF910F91BA
S1131D7008950F93CF93DF931F92CDB7DEB7809171
S1131D80CC0480FF65C021E02093CC0480E292E281
S1131D90FC0100E80693E8E2F2E200E806932093EF
S1131DA0CA04FC0100E1069380910D22882329F0E6
S1131DB08350823008F454DE10DE80912222909108
S1131DC02322089709F046C088E0E9ECF1E2AFE687
S1131DD0B4E201900D928A95E1F78091C804806283
S1131DE08093C8048091C80480628093C8045EDA3A
S1131DF0811102C019DE2EC090916F2497FF0EC08E
S1131E0010920B2210920C221092092210920A2294
S1131E1092E090930D2289833EDF08C020917524BF
S1131E2030917624232B21F489830CDE898113C01D
S1131E3010920B2210920C221092092210920A2264
S1131E4091E090930D22E0E2F2E202E0069303C0F7
S1131E5080E001C081E00F90DF91CF910F91089550
S1131E60CF93CFB7F89481E08EDDEAECF4E080E420
S1131E70808380E28083E1ECF4E080818160808370
S1131E80A9ECB4E08C9182608C93E8ECF4E080815E
S1131E90806480838C9181608C938081806880834E
S1131EA0CFBFCF910895CF931092600080E37AD88A
S1131EB08091C00480648093C00481E080936000BA
S1131EC0CFB7F89480E090E0FC0123E0EE0FFF1F11
S1131ED02A95E1F7E05FFD4D118A0196883091055E
S1131EE099F7809193218E7F8093932180919C21F7
S1131EF08E7F80939C218091A5218E7F8093A52144
S1131F008091AE218E7F8093AE218091B7218E7F08
S1131F108093B7218091C0218E7F8093C0216AE194
S1131F2070E082E008DD8F3F09F48FE18093FA04CA
S1131F306BE170E082E0FFDC8F3F09F48FE1809376
S1131F40FB048091C00483608093C0048091C0042A
S1131F5080688093C0048091C00480618093C00431
S1131F6080E292E28093C6049093C7048091C004F7
S1131F7080628093C0048FEF8093C5048091C8046D
S1131F8082608093C8041092642285E0DEDC68DFFE
S1131F90CFBFCF9108958093C30408958091C30463
S1131FA00895EFE6F4E28087918762877387089546
S1131FB00F931F93CF93DF931F92CDB7DEB78A01A0
S1131FC06983F4DCFC018181807C698181113AC0E0
S1131FD06370613019F020F080E803C080EC01C028
S1131FE080E400381105E9F058F400321105A9F035
S1131FF000341105A1F000311105C9F491E018C0B5
S1132000011592E0190779F00F3F93E0190769F081
S11320100115114061F495E00BC092E009C093E012
S113202007C094E005C096E003C097E001C090E0CB
S1132030118226E02083982B9183818180628183A1
S113204081E001C080E00F90DF91CF911F910F914B
S11320500895ACDCFC01818182FB882780F9089516
S1132060CF93C82FA3DCFC01818182FF0FC0918133
S11320709B7F91838C2FFCDCFC01908190FF06C038
S11320809E7F90830780F085E02D099581E0CF91B4
S113209008958F929F92AF92BF92DF92EF92FF9238
S11320A00F931F93CF93DF931F92CDB7DEB7D82E34
S11320B05A0179016983DCDC4C018D2D77DC9C01AC
S11320C0DC0111968C911197807C6981882309F435
S11320D05EC011968C911197807C803C21F0119602
S11320E08C9182FD54C09FB7F894F401808180FFE5
S11320F002C09FBF4CC0816080839FBFF401A18256
S1132100B282E382F482158216820783108791E0FB
S1132110611104C0E114F10409F090E0D4018C9140
S113212090FB81F98B7F8C93D7FE04C0F901168252
S1132130178229C0D90111968C911197807C803C1B
S1132140C9F41196EC91E770E150E73040F4F0E007
S1132150EE0FFF1FEE54FF4D6081718102C068E0F5
S113216070E0C701F3D1892B29F0F40180818E7FBF
S113217080830DC0D90112961D921C921397169656
S11321801D921C9217978D2D8DDC81E001C080E09B
S11321900F90DF91CF911F910F91FF90EF90DF90FF
S11321A0BF90AF909F908F900895EF92FF920F93FE
S11321B0CF93C82FFBDB7C018C2F5ADCDC01F701A9
S11321C002E005939C9190FF1BC09E7F9C93179601
S11321D0ED91FC911897309799F0D701C7FF05C08E
S11321E016966D917C91179704C012966D917C910F
S11321F013974C2F81E0CF910F91FF90EF900994AA
S1132200CF910F91FF90EF900895CF93C82FCDDF1A
S11322108C2FCCDBFC011182CF9108950F93CF93C7
S1132220C82FC4DBFC0191819460918301E0069383
S11322308C2FBBDF81E0CF910F9108951F920F92F5
S11322400FB60F9211240F932F933F934F935F93E5
S11322506F937F938F939F93AF93BF93EF93FF936A
S11322608091CB0487FF08C080E88093CA040E9451
S113227031090E94AF0186C08091CB0482FF18C04F
S113228084E08093CA048091282286FF7BC08091D9
S1132290CC0481FD77C06DDD811174C080910D2265
S11322A0813011F4CFDB6EC0843009F06BC021C0E3
S11322B08091CB0481FF26C082E08093CA04809180
S11322C0202286FF5FC08091CC0481FD5BC051DD7C
S11322D0811158C080910D22823041F484E08093B2
S11322E00D22E0E2F2E202E006934CC0833009F0F2
S11322F049C0E9E2F2E204E00593E1E2F2E204E03B
S1132300059340C08091CB0484FF25C080E1809375
S1132310CA0481E04ADF81E848DF82E046DF82E8E0
S113232044DF0E9415091092C3041092212296E002
S11323309093202283E48093212210922922909367
S113234028228093292289EC91E28093242290937D
S1132350252243DB17C08091CB0486FF08C080E4AC
S11323608093CA0480E00FDB0E94AD010BC0809112
S1132370CB0485FF07C080E28093CA0481E003DBBD
S11323800E94AE01FF91EF91BF91AF919F918F9108
S11323907F916F915F914F913F912F910F910F908A
S11323A00FBE0F901F9018951F920F920FB60F92A9
S11323B011240F931F932F933F934F935F936F9326
S11323C07F938F939F93AF93BF93CF93DF93EF93B9
S11323D0FF938091CC0481FF1AC082E08093CC04E7
S11323E08091C5048195880FE0E2F2E2E81BF109CF
S11323F0208131812052324283E0369527958A9597
S1132400E1F7822F869520FD06C0C0E005C0B1DC4F
S1132410882319F386C0C0E8C80F8C2FC7DAFC01E3
S1132420208125FF7EC000E20693C11174C0809113
S11324300D22843019F414DBD0DA73C00091222207
S1132440109123228091792490917A24C0910922B9
S1132450D0910A229E01200F311F8217930718F48E
S11324608C010C1B1D0B8091772490917824A8017A
S113247069EC71E28C0F9D1F83D0C00FD11FC093F4
S11324800922D0930A220034110569F480910B22A9
S113249090910C228C0F9D1F2091752430917624ED
S11324A08217930788F0C0937924D0937A24E0911B
S11324B07D24F0917E24309729F00995811102C082
S11324C0B3DA2FC0BFDA2DC08091792490917A2499
S11324D08C179D07D9F4E0917D24F0917E243097E8
S11324E079F30995882361F320910B2230910C2212
S11324F08091092290910A22820F931F80930B22CC
S113250090930C221092092210920A22E0E2F2E245
S113251002E0069306C0C03811F4BDDB02C08C2F64
S1132520C1DAFF91EF91DF91CF91BF91AF919F916C
S11325308F917F916F915F914F913F912F911F9157
S11325400F910F900FBE0F901F901895AA1BBB1BE5
S113255051E107C0AA1FBB1FA617B70710F0A61B9F
S1132560B70B881F991F5A95A9F780959095BC01C0
S1132570CD010895EE0FFF1F0590F491E02D09940D
S1132580FB01DC0102C001900D9241505040D8F78C
S10925900895F894FFCF4A
S1132596FF5580008000FB07F5070508F2070000D9
S11325A64420162000001C201A20062009022700B9
S11325B601010080FA0904000003FFFFFF0007057C
S11325C6810100010107058201000101070583015C
S11325D6000101001201000200000040EB0300A00C
S11325E600020102000100000003000000000000D8
S11325F600000000000000000000000000000000D1
S113260600000000000000000000000000000000C0
S113261600000000000000000000555342476F62AE
S1132626696E6461722044756D6D792044657669BE
S1132636636500546170697254656368000004033D
S11326460904100020004000800000010002FF037E
S9030000FC
