:100000001DC1000037C1000035C1000033C1000030
:1000100031C100002FC100002DC100002BC1000024
:1000200029C1000027C1000025C1000023C1000034
:1000300021C100001FC100001DC100001BC1000044
:1000400019C1000017C1000015C1000013C1000054
:1000500011C100000FC100000DC100000BC1000064
:1000600009C1000007C1000005C1000003C1000074
:1000700001C10000FFC00000FDC00000FBC0000087
:10008000F9C00000F7C00000F5C00000F3C0000098
:10009000F1C00000EFC00000EDC00000EBC00000A8
:1000A000E9C00000E7C00000E5C00000E3C00000B8
:1000B000E1C00000DFC00000DDC00000DBC00000C8
:1000C000D9C00000D7C00000D5C00000D3C00000D8
:1000D000D1C00000CFC00000CDC00000CBC00000E8
:1000E000C9C00000C7C00000C5C00000C3C00000F8
:1000F000C1C00000BFC00000BDC00000BBC0000008
:10010000B9C00000B7C00000B5C00000B3C0000017
:10011000B1C00000AFC00000ADC00000ABC0000027
:10012000A9C00000A7C00000A5C00000A3C0000037
:10013000A1C000009FC000009DC000009BC0000047
:1001400099C0000097C0000095C000002AC60000BA
:1001500091C000008FC000008DC000008BC0000067
:1001600089C0000087C0000085C0000083C0000077
:1001700081C000007FC000007DC000007BC0000087
:1001800079C0000077C0000075C0000073C0000097
:1001900071C000006FC000006DC000006BC00000A7
:1001A00069C0000067C0000065C0000063C00000B7
:1001B00061C000005FC000005DC000005BC00000C7
:1001C00059C0000057C0000055C0000053C00000D7
:1001D00051C000004FC000004DC000004BC00000E7
:1001E00049C0000047C0000045C0000043C00000F7
:1001F00041C000000C94FA100C94AF1183018501EA
:10020000870189018B0190018D018F0170097209AD
:100210008809BF09C809CD091D0A220AE009EA09AF
:10022000F809FA09FC09060A100A1B0AD909E209A9
:10023000EC09FA09FC09FE09080A120A11241FBE7A
:10024000CFEFCDBFDFE2DEBF10E2A0E0B0E2ECE432
:10025000F5E202C005900D92A03CB107D9F72CE25F
:10026000A0ECB0E201C01D92A835B207E1F71BD0A7
:100270000C94A412C5CEE0E8F6E08FE0808385E020
:100280008483089508958091C220882319F080E026
:1002900090E002C08EEE92E043E451E06EEE72E038
:1002A0008A58994DCEC687E08093A20078941BD6D9
:1002B000E9DFA0D7B2D0D5D060E080E07FD06BD0AE
:1002C0008CE05FD033D5CDD5E6D5D5DF000000007A
:1002D000000000000000000000000000000000001E
:1002E0000000000000000000F1CF08950895E091A3
:1002F00000208E2F90E08830910590F4FC01E250B0
:10030000FF4F0C94951210D10BC08CD109C02BD289
:1003100007C0E7D205C07BD303C063D401C0D8D4E3
:100320009091C22081E0911180E08093C2200895D5
:1003300081E08093C32043E451E06EEE72E086E7F3
:1003400096E27FD681E008951092C320089581E05F
:10035000089581E0089510922002982F9C7193686F
:100360009093200287FF03C090E182E002C090E0FA
:1003700080E0892B809321021092220210922602A3
:100380000895E0E0F2E010AA836880AB80E181ABE1
:1003900012AA16AA0895E0E0F2E010A683E880A76A
:1003A0008FE281A712A616A60895AAECB1E092E00A
:1003B0009C93E82FF0E084911C9208959091710035
:1003C0009D7F9093710010920002623011F09CE1C9
:1003D00001C09EE19093010290E49093020281118A
:1003E00002C080E401C080EC80930302613011F010
:1003F00083E001C082E08093040280E2D6DF809334
:100400000C0281E2D2DF80930D021092180210924A
:10041000190281E080930002BECFCF93DF93E0E723
:10042000F0E082818B7F8283C0E2D3E08DE088831D
:1004300080E4898389E08A8383E3B7DF888782E366
:10044000B4DF898787E3B1DF8A8786E3AEDF8B87F6
:10045000E0E2F6E08081836080831482DF91CF91B7
:100460000895E0E7F0E080818E7F808380E88093CC
:1004700000010895E0E0F1E0108A80E4808B10A292
:1004800080A310AA80ABE0E4F1E010828083109298
:10049000C2201092C120089510920020EBDFE0E00E
:1004A000F1E016AA34E230AB11AA29E522AB82E0D2
:1004B00083AB809102209091032084AB95AB86E7BB
:1004C00094E280AF91AF12AE8BE384AF83E0809370
:1004D0003D0110923E0190A9906890AB10924601A8
:1004E000E0E4F1E0308310924101209342018093D7
:1004F0004301209104203091052020934401309342
:10050000450126E632E220934801309349011092DA
:100510004A0199E390934C0180934D0110924E0152
:100520008081806880830895E0E0F1E0108A80E4B3
:10053000808B84E0808B118A81E9828B80E1838BC0
:1005400087E791E0848B958B84E2808F82E0818FB6
:10055000128E4091C2202EEE32E0429FC001439F96
:10056000900D11248A58994D848F4091C220429F4A
:10057000C001439F900D11248A58994D958F168E76
:1005800080898068808B089581E08093002072DFED
:10059000E0E0F1E010AA80E480AB84E080AB11AA37
:1005A00012AA8BE483AB14AA15AA16AA81E090E2E2
:1005B00080AF91AF12AE80EA84AF88E080933D01B6
:1005C00010923E0180A9806A80AB85E58093A008E7
:1005D00010924601E0E4F1E084E280831092410150
:1005E00089E58093420182E080934301809102205B
:1005F00090910320809344019093450186E794E213
:10060000809348019093490110924A018BE38093B3
:100610004C0183E080934D0110924E0180818068EF
:1006200080830895E0E0F1E0108AA0E4A08B74E0FC
:10063000708B118A61E9628B80E1838B47E751E01F
:10064000448B558B84E2808F82E0818F128EB09133
:10065000C2208EEE92E0B89F9001B99F300D112418
:100660002A58394D248FB091C220B89F9001B99F6C
:10067000300D11242A58394D358F168E2089206867
:10068000208B10A2A0A370A311A262A32BE423A32A
:1006900044A355A320EA20A728E021A712A6409151
:1006A000C220489F9001499F300D11242351384D9D
:1006B00024A74091C220489F9001499F300D1124EA
:1006C000C9018351984D95A716A680A1806880A383
:1006D0000895CF93C2E0C0930020CCDEE0E0F1E0CB
:1006E00016AA34E230AB11AA29E522AB83E083AB32
:1006F000409104205091052044AB55AB46E652E2B0
:1007000040AF51AF12AE99E394AF80933D01109288
:100710003E0190A9906890AB10924601E0E4F1E0B0
:1007200030831092410120934201C09343012091F4
:10073000022030910320209344013093450126E7A5
:1007400034E2209348013093490110924A019BE31F
:1007500090934C0180934D0110924E0180818068EE
:100760008083CF910895CF93E0E0F1E0108AB0E468
:10077000B08BA4E0A08B118A51E9528B80E1838B6E
:1007800067E771E0648B758B84E2808F42E0418F74
:10079000128EC091C2208EEE92E0C89F9001C99F38
:1007A000300D11242A58394D248FC091C220C89F82
:1007B0009001C99F300D11242A58394D358F168E5E
:1007C00020892068208B10A2B0A3A0A311A252A35D
:1007D00022E123A364A375A324E320A741A712A6C3
:1007E0004091C220489F9001499F300D1124235110
:1007F000384D24A74091C220489F9001499F300D59
:100800001124C9018351984D95A716A680A180682F
:1008100080A3CF910895CF93C3E0C09300202ADE38
:10082000E0E0F1E010A280E480A384E080A311A2C4
:1008300012A28BE483A314A215A216A281E090E277
:1008400080A791A712A680EA84A788E085A716A6AC
:1008500080A1806A80A385E58093A00816AA24E27F
:1008600020AB11AA99E592AB82E083AB40910220C4
:100870005091032044AB55AB46E754E240AF51AF33
:1008800012AE8BE384AFC0933D0110923E0180A96C
:10089000806880AB10924601E0E4F1E02083109282
:1008A000410190934201C0934301809104209091B3
:1008B0000520809344019093450186E692E280935F
:1008C00048019093490110924A0189E380934C01B9
:1008D000C0934D0110924E01808180688083CF913A
:1008E0000895E0E0F1E0108A80E4808B84E0808B62
:1008F000118A81E9828B8BE4838B87E791E0848B7B
:10090000958B80EA808F88E0818F128E4091C22083
:100910002EEE32E0429FC001439F900D11248A5871
:10092000994D848F4091C220429FC001439F900DFA
:1009300011248A58994D958F168E80898068808BF6
:100940000895CF93C4E0C093002094DDE0E0F1E08F
:1009500010A280E480A3C0A311A212A28BE483A3FF
:1009600014A215A216A281E090E280A791A712A678
:1009700080EA84A788E085A716A680A1806A80A364
:1009800085E58093A00816AA34E230AB11AA29E5C8
:1009900022AB83E083AB409104205091052044AB0F
:1009A00055AB46E652E240AF51AF12AE99E394AF79
:1009B00080933D0110923E0190A9906890AB1092F7
:1009C0004601E0E4F1E030831092410120934201BE
:1009D00092E09093430120910220309103202093D4
:1009E00044013093450126E734E2209348013093D7
:1009F000490110924A019BE390934C0180934D0171
:100A000010924E01808180688083CF910895CF93AA
:100A1000E0E0F1E0108AB0E4B08BA4E0A08B118A92
:100A200051E9528B8BE4838B67E771E0648B758BA4
:100A300080EA808F48E0418F128EC091C2208EEEF6
:100A400092E0C89F9001C99F300D11242A58394D5A
:100A5000248FC091C220C89F9001C99F300D1124DE
:100A60002A58394D358F168E20892068208B10AA80
:100A7000B0ABA0AB11AA52AB2AE423AB64AB75AB0D
:100A800023EC20AF41AF12AE4091C220489F9001AD
:100A9000499F300D11242351384D24AF4091C2207D
:100AA000489F9001499F300D1124C9018351984DF1
:100AB00090933D0110923E0180A9806880ABCF9158
:100AC000089585E080930020D5DCE0E0F1E016AAEF
:100AD00044E240AB11AA39E532AB83E083AB6091CD
:100AE00004207091052064AB75AB66E672E260AFDE
:100AF00071AF12AE29E324AF80933D0110923E0105
:100B000090A9906890AB10924601E0E4F1E0408338
:100B1000109241013093420180934301409104209F
:100B200050910520409344015093450146E756E219
:100B3000409348015093490110924A0120934C017F
:100B400080934D0110924E018081806880830895CA
:100B500086E0809300208EDCE0E0F1E016AA34E22B
:100B600030AB11AA29E522AB83E083AB409104208E
:100B70005091052044AB55AB46E652E240AF51AF31
:100B800012AE99E394AF80933D0110923E0190A97B
:100B9000906890AB10924601E0E4F1E0308310924F
:100BA00041012093420192E0909343012091022061
:100BB00030910320209344013093450126E734E22D
:100BC000209348013093490110924A019BE390938E
:100BD0004C0180934D0110924E018081806880838A
:100BE0000895E0E0F1E0108A80E4808B84E0808B5F
:100BF000118A81E9828B80E1838B2EEE32E0248B97
:100C0000358B84E2808F82E0818F128E4091C220EA
:100C1000429FC001439F900D11248A58994D848FA3
:100C20004091C220429FC001439F900D11248A58D9
:100C3000994D958F168E80898068808B089587E006
:100C40008093002017DCE0E0F1E016AA34E230AB3C
:100C500011AA29E522AB83E083AB40910420509197
:100C6000052044AB55AB46E652E240AF51AF12AE61
:100C700099E394AF80933D0110923E0190A9906852
:100C800090AB10924601E0E4F1E030831092410114
:100C90002093420192E090934301209102203091F1
:100CA0000320209344013093450126E734E220934A
:100CB00048013093490110924A019BE390934C0103
:100CC00080934D0110924E01808180688083089549
:100CD000E0E0F1E0108A80E4808B85E0808B118A6F
:100CE00081E9828B80E1838B2EEE32E0248B358B81
:100CF00084E2808F82E0818F128E4091C220429FD9
:100D0000C001439F900D11248A58994D848F4091C2
:100D1000C220429FC001439F900D11248A58994DD3
:100D2000958F168E80898068808B0895E0E7F0E0CB
:100D300083818C7F838384818C7F848380818D7F7A
:100D40008083E0E8F1E080EC8283128688EC818386
:100D50001186E0E0F8E034E0308323E02183148260
:100D600085ED91E086A397A31682E0E4F8E0308356
:100D70002183148286A397A31682E0E6F6E08081A1
:100D800080618083E0E4F9E083E18183148281E083
:100D9000868328EB3BE026A337A310A611A6808309
:100DA00008951F920F920FB60F9211242F933F9325
:100DB0004F935F938F939F93CF93DF931F92CDB702
:100DC000DEB780910020873031F480912C02898336
:100DD00090912D0202C090912C028091C020891B1D
:100DE000209168093091690982308CF0223B3B40A8
:100DF00070F4209168093091690989301CF481E010
:100E000090E002C086E090E0820F931F18C020910E
:100E10006809309169098F3FB4F42730310598F0A3
:100E20002091680930916909883F1CF081E090E0C9
:100E300002C086E090E0A901481B590BCA018093CB
:100E40007809909379090F90DF91CF919F918F91BD
:100E50005F914F913F912F910F900FBE0F901F9078
:100E60001895E0E7F0E083818F7E8383E0E4F6E08D
:100E700080818A6A80838FEF848388E5828B80E219
:100E80008687E0EAF8E084EC858383E08683178236
:100E900088E184830895E0E7F0E08381877F83839E
:100EA00080E48093C00888E58093570608959FB733
:100EB000F894A0E5B0E016968C911697897F169667
:100EC0008C931697E0E6F0E080E885838BEB8683D1
:100ED00016968C911697846016968C93808181600B
:100EE00080839FBF0895CF93DF9300D000D0CDB70C
:100EF000DEB78FEF80937000809371008093720053
:100F000080937300809374008093750080937600C3
:100F100064E081E490E0E5D46CE170E082E0E7D445
:100F20008C836DE170E082E0E2D48B838B819C81C5
:100F3000019621F480E493E28B839C838B819C81D6
:100F400089839A83809362008A81809363009FB72C
:100F5000F894809150008260809350009FBF8091F0
:100F6000510081FFFCCFA3DF61E080E490E0B9D4C1
:100F70009FB7F894809150008E7F809350009FBF60
:100F80002496CDBFDEBFDF91CF9108959FB7F8942F
:100F9000E82FF0E0E059FF4F60958081682360837F
:100FA0009FBF0895CF93863011F0C0E001C0C8E123
:100FB0008091510081FD0DC09FB7F8948091500041
:100FC0008260809350009FBF8091510081FFFCCFD1
:100FD0006EDF6C2F636084E490E083D460E480E093
:100FE000CF91D4CF8091C42008958091C4208130C6
:100FF00009F4AAC90895F9D0FC0183818093C42023
:10100000811101C095C981E0089590916624892FCE
:10101000807697FF07C0803491F480916724811116
:101020000EC097C9803459F480916724811107C09C
:1010300080916C2490916D24892B09F088C980E0FF
:1010400008950F931F939B018A01AC0160E083E830
:10105000FCD71F910F910895809168248F7777C7EF
:101060009091CC20911102C080E00895E091C920B8
:10107000F091CA200190F081E02D94818917A0F7AA
:10108000E093C720F093C820228133812E0F3F1FA9
:10109000E217F30798F49181943061F492818913F7
:1010A00009C09381691306C0E093C720F093C8205C
:1010B00081E008959081E90FF11DEACFE093C72008
:1010C000F093C820D1CFE091C920F091CA200190BF
:1010D000F081E02D228133812E0F3F1FFC014081E2
:1010E000E40FF11DE217F30748F48181843031F0F9
:1010F000853039F08081E80FF11DF4CF80E090E079
:101100000895CF0108951F93CF93DF93182FA8DF81
:10111000882339F1C091C720D091C820CE01D3DFF8
:10112000EC01892B41F04C815D816B818A811CD758
:101130008111F4CF16C0E091C920F091CA209281AC
:101140008381E92FF82FE10FF11DE10FF11D0190CF
:10115000F081E02D0190F081E02DDF91CF911F9182
:10116000099480E0DF91CF911F910895EF92FF9253
:101170001F93CF93DF93C82F60E072DF811102C00D
:1011800010E02CC0E091C920F091CA2092818381A7
:10119000E92FF82FEC0FF11DEC0FF11DE080F1802D
:1011A000D7011696ED91FC9117970995682F8C2F12
:1011B00057DF182F882321F3C091C720D091C82072
:1011C000CE0181DFEC01892B19F08A81FAD7F8CFA3
:1011D000D7011296ED91FC9113970995812FDF911C
:1011E000CF911F91FF90EF9008958091C72090912B
:1011F000C820089534C6CF938091CC20811108C0B7
:101200001092CC201092D0201092D120CF9108952E
:10121000C0E0E091C920F091CA200190F081E02D5A
:101220008481C81768F78C2FA1DFCF5FF2CFCF93EF
:101230008091CC208823F1F0C0E0E091C920F091AA
:10124000CA20A081B18114968C91C81798F492811C
:101250008381E92FF82FEC0FF11DEC0FF11D0190A8
:10126000F081E02D0084F185E02D309709F009959B
:10127000CF5FE3CFCF910895EF92FF920F931F932B
:10128000CF93DF931F92CDB7DEB7109270241092E8
:10129000712410927224109273241092742410926C
:1012A00075248091662487FF07C020916C243091BB
:1012B0006D24232B09F40CC3982F9076903409F0F9
:1012C000C8C0E09167248E2F90E0FC01E05AF1093C
:1012D000E830F10508F08BC2EA5FFE4F0C949512DE
:1012E0000000F4C210920008809168249091692453
:1012F000809336089093370880916A248F7080938A
:10130000000860916C2470916D2486E692E219C009
:101310001092400860916C2470916D2460930220BB
:1013200070930320809168249091692480937608BB
:101330009093770880916A248F708093400886E7A5
:1013400094E20BD6209104203091052080916C24EA
:1013500090916D242817390709F4B8C280930420AE
:1013600090930520E09100208E2F90E08830910529
:1013700008F0ACC2FC01E25FFE4F0C949512109293
:10138000680910926909809168248093C0209EC2E8
:10139000809168248093240699C2E0916824F0919A
:1013A0006924E830F10508F022C2EA5EFE4F0C9491
:1013B000951260E080E002D880916A240E94AB011F
:1013C0006BD884C260E080E00E94DE0180916A24D4
:1013D0000E94AB01D9D87AC261E081E00E94DE01AF
:1013E00080916A240E94AB0180916B240E94C1010C
:1013F00070D96CC210DA6AC2A4DA68C260E080E018
:101400000E94DE0180916A240E94AB015ADB5EC219
:1014100061E080E00E94DE0180916A240E94AB01BD
:1014200097DB54C262E080E00E94DE0180916A2472
:1014300080680E94AB0103DC49C2809168248093DC
:10144000840644C2E9E7F0E091E088EDF89484BFB7
:1014500090839111CCC187FFFDC020916C24309105
:101460006D242115310509F4C2C18F7109F09FC0A7
:1014700080916724863071F0883009F48EC0811124
:10148000B6C12230310509F0B2C162E070E080EDF2
:1014900090E28BC08091682490916924292F332792
:1014A00022303105A1F064F42130310509F09FC1EB
:1014B0008091102090911120DC016C9170E05BC054
:1014C0002330310589F12F30310509F190C1E091C8
:1014D0001020F09111202189821708F088C19927E6
:1014E000880F991F880F991FE0911220F091132007
:1014F000E80FF91F80819181FC01628173812DD5F4
:10150000E0916E24F0916F2482E0818335C0809158
:10151000142090911520009709F469C1DC011296FE
:101520006D917C91139727C099278130910569F0BF
:1015300038F0029709F05BC168E18AE890E208C0E0
:1015400064E070E08EEA90E216C069E083EA90E21F
:10155000282FAAE5B0E2FC01819190E08D939D9344
:101560008E2F821B8617C0F3660F6E5F6093582024
:1015700070E088E590E2F1D480916C2490916D2424
:1015800020917024309171248217930708F09EC136
:10159000809370249093712499C12130310509F012
:1015A00026C161E070E08CEC90E2D7D48FC181302D
:1015B000C9F5809167248A3009F019C121303105BD
:1015C00009F015C18091CC20882309F410C1E09066
:1015D0006A24F0906B240091C9201091CA20D80190
:1015E000ED91FC918481E81608F001C160E08E2D38
:1015F00037DD882309F4FBC0FF24EE0CFF1CF80143
:10160000828193818E0D9F1DDC01ED91FC910680FE
:10161000F781E02D09958093CE2061E070E08EEC9B
:1016200090E2C3CF823009F0E2C08091672481113B
:10163000DEC02230310509F0DAC080916A24E5D499
:1016400090E08093C5209093C62062E070E085EC26
:1016500090E2ABCF8F7109F07DC080916724833019
:1016600009F4C5C018F48130A1F0C1C0853019F06B
:10167000893039F1BCC080916C2490916D24892B04
:1016800009F0B5C08CE298E08093722490937324A3
:101690001DC180916C2490916D24892B09F0A7C005
:1016A0008091682490916924019709F0A0C08091ED
:1016B000D0209091D1208D7F8093D0209093D12005
:1016C00005C180916C2490916D24892B09F08FC005
:1016D00041D4882309F48BC0209168243091692477
:1016E0003327E0911020F0911120818990E082173A
:1016F000930708F47CC07FDD809168249091692471
:101700008093CC20882309F4E1C099278150904C24
:10171000880F991F880F991F209112203091132054
:10172000820F931F8093C9209093CA2010E0E0910C
:10173000C920F091CA200190F081E02D8481181712
:1017400008F0C4C060E0812FDEDC882309F44FC0BC
:101750001F5FEDCF8130F1F4809167248B3009F069
:1017600046C080916C2490916D24892B09F03FC074
:101770008091CC20882309F43AC010916A246091AA
:101780006824812F6983F2DC6981882381F1812FAC
:10179000BADC2BC0823059F580916724813019F072
:1017A000833089F024C080916C2490916D24892B22
:1017B000F1F48091682490916924892BC1F480917F
:1017C0006A242AD412C080916C2490916D24892BB4
:1017D00071F48091682490916924892B41F480915F
:1017E0006A24BFD480916A24F5D481116FC080919E
:1017F00066248F718130B9F58091CC20882399F1CE
:10180000E0906A24F0906B240091C9201091CA20C6
:10181000D801ED91FC918481E81628F560E08E2DC9
:101820001FDC882301F1F701FF27EE0FFF1FD8010E
:1018300012968D919C911397E80FF91F00811181E9
:10184000D8011696ED91FC9117970995682F8E2D6A
:1018500007DC882341F0D8011496ED91FC9115978F
:101860000995811133C0809166248F71823081F592
:101870008091CC20882361F1F12CE091C920F09176
:10188000CA20A081B18114968C91F81608F5928136
:101890008381E92FF82FEF0DF11DEF0DF11D008170
:1018A0001181D8011696ED91FC9117970995682F33
:1018B0008F2DD6DB882361F0D8011496ED91FC9131
:1018C00015970995811102C0F394D7CF81E001C02B
:1018D00080E00F90DF91CF911F910F91FF90EF90DB
:1018E00008951BBEFC0128ED24BF6083089540913C
:1018F000CA01E62FF72F8093CA0184914093CA0151
:101900000895E82FF0E0EE5AF34D80818F3F09F4FF
:10191000FFCF9FB7F89480818F5F80839FBF08952A
:10192000E82FF0E0EE5AF34D8081811101C0FFCF26
:101930009FB7F8948081815080839FBF0895CF9393
:10194000C82F80916422C11105C0882339F081E03D
:10195000E7DF04C0811102C081E0D3DFC0936422BD
:10196000CF910895282F2F70082E000C990B392F36
:10197000331F3327331F832F90E0820F911D820F77
:10198000911D23E0880F991F2A95E1F7805E9D4DF8
:1019900008950F93E8ECF4E080818F7D808380814F
:1019A0008F7D8083E8E2F2E202E0059310922A2222
:1019B00010922B2200E2069300E40693E0E2F2E2AA
:1019C00000E2069300E40693E6E6F4E21486158648
:1019D000168617861286138610920D220F9108958F
:1019E0000F9385E080930D22E9E2F2E204E0059393
:1019F000E1E2F2E204E005930F9108950F9383E092
:101A000080930D2210922A2210922B22E8E2F2E219
:101A100002E006930F910895E0917224F0917324EF
:101A2000309709F009940895282F2F70082E000C84
:101A3000990B392F331F3327331F832F90E0820FE9
:101A4000911D820F911D029749E0489F9001499F87
:101A5000300D1124C9018D569E4D08958F929F928D
:101A6000AF92BF92DF92EF92FF920F931F93CF93AB
:101A7000DF93D82ED9DFEC018D2D74DF7C01DC01E2
:101A80001196EC91E770E150E73040F4F0E0EE0F92
:101A9000FF1FEE54FF4D0081118102C008E010E0ED
:101AA000ED81FE812B813C814881D701D7FE48C062
:101AB00016968D919C9117978E0F9F1F8D839E83F5
:101AC0008217930761F1281B390B2115B4E03B07FE
:101AD00038F02FEF33E0C901B80113D5281B390BBB
:101AE00041FF0AC0C901B8010CD5AC0191E0452BFA
:101AF00009F090E0892F01C080E0988180FB91F986
:101B00009883F701168217822283338329813A81D1
:101B10008D819E81820F931F848395830EC041FF28
:101B200071C04D7F4883D70116961D921C9217975E
:101B300012961D921C921397F70102E006937BC048
:101B40001296AD90BC90139742FF10C089809A8086
:101B5000C901B801D6D4B0E4DB9EB00111246D56A2
:101B60007F4DAC01C4018E0F9F1FE5D48D819E81F6
:101B70008A0D9B1D8D839E832B813C8128173907FD
:101B800010F42D833E83F70186819781A816B9064C
:101B9000C9F58D819E8182179307A1F1281B390B0E
:101BA0002115F4E03F0710F02FEF33E0C901B80131
:101BB000A8D4281B390BD70112961D921C9213979B
:101BC0002017310778F4888184608883B0E4DB9E35
:101BD000C00111248D569F4DF701848395830683A0
:101BE0001783AACF49815A818D819E81840F951FC9
:101BF000D70114968D939C93159716962D933C932D
:101C000017979ACF888180FF16C08E7F8883EF81D7
:101C1000F885309781F06D817E814D2D80E0DF91D8
:101C2000CF911F910F91FF90EF90DF90BF90AF90F9
:101C30009F908F900994DF91CF911F910F91FF900A
:101C4000EF90DF90BF90AF909F908F9008950F938B
:101C5000CF93DF9380910D22833029F4DDDEDF9175
:101C6000CF910F9196CE2091092230910A22C091F6
:101C70007024D0917124C21BD30B61F580910B228B
:101C800090910C22820F931F80930B2290930C2231
:101C900020916C2430916D242817390721F0809110
:101CA000D220882331F084E080930D22E0E2F2E23A
:101CB00036C0E0917424F0917524309799F009951D
:101CC000882381F01092092210920A22C091702478
:101CD000D0917124C034D10528F01092D220C0E4F4
:101CE000D0E003C081E08093D220C0932A22D09319
:101CF0002B228091092290910A2220916E2430910A
:101D00006F24280F391F20932C2230932D22C80FC7
:101D1000D91FC0930922D0930A22E8E2F2E202E03E
:101D20000693DF91CF910F9108950F93CF93DF9397
:101D30001F92CDB7DEB78091CC0480FF65C021E053
:101D40002093CC0480E292E2FC0100E80693E8E2F2
:101D5000F2E200E806932093CA04FC0100E1069336
:101D600080910D22882329F08350823008F454DEBC
:101D700010DE8091222290912322089709F046C01C
:101D800088E0E9ECF1E2A6E6B4E201900D928A95D2
:101D9000E1F78091C80480628093C8048091C804F0
:101DA00080628093C80468DA811102C019DE2EC0F7
:101DB0009091662497FF0EC010920B2210920C2275
:101DC0001092092210920A2292E090930D228983A8
:101DD0003EDF08C020916C2430916D24232B21F428
:101DE00089830CDE898113C010920B2210920C2281
:101DF0001092092210920A2291E090930D22E0E2C3
:101E0000F2E202E0069303C080E001C081E00F909F
:101E1000DF91CF910F910895CF93CFB7F89481E0E0
:101E20008EDDEAECF4E080E4808380E28083E1EC04
:101E3000F4E0808181608083A9ECB4E08C918260C1
:101E40008C93E8ECF4E08081806480838C918160E5
:101E50008C93808180688083CFBFCF910895CF938A
:101E60001092600080E39ED88091C00480648093CB
:101E7000C00481E080936000CFB7F89480E090E0E8
:101E8000FC0123E0EE0FFF1F2A95E1F7E05FFD4D17
:101E9000118A01968830910599F7809193218E7F60
:101EA0008093932180919C218E7F80939C218091AF
:101EB000A5218E7F8093A5218091AE218E7F809376
:101EC000AE218091B7218E7F8093B7218091C02170
:101ED0008E7F8093C0216AE170E082E008DD8F3F51
:101EE00009F48FE18093FA046BE170E082E0FFDC9B
:101EF0008F3F09F48FE18093FB048091C0048360DD
:101F00008093C0048091C00480688093C004809155
:101F1000C00480618093C00480E292E28093C60492
:101F20009093C7048091C00480628093C0048FEFB7
:101F30008093C5048091C80482608093C804109285
:101F4000642285E0DEDC68DFCFBFCF910895809307
:101F5000C30408958091C3040895E6E6F4E28087FF
:101F600091876287738708950F931F93CF93DF93B1
:101F70001F92CDB7DEB78A016983F4DCFC01818151
:101F8000807C698181113AC06370613019F020F062
:101F900080E803C080EC01C080E400381105E9F05E
:101FA00058F400321105A9F000341105A1F00031F8
:101FB0001105C9F491E018C0011592E0190779F0F4
:101FC0000F3F93E0190769F00115114061F495E0A6
:101FD0000BC092E009C093E007C094E005C096E012
:101FE00003C097E001C090E0118226E02083982B87
:101FF000918381818062818381E001C080E00F90C4
:10200000DF91CF911F910F910895ACDCFC0181818C
:1020100082FB882780F90895CF93C82FA3DCFC01A9
:10202000818182FF0FC091819B7F91838C2FFCDC8B
:10203000FC01908190FF06C09E7F90830780F08511
:10204000E02D099581E0CF9108958F929F92AF92F4
:10205000BF92DF92EF92FF920F931F93CF93DF9384
:102060001F92CDB7DEB7D82E5A0179016983DCDC27
:102070004C018D2D77DC9C01DC0111968C91119720
:10208000807C6981882309F45EC011968C91119738
:10209000807C803C21F011968C9182FD54C09FB7CA
:1020A000F894F401808180FF02C09FBF4CC0816022
:1020B00080839FBFF401A182B282E382F482158201
:1020C00016820783108791E0611104C0E114F104C6
:1020D00009F090E0D4018C9190FB81F98B7F8C9377
:1020E000D7FE04C0F9011682178229C0D9011196C2
:1020F0008C911197807C803CC9F41196EC91E7702B
:10210000E150E73040F4F0E0EE0FFF1FEE54FF4DDA
:102110006081718102C068E070E0C701F2D1892B53
:1021200029F0F40180818E7F80830DC0D901129641
:102130001D921C92139716961D921C9217978D2D27
:102140008DDC81E001C080E00F90DF91CF911F9185
:102150000F91FF90EF90DF90BF90AF909F908F9086
:102160000895EF92FF920F93CF93C82FFBDB7C0172
:102170008C2F5ADCDC01F70102E005939C9190FF63
:102180001BC09E7F9C931796ED91FC9118973097FA
:1021900099F0D701C7FF05C016966D917C911797EE
:1021A00004C012966D917C9113974C2F81E0CF91D2
:1021B0000F91FF90EF900994CF910F91FF90EF90C6
:1021C0000895CF93C82FCDDF8C2FCCDBFC0111827B
:1021D000CF9108950F93CF93C82FC4DBFC01918159
:1021E0009460918301E006938C2FBBDF81E0CF9157
:1021F0000F9108951F920F920FB60F9211240F9313
:102200002F933F934F935F936F937F938F939F93FE
:10221000AF93BF93EF93FF938091CB0487FF07C0E9
:1022200080E88093CA0403D80E94770186C0809119
:10223000CB0482FF18C084E08093CA0480912822D6
:1022400086FF7BC08091CC0481FD77C06EDD81115B
:1022500074C080910D22813011F4D0DB6EC08430C7
:1022600009F06BC021C08091CB0481FF26C082E0C1
:102270008093CA048091202286FF5FC08091CC04A5
:1022800081FD5BC052DD811158C080910D228230EA
:1022900041F484E080930D22E0E2F2E202E0069352
:1022A0004CC0833009F049C0E9E2F2E204E0059352
:1022B000E1E2F2E204E0059340C08091CB0484FFA8
:1022C00025C080E18093CA0481E04BDF81E849DFCB
:1022D00082E047DF82E845DF0E94FB081092C304DA
:1022E0001092212296E09093202283E48093212271
:1022F00010922922909328228093292289EC91E23E
:10230000809324229093252244DB17C08091CB0434
:1023100086FF08C080E48093CA0480E010DB0E943E
:1023200075010BC08091CB0485FF07C080E28093CC
:10233000CA0481E004DB0E947601FF91EF91BF9116
:10234000AF919F918F917F916F915F914F913F914D
:102350002F910F910F900FBE0F901F9018951F9205
:102360000F920FB60F9211240F931F932F933F9349
:102370004F935F936F937F938F939F93AF93BF938D
:10238000CF93DF93EF93FF938091CC0481FF1AC02A
:1023900082E08093CC048091C5048195880FE0E2AF
:1023A000F2E2E81BF109208131812052324283E0C0
:1023B000369527958A95E1F7822F869520FD06C0F0
:1023C000C0E005C0B2DC882319F386C0C0E8C80F9E
:1023D0008C2FC8DAFC01208125FF7EC000E2069325
:1023E000C11174C080910D22843019F415DBD1DA4B
:1023F00073C0009122221091232280917024909129
:102400007124C0910922D0910A229E01200F311F10
:102410008217930718F48C010C1B1D0B80916E24FE
:1024200090916F24A80169EC71E28C0F9D1F83D0FD
:10243000C00FD11FC0930922D0930A220034110586
:1024400069F480910B2290910C228C0F9D1F20919A
:102450006C2430916D248217930788F0C093702408
:10246000D0937124E0917424F0917524309729F071
:102470000995811102C0B4DA2FC0C0DA2DC0809155
:102480007024909171248C179D07D9F4E0917424E5
:10249000F0917524309779F30995882361F32091A1
:1024A0000B2230910C228091092290910A22820FF6
:1024B000931F80930B2290930C221092092210926A
:1024C0000A22E0E2F2E202E0069306C0C03811F40C
:1024D000BEDB02C08C2FC2DAFF91EF91DF91CF916A
:1024E000BF91AF919F918F917F916F915F914F912C
:1024F0003F912F911F910F910F900FBE0F901F9042
:102500001895AA1BBB1B51E107C0AA1FBB1FA6172A
:10251000B70710F0A61BB70B881F991F5A95A9F78C
:1025200080959095BC01CD010895EE0FFF1F059099
:10253000F491E02D0994FB01DC0102C001900D92A1
:0C25400041505040D8F70895F894FFCFA8
:10254C00FF5580008000FB07F5070508F207000027
:10255C004420162000001C201A2006200902270007
:10256C0001010080FA0904000003FFFFFF000705CA
:10257C0081024000000705020240000007058301AC
:10258C00FF0301001201000200000040EB0300A059
:10259C000002010200010000000300000000000026
:1025AC00000000000000000000000000000000001F
:1025BC00000000000000000000000000000000000F
:1025CC0000000000000000000000555342476F62FD
:1025DC00696E6461722044756D6D7920446576690D
:1025EC00636500546170697254656368000004038C
:1025FC000904100020004000800000010002FF03CD
:00000001FF
