S01500005553425F42554C4B5F544553542E73726563F9
S113000017C1000031C100002FC100002DC1000044
S11300102BC1000029C100000C9410090C941F0985
S113002023C1000021C100001FC100001DC1000048
S11300301BC1000019C1000017C1000015C1000058
S113004013C1000011C100000FC100000DC1000068
S11300500BC1000009C1000007C1000005C1000078
S11300600C94FB090C94060AFFC00000FDC00000BC
S1130070FBC00000F9C00000F7C00000F5C000009C
S1130080F3C00000F1C00000EFC00000EDC00000AC
S1130090EBC00000E9C00000E7C00000E5C00000BC
S11300A0E3C00000E1C00000DFC00000DDC00000CC
S11300B0DBC00000D9C00000D7C00000D5C00000DC
S11300C0D3C00000D1C00000CFC00000CDC00000EC
S11300D0CBC00000C9C00000C7C00000C5C00000FC
S11300E0C3C00000C1C00000BFC00000BDC000000C
S11300F0BBC00000B9C00000B7C00000B5C000001C
S1130100B3C00000B1C00000AFC00000ADC000002B
S1130110ABC00000A9C00000A7C000009FC400003D
S1130120A3C00000A1C000009FC000009DC000004B
S11301309BC0000099C0000097C0000095C000005B
S113014093C0000091C000008FC000000C9470099F
S11301508BC0000089C0000087C0000085C000007B
S113016083C0000081C000007FC000007DC000008B
S11301707BC0000079C0000077C0000075C000009B
S113018073C0000071C000006FC000006DC00000AB
S11301906BC0000069C0000067C0000065C00000BB
S11301A063C0000061C000005FC000005DC00000CB
S11301B05BC0000059C0000057C0000055C00000DB
S11301C053C0000051C000004FC000004DC00000EB
S11301D04BC0000049C0000047C0000045C00000FB
S11301E043C0000041C000003FC000003DC000000B
S11301F03BC000000C941C140C94D4140F04110480
S113020013041504170419041B041D04D70BFD0B58
S1130210240C4D0C560C5B0CA00CA50CC40CCB0C84
S1130220670C6F0C770C820C840C860C8E0C960C6D
S113023011241FBECFEFCDBFDFE2DEBF10E2A0E08E
S1130240B0E2EAECFBE202C005900D92AA3BB107D2
S1130250D9F72DE2AAEBB0E201C01D92AC3FB20780
S1130260E1F794D20C94E315CBCE84E0809356004E
S11302708CE1BCD3809363008BEB8093660080E8B1
S11302808093650081E08093600088ED84BF1092C4
S1130290410083E080935000809151008330E1F766
S11302A08091500081608093500088E180935500D4
S11302B08091510080FFFCCF809150008061809339
S11302C050008091510084FFFCCF88ED84BF84E00E
S11302D0809340000895E0E7F0E085818E7F858378
S11302E0E0E0FAE08FEB9DE586A397A380EE9EE223
S11302F080A391A382E0808308958091200A909145
S1130300210A813E2EE2920718F020919E2306C016
S1130310803E2EE2920721F020919B2320936A00D5
S113032020910520222321F080910520815033C0A3
S1130330885F9A42813D974080F11092BA20809163
S1130340BB209091BC20A091BD20B091BE2001960D
S1130350A11DB11D8093BB209093BC20A093BD2010
S1130360B093BE208091BB209091BC20A091BD2071
S1130370B091BE20892F9A2FAB2FBB278093BE2329
S11303808091BB209091BC20A091BD20B091BE2053
S11303908093BD2386E0809305208091072090916F
S11303A008200196B1F4809109208F3F91F080914B
S11303B00620811106C0809106208150809306207A
S11303C008958091140190911501809307209093D2
S11303D008200895009709F45EC00CF457C040E06B
S11303E020916B0030E020939C2330939D23209137
S11303F09C2330919D233695322F222737952795BC
S113040020939C2330939D2350916A0020919C2338
S113041030919D23250F311D20939C2330939D23E0
S1130420000020919C2330919D232817390728F43C
S113043010929C2310929D23089520919C23309127
S11304409D23280F391F2115304238F08FEF9FE18B
S113045080939C2390939D23089520919C23309115
S11304609D23442329F0A901481B590BCA0102C04A
S1130470820F931F80939C2390939D2380919C23B0
S113048090919D238F7780936A000895919581952B
S1130490910941E0A5CF0895CF93DF93C091200A3D
S11304A0D091210A80910320909104209E01281B61
S11304B0390B20939F233093A0238091BA2081117C
S11304C04BC080919F239091A0238E3C9F4FD4F4E6
S11304D080919F239091A0238B369F4F9CF0809115
S11304E00220882321F080910220815008C080914D
S11304F06A0080939E2381E08093BA208CE08093ED
S113050002202AC08CE08093022080919F23909146
S1130510A0238A369F4F1CF08FEF9FEF02C081E02B
S113052090E08093992390939A2380919F239091B4
S1130530A0232091992330919A2360E370E00E94D4
S1130540BA15261B370B2093992330939A23809155
S1130550992390919A233EDF8091BA20813029F526
S113056080919F239091A023C39794F080910220BF
S1130570882331F08091022081508093022015C09D
S113058080916A0080939B2383E08093BA200DC0FE
S113059080919F239091A023873991051CF481E0D9
S11305A090E002C08FEF9FEF15DFC0930320D0933C
S11305B00420DF91CF9108958617970779F0681783
S11305C0790728F49C01261B370BB90109C086174B
S11305D0970718F4681B790B03C0089560E070E076
S11305E0CB010895CF93DF93809100209091012057
S11305F0892B51F0809100209091012001978093E4
S113060000209093012043C080E490E08093002078
S11306109093012080910720909108200196B9F1D0
S1130620809114019091150120910920263018F42D
S113063067E771E002C06EEE72E00E94A615EC015D
S113064080910720909108208C179D0758F46091A1
S1130650072070910820CE01AFDF029718F080ECDC
S11306609DE511C08091072090910820C817D907F3
S113067070F46091072070910820CE019DDF0297ED
S113068030F08FEB9DE58093360A9093370ADF9123
S1130690CF910895AC01460F571F861B970B2091ED
S11306A0200A3091210A24173507C8F72091200A1F
S11306B03091210A8217930790F70895E0E8F6E055
S11306C08FE0808385E0848308951F93CF93DF9325
S11306D0C0E4D0E0198180E4898340E250E064ED15
S11306E07DE280E290E00E94350F1983DF91CF9183
S11306F01F9108951F93CF93DF93C0E4D0E0198135
S113070080E4898387ED97E20E947D0F81E00E9457
S11307108F0F1983DF91CF911F91089508950F933F
S11307201F93842F242F30E0215831099DE7929F95
S1130730A001939F500D112490910920953048F405
S1130740843810F049585E4F9091C42027E731E077
S113075004C09091C4202EEE32E0929FB001939F8A
S1130760700D11249A01260F371FA9014850584DC6
S11307700FE813E02DE730E060E00E9447131F917B
S11307800F9108951CBEEEEFF0E409949EDF809172
S1130790D42D882369F080E2E4EDFDE2A7EDB7E211
S11307A001900D928A95E1F71092D727A3DFEADF33
S11307B087E08093A200789458DDB0DF82D761D1BE
S11307C084D160E080E01BD107D18CE0FBD046D51A
S11307D0EAD503D673DF60EA70E28AEA93E20E9404
S11307E0DC15000000000000000000000000000014
S11307F000000000000000000000000000008091E4
S1130800BF20882371F3E091D6258E2F90E08830A5
S11308109105A0F4FC01E250FF4F0C94CD1581D159
S11308200DC0F1D10BC078D209C0FCD207C088D367
S113083005C00ED403C00DD401C07ED41092BF20D5
S1130840D0CF08950895809114018093B3238091AB
S113085015018093B423809124018093B523809162
S113086025018093B6238091200A8093BF23809131
S1130870210A8093C023809114019091150186343C
S1130880914080F08091140190911501893A914032
S113089048F480911401909115018093F42D909364
S11308A0F52D00008091C220882339F014DD1092C8
S11308B0C22081E08093C12008958091C1208823C3
S11308C041F08091BA20833019F417DD8BDE01C02A
S11308D0E3DD8091C020882351F080911401909130
S11308E015018093F42D9093F52D1092C0208091E2
S11308F009202091140130911501853028F481E0FC
S11309002737314030F004C081E02E3E324008F0F9
S113091080E08093C42008950F931F9381E0809317
S1130920C7208093C2200FE813E02DE730E048EFA2
S113093057E260E081E80E9447132DE730E045E785
S113094058E260E082E80E9447132DE730E042EF6E
S113095058E260E083E80E9447132DE730E04FE659
S113096059E260E084E80E9447132DE730E04CEE42
S113097059E260E085E80E9447132DE730E049E63C
S11309805AE260E086E80E94471381E01F910F91CC
S113099008951092C720089581E0089581E0089594
S11309A010922002982F9C71936890932002881FC4
S11309B08827881F880F80932102109222021092A8
S11309C026020895E0E0F2E010AA836880AB80E19B
S11309D081AB12AA16AA0895E0E0F2E010A683E81B
S11309E080A78FE281A712A616A60895AAECB1E00B
S11309F092E09C93E82FF0E084911C9208959091EA
S1130A0071009D7F9093710010920002623011F08A
S1130A109CE101C09EE19093010290E49093020254
S1130A20811102C080E401C080EC80930302613034
S1130A3011F084E001C083E08093040280E2D6DFF9
S1130A4080930C0281E2D2DF80930D02109218028F
S1130A501092190281E080930002BECF1F920F9280
S1130A600FB60F9211248F930000000000000000C5
S1130A7081E0809323028F910F900FBE0F901F90FF
S1130A801895CF93DF93E0E7F0E082818B7F828338
S1130A90C0E2D3E08DE0888380E4898389E08A839F
S1130AA083E3A4DF888782E3A1DF898787E39EDF6E
S1130AB08A8786E39BDF8B87E0E2F6E080818360B0
S1130AC080831482DF91CF910895E0E7F0E0808184
S1130AD08E7F808383E8809300010895E0E0F1E055
S1130AE0108A80E4808B10A280A310AA80ABE0E47B
S1130AF0F1E0108280831092C6201092C52081E01C
S1130B008093C4201092A8231092A9231092A623A4
S1130B101092A72308958093D62581E08093BF2067
S1130B200895CF93DF9310920920D8DFC0E0D1E07D
S1130B301EAA84E288AB19AA49E54AAB32E03BAB72
S1130B4060910B2070910C206CAB7DAB67ED75E26E
S1130B5068AF79AF1AAE9BE39CAF93E090933D01ED
S1130B6010923E0128A9206828AB10924601E0E4C7
S1130B70F1E080831092410140934201909343013C
S1130B8040910D2050910E20409344015093450113
S1130B9046EC53E2409348015093490110924A01B4
S1130BA029E320934C0190934D0110924E019081C2
S1130BB090689083188A90E4988B888B198A95E9B9
S1130BC09A8B90E19B8B4EEE52E04C8B5D8B888F21
S1130BD0398F1A8E88EF97E28C8F9D8F1E8E68EC6A
S1130BE070E084EF91E056DD88EC90E0809307207C
S1130BF09093082081E08093062088898068888B00
S1130C00DF91CF9108951F93CF93DF9311E0109359
S1130C10092064DFC0E0D1E018AA80E488AB84E056
S1130C2088AB19AA1AAA4BE44BAB1CAA1DAA1EAA8C
S1130C308AE090E288AF99AF1AAE60EA6CAF38E010
S1130C4030933D0110923E0188A9806A88ABE0EAA6
S1130C50F8E085E58083808310924601E0E4F1E0CA
S1130C6084E280831092410199E59093420122E04D
S1130C7020934301A0910B20B0910C20A093440138
S1130C80B0934501A7EDB5E2A0934801B0934901A3
S1130C9010924A019BE390934C0193E090934D0191
S1130CA010924E0190819068908388A319A295E9CF
S1130CB09AA34BA34EEE52E04CA35DA368A739A7B9
S1130CC01AA666EE7AE26CA77DA71EA6888B198AFF
S1130CD09A8B90E19B8B4C8B5D8B888F298F1A8E1E
S1130CE088EF97E28C8F9D8F1E8E68EC70E084EF06
S1130CF091E0D0DC88EC90E080930720909308206A
S1130D001093062088A1806888A388898068888BCE
S1130D10DF91CF911F9108951F93CF93DF9312E03A
S1130D2010930920DBDEC0E0D1E01EAA84E288AB88
S1130D3019AA39E53AAB1BAB40910B2050910C201A
S1130D404CAB5DAB47ED55E248AF59AF1AAE9BE3F0
S1130D509CAF93E090933D0110923E0128A9206836
S1130D6028AB10924601E0E4F1E080831092410147
S1130D70309342019093430120910D2030910E2035
S1130D80209344013093450126EC33E2209348013B
S1130D903093490110924A0129E320934C01909326
S1130DA04D0110924E01908190689083188A90E4CE
S1130DB0988B888B198A45E94A8B90E19B8B2EEEA0
S1130DC032E02C8B3D8B888F198F1A8E68EF77E277
S1130DD06C8F7D8F1E8E88A319A24AA39BA32CA37C
S1130DE03DA384E388A719A71AA686EE9AE28CA7E6
S1130DF09DA71EA668EC70E084EF91E04BDC88ECC4
S1130E0090E0809307209093082081E0809306204F
S1130E1088898068888B88A1806888A3DF91CF91B6
S1130E201F9108951F93CF93DF9313E0109309202C
S1130E3055DEC0E0D1E010924601E0E4F1E084E246
S1130E4080831092410129E52093420192E090931E
S1130E50430140910B2050910C2040934401509346
S1130E60450147ED55E240934801509349011092E2
S1130E704A019BE390934C0110934D0110924E0153
S1130E809081906890831EAA88AB19AA2AAB1BABE9
S1130E9020910D2030910E202CAB3DAB26EC33E29B
S1130EA028AF39AF1AAE99E39CAF10933D0110926D
S1130EB03E0198A9906898AB18A250E458A394E016
S1130EC098A319A21AA24BE44BA31CA21DA21EA212
S1130ED02AE030E228A739A71AA630EA3CA728E07E
S1130EE02DA71EA698A1906A98A395E59093A008B3
S1130EF0188A588B888B198A85E98A8B4B8B8EEEDE
S1130F0092E08C8B9D8B388F298F1A8E88EF97E215
S1130F108C8F9D8F1E8E68EC70E084EF91E0BADBBD
S1130F2088EC90E0809307209093082081E08093E0
S1130F30062088898068888BDF91CF911F9108955E
S1130F401F93CF93DF9314E010930920C7DDC0E013
S1130F50D1E018AA80E488AB18AB19AA1AAA3BE41A
S1130F603BAB1CAA1DAA1EAA8AE090E288AF99AFE7
S1130F701AAE50EA5CAF88E080933D0110923E01C6
S1130F8098A9906A98AB95E59093A00810924601B1
S1130F90E0E4F1E094E290831092410129E520938A
S1130FA0420122E02093430160910B2070910C20B8
S1130FB0609344017093450167ED75E260934801C5
S1130FC07093490110924A012BE320934C0123E0D2
S1130FD020934D0110924E01208120682083988B2C
S1130FE0198A45E94A8B3B8B2EEE32E02C8B3D8BE4
S1130FF0588F898F1A8E68EF77E26C8F7D8F1E8EE3
S113100098A319A24AA39AE49BA32CA33DA393EC0F
S113101098A789A71AA686EE9AE28CA79DA71EA672
S113102068EC70E084EF91E035DB88EC90E080932D
S113103007209093082081E08093062088898068A7
S1131040888B88A1806888A3DF91CF911F91089530
S1131050FFCFCF93DF9386E0809309203FDDC0E08C
S1131060D1E01EAA84E288AB19AA39E53AAB93E031
S11310709BAB40910D2050910E204CAB5DAB46ECE8
S113108053E248AF59AF1AAE29E32CAF90933D0118
S113109010923E0128A9206828AB10924601E0E492
S11310A0F1E08083109241013093420132E03093A9
S11310B0430140910B2050910C20409344015093E4
S11310C0450147ED55E24093480150934901109280
S11310D04A012BE320934C0190934D0110924E0151
S11310E0208120682083188A20E4288B888B998BA0
S11310F095E99A8B90E19B8B4CED55E04C8B5D8B85
S1131100888F398F1A8E88EF97E28C8F9D8F1E8E71
S113111068EC70E084EF91E0BDDA80E991E08093BF
S113112007209093082081E08093062088898068B6
S1131130888BDF91CF910895CF93DF9387E08093DD
S11311400920CCDCC0E0D1E01EAA94E298AB19AA35
S113115039E53AAB83E08BAB40910D2050910E20E2
S11311604CAB5DAB46EC53E248AF59AF1AAE29E342
S11311702CAF80933D0110923E0128A9206828AB32
S113118010924601E0E4F1E0908310924101309323
S1131190420132E03093430140910B2050910C20E6
S11311A0409344015093450147ED55E24093480173
S11311B05093490110924A012BE320934C018093F0
S11311C04D0110924E01208120682083188A20E46A
S11311D0288B25E2288B898B85E98A8B80E18B8B90
S11311E04CED55E04C8B5D8B988F398F1A8E88EFC0
S11311F097E28C8F9D8F1E8E68EC70E084EF91E0F7
S113120049DA80E991E0809307209093082081E0F7
S11312108093062088898068888BDF91CF91089518
S11312201F920F920FB60F9211248F9381E0809337
S113123003018F910F900FBE0F901F9018951F926E
S11312400F920FB60F9211248F9382E080930301C3
S11312508F910F900FBE0F901F901895E0E7F0E06C
S113126083818C7F838384818C7F848380818D7F41
S11312708083E0E8F1E080EC8283128688EC81834D
S11312801186A0E0B8E034E03C9323E011962C935F
S1131290119714961C92149785ED91E096968D9370
S11312A09C93979716961C921697E0E4F8E0308387
S11312B02183148286A397A31682E0E6F6E0808158
S11312C080618083E0E4F9E083E18183148282E039
S11312D08683A6A3B7A310A611A681E080830895F0
S11312E01F920F920FB60F9211242F933F934F9397
S11312F05F938F939F93CF93DF931F92CDB7DEB706
S11313008FEF80934C0980910920873031F48091CC
S11313102C02898390912D0202C090912C0280911D
S1131320C320891B209168093091690982308CF0AF
S11313302A3F374070F42091680930916909893057
S11313401CF481E090E002C086E090E0820F931FDD
S113135018C020916809309169098F3FB4F427308F
S1131360310598F02091680930916909883F1CF093
S113137081E090E002C086E090E0A901481B590B8F
S1131380CA0180937809909379090F90DF91CF91E6
S11313909F918F915F914F913F912F910F900FBE2D
S11313A00F901F901895E0E7F0E083818F7E838390
S11313B0E0E4F6E080818A6A80838FEF848388E5A5
S11313C0828BE0EAF8E080E3838384EC858387E022
S11313D08683178288E184830895E0E7F0E08381BF
S11313E0877F8383E0ECF8E080E48083118288E5E2
S11313F08093550608951F920F920FB60F921124F1
S113140000000F900FBE0F901F9018951F920F921F
S11314100FB60F9211248F93EF93FF93E0EAF8E055
S113142080818083FF91EF918F910F900FBE0F9079
S11314301F9018959FB7F894A0E5B0E016968C918C
S11314401697897F16968C931697E0E6F0E080E86D
S113145085838BEB868316968C91169784601696FB
S11314608C938081816080839FBF08959FB7F89497
S1131470E82FF0E0E059FF4F609580816823608396
S11314809FBF0895CF93863011F0C0E001C0C8E13A
S11314908091510081FD0DC09FB7F8948091500058
S11314A08260809350009FBF8091510081FFFCCFE8
S11314B0C1DF6C2F636084E490E0BCD460E480E01E
S11314C0CF91D4CF8091C82008958091C8208130D5
S11314D009F45FCA0895F0D0FC0183818093C82089
S11314E0811101C019CA81E008959091C625892F00
S11314F0807697FF07C0803491F48091C7258111CD
S11315000EC04CCA803459F48091C725811107C09C
S11315108091CC259091CD25892B09F03DCA80E09E
S113152008958091C8258F770C94C9129091D0208A
S1131530911102C080E00895E091CD20F091CE2079
S11315400190F081E02D94818917A0F7E093CB20DE
S1131550F093CC20228133812E0F3F1FE217F30733
S113156098F49181943061F49281891309C0938134
S1131570691306C0E093CB20F093CC2081E008955A
S11315809081E90FF11DEACFE093CB20F093CC20BA
S1131590D1CFE091CD20F091CE200190F081E02DCB
S11315A0228133812E0F3F1FFC014081E40FF11D86
S11315B0E217F30748F48181843031F0853039F043
S11315C08081E80FF11DF4CF80E090E00895CF0111
S11315D008951F93CF93DF93182FA8DF882339F141
S11315E0C091CB20D091CC20CE01D3DFEC01892B4C
S11315F041F04C815D816B818A81D8D78111F4CF10
S113160016C0E091CD20F091CE2092818381E92F04
S1131610F82FE10FF11DE10FF11D0190F081E02D94
S11316200190F081E02DDF91CF911F91099480E02A
S1131630DF91CF911F910895EF92FF921F93CF9363
S1131640DF93C82F60E072DF811102C010E02DC06B
S1131650E091CD20F091CE2092818381E92FF82F63
S1131660EC0FF11DEC0FF11DE080F180D70116960F
S1131670ED91FC9117970995682F8C2F57DF182F40
S1131680882321F3C091CB20D091CC20CE0181DFDF
S1131690EC01892B21F08A810E940314F7CFD70132
S11316A01296ED91FC9113970995812FDF91CF91BB
S11316B01F91FF90EF9008958091CB209091CC20C2
S11316C00895FBC6CF938091D020811108C0109259
S11316D0D0201092D4201092D520CF910895C0E04C
S11316E0E091CD20F091CE200190F081E02D848115
S11316F0C81768F78C2FA0DFCF5FF2CFCF9380910C
S1131700D0208823F1F0C0E0E091CD20F091CE20EC
S1131710A081B18114968C91C81798F49281838129
S1131720E92FF82FEC0FF11DEC0FF11D0190F08162
S1131730E02D0084F185E02D309709F00995CF5F05
S1131740E3CFCF910895EF92FF920F931F93CF931E
S1131750DF931F92CDB7DEB71092D0251092D1251A
S11317601092D2251092D3251092D4251092D5250B
S11317708091C62587FF07C02091CC253091CD25C7
S1131780232B09F44EC3982F9076903409F00BC1A3
S1131790E091C7258E2F90E0FC01E05AF109EA3070
S11317A0F10508F0CDC2EA5FFE4F0C94CD1581E03F
S11317B08093C02080910720909108208093B723C4
S11317C080910720909108209093B82380919E23C4
S11317D08093B92380919B238093BA2380916A00DC
S11317E08093BB2380916B008093BC236091CC25B4
S11317F07091CD258AEA93E2D4C0109200088091BA
S1131800C8259091C9258093360890933708809114
S1131810CA258F70809300086091CC257091CD25E6
S113182086EC93E2BCD620910D2030910E2080915D
S1131830CC259091CD252817390709F4F0C280935F
S11318400D2090930E2026C0109240088091C82548
S11318509091C92580937608909377088091CA2542
S11318608F70809340086091CC257091CD2587EDD1
S113187095E295D620910B2030910C208091CC25B7
S11318809091CD252817390709F4C9C280930B20FC
S113189090930C208091092051C0109268091092F5
S11318A069098091C8258093C320B9C28091C82555
S11318B080932406B4C2E091C825F091C925E8308C
S11318C0F10508F03DC2E05FFE4F0C94CD1560E0D9
S11318D080E095D88091CA2563D880E02FC060E06D
S11318E080E08DD88091CA255BD881E027C061E073
S11318F081E085D88091CA2553D88091CB2562D8C0
S113190082E01CC083E01AC084E018C060E080E07C
S113191076D88091CA2544D885E010C061E080E083
S11319206ED88091CA253CD886E008C062E080E089
S113193066D88091CA25806833D887E0ECD86FC216
S11319408091C825809384066AC28091C8259091AD
S1131950C925892B91F00E94650380E2E4EDFDE244
S1131960A7EDB7E201900D928A95E1F781E08093AB
S1131970D7270E947A030E946503E9E7F0E091E02B
S113198088EDF89484BF90836091CC257091CD2527
S11319908AEA90E206C06091CC257091CD2589EA4F
S11319A090E2FDD53CC29111CBC187FFFCC02091D0
S11319B0CC253091CD252115310509F4C1C18F7194
S11319C009F09EC08091C725863071F0883009F4F3
S11319D08EC08111B5C12230310509F0B1C162E078
S11319E070E084ED90E2DDCF8091C8259091C92507
S11319F0292F332722303105A1F064F42130310539
S1131A0009F09EC18091192090911A20DC016C91FB
S1131A1070E05BC02330310589F12F30310509F1C5
S1131A208FC1E0911920F0911A202189821708F0C2
S1131A3087C19927880F991F880F991FE0911B2050
S1131A40F0911C20E80FF91F80819181FC016281D3
S1131A507381A5D5E091CE25F091CF2582E08183D5
S1131A6035C080911D2090911E20009709F468C113
S1131A70DC0112966D917C91139727C099278130D0
S1131A80910569F038F0029709F05AC168E08AE8D4
S1131A9090E208C064E070E08CE990E216C067E070
S1131AA083E990E2282FAAE7B0E2FC01819190E05B
S1131AB08D939D938E2F821B8617C0F3660F6E5FE6
S1131AC06093782070E088E790E269D58091CC2516
S1131AD09091CD252091D0253091D125821793075F
S1131AE008F09DC18093D0259093D12598C12130D1
S1131AF0310509F025C161E070E080ED90E251CF3D
S1131B008130C9F58091C7258A3009F019C1213087
S1131B10310509F015C18091D020882309F410C142
S1131B20E090CA25F090CB250091CD201091CE20D5
S1131B30D801ED91FC918481E81608F001C160E0C0
S1131B408E2DF4DC882309F4FBC0FF24EE0CFF1C6B
S1131B50F801828193818E0D9F1DDC01ED91FC9132
S1131B600680F781E02D09958093D22061E070E032
S1131B7082ED90E216CF823009F0E2C08091C72551
S1131B808111DEC02230310509F0DAC08091CA2506
S1131B905ED590E08093C9209093CA2062E070E003
S1131BA089EC90E2FECE8F7109F07DC08091C7254B
S1131BB0833009F4C5C018F48130A1F0C1C0853068
S1131BC019F0893039F1BCC08091CC259091CD2594
S1131BD0892B09F0B5C081E99AE08093D2259093CE
S1131BE0D3251DC18091CC259091CD25892B09F059
S1131BF0A7C08091C8259091C925019709F0A0C07C
S1131C008091D4209091D5208D7F8093D42090937F
S1131C10D52005C18091CC259091CD25892B09F043
S1131C208FC0BAD4882309F48BC02091C825309181
S1131C30C9253327E0911920F0911A20818990E079
S1131C408217930708F47CC03DDD8091C8259091EC
S1131C50C9258093D020882309F4E1C099278150B5
S1131C60904C880F991F880F991F20911B20309149
S1131C701C20820F931F8093CD209093CE2010E0E0
S1131C80E091CD20F091CE200190F081E02D84816F
S1131C90181708F0C4C060E0812F9BDC882309F486
S1131CA04FC01F5FEDCF8130F1F48091C7258B3099
S1131CB009F046C08091CC259091CD25892B09F05F
S1131CC03FC08091D020882309F43AC01091CA25DE
S1131CD06091C825812F6983AFDC6981882381F1F4
S1131CE0812F77DC2BC0823059F58091C725813054
S1131CF019F0833089F024C08091CC259091CD25B2
S1131D00892BF1F48091C8259091C925892BC1F4C0
S1131D108091CA25A3D412C08091CC259091CD2561
S1131D20892B71F48091C8259091C925892B41F4A0
S1131D308091CA2538D58091CA256ED581116FC08E
S1131D408091C6258F718130B9F58091D020882388
S1131D5099F1E090CA25F090CB250091CD20109107
S1131D60CE20D801ED91FC918481E81628F560E03D
S1131D708E2DDCDB882301F1F701FF27EE0FFF1F17
S1131D80D80112968D919C911397E80FF91F008149
S1131D901181D8011696ED91FC9117970995682F3A
S1131DA08E2DC4DB882341F0D8011496ED91FC916B
S1131DB015970995811133C08091C6258F718230A2
S1131DC081F58091D020882361F1F12CE091CD2020
S1131DD0F091CE20A081B18114968C91F81608F56B
S1131DE092818381E92FF82FEF0DF11DEF0DF11D85
S1131DF000811181D8011696ED91FC9117970995F0
S1131E00682F8F2D93DB882361F0D8011496ED9110
S1131E10FC9115970995811102C0F394D7CF81E005
S1131E2001C080E00F90DF91CF911F910F91FF903F
S1131E30EF9008951BBEFC0128ED24BF6083089534
S1131E408091CF0187FDFCCF08951F93CF93DF933B
S1131E50C0ECD1E01A858A8761E08BEC91E0EADF7F
S1131E601A87DF91CF911F910895CF92DF92EF925D
S1131E70FF920F931F93CF93DF9300D0CDB7DEB7BC
S1131E808C017B0149835A83DBDF8CECC82EDD2473
S1131E90D394F601908198609083B801705F498172
S1131EA05A81C70180D6F6018081877F80830F9095
S1131EB00F90DF91CF911F910F91FF90EF90DF90E2
S1131EC0CF900895CF93DF9300D0CDB7DEB76A8368
S1131ED08983B6DFACECB1E09C9198609C938981D6
S1131EE0E82FF0E0F05F6A8160838C91877F8C93A8
S1131EF00F900F90DF91CF9108950F931F93CF937D
S1131F008C019EDFC0E0F80161918F018C2FDADF34
S1131F10CF5FC032C1F7CF911F910F910895CF9336
S1131F20DF931F92CDB7DEB789838ADF898120E2F0
S1131F30829FC0011124E0ECF1E01282918380833E
S1131F4085E30F90DF91CF9180CF4091CA01E62FB6
S1131F50F72F8093CA0184914093CA010895E82F12
S1131F60F0E0EA50F24D80818F3F09F4FFCF9FB734
S1131F70F89480818F5F80839FBF0895E82FF0E0FD
S1131F80EA50F24D8081811101C0FFCF9FB7F894D0
S1131F908081815080839FBF0895CF93C82F809103
S1131FA09823C11105C0882339F081E0E7DF04C01C
S1131FB0811102C081E0D3DFC0939823CF910895AB
S1131FC0282F2F70082E000C990B392F331F33271D
S1131FD0331F832F90E0820F911D820F911D23E008
S1131FE0880F991F2A95E1F78C5D9C4D08950F93F6
S1131FF0E8ECF4E080818F7D808380818F7D808315
S1132000ECE2F3E202E0059310922E2310922F23C8
S113201000E2069300E40693E4E2F3E200E20693AE
S113202000E40693E6ECF5E2148615861686178618
S113203012861386109207230F9108950F9385E05B
S113204080930723EDE2F3E204E00593E5E2F3E293
S113205004E005930F9108950F9383E08093072381
S113206010922E2310922F23ECE2F3E202E0069367
S11320700F910895E091D225F091D325309709F07E
S113208009940895282F2F70082E000C990B392FCE
S1132090331F3327331F832F90E0820F911D820F4C
S11320A0911D029749E0489F9001499F300D1124EA
S11320B0C901895A9D4D08958F929F92AF92BF9204
S11320C0DF92EF92FF920F931F93CF93DF93D82E5B
S11320D0D9DFEC018D2D74DF7C01DC011196EC91CC
S11320E0E770E150E73040F4F0E0EE0FFF1FE455F5
S11320F0FF4D0081118102C008E010E0ED81FE81F6
S11321002B813C814881D701D7FE48C016968D911A
S11321109C9117978E0F9F1F8D839E838217930721
S113212061F1281B390B2115B4E03B0738F02FEF80
S113213033E0C901B8010AD5281B390B41FF0AC095
S1132140C901B80103D5AC0191E0452B09F090E039
S1132150892F01C080E0988180FB91F99883F70171
S1132160168217822283338329813A818D819E814D
S1132170820F931F848395830EC041FF71C04D7FEE
S11321804883D70116961D921C92179712961D929A
S11321901C921397F70102E006937BC01296AD9050
S11321A0BC90139742FF10C089809A80C901B8017E
S11321B0CDD4B0E4DB9EB001112469567F4DAC014F
S11321C0C4018E0F9F1FEFD48D819E818A0D9B1DAC
S11321D08D839E832B813C812817390710F42D832E
S11321E03E83F70186819781A816B906C9F58D81CA
S11321F09E8182179307A1F1281B390B2115F4E066
S11322003F0710F02FEF33E0C901B8019FD4281B1A
S1132210390BD70112961D921C9213972017310780
S113222078F4888184608883B0E4DB9EC001112443
S113223089569F4DF7018483958306831783AACF1C
S113224049815A818D819E81840F951FD7011496EF
S11322508D939C93159716962D933C9317979ACF2D
S1132260888180FF16C08E7F8883EF81F885309740
S113227081F06D817E814D2D80E0DF91CF911F91A2
S11322800F91FF90EF90DF90BF90AF909F908F9051
S11322900994DF91CF911F910F91FF90EF90DF9000
S11322A0BF90AF909F908F9008950F93CF93DF933B
S11322B080910723833029F4DDDEDF91CF910F91E4
S11322C096CE2091032330910423C091D025D09140
S11322D0D125C21BD30B61F5809105239091062370
S11322E0820F931F80930523909306232091CC257E
S11322F03091CD252817390721F08091D6208823E5
S113230031F084E080930723E4E2F3E236C0E09105
S1132310D425F091D525309799F00995882381F03B
S11323201092032310920423C091D025D091D1257B
S1132330C034D10528F01092D620C0E4D0E003C008
S113234081E08093D620C0932E23D0932F238091B5
S11323500323909104232091CE253091CF25280F7B
S1132360391F2093302330933123C80FD91FC093D2
S11323700323D0930423ECE2F3E202E00693DF911B
S1132380CF910F9108950F93CF93DF931F92CDB701
S1132390DEB78091CC0480FF65C021E02093CC049B
S11323A084E293E2FC0100E80693ECE2F3E200E845
S11323B006932093CA04FC0100E10693809107234D
S11323C0882329F08350823008F454DE10DE809193
S11323D0262390912723089709F046C088E0E3EC70
S11323E0F2E2A6ECB5E201900D928A95E1F78091B4
S11323F0C80480628093C8048091C804806280937A
S1132400C804A1D9811102C019DE2EC09091C6253D
S113241097FF0EC0109205231092062310920323F7
S11324201092042392E09093072389833EDF08C02F
S11324302091CC253091CD25232B21F489830CDEEA
S1132440898113C01092052310920623109203234E
S11324501092042391E090930723E4E2F3E202E074
S1132460069303C080E001C081E00F90DF91CF911B
S11324700F910895CF93CFB7F89481E08EDDEAEC05
S1132480F4E080E4808380E28083E1ECF4E0808106
S113249081608083A9ECB4E08C9182608C93E8EC39
S11324A0F4E08081806480838C9181608C9380814E
S11324B080688083CFBFCF910895CF93109260003E
S11324C080E30E94420A8091C00480648093C00427
S11324D081E080936000CFB7F89480E090E0FC0145
S11324E023E0EE0FFF1F2A95E1F7E85FFC4D158E00
S11324F001968E30910599F780E090E039E0389F9D
S1132500F001399FF00D1124E95AFD4D20812E7FF1
S1132510208301968C30910591F76AE170E082E0A6
S113252014DD8F3F09F48FE18093FA046BE170E0CE
S113253082E00BDD8F3F09F48FE18093FB048091EF
S1132540C00486608093C0048091C0048068809336
S1132550C0048091C00480618093C00484E293E24B
S11325608093C6049093C7048091C00480628093D2
S1132570C0048FEF8093C5048091C8048260809367
S1132580C8041092982385E0EADC74DFCFBFCF91B2
S113259008958093C30408958091C3040895E6ECDC
S11325A0F5E2808791876287738708950F931F935D
S11325B0CF93DF931F92CDB7DEB78A01698300DD25
S11325C0FC018181807C698181113AC06370613032
S11325D019F020F080E803C080EC01C080E40038EA
S11325E01105E9F058F400321105A9F00034110581
S11325F0A1F000311105C9F491E018C0011592E071
S1132600190779F00F3F93E0190769F0011511409C
S113261061F495E00BC092E009C093E007C094E038
S113262005C096E003C097E001C090E0118226E067
S11326302083982B918381818062818381E001C012
S113264080E00F90DF91CF911F910F910895B8DC36
S1132650FC01818182FB882780F90895CF93C82FDC
S1132660AFDCFC01818182FF0FC091819B7F91834C
S11326708C2F08DDFC01908190FF06C09E7F908323
S11326800780F085E02D099581E0CF9108958F9220
S11326909F92AF92BF92DF92EF92FF920F931F939C
S11326A0CF93DF931F92CDB7DEB7D82E5A017901AD
S11326B06983E8DC4C018D2D83DC9C01DC011196DF
S11326C08C911197807C6981882309F45EC01196EE
S11326D08C911197807C803C21F011968C9182FD25
S11326E054C09FB7F894F401808180FF02C09FBF5B
S11326F04CC0816080839FBFF401A182B282E382D7
S1132700F482158216820783108791E0611104C058
S1132710E114F10409F090E0D4018C9190FB81F96B
S11327208B7F8C93D7FE04C0F9011682178229C0CF
S1132730D90111968C911197807C803CC9F4119633
S1132740EC91E770E150E73040F4F0E0EE0FFF1F4A
S1132750E455FF4D6081718102C068E070E0C701FB
S1132760F5D1892B29F0F40180818E7F80830DC0FF
S1132770D90112961D921C92139716961D921C92C3
S113278017978D2D99DC81E001C080E00F90DF91D7
S1132790CF911F910F91FF90EF90DF90BF90AF907A
S11327A09F908F900895EF92FF920F93CF93C82F2D
S11327B007DC7C018C2F66DCDC01F70102E0059369
S11327C09C9190FF1BC09E7F9C931796ED91FC916A
S11327D01897309799F0D701C7FF05C016966D91E9
S11327E07C91179704C012966D917C9113974C2F8E
S11327F081E0CF910F91FF90EF900994CF910F91C9
S1132800FF90EF900895CF93C82FCDDF8C2FD8DBA6
S1132810FC011182CF9108950F93CF93C82FD0DB81
S1132820FC0191819460918301E006938C2FBBDFBE
S113283081E0CF910F9108951F920F920FB60F92DE
S113284011240F932F933F934F935F936F937F9331
S11328508F939F93AF93BF93CF93EF93FF93809105
S1132860CB0487FF08C080E88093CA040E947E0BD3
S11328700E94230486C08091CB0482FF18C084E0A8
S11328808093CA0480912C2386FF7BC08091CC0462
S113289081FD77C078DD811174C080910723813078
S11328A011F4DADB6EC0843009F06BC021C0809172
S11328B0CB0481FF26C082E08093CA048091242344
S11328C086FF5FC08091CC0481FD5BC05CDD81111B
S11328D058C080910723823041F484E08093072319
S11328E0E4E2F3E202E006934CC0833009F049C00D
S11328F0EDE2F3E204E00593E5E2F3E204E005939C
S113290040C08091CB0484FF25C080E18093CA0439
S1132910C1E08C2F48DF8C2F806845DFCF5FC63045
S1132920C1F70E94620B1092C30410922523C09336
S1132930242383E48093252310922D23C0932C23F6
S113294080932D2383EC92E2809328239093292370
S11329504EDB17C08091CB0486FF08C080E48093CF
S1132960CA0480E01ADB0E9421040BC08091CB04CE
S113297085FF07C080E28093CA0481E00EDB0E94D9
S11329802204FF91EF91CF91BF91AF919F918F91CD
S11329907F916F915F914F913F912F910F910F9084
S11329A00FBE0F901F9018951F920F920FB60F92A3
S11329B011240F931F932F933F934F935F936F9320
S11329C07F938F939F93AF93BF93CF93DF93EF93B3
S11329D0FF938091CC0481FF1AC082E08093CC04E1
S11329E08091C5048195880FE4E2F3E2E81BF109C4
S11329F0208131812452334283E0369527958A958C
S1132A00E1F7822F869520FD06C0C0E005C0BBDC3F
S1132A10882319F386C0C0E8C80F8C2FD1DAFC01D3
S1132A20208125FF7EC000E20693C11174C080910D
S1132A300723843019F41EDBDADA73C000912623ED
S1132A40109127238091D0259091D125C091032303
S1132A50D09104239E01200F311F8217930718F48D
S1132A608C010C1B1D0B8091CE259091CF25A801C4
S1132A7063EC72E28C0F9D1F96D0C00FD11FC093E0
S1132A800323D09304230034110569F480910523B2
S1132A90909106238C0F9D1F2091CC253091CD253C
S1132AA08217930788F0C093D025D093D125E09165
S1132AB0D425F091D525309729F00995811102C0CC
S1132AC0BDDA2FC0C9DA2DC08091D0259091D125CF
S1132AD08C179D07D9F4E091D425F091D525309732
S1132AE079F30995882361F3209105233091062316
S1132AF08091032390910423820F931F80930523D5
S1132B00909306231092032310920423E4E2F3E249
S1132B1002E0069306C0C03811F4C7DB02C08C2F54
S1132B20CBDAFF91EF91DF91CF91BF91AF919F915C
S1132B308F917F916F915F914F913F912F911F9151
S1132B400F910F900FBE0F901F901895AA1BBB1BDF
S1132B5051E107C0AA1FBB1FA617B70710F0A61B99
S1132B60B70B881F991F5A95A9F780959095BC01BA
S1132B70CD01089597FB072E16F4009406D077FD37
S1132B8008D0E4DF07FC05D03EF4909581959F4F73
S1132B900895709561957F4F0895EE0FFF1F05907E
S1132BA0F491E02D0994FB01DC0102C001900D9227
S1132BB041505040D8F70895FB01DC0101900D927B
S10D2BC00020E1F70895F894FFCF18
S1132BCA40000CE02E0AFFFFFFFF55800080006BD7
S1132BDA0A650A750A620A000064201F2000002898
S1132BEA2023200F2000000009023C00010100807C
S1132BFAFA0904000006FFFFFF00070581018000AF
S1132C0A010705820180000107058301800001078D
S1132C1A05840180000107058501800001070586F6
S1132C2A018000011201000200000040EB0394BA83
S1132C3A000201020001000000030000000000007D
S1132C4A000000000000000000004C616272616430
S1132C5A6F72004573706F54656B000004030904B6
S1132C6A6465627567313233000102001000200086
S10D2C7A4000800000010002FF0387
S9030000FC
