:1000000016C1000030C100002EC100002CC100004C
:100010002AC1000028C100000C94FF080C94290993
:1000200022C1000020C100001EC100001CC1000050
:100030001AC1000018C1000016C1000014C1000060
:1000400012C1000010C100000EC100000CC1000070
:100050000AC1000008C1000006C1000004C1000080
:100060000C94200A0C942B0AFEC00000FCC0000077
:10007000FAC00000F8C00000F6C00000F4C00000A4
:10008000F2C00000F0C00000EEC00000ECC00000B4
:10009000EAC00000E8C00000E6C00000E4C00000C4
:1000A000E2C00000E0C00000DEC00000DCC00000D4
:1000B000DAC00000D8C00000D6C00000D4C00000E4
:1000C000D2C00000D0C00000CEC00000CCC00000F4
:1000D000CAC00000C8C00000C6C00000C4C0000004
:1000E000C2C00000C0C00000BEC00000BCC0000014
:1000F000BAC00000B8C00000B6C00000B4C0000024
:10010000B2C00000B0C00000AEC00000ACC0000033
:10011000AAC00000A8C00000A6C000008EC4000055
:10012000A2C00000A0C000009EC000009CC0000053
:100130009AC0000098C0000096C0000094C0000063
:1001400092C0000090C000008EC000000C94950981
:100150008AC0000088C0000086C0000084C0000083
:1001600082C0000080C000007EC000007CC0000093
:100170007AC0000078C0000076C0000074C00000A3
:1001800072C0000070C000006EC000006CC00000B3
:100190006AC0000068C0000066C0000064C00000C3
:1001A00062C0000060C000005EC000005CC00000D3
:1001B0005AC0000058C0000056C0000054C00000E3
:1001C00052C0000050C000004EC000004CC00000F3
:1001D0004AC0000048C0000046C0000044C0000003
:1001E00042C0000040C000003EC000003CC0000013
:1001F0003AC000000C949F130C945714CF03D10302
:10020000D303D503D703D903DB03DD03FA0B200C9B
:10021000470C700C790C7E0CC40CC90CD00C8A0CE9
:10022000920C9A0CA50CA70CA90CB10CB90C1124BA
:100230001FBECFEFCDBFDFE2DEBF10E2A0E0B0E235
:10024000E0EDFAE202C005900D92AA3BB107D9F7A2
:100250002FE2AAEBB0E201C01D92A03CB207E1F789
:1002600067D20C946615CCCE84E0809356008CE166
:10027000ACD3809363008BEB8093660080E880931F
:10028000650081E08093600088ED84BF109241009A
:1002900083E080935000809151008330E1F780919A
:1002A000500081608093500088E1809355008091D8
:1002B000510080FFFCCF80915000806180935000FE
:1002C0008091510084FFFCCF88ED84BF84E080934F
:1002D00040000895E0E7F0E085818E7F8583E0E0CF
:1002E000FAE08FEB9DE586A397A380EE9EE280A3C4
:1002F00091A382E0808308958091200A9091210A41
:10030000813E2EE2920718F02091A22306C0803E83
:100310002EE2920721F020919F2320936A002091E2
:100320000520222321F080910520815033C0885F71
:100330009A42813D974080F11092BA208091BB2073
:100340009091BC20A091BD20B091BE200196A11D2E
:10035000B11D8093BB209093BC20A093BD20B0938F
:10036000BE208091BB209091BC20A091BD20B09177
:10037000BE20892F9A2FAB2FBB278093C223809159
:10038000BB209091BC20A091BD20B091BE20809355
:10039000C12386E08093052080910720909108205A
:1003A0000196B1F4809109208F3F91F08091062051
:1003B000811106C080910620815080930620089507
:1003C000809114019091150180930720909308204B
:1003D0000895009709F45EC00CF457C040E02091E6
:1003E0006B0030E02093A0233093A1232091A02321
:1003F0003091A1233695322F2227379527952093C8
:10040000A0233093A12350916A002091A023309122
:10041000A123250F311D2093A0233093A123000099
:100420002091A0233091A1232817390728F4109296
:10043000A0231092A12308952091A0233091A123FD
:10044000280F391F2115304238F08FEF9FE180933C
:10045000A0239093A12308952091A0233091A1235C
:10046000442329F0A901481B590BCA0102C0820F7D
:10047000931F8093A0239093A1238091A023909118
:10048000A1238F7780936A000895919581959109B2
:1004900041E0A5CF0895CF93DF93C091200AD0917A
:1004A000210A80910320909104209E01281B390B82
:1004B0002093A3233093A4238091BA2081114BC0B1
:1004C0008091A3239091A4238E3C9F4FD4F48091DC
:1004D000A3239091A4238B369F4F9CF08091022000
:1004E000882321F080910220815008C080916A0009
:1004F0008093A22381E08093BA208CE08093022035
:100500002AC08CE0809302208091A3239091A423A1
:100510008A369F4F1CF08FEF9FEF02C081E090E082
:1005200080939D2390939E238091A3239091A42355
:1005300020919D2330919E2360E370E00E943D1541
:10054000261B370B20939D2330939E2380919D2360
:1005500090919E233EDF8091BA20813029F58091D1
:10056000A3239091A423C39794F080910220882321
:1005700031F08091022081508093022015C080913B
:100580006A0080939F2383E08093BA200DC08091FE
:10059000A3239091A423873991051CF481E090E076
:1005A00002C08FEF9FEF15DFC0930320D09304208C
:1005B000DF91CF9108958617970779F0681779072B
:1005C00028F49C01261B370BB90109C08617970731
:1005D00018F4681B790B03C0089560E070E0CB014C
:1005E0000895CF93DF938091002090910120892B73
:1005F00051F080910020909101200197809300207C
:100600009093012043C080E490E080930020909379
:10061000012080910720909108200196B9F18091E6
:1006200014019091150120910920263018F467E7F4
:1006300071E002C06EEE72E00E942915EC0180911B
:100640000720909108208C179D0758F4609107208F
:1006500070910820CE01AFDF029718F080EC9DE585
:1006600011C08091072090910820C817D90770F415
:100670006091072070910820CE019DDF029730F035
:100680008FEB9DE58093360A9093370ADF91CF91E7
:100690000895AC01460F571F861B970B2091200A27
:1006A0003091210A24173507C8F72091200A30918C
:1006B000210A8217930790F70895E0E8F6E08FE0AB
:1006C000808385E08483089508950F931F93842F7A
:1006D000242F30E0215831099DE7929FA001939F7C
:1006E000500D112490910920953048F4843810F071
:1006F00049585E4F9091C72027E731E004C09091A0
:10070000C7202EEE32E0929FB001939F700D11240E
:100710009A01260F371FA9014452584D05E613E0F0
:100720002DE730E060E00E94CA121F910F910895FA
:1007300087E08093A200789497DDC6DFE6D790D15A
:10074000B3D160E080E04AD136D18CE02AD1ABD57C
:100750004FD668D6B2DF60EA70E28EEA93E20E947A
:100760005F15000000000000000000000000000015
:100770000000000000000000000000000000809168
:10078000BF20882371F3E091DA258E2F90E0883026
:100790009105A0F4FC01E250FF4F0C945015B0D12C
:1007A0000DC020D20BC0A7D209C02BD307C0B7D32E
:1007B00005C03DD403C03CD401C0ADD41092BF20CD
:1007C000D0CF08950895809114018093B72380912C
:1007D00015018093B823809124018093B9238091DF
:1007E00025018093BA238091200A8093C3238091AE
:1007F000210A8093C42380911401909115018634BD
:10080000914080F08091140190911501893A9140B6
:1008100048F480911401909115018093B82F909322
:10082000B92F00008091C520882339F053DD109244
:10083000C52081E08093C42008958091C42088233E
:10084000B9F18091BA20833019F456DDCADE01C0B7
:1008500022DE8091C020811126C01092C020E0913C
:10086000C120F091C2208091140190911501EE0FEA
:10087000FF1FE854F24D808391838091C1209091B5
:10088000C2208F3F910529F41092C1201092C220FE
:100890000FC08091C1209091C22001968093C12009
:1008A0009093C22005C08091C0208F5F8093C020AC
:1008B0008091C320882351F08091140190911501FB
:1008C0008093B82F9093B92F1092C3208091092064
:1008D0002091140130911501853028F481E02737EB
:1008E000314030F004C081E02E3E324008F080E01C
:1008F0008093C72008950F931F9381E08093CA20AF
:100900008093C52005E613E02DE730E04CED57E27B
:1009100060E081E80E94CA122DE730E049E558E224
:1009200060E082E80E94CA122DE730E046ED58E20E
:1009300060E083E80E94CA122DE730E043E559E207
:1009400060E084E80E94CA122DE730E040ED59E2F1
:1009500060E085E80E94CA122DE730E04DE45AE2DB
:1009600060E086E80E94CA1281E01F910F9108950D
:100970001092CA20089581E0089581E008951092B0
:100980002002982F9C71936890932002881F8827DB
:10099000881F880F80932102109222021092260253
:1009A0000895E0E0F2E010AA836880AB80E181ABBB
:1009B00012AA16AA0895E0E0F2E010A683E880A744
:1009C0008FE281A712A616A60895AAECB1E092E0E4
:1009D0009C93E82FF0E084911C920895909171000F
:1009E0009D7F9093710010920002623011F09CE1A3
:1009F00001C09EE19093010290E490930202811164
:100A000002C080E401C080EC80930302613011F0E9
:100A100084E001C083E08093040280E2D6DF80930B
:100A20000C0281E2D2DF80930D0210921802109224
:100A3000190281E080930002BECF1F920F920FB681
:100A40000F9211248F93000000000000000081E04D
:100A5000809323028F910F900FBE0F901F901895D7
:100A6000CF93DF93E0E7F0E082818B7F8283C0E267
:100A7000D3E08DE0888380E4898389E08A8383E3FF
:100A8000A4DF888782E3A1DF898787E39EDF8A87E7
:100A900086E39BDF8B87E0E2F6E0808183608083E2
:100AA0001482DF91CF910895E0E7F0E080818E7F9E
:100AB000808383E8809300010895E0E0F1E0108AEC
:100AC00080E4808B10A280A310AA80ABE0E4F1E068
:100AD000108280831092C9201092C82081E08093F8
:100AE000C7201092AC231092AD231092AA2310922B
:100AF000AB2308958093DA2581E08093BF20089589
:100B0000CF93DF9310920920D8DFC0E0D1E01EAA76
:100B100084E288AB19AA49E54AAB32E03BAB60916D
:100B20000B2070910C206CAB7DAB6BED75E268AF68
:100B300079AF1AAE9BE39CAF93E090933D01109286
:100B40003E0128A9206828AB10924601E0E4F1E0BC
:100B50008083109241014093420190934301409160
:100B60000D2050910E2040934401509345014AECD2
:100B700053E2409348015093490110924A0129E3FE
:100B800020934C0190934D0110924E0190819068FA
:100B90009083188A90E4988B888B198A95E99A8BB0
:100BA00090E19B8B4EEE52E04C8B5D8B888F398FA2
:100BB0001A8E8CED97E28C8F9D8F1E8E68EC70E004
:100BC00084EF91E066DD88EC90E0809307209093BD
:100BD000082081E08093062088898068888BDF91D7
:100BE000CF9108951F93CF93DF9311E010930920C5
:100BF00064DFC0E0D1E018AA80E488AB84E088AB71
:100C000019AA1AAA4BE44BAB1CAA1DAA1EAA8AE079
:100C100090E288AF99AF1AAE70EA7CAF68E060935B
:100C20003D0110923E0188A9806A88ABE0EAF8E0B5
:100C300085E58083808310924601E0E4F1E084E260
:100C400080831092410199E59093420132E0309304
:100C50004301A0910B20B0910C20A0934401B093CC
:100C60004501ABEDB5E2A0934801B0934901109264
:100C70004A019BE390934C0193E090934D011092B5
:100C80004E0120812068208388A399A325E92AA307
:100C90004BA34EEE52E04CA35DA378A769A71AA61A
:100CA0006AEC7AE26CA77DA71EA6888B998B2A8BAB
:100CB00090E19B8B4C8B5D8B888F398F1A8E8CEDDE
:100CC00097E28C8F9D8F1E8E68EC70E084EF91E030
:100CD000E0DC88EC90E0809307209093082010934C
:100CE000062088A1806888A388898068888BDF9126
:100CF000CF911F9108951F93CF93DF9312E010932C
:100D00000920DBDEC0E0D1E01EAA84E288AB19AA8C
:100D100039E53AAB1BAB40910B2050910C204CAB0A
:100D20005DAB4BED55E248AF59AF1AAE9BE39CAFBC
:100D300093E090933D0110923E0128A9206828ABD2
:100D400010924601E0E4F1E080831092410130937B
:100D500042019093430120910D2030910E20209369
:100D60004401309345012AEC33E22093480130934B
:100D7000490110924A0129E320934C0190934D01BF
:100D800010924E01908190689083188A90E4988B1D
:100D9000888B198A45E94A8B90E19B8B2EEE32E0D5
:100DA0002C8B3D8B888F198F1A8E6CED77E26C8FB0
:100DB0007D8F1E8E88A319A24AA39BA32CA33DA3BB
:100DC00084E388A719A71AA68AEC9AE28CA79DA7A4
:100DD0001EA668EC70E084EF91E05BDC88EC90E0AC
:100DE000809307209093082081E0809306208889D3
:100DF0008068888B88A1806888A3DF91CF911F913C
:100E000008951F93CF93DF9313E01093092055DECD
:100E1000C0E0D1E018A250E458A384E088A319A24E
:100E20001AA24BE44BA31CA21DA21EA28AE090E2D0
:100E300088A799A71AA630EA3CA728E02DA71EA6E6
:100E400088A1806A88A385E58093A0081EAA84E211
:100E500088AB19AA69E56AAB1BABE0910D20F09154
:100E60000E20ECABFDABEAECF3E2E8AFF9AF1AAE63
:100E700099E39CAF10933D0110923E0198A99068B0
:100E800098AB10924601E0E4F1E0808310924101BA
:100E90006093420192E09093430160910B20709126
:100EA0000C2060934401709345016BED75E26093F3
:100EB00048017093490110924A019BE390934C01C1
:100EC00010934D0110924E01908190689083188A82
:100ED000588B888B198A85E98A8B4B8B8EEE92E032
:100EE0008C8B9D8B388F298F1A8E8CED97E28C8F8F
:100EF0009D8F1E8E68EC70E084EF91E0CADB88EC79
:100F000090E0809307209093082081E08093062052
:100F100088898068888BDF91CF911F9108951F93F6
:100F2000CF93DF9314E010930920C7DDC0E0D1E038
:100F300018AA80E488AB18AB19AA1AAA3BE43BAB09
:100F40001CAA1DAA1EAA8AE090E288AF99AF1AAE29
:100F500050EA5CAF88E080933D0110923E0198A971
:100F6000906A98AB95E59093A00810924601E0E452
:100F7000F1E094E290831092410129E5209342012F
:100F800022E02093430160910B2070910C2060932C
:100F90004401709345016BED75E2609348017093D5
:100FA000490110924A012BE320934C0123E0209346
:100FB0004D0110924E01208120682083988B198A60
:100FC00045E94A8B3B8B2EEE32E02C8B3D8B588FC4
:100FD000898F1A8E6CED77E26C8F7D8F1E8E98A3B1
:100FE00019A24AA39AE49BA32CA33DA393EC98A730
:100FF00089A71AA68AEC9AE28CA79DA71EA668EC80
:1010000070E084EF91E045DB88EC90E0809307206E
:101010009093082081E08093062088898068888BDF
:1010200088A1806888A3DF91CF911F910895FFCF99
:10103000CF93DF9386E0809309203FDDC0E0D1E0CD
:101040001EAA84E288AB19AA39E53AAB93E09BABC0
:1010500040910D2050910E204CAB5DAB4AEC53E219
:1010600048AF59AF1AAE29E32CAF90933D011092CF
:101070003E0128A9206828AB10924601E0E4F1E087
:101080008083109241013093420132E0309343015A
:1010900040910B2050910C20409344015093450106
:1010A0004BED55E2409348015093490110924A019B
:1010B0002BE320934C0190934D0110924E0120811F
:1010C00020682083188A20E4288B888B998B95E9E7
:1010D0009A8B90E19B8B4CED55E04C8B5D8B888F10
:1010E000398F1A8E8CED97E28C8F9D8F1E8E68EC57
:1010F00070E084EF91E0CDDA80E991E08093072001
:101100009093082081E08093062088898068888BEE
:10111000DF91CF910895CF93DF9387E080930920EB
:10112000CCDCC0E0D1E01EAA94E298AB19AA39E564
:101130003AAB83E08BAB40910D2050910E204CAB2D
:101140005DAB4AEC53E248AF59AF1AAE29E32CAF7E
:1011500080933D0110923E0128A9206828AB10928F
:101160004601E0E4F1E090831092410130934201A6
:1011700032E03093430140910B2050910C2040937A
:101180004401509345014BED55E240934801509383
:10119000490110924A012BE320934C0180934D01A9
:1011A00010924E01208120682083188A20E4288B29
:1011B00025E2288B898B85E98A8B80E18B8B4CED2E
:1011C00055E04C8B5D8B988F398F1A8E8CED97E2A2
:1011D0008C8F9D8F1E8E68EC70E084EF91E059DA61
:1011E00080E991E0809307209093082081E080932C
:1011F000062088898068888BDF91CF9108951F929F
:101200000F920FB60F9211248F939F93EF93FF933A
:1012100081E0809303018091AC239091AD230196EE
:101220008093AC239093AD238091AC239091AD2318
:10123000EEEAF3E2878B8091AC239091AD23908FFF
:10124000FF91EF919F918F910F900FBE0F901F9084
:1012500018951F920F920FB60F9211248F939F93A0
:10126000EF93FF9382E0809303018091AA239091F2
:10127000AB2301968093AA239093AB238091AA235A
:101280009091AB23EEEAF3E2818F8091AA239091B3
:10129000AB23928FFF91EF919F918F910F900FBE93
:1012A0000F901F901895E0E7F0E083818C7F838397
:1012B00084818C7F848380818D7F8083E0E8F1E06E
:1012C00080EC8283128688EC81831186A0E0B8E0EE
:1012D00034E03C9323E011962C93119714961C92C2
:1012E000149785ED91E096968D939C93979716961B
:1012F0001C921697E0E4F8E030832183148286A3E1
:1013000097A31682E0E6F6E0808180618083E0E4C6
:10131000F9E083E18183148282E08683A6A3B7A3E8
:1013200010A611A681E0808308951F920F920FB638
:101330000F9211242F933F934F935F938F939F931B
:10134000CF93DF931F92CDB7DEB78FEF80934C0919
:1013500080910920873031F480912C02898390910B
:101360002D0202C090912C028091C620891B2091F1
:1013700068093091690982308CF02A3F374070F457
:10138000209168093091690989301CF481E090E06E
:1013900002C086E090E0820F931F18C02091680978
:1013A000309169098F3FB4F42730310598F02091CE
:1013B000680930916909883F1CF081E090E002C023
:1013C00086E090E0A901481B590BCA018093780977
:1013D000909379090F90DF91CF919F918F915F91B9
:1013E0004F913F912F910F900FBE0F901F90189526
:1013F000E0E7F0E083818F7E8383E0E4F6E08081A4
:101400008A6A80838FEF848388E5828BE0EAF8E044
:1014100080E3838384EC858387E08683178288E179
:1014200084830895E0E7F0E08381877F8383E0ECA5
:10143000F8E080E48083118288E580935506089562
:101440001F920F920FB60F92112400000F900FBE43
:101450000F901F9018951F920F920FB60F921124A4
:101460008F93EF93FF93E0EAF8E080818083FF9110
:10147000EF918F910F900FBE0F901F9018959FB70F
:10148000F894A0E5B0E016968C911697897F169691
:101490008C931697E0E6F0E080E885838BEB8683FB
:1014A00016968C911697846016968C938081816035
:1014B00080839FBF08959FB7F894E82FF0E0E0592C
:1014C000FF4F60958081682360839FBF0895CF930D
:1014D000863011F0C0E001C0C8E18091510081FD6B
:1014E0000DC09FB7F89480915000826080935000A7
:1014F0009FBF8091510081FFFCCFC1DF6C2F6360E3
:1015000084E490E0A0D460E480E0CF91D4CF8091D7
:10151000CB2008958091CB20813009F429CA089509
:10152000EFD0FC0183818093CB20811101C0E3C9FE
:1015300081E008959091CA25892F807697FF07C092
:10154000803491F48091CB2581110EC016CA80346D
:1015500059F48091CB25811107C08091D0259091BD
:10156000D125892B09F007CA80E008958091CC2508
:101570008F7792C79091D220911102C080E0089598
:10158000E091D020F091D1200190F081E02D948164
:101590008917A0F7E093CE20F093CF2022813381EA
:1015A0002E0F3F1FE217F30798F49181943061F4F6
:1015B0009281891309C09381691306C0E093CE20FC
:1015C000F093CF2081E008959081E90FF11DEACFDB
:1015D000E093CE20F093CF20D1CFE091D020F091B6
:1015E000D1200190F081E02D228133812E0F3F1F09
:1015F000FC014081E40FF11DE217F30748F48181FB
:10160000843031F0853039F08081E80FF11DF4CF5E
:1016100080E090E00895CF0108951F93CF93DF936A
:10162000182FA8DF882339F1C091CE20D091CF2088
:10163000CE01D3DFEC01892B41F04C815D816B81C0
:101640008A8137D78111F4CF16C0E091D020F09174
:10165000D12092818381E92FF82FE10FF11DE10F55
:10166000F11D0190F081E02D0190F081E02DDF91DE
:10167000CF911F91099480E0DF91CF911F91089540
:10168000EF92FF921F93CF93DF93C82F60E072DF3A
:10169000811102C010E02DC0E091D020F091D12046
:1016A00092818381E92FF82FEC0FF11DEC0FF11DD2
:1016B000E080F180D7011696ED91FC91179709957E
:1016C000682F8C2F57DF182F882321F3C091CE204D
:1016D000D091CF20CE0181DFEC01892B21F08A81CE
:1016E0000E948613F7CFD7011296ED91FC911397C4
:1016F0000995812FDF91CF911F91FF90EF90089571
:101700008091CE209091CF2008955BC6CF93809199
:10171000D220811108C01092D2201092D6201092AF
:10172000D720CF910895C0E0E091D020F091D12052
:101730000190F081E02D8481C81768F78C2FA0DF1D
:10174000CF5FF2CFCF938091D2208823F1F0C0E019
:10175000E091D020F091D120A081B18114968C919C
:10176000C81798F492818381E92FF82FEC0FF11DAF
:10177000EC0FF11D0190F081E02D0084F185E02D4A
:10178000309709F00995CF5FE3CFCF910895EF929D
:10179000FF920F931F93CF93DF931F92CDB7DEB7C6
:1017A0001092D4251092D5251092D6251092D725C7
:1017B0001092D8251092D9258091CA2587FF07C09D
:1017C0002091D0253091D125232B09F433C3807685
:1017D000803409F0ECC0E091CB258E2F90E0FC0125
:1017E000E05AF109E930F10508F0E1C0EA5FFE4F87
:1017F0000C94501581E08093C32080910720909134
:1018000008208093BB23809107209091082090931B
:10181000BC238091A2238093BD2380919F2380933A
:10182000BE2380916A008093BF2380916B008093D8
:10183000C0236091D0257091D1258EEA93E2A2C198
:10184000109200088091CC259091CD258093360888
:10185000909337088091CE258F7080930008609117
:10186000D0257091D1258AEC93E21CD620910D20D1
:1018700030910E208091D0259091D12528173907DD
:1018800009F4D6C280930D2090930E2026C01092AA
:1018900040088091CC259091CD2580937608909337
:1018A00077088091CE258F70809340086091D02575
:1018B0007091D1258BED95E2F5D520910B203091DB
:1018C0000C208091D0259091D1252817390709F453
:1018D000AFC280930B2090930C208091092052C0BE
:1018E00010926809109269098091CC258093C620D6
:1018F0009FC28091CC25809324069AC2E091CC258A
:10190000F091CD25E830F10508F051C0E15FFE4FC0
:101910000C94501560E080E061D88091CE252FD8DE
:1019200080E030C060E080E059D88091CE2527D893
:1019300081E028C061E081E051D88091CE251FD898
:101940008091CF252ED882E01DC083E01BC084E0AB
:1019500019C060E080E042D88091CE2510D885E0A3
:1019600011C061E080E03AD88091CE2508D886E0A9
:1019700009C062E080E032D88091CE2580680E9464
:10198000BF0487E0B7D854C28091CC2580938406E9
:101990004FC2E9E7F0E091E088EDF89484BF9083CE
:1019A0006091D0257091D1258AEA90E27BD5809113
:1019B000CA25982F907609F0CCC187FFFDC02091F1
:1019C000D0253091D1252115310509F4C2C18F717F
:1019D00009F09EC08091CB25863071F0883009F4E3
:1019E0008EC08111B6C12230310509F0B2C162E06A
:1019F00070E086ED90E2C6C08091CC259091CD2517
:101A0000292F332722303105A1F064F4213031052C
:101A100009F09FC18091192090911A20DC016C91EE
:101A200070E05BC02330310589F12F30310509F1B9
:101A300090C1E0911920F0911A202189821708F0B5
:101A400088C19927880F991F880F991FE0911B2043
:101A5000F0911C20E80FF91F80819181FC016281C7
:101A6000738120D5E091D225F091D32582E0818346
:101A700035C080911D2090911E20009709F469C106
:101A8000DC0112966D917C91139727C099278130C4
:101A9000910569F038F0029709F05BC168E08AE8C7
:101AA00090E208C064E070E08CE990E216C067E064
:101AB00083E990E2282FAAE7B0E2FC01819190E04F
:101AC0008D939D938E2F821B8617C0F3660F6E5FDA
:101AD0006093782070E088E790E2E4D48091D0258C
:101AE0009091D1252091D4253091D5258217930747
:101AF00008F09EC18093D4259093D52599C12130BB
:101B0000310509F026C161E070E082ED90E23AC053
:101B10008130D1F58091CB258A3009F01AC121306E
:101B2000310509F016C18091D220882309F411C132
:101B3000E090CE25F090CF250091D0201091D120BB
:101B4000D801ED91FC918481E81608F002C160E0B3
:101B50008E2D10DD882309F4FCC0FF24EE0CFF1C41
:101B6000F801828193818E0D9F1DDC01ED91FC9126
:101B70000680F781E02D09958093D42061E070E024
:101B800084ED90E28FD454C1823009F0E2C080919C
:101B9000CB258111DEC02230310509F0DAC08091F9
:101BA000CE25D8D490E08093CC209093CD2062E0D5
:101BB00070E08CEC90E2E6CF8F7109F07DC08091EF
:101BC000CB25833009F4C5C018F48130A1F0C1C021
:101BD000853019F0893039F1BCC08091D0259091C1
:101BE000D125892B09F0B5C086EB9AE08093D625E4
:101BF0009093D7251DC18091D0259091D125892B17
:101C000009F0A7C08091CC259091CD25019709F0CE
:101C1000A0C08091D6209091D7208D7F8093D62030
:101C20009093D72005C18091D0259091D125892B03
:101C300009F08FC034D4882309F48BC02091CC25BF
:101C40003091CD253327E0911920F0911A20818918
:101C500090E08217930708F47CC058DD8091CC2572
:101C60009091CD258093D220882309F4E1C0992753
:101C70008150904C880F991F880F991F20911B202D
:101C800030911C20820F931F8093D0209093D120FD
:101C900010E0E091D020F091D1200190F081E02D72
:101CA0008481181708F0C4C060E0812FB6DC882357
:101CB00009F44FC01F5FEDCF8130F1F48091CB2547
:101CC0008B3009F046C08091D0259091D125892B89
:101CD00009F03FC08091D220882309F43AC01091C6
:101CE000CE256091CC25812F6983CADC6981882348
:101CF00081F1812F92DC2BC0823059F58091CB2568
:101D0000813019F0833089F024C08091D0259091E2
:101D1000D125892BF1F48091CC259091CD25892B6B
:101D2000C1F48091CE251DD412C08091D025909110
:101D3000D125892B71F48091CC259091CD25892BCB
:101D400041F48091CE25B2D48091CE25E8D4811182
:101D50006FC08091CA258F718130B9F58091D220F2
:101D6000882399F1E090CE25F090CF250091D020E6
:101D70001091D120D801ED91FC918481E81628F5CD
:101D800060E08E2DF7DB882301F1F701FF27EE0FCE
:101D9000FF1FD80112968D919C911397E80FF91FA0
:101DA00000811181D8011696ED91FC911797099544
:101DB000682F8E2DDFDB882341F0D8011496ED913A
:101DC000FC9115970995811133C08091CA258F71B7
:101DD000823081F58091D220882361F1F12CE0914D
:101DE000D020F091D120A081B18114968C91F81669
:101DF00008F592818381E92FF82FEF0DF11DEF0D8A
:101E0000F11D00811181D8011696ED91FC91179773
:101E10000995682F8F2DAEDB882361F0D8011496C9
:101E2000ED91FC9115970995811102C0F394D7CFDC
:101E300081E001C080E00F90DF91CF911F910F9161
:101E4000FF90EF9008951BBEFC0128ED24BF608336
:101E500008954091CA01E62FF72F8093CA0184911B
:101E60004093CA010895E82FF0E0E654F04D8081D8
:101E70008F3F09F4FFCF9FB7F89480818F5F8083F5
:101E80009FBF0895E82FF0E0E654F04D8081811166
:101E900001C0FFCF9FB7F8948081815080839FBF9E
:101EA0000895CF93C82F80919C23C11105C088232A
:101EB00039F081E0E7DF04C0811102C081E0D3DFA7
:101EC000C0939C23CF910895282F2F70082E000CCB
:101ED000990B392F331F3327331F832F90E0820F45
:101EE000911D820F911D23E0880F991F2A95E1F71C
:101EF000885D9C4D08950F93E8ECF4E080818F7D20
:101F0000808380818F7D8083E0E3F3E202E00593AC
:101F1000109232231092332300E2069300E40693DA
:101F2000E8E2F3E200E2069300E40693EAECF5E26D
:101F30001486158616861786128613861092092334
:101F40000F9108950F9385E080930923E1E3F3E275
:101F500004E00593E9E2F3E204E005930F910895AC
:101F60000F9383E08093092310923223109233233E
:101F7000E0E3F3E202E006930F910895E091D625A5
:101F8000F091D725309709F009940895282F2F70E4
:101F9000082E000C990B392F331F3327331F832F43
:101FA00090E0820F911D820F911D029749E0489F9A
:101FB0009001499F300D1124C901875A9D4D089504
:101FC0008F929F92AF92BF92DF92EF92FF920F9308
:101FD0001F93CF93DF93D82ED9DFEC018D2D74DFC3
:101FE0007C01DC011196EC91E770E150E73040F4A0
:101FF000F0E0EE0FFF1FE455FF4D0081118102C09C
:1020000008E010E0ED81FE812B813C814881D70101
:10201000D7FE48C016968D919C9117978E0F9F1FE3
:102020008D839E838217930761F1281B390B21153D
:10203000B4E03B0738F02FEF33E0C901B80109D510
:10204000281B390B41FF0AC0C901B80102D5AC01F8
:1020500091E0452B09F090E0892F01C080E0988144
:1020600080FB91F99883F7011682178222833383CC
:1020700029813A818D819E81820F931F848395836C
:102080000EC041FF71C04D7F4883D70116961D9247
:102090001C92179712961D921C921397F70102E05B
:1020A00006937BC01296AD90BC90139742FF10C070
:1020B00089809A80C901B801CCD4B0E4DB9EB0011C
:1020C000112467567F4DAC01C4018E0F9F1FEED4C3
:1020D0008D819E818A0D9B1D8D839E832B813C81EA
:1020E0002817390710F42D833E83F70186819781E5
:1020F000A816B906C9F58D819E8182179307A1F1B3
:10210000281B390B2115F4E03F0710F02FEF33E0C7
:10211000C901B8019ED4281B390BD70112961D9214
:102120001C9213972017310778F488818460888384
:10213000B0E4DB9EC001112487569F4DF7018483D4
:10214000958306831783AACF49815A818D819E8109
:10215000840F951FD70114968D939C93159716960F
:102160002D933C9317979ACF888180FF16C08E7F5E
:102170008883EF81F885309781F06D817E814D2DC8
:1021800080E0DF91CF911F910F91FF90EF90DF9052
:10219000BF90AF909F908F900994DF91CF911F9146
:1021A0000F91FF90EF90DF90BF90AF909F908F9036
:1021B00008950F93CF93DF9380910923833029F4FF
:1021C000DDDEDF91CF910F9196CE209105233091E6
:1021D0000623C091D425D091D525C21BD30B61F520
:1021E0008091072390910823820F931F80930723E8
:1021F000909308232091D0253091D12528173907B5
:1022000021F08091D820882331F084E08093092345
:10221000E8E2F3E236C0E091D825F091D925309775
:1022200099F00995882381F01092052310920623D6
:10223000C091D425D091D525C034D10528F0109275
:10224000D820C0E4D0E003C081E08093D820C093C0
:102250003223D0933323809105239091062320913C
:10226000D2253091D325280F391F20933423309362
:102270003523C80FD91FC0930523D0930623E0E36D
:10228000F3E202E00693DF91CF910F9108950F934F
:10229000CF93DF931F92CDB7DEB78091CC0480FF40
:1022A00065C021E02093CC0488E293E2FC0100E8C1
:1022B0000693E0E3F3E200E806932093CA04FC01EE
:1022C00000E1069380910923882329F0835082300E
:1022D00008F454DE10DE80912A2390912B23089776
:1022E00009F046C088E0E5ECF2E2AAECB5E2019024
:1022F0000D928A95E1F78091C80480628093C804AA
:102300008091C80480628093C80441DA811102C0C0
:1023100019DE2EC09091CA2597FF0EC01092072398
:1023200010920823109205231092062392E09093B6
:10233000092389833EDF08C02091D0253091D12523
:10234000232B21F489830CDE898113C0109207238B
:1023500010920823109205231092062391E0909387
:102360000923E8E2F3E202E0069303C080E001C043
:1023700081E00F90DF91CF910F910895CF93CFB768
:10238000F89481E08EDDEAECF4E080E4808380E282
:102390008083E1ECF4E0808181608083A9ECB4E08B
:1023A0008C9182608C93E8ECF4E08081806480837F
:1023B0008C9181608C93808180688083CFBFCF9126
:1023C0000895CF931092600080E381D88091C0047B
:1023D00080648093C00481E080936000CFB7F8945C
:1023E00080E090E0FC0123E0EE0FFF1F2A95E1F76B
:1023F000E45FFC4D158E01968E30910599F780E0D3
:1024000090E039E0389FF001399FF00D1124E75A30
:10241000FD4D20812E7F208301968C30910591F710
:102420006AE170E082E015DD8F3F09F48FE180936F
:10243000FA046BE170E082E00CDD8F3F09F48FE17C
:102440008093FB048091C00486608093C0048091D7
:10245000C00480688093C0048091C0048061809330
:10246000C00488E293E28093C6049093C7048091ED
:10247000C00480628093C0048FEF8093C504809174
:10248000C80482608093C80410929C2385E0EBDC32
:1024900075DFCFBFCF9108958093C30408958091D5
:1024A000C3040895EAECF5E2808791876287738719
:1024B00008950F931F93CF93DF931F92CDB7DEB78D
:1024C0008A01698301DDFC018181807C6981811140
:1024D0003AC06370613019F020F080E803C080ECEE
:1024E00001C080E400381105E9F058F4003211050C
:1024F000A9F000341105A1F000311105C9F491E0F3
:1025000018C0011592E0190779F00F3F93E0190701
:1025100069F00115114061F495E00BC092E009C02B
:1025200093E007C094E005C096E003C097E001C0C7
:1025300090E0118226E02083982B91838181806234
:10254000818381E001C080E00F90DF91CF911F91E6
:102550000F910895B9DCFC01818182FB882780F905
:102560000895CF93C82FB0DCFC01818182FF0FC09A
:1025700091819B7F91838C2F09DDFC01908190FFDD
:1025800006C09E7F90830780F085E02D099581E04D
:10259000CF9108958F929F92AF92BF92DF92EF9268
:1025A000FF920F931F93CF93DF931F92CDB7DEB7A8
:1025B000D82E5A0179016983E9DC4C018D2D84DC28
:1025C0009C01DC0111968C911197807C6981882394
:1025D00009F45EC011968C911197807C803C21F0AB
:1025E00011968C9182FD54C09FB7F894F4018081BC
:1025F00080FF02C09FBF4CC0816080839FBFF401F9
:10260000A182B282E382F482158216820783108748
:1026100091E0611104C0E114F10409F090E0D401EB
:102620008C9190FB81F98B7F8C93D7FE04C0F901CC
:102630001682178229C0D90111968C911197807C3E
:10264000803CC9F41196EC91E770E150E73040F41A
:10265000F0E0EE0FFF1FE455FF4D6081718102C075
:1026600068E070E0C701F5D1892B29F0F401808181
:102670008E7F80830DC0D90112961D921C921397F4
:1026800016961D921C9217978D2D9ADC81E001C041
:1026900080E00F90DF91CF911F910F91FF90EF900D
:1026A000DF90BF90AF909F908F900895EF92FF9230
:1026B0000F93CF93C82F08DC7C018C2F67DCDC01E3
:1026C000F70102E005939C9190FF1BC09E7F9C93B5
:1026D0001796ED91FC911897309799F0D701C7FFA5
:1026E00005C016966D917C91179704C012966D9156
:1026F0007C9113974C2F81E0CF910F91FF90EF9039
:102700000994CF910F91FF90EF900895CF93C82F28
:10271000CDDF8C2FD9DBFC011182CF9108950F936F
:10272000CF93C82FD1DBFC0191819460918301E0AC
:1027300006938C2FBBDF81E0CF910F9108951F92FC
:102740000F920FB60F9211240F932F933F934F9335
:102750005F936F937F938F939F93AF93BF93CF9329
:10276000EF93FF938091CB0487FF08C080E88093AC
:10277000CA040E94A20B0E94E30386C08091CB048E
:1027800082FF18C084E08093CA048091302386FFC2
:102790007BC08091CC0481FD77C079DD811174C04C
:1027A00080910923813011F4DBDB6EC0843009F0A5
:1027B0006BC021C08091CB0481FF26C082E0809352
:1027C000CA048091282386FF5FC08091CC0481FDDC
:1027D0005BC05DDD811158C080910923823041F4D6
:1027E00084E080930923E8E2F3E202E006934CC020
:1027F000833009F049C0E1E3F3E204E00593E9E244
:10280000F3E204E0059340C08091CB0484FF25C02F
:1028100080E18093CA04C1E08C2F48DF8C2F806850
:1028200045DFCF5FC630C1F70E94860B1092C3040C
:1028300010922923C093282383E4809329231092A4
:102840003123C09330238093312385EC92E280932F
:102850002C2390932D234FDB17C08091CB0486FF50
:1028600008C080E48093CA0480E01BDB0E94E1037F
:102870000BC08091CB0485FF07C080E28093CA041F
:1028800081E00FDB0E94E203FF91EF91CF91BF91B6
:10289000AF919F918F917F916F915F914F913F91F8
:1028A0002F910F910F900FBE0F901F9018951F92B0
:1028B0000F920FB60F9211240F931F932F933F93F4
:1028C0004F935F936F937F938F939F93AF93BF9338
:1028D000CF93DF93EF93FF938091CC0481FF1AC0D5
:1028E00082E08093CC048091C5048195880FE8E252
:1028F000F3E2E81BF109208131812852334283E061
:10290000369527958A95E1F7822F869520FD06C09A
:10291000C0E005C0BCDC882319F386C0C0E8C80F3E
:102920008C2FD2DAFC01208125FF7EC000E20693C5
:10293000C11174C080910923843019F41FDBDBDAE4
:1029400073C000912A2310912B238091D42590915C
:10295000D525C0910523D09106239E01200F311F5C
:102960008217930718F48C010C1B1D0B8091D22544
:102970009091D325A80165EC72E28C0F9D1F96D033
:10298000C00FD11FC0930523D09306230034110537
:1029900069F480910723909108238C0F9D1F20914B
:1029A000D0253091D1258217930788F0C093D42584
:1029B000D093D525E091D825F091D925309729F0ED
:1029C0000995811102C0BEDA2FC0CADA2DC08091EC
:1029D000D4259091D5258C179D07D9F4E091D82561
:1029E000F091D925309779F30995882361F32091E7
:1029F0000723309108238091052390910623820FAD
:102A0000931F80930723909308231092052310921D
:102A10000623E8E2F3E202E0069306C0C03811F4B0
:102A2000C8DB02C08C2FCCDAFF91EF91DF91CF9100
:102A3000BF91AF919F918F917F916F915F914F91D6
:102A40003F912F911F910F910F900FBE0F901F90EC
:102A50001895AA1BBB1B51E107C0AA1FBB1FA617D5
:102A6000B70710F0A61BB70B881F991F5A95A9F737
:102A700080959095BC01CD01089597FB072E16F423
:102A8000009406D077FD08D0E4DF07FC05D03EF4C3
:102A9000909581959F4F0895709561957F4F08950A
:102AA000EE0FFF1F0590F491E02D0994FB01DC016E
:102AB00002C001900D9241505040D8F70895FB019B
:102AC000DC0101900D920020E1F70895F894FFCF0A
:102AD00040000CE02E0AFFFFFFFF558000800090B1
:102AE0000A8A0A9A0A870A000064201F2000002828
:102AF0002023200F2000000009023C00010100807B
:102B0000FA0904000006FFFFFF00070581018000AD
:102B1000010705820180000107058301800001078C
:102B200005840180000107058501800001070586F5
:102B3000018000011201000200000040EB0300A030
:102B4000000201020001000000030000000000007C
:102B5000000000000000000000004C61627261642F
:102B60006F72004573706F54656B000004030904B5
:102B70006465627567313233000001001000200087
:0A2B80004000800000010002FF0386
:00000001FF
