S01500005553425F42554C4B5F544553542E73726563F9
S113000015C100002FC100002DC100002BC100004C
S113001029C1000027C100000C94FE080C94280993
S113002021C100001FC100001DC100001BC1000050
S113003019C1000017C1000015C1000013C1000060
S113004011C100000FC100000DC100000BC1000070
S113005009C1000007C1000005C1000003C1000080
S11300600C941F0A0C942A0AFDC00000FBC0000077
S1130070F9C00000F7C00000F5C00000F3C00000A4
S1130080F1C00000EFC00000EDC00000EBC00000B4
S1130090E9C00000E7C00000E5C00000E3C00000C4
S11300A0E1C00000DFC00000DDC00000DBC00000D4
S11300B0D9C00000D7C00000D5C00000D3C00000E4
S11300C0D1C00000CFC00000CDC00000CBC00000F4
S11300D0C9C00000C7C00000C5C00000C3C0000004
S11300E0C1C00000BFC00000BDC00000BBC0000014
S11300F0B9C00000B7C00000B5C00000B3C0000024
S1130100B1C00000AFC00000ADC00000ABC0000033
S1130110A9C00000A7C00000A5C000008DC4000055
S1130120A1C000009FC000009DC000009BC0000053
S113013099C0000097C0000095C0000093C0000063
S113014091C000008FC000008DC000000C94940981
S113015089C0000087C0000085C0000083C0000083
S113016081C000007FC000007DC000007BC0000093
S113017079C0000077C0000075C0000073C00000A3
S113018071C000006FC000006DC000006BC00000B3
S113019069C0000067C0000065C0000063C00000C3
S11301A061C000005FC000005DC000005BC00000D3
S11301B059C0000057C0000055C0000053C00000E3
S11301C051C000004FC000004DC000004BC00000F3
S11301D049C0000047C0000045C0000043C0000003
S11301E041C000003FC000003DC000003BC0000013
S11301F039C000000C9494130C944C14CE03D00317
S1130200D203D403D603D803DA03DC03FA0B200C9D
S1130210470C700C790C7E0CC40CC90C8A0C920C23
S11302209A0CA50CA70CA90CB10CB90C11241FBE77
S1130230CFEFCDBFDFE2DEBF10E2A0E0B0E2EAEB39
S1130240FAE202C005900D92AA3EB107D9F72FE257
S1130250AAEEB0E201C01D92A03FB207E1F767D257
S11302600C945B15CDCE84E0809356008CE1ACD326
S1130270809363008BEB8093660080E88093650035
S113028081E08093600088ED84BF1092410083E098
S113029080935000809151008330E1F780915000A9
S11302A081608093500088E18093550080915100D3
S11302B080FFFCCF8091500080618093500080913A
S11302C0510084FFFCCF88ED84BF84E0809340001C
S11302D00895E0E7F0E085818E7F8583E0E0FAE031
S11302E08FEB9DE586A397A380EE9EE280A391A366
S11302F082E0808308958091200A9091210A813EB2
S11303002EE2920718F02091D22306C0803E2EE2FE
S1130310920721F02091CF2320936A002091052099
S1130320222321F080910520815033C0885F9A42B6
S1130330813D974080F11092EA208091EB209091CA
S1130340EC20A091ED20B091EE200196A11DB11DED
S11303508093EB209093EC20A093ED20B093EE20BB
S11303608091EB209091EC20A091ED20B091EE20B3
S1130370892F9A2FAB2FBB278093F2238091EB20F8
S11303809091EC20A091ED20B091EE208093F12388
S113039086E08093052080910720909108200196A3
S11303A0B1F4809109208F3F91F080910620811152
S11303B006C0809106208150809306200895809184
S11303C014019091150180930720909308200895BB
S11303D0009709F45EC00CF457C040E020916B0014
S11303E030E02093D0233093D1232091D023309137
S11303F0D1233695322F2227379527952093D02362
S11304003093D12350916A002091D0233091D1238D
S1130410250F311D2093D0233093D1230000209148
S1130420D0233091D1232817390728F41092D023F0
S11304301092D12308952091D0233091D123280FF5
S1130440391F2115304238F08FEF9FE18093D0237C
S11304509093D12308952091D0233091D123442324
S113046029F0A901481B590BCA0102C0820F931F2E
S11304708093D0239093D1238091D0239091D12342
S11304808F7780936A00089591958195910941E051
S1130490A5CF0895CF93DF93C091200AD091210A6C
S11304A080910320909104209E01281B390B2093F6
S11304B0D3233093D4238091EA2081114BC08091BF
S11304C0D3239091D4238E3C9F4FD4F48091D32393
S11304D09091D4238B369F4F9CF0809102208823E7
S11304E021F080910220815008C080916A0080939D
S11304F0D22381E08093EA208CE0809302202AC0FA
S11305008CE0809302208091D3239091D4238A3667
S11305109F4F1CF08FEF9FEF02C081E090E080932B
S1130520CD239093CE238091D3239091D4232091F3
S1130530CD233091CE2360E370E00E943215261B58
S1130540370B2093CD233093CE238091CD239091EC
S1130550CE233EDF8091EA20813029F58091D32398
S11305609091D423C39794F080910220882331F092
S11305708091022081508093022015C080916A00EE
S11305808093CF2383E08093EA200DC08091D3230E
S11305909091D423873991051CF481E090E002C046
S11305A08FEF9FEF15DFC0930320D0930420DF91DA
S11305B0CF9108958617970779F06817790728F47B
S11305C09C01261B370BB90109C08617970718F43D
S11305D0681B790B03C0089560E070E0CB010895B7
S11305E0CF93DF938091002090910120892B51F0CB
S11305F08091002090910120019780930020909396
S1130600012043C080E490E0809300209093012077
S113061080910720909108200196B9F180911401EE
S11306209091150120910920263018F467E771E0B4
S113063002C06EEE72E00E941E15EC01809107204C
S1130640909108208C179D0758F4609107207091B1
S11306500820CE01AFDF029718F080EC9DE511C0B1
S11306608091072090910820C817D90770F46091F1
S1130670072070910820CE019DDF029730F08FEBA8
S11306809DE58093360A9093370ADF91CF910895C0
S1130690AC01460F571F861B970B2091200A3091FF
S11306A0210A24173507C8F72091200A3091210A1E
S11306B08217930790F70895E0E8F6E08FE08083CF
S11306C085E08483089508950F931F93842F242F26
S11306D030E0215831099DE7929FA001939F500D6E
S11306E0112490910920953048F4843810F0495829
S11306F05E4F9091F72027E731E004C09091F720F6
S11307002EEE32E0929FB001939F700D11249A0156
S1130710260F371FA901445F574D04E613E02DE768
S113072030E060E00E94BF121F910F91089587E0AE
S11307308093A200789497DDC6DFE6D790D1B3D139
S113074060E080E04AD136D18CE02AD1ABD54FD6D7
S113075068D6B2DF62ED70E28EED93E20E9454152A
S11307600000000000000000000000000000000085
S11307700000000000000000000000008091EF2055
S1130780882371F3E0910A268E2F90E0883091053A
S1130790A0F4FC01E250FF4F0C944515B0D10DC0FC
S11307A020D20BC0A7D209C02BD307C0B7D305C032
S11307B03DD403C03CD401C0ADD41092EF20D0CFBF
S11307C008950895809114018093E7238091150181
S11307D08093E823809124018093E923809125016B
S11307E08093EA238091200A8093F3238091210A45
S11307F08093F423809114019091150186349140E3
S113080080F08091140190911501893A914048F447
S113081080911401909115018093E82F9093E92F12
S113082000008091F520882339F053DD1092F520E3
S113083081E08093F42008958091F4208823B9F115
S11308408091EA20833019F456DDCADE01C022DE2D
S11308508091F020811126C01092F020E091F120C7
S1130860F091F2208091140190911501EE0FFF1F79
S1130870E851F24D808391838091F1209091F22090
S11308808F3F910529F41092F1201092F2200FC0AD
S11308908091F1209091F22001968093F120909321
S11308A0F22005C08091F0208F5F8093F02080912A
S11308B0F320882351F080911401909115018093C5
S11308C0E82F9093E92F1092F32080910920209132
S11308D0140130911501853028F481E02737314027
S11308E030F004C081E02E3E324008F080E0809376
S11308F0F72008950F931F9381E08093FA2080934B
S1130900F52004E613E02DE730E04CE058E260E027
S113091081E80E94BF122DE730E049E858E260E028
S113092082E80E94BF122DE730E046E059E260E021
S113093083E80E94BF122DE730E043E859E260E00B
S113094084E80E94BF122DE730E040E05AE260E004
S113095085E80E94BF122DE730E04DE75AE260E0DF
S113096086E80E94BF1281E01F910F9108951092B2
S1130970FA20089581E0089581E0089510922002FC
S1130980982F9C71936890932002881F8827881F52
S1130990880F809321021092220210922602089559
S11309A0E0E0F2E010AA836880AB80E181AB12AA98
S11309B016AA0895E0E0F2E010A683E880A78FE28B
S11309C081A712A616A60895AAECB1E092E09C9322
S11309D0E82FF0E084911C920895909171009D7F1E
S11309E09093710010920002623011F09CE101C0FA
S11309F09EE19093010290E490930202811102C05F
S1130A0080E401C080EC80930302613011F084E043
S1130A1001C083E08093040280E2D6DF80930C025D
S1130A2081E2D2DF80930D02109218021092190213
S1130A3081E080930002BECF1F920F920FB60F92F7
S1130A4011248F93000000000000000081E08093D7
S1130A5023028F910F900FBE0F901F901895CF9384
S1130A60DF93E0E7F0E082818B7F8283C0E2D3E012
S1130A708DE0888380E4898389E08A8383E3A4DF2B
S1130A80888782E3A1DF898787E39EDF8A8786E3FD
S1130A909BDF8B87E0E2F6E08081836080831482B1
S1130AA0DF91CF910895E0E7F0E080818E7F80832D
S1130AB083E8809300010895E0E0F1E0108A80E487
S1130AC0808B10A280A310AA80ABE0E4F1E0108236
S1130AD080831092F9201092F82081E08093F7200F
S1130AE01092DC231092DD231092DA231092DB2380
S1130AF0089580930A2681E08093EF200895CF9390
S1130B00DF9310920920D8DFC0E0D1E01EAA84E26E
S1130B1088AB19AA49E54AAB32E03BAB60910B20A4
S1130B2070910C206CAB7DAB6BE076E268AF79AF73
S1130B301AAE9BE39CAF93E090933D0110923E016B
S1130B4028A9206828AB10924601E0E4F1E08083F4
S1130B5010924101409342019093430140910D2032
S1130B6050910E2040934401509345014AEF53E2C3
S1130B70409348015093490110924A0129E320937C
S1130B804C0190934D0110924E0190819068908396
S1130B90188A90E4988B888B198A95E99A8B90E14E
S1130BA09B8B4EEE52E04C8B5D8B888F398F1A8E67
S1130BB08CE098E28C8F9D8F1E8E68EC70E084EF41
S1130BC091E066DD88EC90E0809307209093082004
S1130BD081E08093062088898068888BDF91CF919B
S1130BE008951F93CF93DF9311E01093092064DFDE
S1130BF0C0E0D1E018AA80E488AB84E088AB19AAED
S1130C001AAA4BE44BAB1CAA1DAA1EAA8AE090E2C6
S1130C1088AF99AF1AAE70EA7CAF68E060933D018B
S1130C2010923E0188A9806A88ABE0EAF8E085E585
S1130C308083808310924601E0E4F1E084E28083C3
S1130C401092410199E59093420132E030934301BF
S1130C50A0910B20B0910C20A0934401B0934501C6
S1130C60ABE0B6E2A0934801B093490110924A0167
S1130C709BE390934C0193E090934D0110924E01AD
S1130C8020812068208388A399A325E92AA34BA364
S1130C904EEE52E04CA35DA378A769A71AA66AEFAB
S1130CA07AE26CA77DA71EA6888B998B2A8B90E18C
S1130CB09B8B4C8B5D8B888F398F1A8E8CE098E2DE
S1130CC08C8F9D8F1E8E68EC70E084EF91E0E0DCE9
S1130CD088EC90E0809307209093082010930620DE
S1130CE088A1806888A388898068888BDF91CF91E8
S1130CF01F9108951F93CF93DF9312E0109309205F
S1130D00DBDEC0E0D1E01EAA84E288AB19AA39E593
S1130D103AAB1BAB40910B2050910C204CAB5DAB1C
S1130D204BE056E248AF59AF1AAE9BE39CAF93E059
S1130D3090933D0110923E0128A9206828AB10929F
S1130D404601E0E4F1E080831092410130934201D6
S1130D509093430120910D2030910E202093440163
S1130D60309345012AEF33E220934801309349013F
S1130D7010924A0129E320934C0190934D01109263
S1130D804E01908190689083188A90E4988B888BA8
S1130D90198A45E94A8B90E19B8B2EEE32E02C8B2D
S1130DA03D8B888F198F1A8E6CE078E26C8F7D8F63
S1130DB01E8E88A319A24AA39BA32CA33DA384E35C
S1130DC088A719A71AA68AEF9AE28CA79DA71EA640
S1130DD068EC70E084EF91E05BDC88EC90E0809359
S1130DE007209093082081E08093062088898068FA
S1130DF0888B88A1806888A3DF91CF911F91089583
S1130E001F93CF93DF9313E01093092055DEC0E0C6
S1130E10D1E018A250E458A384E088A319A21AA22E
S1130E204BE44BA31CA21DA21EA28AE090E288A759
S1130E3099A71AA630EA3CA728E02DA71EA688A1E8
S1130E40806A88A385E58093A0081EAA84E288AB03
S1130E5019AA69E56AAB1BABE0910D20F0910E2055
S1130E60ECABFDABEAEFF3E2E8AFF9AF1AAE99E30E
S1130E709CAF10933D0110923E0198A9906898ABE5
S1130E8010924601E0E4F1E0808310924101609306
S1130E90420192E09093430160910B2070910C20E9
S1130EA060934401709345016BE076E260934801DE
S1130EB07093490110924A019BE390934C01109363
S1130EC04D0110924E01908190689083188A588B3E
S1130ED0888B198A85E98A8B4B8B8EEE92E08C8BFA
S1130EE09D8B388F298F1A8E8CE098E28C8F9D8F82
S1130EF01E8E68EC70E084EF91E0CADB88EC90E031
S1130F00809307209093082081E0809306208889AD
S1130F108068888BDF91CF911F9108951F93CF93A1
S1130F20DF9314E010930920C7DDC0E0D1E018AAD4
S1130F3080E488AB18AB19AA1AAA3BE43BAB1CAA01
S1130F401DAA1EAA8AE090E288AF99AF1AAE50EAB1
S1130F505CAF88E080933D0110923E0198A9906AAD
S1130F6098AB95E59093A00810924601E0E4F1E077
S1130F7094E290831092410129E52093420122E0FA
S1130F802093430160910B2070910C2060934401E5
S1130F90709345016BE076E26093480170934901D8
S1130FA010924A012BE320934C0123E020934D013E
S1130FB010924E01208120682083988B198A45E97C
S1130FC04A8B3B8B2EEE32E02C8B3D8B588F898FD6
S1130FD01A8E6CE078E26C8F7D8F1E8E98A319A216
S1130FE04AA39AE49BA32CA33DA393EC98A789A7B7
S1130FF01AA68AEF9AE28CA79DA71EA668EC70E059
S113100084EF91E045DB88EC90E080930720909397
S1131010082081E08093062088898068888B88A1D5
S1131020806888A3DF91CF911F910895FFCFCF935C
S1131030DF9386E0809309203FDDC0E0D1E01EAA63
S113104084E288AB19AA39E53AAB93E09BAB4091B3
S11310500D2050910E204CAB5DAB4AEF53E248AFEC
S113106059AF1AAE29E32CAF90933D0110923E0183
S113107028A9206828AB10924601E0E4F1E08083BF
S1131080109241013093420132E030934301409188
S11310900B2050910C2040934401509345014BE0A8
S11310A056E2409348015093490110924A012BE3C0
S11310B020934C0190934D0110924E0120812068A1
S11310C02083188A20E4288B888B998B95E99A8B46
S11310D090E19B8B4CED55E04C8B5D8B888F398F69
S11310E01A8E8CE098E28C8F9D8F1E8E68EC70E0D7
S11310F084EF91E0CDDA80E991E08093072090932A
S1131100082081E08093062088898068888BDF919D
S1131110CF910895CF93DF9387E080930920CCDCAF
S1131120C0E0D1E01EAA94E298AB19AA39E53AAB23
S113113083E08BAB40910D2050910E204CAB5DAB06
S11311404AEF53E248AF59AF1AAE29E32CAF80936C
S11311503D0110923E0128A9206828AB1092460157
S1131160E0E4F1E09083109241013093420132E0D7
S11311703093430140910B2050910C204093440143
S1131180509345014BE056E2409348015093490186
S113119010924A012BE320934C0180934D0110924D
S11311A04E01208120682083188A20E4288B25E2C0
S11311B0288B898B85E98A8B80E18B8B4CED55E0FC
S11311C04C8B5D8B988F398F1A8E8CE098E28C8FC4
S11311D09D8F1E8E68EC70E084EF91E059DA80E90F
S11311E091E0809307209093082081E0809306206B
S11311F088898068888BDF91CF9108951F920F9220
S11312000FB60F9211248F939F93EF93FF9381E076
S1131210809303018091DC239091DD2301968093D8
S1131220DC239093DD238091DC239091DD23EEED8C
S1131230F3E2878B8091DC239091DD23908FFF91E3
S1131240EF919F918F910F900FBE0F901F90189563
S11312501F920F920FB60F9211248F939F93EF93C7
S1131260FF9382E0809303018091DA239091DB2342
S113127001968093DA239093DB238091DA23909173
S1131280DB23EEEDF3E2818F8091DA239091DB236F
S1131290928FFF91EF919F918F910F900FBE0F90BE
S11312A01F901895E0E7F0E083818C7F838384812D
S11312B08C7F848380818D7F8083E0E8F1E080EC03
S11312C08283128688EC81831186A0E0B8E034E042
S11312D03C9323E011962C93119714961C92149727
S11312E085ED91E096968D939C93979716961C9214
S11312F01697E0E4F8E030832183148286A397A351
S11313001682E0E6F6E0808180618083E0E4F9E023
S113131083E18183148282E08683A6A3B7A310A607
S113132011A681E0808308951F920F920FB60F9249
S113133011242F933F934F935F938F939F93CF9356
S1131340DF931F92CDB7DEB78FEF80934C09809166
S11313500920873031F480912C02898390912D02E9
S113136002C090912C028091F620891B209168097B
S11313703091690982308CF02A3F374070F4209113
S113138068093091690989301CF481E090E002C059
S113139086E090E0820F931F18C020916809309175
S11313A069098F3FB4F42730310598F0209168091A
S11313B030916909883F1CF081E090E002C086E02A
S11313C090E0A901481B590BCA01809378099093B6
S11313D079090F90DF91CF919F918F915F914F91F8
S11313E03F912F910F900FBE0F901F901895E0E73B
S11313F0F0E083818F7E8383E0E4F6E080818A6A73
S113140080838FEF848388E5828BE0EAF8E080E3D1
S1131410838384EC858387E08683178288E18483D1
S11314200895E0E7F0E08381877F8383E0ECF8E0D0
S113143080E48083118288E58093550608951F9285
S11314400F920FB60F92112400000F900FBE0F9051
S11314501F9018951F920F920FB60F9211248F931D
S1131460EF93FF93E0EAF8E080818083FF91EF91AE
S11314708F910F900FBE0F901F9018959FB7F894FF
S1131480A0E5B0E016968C911697897F16968C93FA
S11314901697E0E6F0E080E885838BEB868316966A
S11314A08C911697846016968C93808181608083DA
S11314B09FBF08959FB7F894E82FF0E0E059FF4FDD
S11314C060958081682360839FBF0895CF938630A1
S11314D011F0C0E001C0C8E18091510081FD0DC050
S11314E09FB7F894809150008260809350009FBF12
S11314F08091510081FFFCCFC1DF6C2F636084E4D5
S113150090E096D460E480E0CF91D4CF8091FB202A
S113151008958091FB20813009F429CA0895EFD001
S1131520FC0183818093FB20811101C0E3C981E028
S113153008959091FA25892F807697FF07C080340B
S113154091F48091FB2581110EC016CA803459F4A0
S11315508091FB25811107C080910026909101267E
S1131560892B09F007CA80E008958091FC258F77C4
S113157088C790910221911102C080E00895E09102
S11315800021F09101210190F081E02D94818917CF
S1131590A0F7E093FE20F093FF20228133812E0FE9
S11315A03F1FE217F30798F49181943061F492811C
S11315B0891309C09381691306C0E093FE20F09358
S11315C0FF2081E008959081E90FF11DEACFE093B7
S11315D0FE20F093FF20D1CFE0910021F091012172
S11315E00190F081E02D228133812E0F3F1FFC01F9
S11315F04081E40FF11DE217F30748F48181843040
S113160031F0853039F08081E80FF11DF4CF80E0AE
S113161090E00895CF0108951F93CF93DF93182F7F
S1131620A8DF882339F1C091FE20D091FF20CE019C
S1131630D3DFEC01892B41F04C815D816B818A8180
S11316402DD78111F4CF16C0E0910021F091012132
S113165092818381E92FF82FE10FF11DE10FF11D34
S11316600190F081E02D0190F081E02DDF91CF9188
S11316701F91099480E0DF91CF911F910895EF921B
S1131680FF921F93CF93DF93C82F60E072DF811125
S113169002C010E02DC0E0910021F091012192815F
S11316A08381E92FF82FEC0FF11DEC0FF11DE08081
S11316B0F180D7011696ED91FC9117970995682F43
S11316C08C2F57DF182F882321F3C091FE20D0914F
S11316D0FF20CE0181DFEC01892B21F08A810E9459
S11316E07B13F7CFD7011296ED91FC9113970995CF
S11316F0812FDF91CF911F91FF90EF9008958091FA
S1131700FE209091FF20089551C6CF93809102212D
S1131710811108C010920221109206211092072113
S1131720CF910895C0E0E0910021F0910121019052
S1131730F081E02D8481C81768F78C2FA0DFCF5F7C
S1131740F2CFCF93809102218823F1F0C0E0E091A1
S11317500021F0910121A081B18114968C91C817C8
S113176098F492818381E92FF82FEC0FF11DEC0F8F
S1131770F11D0190F081E02D0084F185E02D30977A
S113178009F00995CF5FE3CFCF910895EF92FF92CF
S11317900F931F93CF93DF931F92CDB7DEB71092B1
S11317A004261092052610920626109207261092FF
S11317B00826109209268091FA2587FF07C02091F8
S11317C0002630910126232B09F429C3982F907603
S11317D0903409F0E5C0E091FB258E2F90E0FC01E8
S11317E0E05AF109E830F10508F0A8C2EA5FFE4FBB
S11317F00C94451581E08093F3208091072090910B
S113180008208093EB2380910720909108209093E7
S1131810EC238091D2238093ED238091CF23809376
S1131820EE2380916A008093EF2380916B00809374
S1131830F02360910026709101268EED93E297C10A
S1131840109200088091FC259091FD258093360824
S1131850909337088091FE258F70809300086091E3
S11318600026709101268AEF93E211D620910D2073
S113187030910E2080910026909101262817390777
S113188009F4CBC280930D2090930E2026C01092B1
S113189040088091FC259091FD25809376089093D3
S11318A077088091FE258F70809340086091002610
S11318B0709101268BE096E2EAD520910B203091BD
S11318C00C2080910026909101262817390709F4ED
S11318D0A4C280930B2090930C208091092052C0C5
S11318E010926809109269098091FC258093F62072
S11318F094C28091FC25809324068FC2E091FC253C
S1131900F091FD25E830F10508F018C2E25FFE4FC2
S11319100C94451560E080E060D88091FE252ED8B7
S113192080E030C060E080E058D88091FE2526D861
S113193081E028C061E081E050D88091FE251ED866
S11319408091FF252DD882E01DC083E01BC084E078
S113195019C060E080E041D88091FE250FD885E071
S113196011C061E080E039D88091FE2507D886E077
S113197009C062E080E031D88091FE2580680E9431
S1131980BE0487E0B6D849C28091FC2580938406C2
S113199044C2E9E7F0E091E088EDF89484BF9083D5
S11319A09111CCC187FFFDC0209100263091012602
S11319B02115310509F4C2C18F7109F09EC08091CF
S11319C0FB25863071F0883009F48EC08111B6C1D0
S11319D02230310509F0B2C162E070E086E091E2A4
S11319E0C6C08091FC259091FD25292F33272230F4
S11319F03105A1F064F42130310509F09FC18091D3
S1131A00192090911A20DC016C9170E05BC02330A6
S1131A10310589F12F30310509F190C1E091192088
S1131A20F0911A202189821708F088C19927880F1C
S1131A30991F880F991FE0911B20F0911C20E80F3B
S1131A40F91F80819181FC016281738120D5E0912D
S1131A500226F091032682E0818335C080911D2007
S1131A6090911E20009709F469C1DC0112966D91D2
S1131A707C91139727C099278130910569F038F03C
S1131A80029709F05BC168E18AEA90E208C064E069
S1131A9070E08EEC90E216C069E083EC90E2282FAF
S1131AA0AAE7B0E2FC01819190E08D939D938E2F83
S1131AB0821B8617C0F3660F6E5F6093782070E018
S1131AC088E790E2E4D48091002690910126209149
S1131AD00426309105268217930708F09EC180934F
S1131AE004269093052699C12130310509F026C1B9
S1131AF061E070E082E091E23AC08130D1F58091FA
S1131B00FB258A3009F01AC12130310509F016C1CC
S1131B1080910221882309F411C1E090FE25F09000
S1131B20FF250091002110910121D801ED91FC9134
S1131B308481E81608F002C160E08E2D1ADD882346
S1131B4009F4FCC0FF24EE0CFF1CF8018281938190
S1131B508E0D9F1DDC01ED91FC910680F781E02D37
S1131B6009958093042161E070E084E091E28FD4D0
S1131B7054C1823009F0E2C08091FB258111DEC09E
S1131B802230310509F0DAC08091FE25D8D490E0E6
S1131B908093FC209093FD2062E070E08CEF90E253
S1131BA0E6CF8F7109F07DC08091FB25833009F465
S1131BB0C5C018F48130A1F0C1C0853019F0893056
S1131BC039F1BCC08091002690910126892B09F03F
S1131BD0B5C085EB9AE080930626909307261DC135
S1131BE08091002690910126892B09F0A7C080914D
S1131BF0FC259091FD25019709F0A0C08091062154
S1131C00909107218D7F809306219093072105C130
S1131C108091002690910126892B09F08FC034D43D
S1131C20882309F48BC02091FC253091FD253327AE
S1131C30E0911920F0911A20818990E0821793078E
S1131C4008F47CC062DD8091FC259091FD25809391
S1131C500221882309F4E1C099278150904C880F10
S1131C60991F880F991F20911B2030911C20820FEF
S1131C70931F809300219093012110E0E0910021B3
S1131C80F09101210190F081E02D8481181708F072
S1131C90C4C060E0812FC0DC882309F44FC01F5FFB
S1131CA0EDCF8130F1F48091FB258B3009F046C0F3
S1131CB08091002690910126892B09F03FC08091E4
S1131CC00221882309F43AC01091FE256091FC2575
S1131CD0812F6983D4DC6981882381F1812F9CDC85
S1131CE02BC0823059F58091FB25813019F0833067
S1131CF089F024C08091002690910126892BF1F46B
S1131D008091FC259091FD25892BC1F48091FE25BD
S1131D101DD412C08091002690910126892B71F464
S1131D208091FC259091FD25892B41F48091FE251D
S1131D30B2D48091FE25E8D481116FC08091FA2538
S1131D408F718130B9F580910221882399F1E09057
S1131D50FE25F090FF250091002110910121D8016A
S1131D60ED91FC918481E81628F560E08E2D01DC6C
S1131D70882301F1F701FF27EE0FFF1FD801129608
S1131D808D919C911397E80FF91F00811181D8015F
S1131D901696ED91FC9117970995682F8E2DE9DB26
S1131DA0882341F0D8011496ED91FC91159709957B
S1131DB0811133C08091FA258F71823081F5809131
S1131DC00221882361F1F12CE0910021F09101219D
S1131DD0A081B18114968C91F81608F592818381C3
S1131DE0E92FF82FEF0DF11DEF0DF11D0081118189
S1131DF0D8011696ED91FC9117970995682F8F2DB0
S1131E00B8DB882361F0D8011496ED91FC91159705
S1131E100995811102C0F394D7CF81E001C080E01D
S1131E200F90DF91CF911F910F91FF90EF90089544
S1131E301BBEFC0128ED24BF608308954091CA01B4
S1131E40E62FF72F8093CA0184914093CA01089525
S1131E50E82FF0E0E651F04D80818F3F09F4FFCF89
S1131E609FB7F89480818F5F80839FBF0895E82F88
S1131E70F0E0E651F04D8081811101C0FFCF9FB7A2
S1131E80F8948081815080839FBF0895CF93C82F99
S1131E908091CC23C11105C0882339F081E0E7DFAC
S1131EA004C0811102C081E0D3DFC093CC23CF9161
S1131EB00895282F2F70082E000C990B392F331FEB
S1131EC03327331F832F90E0820F911D820F911DC2
S1131ED023E0880F991F2A95E1F7885A9C4D0895AD
S1131EE00F93E8ECF4E080818F7D808380818F7D87
S1131EF08083E0E6F3E202E00593109262231092FD
S1131F00632300E2069300E40693E8E5F3E200E2CB
S1131F10069300E40693EAEFF5E214861586168626
S1131F20178612861386109239230F9108950F9302
S1131F3085E080933923E1E6F3E204E00593E9E5E3
S1131F40F3E204E005930F9108950F9383E08093E7
S1131F5039231092622310926323E0E6F3E202E055
S1131F6006930F910895E0910626F0910726309785
S1131F7009F009940895282F2F70082E000C990B4E
S1131F80392F331F3327331F832F90E0820F911D86
S1131F90820F911D029749E0489F9001499F300D9F
S1131FA01124C90187579D4D08958F929F92AF9236
S1131FB0BF92DF92EF92FF920F931F93CF93DF9321
S1131FC0D82ED9DFEC018D2D74DF7C01DC01119654
S1131FD0EC91E770E150E73040F4F0E0EE0FFF1FC2
S1131FE0E552FF4D0081118102C008E010E0ED814F
S1131FF0FE812B813C814881D701D7FE48C01696CB
S11320008D919C9117978E0F9F1F8D839E838217AE
S1132010930761F1281B390B2115B4E03B0738F015
S11320202FEF33E0C901B80109D5281B390B41FF53
S11320300AC0C901B80102D5AC0191E0452B09F0F1
S113204090E0892F01C080E0988180FB91F998830A
S1132050F701168217822283338329813A818D8185
S11320609E81820F931F848395830EC041FF71C0AC
S11320704D7F4883D70116961D921C92179712968E
S11320801D921C921397F70102E006937BC01296EF
S1132090AD90BC90139742FF10C089809A80C9010B
S11320A0B801CCD4B0E4DB9EB001112467537F4D5A
S11320B0AC01C4018E0F9F1FEED48D819E818A0DC9
S11320C09B1D8D839E832B813C812817390710F437
S11320D02D833E83F70186819781A816B906C9F539
S11320E08D819E8182179307A1F1281B390B21153D
S11320F0F4E03F0710F02FEF33E0C901B8019ED49C
S1132100281B390BD70112961D921C921397201786
S1132110310778F4888184608883B0E4DB9EC00151
S1132120112487539F4DF701848395830683178376
S1132130AACF49815A818D819E81840F951FD70131
S113214014968D939C93159716962D933C931797FD
S11321509ACF888180FF16C08E7F8883EF81F885AF
S1132160309781F06D817E814D2D80E0DF91CF919C
S11321701F910F91FF90EF90DF90BF90AF909F90D1
S11321808F900994DF91CF911F910F91FF90EF9061
S1132190DF90BF90AF909F908F9008950F93CF934F
S11321A0DF9380913923833029F4DDDEDF91CF91F1
S11321B00F9196CE2091352330913623C091042679
S11321C0D0910526C21BD30B61F5809137239091E2
S11321D03823820F931F80933723909338232091C1
S11321E00026309101262817390721F08091082113
S11321F0882331F084E080933923E8E5F3E236C0A4
S1132200E0910826F0910926309799F009958823E2
S113221081F01092352310923623C0910426D09178
S11322200526C034D10528F010920821C0E4D0E07E
S113223003C081E080930821C0936223D093632379
S113224080913523909136232091022630910326E4
S1132250280F391F2093642330936523C80FD91F97
S1132260C0933523D0933623E0E6F3E202E00693ED
S1132270DF91CF910F9108950F93CF93DF931F9226
S1132280CDB7DEB78091CC0480FF65C021E02093F8
S1132290CC0488E593E2FC0100E80693E0E6F3E26F
S11322A000E806932093CA04FC0100E106938091A0
S11322B03923882329F08350823008F454DE10DE59
S11322C080915A2390915B23089709F046C088E0D7
S11322D0E5EFF2E2AAEFB5E201900D928A95E1F7FB
S11322E08091C80480628093C8048091C80480628D
S11322F08093C8044BDA811102C019DE2EC090917C
S1132300FA2597FF0EC010923723109238231092AB
S113231035231092362392E09093392389833EDF4C
S113232008C02091002630910126232B21F48983B3
S11323300CDE898113C01092372310923823109237
S113234035231092362391E090933923E8E5F3E2A4
S113235002E0069303C080E001C081E00F90DF91AA
S1132360CF910F910895CF93CFB7F89481E08EDD8C
S1132370EAECF4E080E4808380E28083E1ECF4E042
S1132380808181608083A9ECB4E08C9182608C931D
S1132390E8ECF4E08081806480838C9181608C938C
S11323A0808180688083CFBFCF910895CF931092AE
S11323B0600080E38BD88091C00480648093C00463
S11323C081E080936000CFB7F89480E090E0FC0156
S11323D023E0EE0FFF1F2A95E1F7E45CFC4D158E18
S11323E001968E30910599F780E090E039E0389FAE
S11323F0F001399FF00D1124E757FD4D20812E7F08
S1132400208301968C30910591F76AE170E082E0B7
S113241015DD8F3F09F48FE18093FA046BE170E0DE
S113242082E00CDD8F3F09F48FE18093FB048091FF
S1132430C00486608093C0048091C0048068809347
S1132440C0048091C00480618093C00488E593E255
S11324508093C6049093C7048091C00480628093E3
S1132460C0048FEF8093C5048091C8048260809378
S1132470C8041092CC2385E0EBDC75DFCFBFCF918D
S113248008958093C30408958091C3040895EAEFE6
S1132490F5E2808791876287738708950F931F936E
S11324A0CF93DF931F92CDB7DEB78A01698301DD35
S11324B0FC018181807C698181113AC06370613043
S11324C019F020F080E803C080EC01C080E40038FB
S11324D01105E9F058F400321105A9F00034110592
S11324E0A1F000311105C9F491E018C0011592E082
S11324F0190779F00F3F93E0190769F001151140AE
S113250061F495E00BC092E009C093E007C094E049
S113251005C096E003C097E001C090E0118226E078
S11325202083982B918381818062818381E001C023
S113253080E00F90DF91CF911F910F910895B9DC46
S1132540FC01818182FB882780F90895CF93C82FED
S1132550B0DCFC01818182FF0FC091819B7F91835C
S11325608C2F09DDFC01908190FF06C09E7F908333
S11325700780F085E02D099581E0CF9108958F9231
S11325809F92AF92BF92DF92EF92FF920F931F93AD
S1132590CF93DF931F92CDB7DEB7D82E5A017901BE
S11325A06983E9DC4C018D2D84DC9C01DC011196EE
S11325B08C911197807C6981882309F45EC01196FF
S11325C08C911197807C803C21F011968C9182FD36
S11325D054C09FB7F894F401808180FF02C09FBF6C
S11325E04CC0816080839FBFF401A182B282E382E8
S11325F0F482158216820783108791E0611104C06A
S1132600E114F10409F090E0D4018C9190FB81F97C
S11326108B7F8C93D7FE04C0F9011682178229C0E0
S1132620D90111968C911197807C803CC9F4119644
S1132630EC91E770E150E73040F4F0E0EE0FFF1F5B
S1132640E552FF4D6081718102C068E070E0C7010E
S1132650F5D1892B29F0F40180818E7F80830DC010
S1132660D90112961D921C92139716961D921C92D4
S113267017978D2D9ADC81E001C080E00F90DF91E7
S1132680CF911F910F91FF90EF90DF90BF90AF908B
S11326909F908F900895EF92FF920F93CF93C82F3E
S11326A008DC7C018C2F67DCDC01F70102E0059378
S11326B09C9190FF1BC09E7F9C931796ED91FC917B
S11326C01897309799F0D701C7FF05C016966D91FA
S11326D07C91179704C012966D917C9113974C2F9F
S11326E081E0CF910F91FF90EF900994CF910F91DA
S11326F0FF90EF900895CF93C82FCDDF8C2FD9DBB7
S1132700FC011182CF9108950F93CF93C82FD1DB91
S1132710FC0191819460918301E006938C2FBBDFCF
S113272081E0CF910F9108951F920F920FB60F92EF
S113273011240F932F933F934F935F936F937F9342
S11327408F939F93AF93BF93CF93EF93FF93809116
S1132750CB0487FF08C080E88093CA040E94A10BC1
S11327600E94E20386C08091CB0482FF18C084E0FB
S11327708093CA048091602386FF7BC08091CC043F
S113278081FD77C079DD811174C080913923813056
S113279011F4DBDB6EC0843009F06BC021C0809182
S11327A0CB0481FF26C082E08093CA048091582321
S11327B086FF5FC08091CC0481FD5BC05DDD81112B
S11327C058C080913923823041F484E080933923C6
S11327D0E8E5F3E202E006934CC0833009F049C017
S11327E0E1E6F3E204E00593E9E5F3E204E00593AE
S11327F040C08091CB0484FF25C080E18093CA044B
S1132800C1E08C2F48DF8C2F806845DFCF5FC63056
S1132810C1F70E94850B1092C30410925923C093F0
S1132820582383E48093592310926123C093602337
S11328308093612385EF92E280935C2390935D23E0
S11328404FDB17C08091CB0486FF08C080E48093DF
S1132850CA0480E01BDB0E94E0030BC08091CB0420
S113286085FF07C080E28093CA0481E00FDB0E94E9
S1132870E103FF91EF91CF91BF91AF919F918F9120
S11328807F916F915F914F913F912F910F910F9095
S11328900FBE0F901F9018951F920F920FB60F92B4
S11328A011240F931F932F933F934F935F936F9331
S11328B07F938F939F93AF93BF93CF93DF93EF93C4
S11328C0FF938091CC0481FF1AC082E08093CC04F2
S11328D08091C5048195880FE8E5F3E2E81BF109CE
S11328E0208131812855334283E0369527958A9596
S11328F0E1F7822F869520FD06C0C0E005C0BCDC50
S1132900882319F386C0C0E8C80F8C2FD2DAFC01E3
S1132910208125FF7EC000E20693C11174C080911E
S11329203923843019F41FDBDBDA73C000915A2396
S113293010915B238091042690910526C091352344
S1132940D09136239E01200F311F8217930718F46C
S11329508C010C1B1D0B8091022690910326A8016B
S113296065EF72E28C0F9D1F96D0C00FD11FC093EC
S11329703523D09336230034110569F4809137232D
S1132980909138238C0F9D1F2091002630910126B1
S11329908217930788F0C0930426D0930526E0910C
S11329A00826F0910926309729F00995811102C073
S11329B0BEDA2FC0CADA2DC0809104269091052674
S11329C08C179D07D9F4E0910826F09109263097D9
S11329D079F30995882361F32091372330913823C3
S11329E08091352390913623820F931F8093372350
S11329F0909338231092352310923623E8E5F3E2BE
S1132A0002E0069306C0C03811F4C8DB02C08C2F64
S1132A10CCDAFF91EF91DF91CF91BF91AF919F916C
S1132A208F917F916F915F914F913F912F911F9162
S1132A300F910F900FBE0F901F901895AA1BBB1BF0
S1132A4051E107C0AA1FBB1FA617B70710F0A61BAA
S1132A50B70B881F991F5A95A9F780959095BC01CB
S1132A60CD01089597FB072E16F4009406D077FD48
S1132A7008D0E4DF07FC05D03EF4909581959F4F84
S1132A800895709561957F4F0895EE0FFF1F05908F
S1132A90F491E02D0994FB01DC0102C001900D9238
S1132AA041505040D8F70895FB01DC0101900D928C
S10D2AB00020E1F70895F894FFCF29
S1132ABA40000CE02E0AFFFFFFFF55800080008FC4
S1132ACA0A890A990A860A000064201F200000283D
S1132ADA2023200F2000000009023C00010100808D
S1132AEAFA0904000006FFFFFF00070581018000C0
S1132AFA010705820180000107058301800001079F
S1132B0A0584018000010705850180000107058607
S1132B1A018000011201000200000040EB0300A042
S1132B2A000201020001000000030000000000008E
S1132B3A0000000000000000000000000000000087
S1132B4A0000000000000000000000000000000077
S1132B5A00000000000000000000555342476F6265
S1132B6A696E6461722044756D6D79204465766975
S1132B7A63650054617069725465636800000403F4
S1132B8A090464656275673132330010002000401D
S10D2B9A00800000010002FF0300A8
S9030000FC
