S01500005553425F42554C4B5F544553542E73726563F9
S113000025C100003FC100003DC100003BC100000C
S113001039C1000037C100000C941F090C94760903
S113002031C100002FC100002DC100002BC1000010
S113003029C1000027C1000025C1000023C1000020
S113004021C100001FC100001DC100001BC1000030
S113005019C1000017C1000015C1000013C1000040
S11300600C94840A0C948F0A0DC100000BC100008B
S113007009C1000007C1000005C1000003C1000060
S113008001C10000FFC00000FDC00000FBC0000073
S1130090F9C00000F7C00000F5C00000F3C0000084
S11300A0F1C00000EFC00000EDC00000EBC0000094
S11300B0E9C00000E7C00000E5C00000E3C00000A4
S11300C0E1C00000DFC00000DDC00000DBC00000B4
S11300D0D9C00000D7C00000D5C00000D3C00000C4
S11300E0D1C00000CFC00000CDC00000CBC00000D4
S11300F0C9C00000C7C00000C5C00000C3C00000E4
S1130100C1C00000BFC00000BDC00000BBC00000F3
S1130110B9C00000B7C00000B5C00000A6C400000C
S1130120B1C00000AFC00000ADC00000ABC0000013
S1130130A9C00000A7C00000A5C00000A3C0000023
S1130140A1C000009FC000009DC000000C94E20903
S113015099C0000097C0000095C0000093C0000043
S113016091C000008FC000008DC000008BC0000053
S113017089C0000087C0000085C0000083C0000063
S113018081C000007FC000007DC000007BC0000073
S113019079C0000077C0000075C0000073C0000083
S11301A071C000006FC000006DC000006BC0000093
S11301B069C0000067C0000065C0000063C00000A3
S11301C061C000005FC000005DC000005BC00000B3
S11301D059C0000057C0000055C0000053C00000C3
S11301E051C000004FC000004DC000004BC00000D3
S11301F049C000000C94F9150C94AB162104230497
S11302002504270429042B042D042F044304450446
S1130210470449044B0450044D044F048D0CB20CA4
S1130220D50CF80C010D060D5F0D640D830D120D38
S11302301D0D280D370D3A0D3D0D480D530D55116B
S113024058115B115E1161116411671111241FBEF5
S1130250CFEFCDBFDFE2DEBF10E2A0E0B0E2EAE91B
S1130260FFE202C005900D92AC38B107D9F72BE23A
S1130270ACE8B0E201C01D92A03DB207E1F794D210
S11302800C94CB17BDCECF93DF93C0E5D0E084E0D0
S11302908E838CE1A4D3E0E6F0E083838BEB86834A
S11302A080E8858381E0808388ED84BF10924100DB
S11302B083E08883E0E5F0E081818330E9F7E0E5DD
S11302C0F0E080818160808388E18583818180FF83
S11302D0FDCFE0E5F0E0808180618083818184FF4F
S11302E0FDCF88ED84BF84E080934000DF91CF91FF
S11302F00895E0E7F0E085818E7F8583E0E0FAE011
S11303008FEB9DE586A397A380EE9EE280A391A345
S113031082E0808308958091200A9091210A813E91
S11303202EE2920720F02091722120936A00803EF1
S11303302EE2920720F420916F2120936A002091ED
S11303400520222331F080910520815080930520DF
S113035035C0885F9A42813D974080F110928C208D
S113036080918D2090918E20A0918F20B09190202B
S11303700196A11DB11D80938D2090938E20A09392
S11303808F20B093902080918D2090918E20A09109
S11303908F20B0919020892F9A2FAB2FBB27EEE7A7
S11303A0F1E2848B80918D2090918E20A0918F20FA
S11303B0B0919020838B86E0809305208091072064
S11303C0909108200196B1F4809109208F3F91F01B
S11303D080910620811106C080910620815080936F
S11303E006200895809114019091150180930720AF
S11303F0909308200895009709F466C00CF09C01BE
S1130400992334F422273327281B390B51E001C0E8
S113041050E0E8E6F0E0838190E0809370219093CF
S1130420712180917021909171219695982F882740
S11304309795879580937021909371214281809143
S1130440702190917121840F911D8093702190935C
S1130450712100008091702190917121821793077E
S113046028F41092702110927121089580917021C6
S113047090917121820F931F8115904238F08FEF74
S11304809FE180937021909371210895552359F031
S11304908091702190917121821B930B8093702124
S11304A0909371210AC08091702190917121280F3D
S11304B0391F209370213093712180917021909184
S11304C071218F7780936A000895CF93DF93C09151
S11304D0200AD091210A80910320909104209E014A
S11304E0281B390B209373213093742180918C2025
S11304F081114DC080917321909174218E3C9F4F46
S1130500E4F480917321909174218B369F4FACF069
S113051080910220882331F08091022081508093C1
S1130520022035C080916A008093722181E080931B
S11305308C208CE0809302202AC08CE080930220DF
S113054080917321909174218A369F4F1CF08FEF14
S11305509FEF02C081E090E080936D2190936E2123
S1130560809173219091742120916D2130916E219D
S113057060E370E00E94A917261B370B20936D21BE
S113058030936E2180916D2190916E2134DF8091A2
S11305908C20813029F58091732190917421C39727
S11305A094F080910220882331F0809102208150C0
S11305B08093022015C080916A0080936F2183E0AC
S11305C080938C200DC08091732190917421873980
S11305D091051CF481E090E002C08FEF9FEF0BDFE8
S11305E0C0930320D0930420DF91CF910895861700
S11305F0970779F06817790728F49C01261B370BB5
S1130600B90109C08617970718F4681B790B03C052
S1130610089560E070E0862F972F08950F931F933D
S1130620CF93DF938091002090910120892B51F08A
S11306308091002090910120019780930020909355
S113064001204DC080E490E080930020909301202D
S11306508091072090910820019609F440C0809170
S113066014019091150120910920263018F467E7B0
S113067071E002C06EEE72E00E949517082F192FE8
S1130680C82FD12F80910720909108208C179D07A7
S113069080F46091072070910820802F912FA7DFAC
S11306A0029738F080EC9DE58093360A9093370AE0
S11306B016C08091072090910820C817D90778F4B4
S11306C06091072070910820802F912F90DF02976E
S11306D030F08FEB9DE58093360A9093370ADF91D3
S11306E0CF911F910F910895AC01460F571F861BA0
S11306F0970BE0E0FAE020A131A124173507D8F7E1
S113070020A131A182179307B0F70895E0E8F6E03D
S11307108FE0808385E0848308951F93CF93DF93D4
S1130720C0E4D0E0198180E4898340E250E068EAC3
S11307307BE280E290E00E94F70F1983DF91CF9172
S11307401F9108951F93CF93DF93C0E4D0E01981E4
S113075080E489838BEA95E20E94211081E00E9463
S113076040101983DF91CF911F91089508950F933D
S11307701F93209196208EEE92E0289FA001299F3E
S1130780500D112444535A4D07EB13E02EEE32E082
S113079060E081E80E94AD141F910F9108951CBE82
S11307A0EEEFF0E409950895B8DF8091A82B882333
S11307B069F080E2E8EAFBE2ABEAB5E201900D926F
S11307C08A95E1F71092AB25BDDFE9DF87E08093DE
S11307D0A200789458DDCADF0E940B0C59D17CD159
S11307E060E080E005D1F1D08CE0E5D0A9D564D6F5
S11307F07DD68CDF89E0E0E8F0E2AEE7B1E201907B
S11308000D928A95E1F7000000000000000000004E
S113081000000000000000000000000000000000D4
S1130820000080919120882371F3E091AA238E2FF8
S113083090E088309105A0F4FC01E250FF4F0C9445
S1130840BC1776D10DC0E8D10BC070D209C0F5D267
S113085007C082D305C009D403C008D401C07AD428
S113086010929120D0CF08950895CF93DF93E09113
S113087009208E2F90E08830910590F4FC01EA5F06
S1130880FE4F0C94BC17C7D10BC04FD209C0D4D2B1
S113089007C061D305C0E8D303C05BD401C0CED484
S11308A0A0E0B1E054968C915497EEE7F1E2818791
S11308B055968C915597828794968C9194978387BB
S11308C095968C9195978487C0E0DAE088A1858B12
S11308D089A1868B54968D919C915597863491402D
S11308E080F08091140190911501893A914048F467
S11308F080911401909115018093C82B9093C92B7A
S1130900000080919420882339F0F3DC1092942025
S113091081E08093932021C080919320882341F02B
S113092080918C20833019F4F6DC78DE01C0CDDDB3
S113093080919220882351F08091140190911501A7
S11309408093C82B9093C92B10929220909196205B
S113095081E0911180E080939620DF91CF910895FA
S11309600F931F9381E0809399208093942007EB49
S113097013E02DE730E04CEC55E260E081E80E94A2
S1130980AD1481E01F910F9108951092992008955C
S113099081E0089581E00895E0E0F2E010A2982F4C
S11309A09C71936890A3881F8827881F880F81A350
S11309B012A216A20895E0E0F2E010AA836880ABC8
S11309C080E181AB12AA16AA0895E0E0F2E010A635
S11309D083E880A78FE281A712A616A60895AAEC41
S11309E0B1E092E09C93E82FF0E084911C9208958A
S11309F0CF93DF93E0E7F0E091819D7F91831092A4
S1130A000002623031F1E0E0F2E09CE1918390E495
S1130A109283811102C080E401C080EC80930302C0
S1130A20613011F084E001C083E0C0E0D2E08C8347
S1130A3080E2D5DF8C8781E2D2DF8D87188E198E14
S1130A4081E08883C2DF0EC080EC8093030284E0DF
S1130A50ECCFE0E0F2E09EE1918390E49283811197
S1130A60F3CFD9CFDF91CF9108951F920F920FB694
S1130A700F9211248F93000000000000000081E019
S1130A80809323028F910F900FBE0F901F901895A3
S1130A90CF93DF93E0E7F0E082818B7F8283C0E233
S1130AA0D3E08DE0888380E4898389E08A8383E3CB
S1130AB096DF888782E393DF898787E390DF8A87DD
S1130AC086E38DDF8B87E0E2F6E0808183608083BC
S1130AD01482DF91CF910895E0E7F0E080818E7F6A
S1130AE0808383E8809300010895E0E0F1E0108AB8
S1130AF080E4808B10A280A310AA80ABE0E4F1E034
S1130B0010828083109298201092972081E0809325
S1130B10962010927C2110927D2110927A211092BD
S1130B207B2108958093AA2381E0809391200895E6
S1130B30CF93DF9310920920D8DFC0E0D1E01EAA42
S1130B4094E298AB19AA49E54AAB32E03BAB609119
S1130B500B2070910C206CAB7DAB6BEA73E268AF39
S1130B6079AF1AAE8BE38CAF83E080933D01109292
S1130B703E0128A9206828AB10924601E0E4F1E088
S1130B80908310924101409342018093430140912C
S1130B900D2050910E2040934401509345014AE9A1
S1130BA051E2409348015093490110924A0129E3CC
S1130BB020934C0180934D0110924E0120812068B6
S1130BC02083188A20E4288B24E0288B898B85E9EC
S1130BD08A8B80E18B8B47E751E04C8B5D8B988F40
S1130BE0398F1A8E8CEC95E28C8F9D8F1E8E68EC5B
S1130BF070E084EF91E078DD88EC90E0809307204A
S1130C009093082081E08093062088898068888BEF
S1130C10DF91CF91089508951F93CF93DF9311E04F
S1130C201093092062DFC0E0D1E018AA80E488AB09
S1130C3084E088AB19AA1AAA4BE44BAB1CAA1DAAE0
S1130C401EAA8AE090E288AF99AF1AAE70EA7CAF30
S1130C5068E060933D0110923E0188A9806A88ABE8
S1130C60E0EAF8E085E58083808310924601E0E4C1
S1130C70F1E084E280831092410199E5909342016E
S1130C8032E030934301A0910B20B0910C20A0934B
S1130C904401B0934501ABEAB3E2A0934801B09399
S1130CA0490110924A019BE390934C0193E0909385
S1130CB04D0110924E0120812068208388A399A3BE
S1130CC025E92AA34BA34EEE52E04CA35DA378A7DB
S1130CD069A71AA66AEB78E26CA77DA71EA6888B83
S1130CE0998B2A8B90E19B8B4C8B5D8B888F398FF2
S1130CF01A8E8CEC95E28C8F9D8F1E8E68EC70E0C2
S1130D0084EF91E0F1DC88EC90E0809307209093ED
S1130D1008201093062088A1806888A388898068A9
S1130D20888BDF91CF911F91089508951F93CF93DE
S1130D30DF9312E010930920D8DEC0E0D1E01EAAB0
S1130D4084E288AB19AA39E53AAB1BAB40910B207E
S1130D5050910C204CAB5DAB4BEA53E248AF59AF1A
S1130D601AAE9BE39CAF93E090933D0110923E0139
S1130D7028A9206828AB10924601E0E4F1E08083C2
S1130D8010924101309342019093430120910D2030
S1130D9030910E2020934401309345012AE931E239
S1130DA0209348013093490110924A0129E320938A
S1130DB04C0190934D0110924E0190819068908364
S1130DC0188A90E4988B888B198A45E94A8B90E1BC
S1130DD09B8B2EEE32E02C8B3D8B888F198F1A8ED5
S1130DE06CEC75E26C8F7D8F1E8E88A319A24AA3CA
S1130DF09BA32CA33DA384E388A719A71AA68AEB77
S1130E0098E28CA79DA71EA668EC70E084EF91E0A1
S1130E106BDC88EC90E0809307209093082081E0BD
S1130E208093062088898068888B88A1806888A33D
S1130E30DF91CF911F91089508951F93CF93DF936E
S1130E4013E01093092051DEC0E0D1E018A250E471
S1130E5058A384E088A319A21AA24BE44BA31CA2B2
S1130E601DA21EA28AE090E288A799A71AA630EADA
S1130E703CA728E02DA71EA688A1806A88A385E543
S1130E808093A0081EAA84E288AB19AA69E56AAB1C
S1130E901BABE0910D20F0910E20ECABFDABEAE929
S1130EA0F1E2E8AFF9AF1AAE99E39CAF10933D01BC
S1130EB010923E0198A9906898AB10924601E0E424
S1130EC0F1E08083109241016093420192E090939B
S1130ED0430160910B2070910C2060934401709346
S1130EE045016BEA73E260934801709349011092E3
S1130EF04A019BE390934C0110934D0110924E01D3
S1130F00908190689083188A588B888B198A85E918
S1130F108A8B4B8B8EEE92E08C8B9D8B388F298F36
S1130F201A8E8CEC95E28C8F9D8F1E8E68EC70E08F
S1130F3084EF91E0D9DB88EC90E0809307209093D4
S1130F40082081E08093062088898068888BDF915F
S1130F50CF911F91089508951F93CF93DF9314E0C9
S1130F6010930920C2DDC0E0D1E018AA80E488AB68
S1130F7018AB19AA1AAA3BE43BAB1CAA1DAA1EAAC9
S1130F808AE090E288AF99AF1AAE50EA5CAF88E08D
S1130F9080933D0110923E0198A9906A98AB95E523
S1130FA09093A00810924601E0E4F1E094E290836B
S1130FB01092410129E52093420122E0209343014C
S1130FC060910B2070910C20609344017093450153
S1130FD06BEA73E2609348017093490110924A01ED
S1130FE02BE320934C0123E020934D0110924E01FA
S1130FF0208120682083988B198A45E94A8B3B8B92
S11310002EEE32E02C8B3D8B588F898F1A8E6CEC30
S113101075E26C8F7D8F1E8E98A319A24AA39AE461
S11310209BA32CA33DA393EC98A789A71AA68AEBAC
S113103098E28CA79DA71EA668EC70E084EF91E06F
S113104053DB88EC90E0809307209093082081E0A4
S11310508093062088898068888B88A1806888A30B
S1131060DF91CF911F9108950895FFCFCF93DF9320
S113107086E08093092039DDC0E0D1E01EAA84E235
S113108088AB19AA39E53AAB93E09BAB40910D20AC
S113109050910E204CAB5DAB4AE951E248AF59AFD9
S11310A01AAE29E32CAF90933D0110923E0128A97A
S11310B0206828AB10924601E0E4F1E080831092AE
S11310C041013093420132E03093430140910B20BF
S11310D050910C2040934401509345014BEA53E254
S11310E0409348015093490110924A012BE3209305
S11310F04C0190934D0110924E0120812068208371
S1131100188A20E4288B888B998B95E99A8B90E137
S11311109B8B4CED55E04C8B5D8B888F398F1A8EF1
S11311208CEC95E28C8F9D8F1E8E68EC70E084EFC2
S113113091E0DADA80E991E0809307209093082027
S113114081E08093062088898068888BDF91CF9125
S113115008950895CF93DF9387E080930920C5DC39
S1131160C0E0D1E01EAA94E298AB19AA39E53AABE3
S113117083E08BAB40910D2050910E204CAB5DABC6
S11311804AE951E248AF59AF1AAE29E32CAF809334
S11311903D0110923E0128A9206828AB1092460117
S11311A0E0E4F1E09083109241013093420132E097
S11311B03093430140910B2050910C204093440103
S11311C0509345014BEA53E240934801509349013F
S11311D010924A012BE320934C0180934D0110920D
S11311E04E01208120682083188A20E4288B25E280
S11311F0288B898B85E98A8B80E18B8B4CED55E0BC
S11312004C8B5D8B988F398F1A8E8CEC95E28C8F7A
S11312109D8F1E8E68EC70E084EF91E065DA80E9C2
S113122091E0809307209093082081E0809306202A
S113123088898068888BDF91CF91089508951F92E3
S11312400F920FB60F9211248F939F93AF93BF9376
S1131250EF93FF93E0E0F1E081E0838380917C21D0
S113126090917D21019680937C2190937D218091A2
S11312707C2190917D21AEE7B1E257968C935797EC
S113128080917C2190917D2158969C93108A84E0D2
S1131290808B87E791E0848B958B809196208823BF
S11312A019F080E090E002C08EEE92E084539A4DF3
S11312B080931C0180919620882319F080E090E0AF
S11312C002C08EEE92E084539A4DE0E0F1E0958FF7
S11312D080898068808BFF91EF91BF91AF919F913E
S11312E08F910F900FBE0F901F9018951F920F9221
S11312F00FB60F9211248F939F93EF93FF9382E085
S11313008093030180917A2190917B2101968093AF
S11313107A2190937B2180917A2190917B21EEE731
S1131320F1E2818F80917A2190917B21928FFF91BC
S1131330EF919F918F910F900FBE0F901F90189572
S1131340E0E7F0E083818C7F838384818C7F8483D6
S113135080818D7F8083E0E8F1E080EC82831286D7
S113136088EC81831186A0E0B8E034E03C9323E06C
S113137011962C93119714961C92149785ED91E075
S113138096968D939C93979716961C921697E0E4E5
S1131390F8E030832183148286A397A31682E0E6C3
S11313A0F6E0808180618083E0E4F9E083E1818379
S11313B0148282E08683A6A3B7A310A611A681E0B7
S11313C0808308951F920F920FB60F9211242F93CA
S11313D03F934F935F938F939F93EF93FF93CF9399
S11313E0DF931F92CDB7DEB78FEF80934C098091C6
S11313F00920873031F4E0E0F2E084A5898395A5E3
S113140002C090912C0280919520891B209168093B
S11314103091690991E082300CF490E09923C9F08D
S113142091E02A3F374008F090E0992391F0209111
S113143068093091690989301CF481E090E002C0A8
S113144086E090E0820F931F809378099093790946
S113145023C0209168093091690991E08F3F0CF015
S113146090E09923C9F091E02730310508F490E029
S1131470992391F02091680930916909883F1CF003
S113148081E090E002C086E090E0A901481B590B7E
S113149040937809509379090F90DF91CF91FF9190
S11314A0EF919F918F915F914F913F912F910F9069
S11314B00FBE0F901F901895E0E7F0E083818F7EB8
S11314C08383E0E4F6E080818A6A80838FEF8483FB
S11314D088E5828BE0EAF8E080E3838384EC85830B
S11314E087E08683178288E184830895E0E7F0E04B
S11314F08381877F8383E0ECF8E080E4808311823A
S113150088E58093550608951F920F920FB60F92A7
S1131510112400000F900FBE0F901F9018951F927A
S11315200F920FB60F9211248F93EF93FF93E0EA7B
S1131530F8E080818083FF91EF918F910F900FBE2F
S11315400F901F9018959FB7F894E82FF0E0E0599A
S1131550FF4F60958081682360839FBF0895863024
S113156011F060E001C068E18091510081FD26C066
S11315709FB7F894E0E5F0E08081826080839FBFAC
S1131580818181FFFDCF9FB7F894A0E5B0E0169666
S11315908C911697897F16968C931697E0E6F0E067
S11315A080E885838BEB868316968C9116978460EE
S11315B016968C938081816080839FBF636084E4EE
S11315C090E00FD560E480E0BECF089580919A202A
S11315D008951CD1FC01838180939A20811102C05B
S11315E0BFC9089581E0089580919A20813009F45B
S11315F0CCC9089580919A2388234CF48076803452
S1131600A9F480919B23811113C0C4C908958076E5
S1131610803481F480919B2381110EC08091A0239A
S11316209091A123892B51F0B3C9089580E00895C6
S113163080E0089580E0089580E0089580E00895B2
S1131640E0919F20F091A0200190F081E02D228173
S113165033812E0F3F1FFC014081E40FF11DE2177F
S1131660F307B8F481818430B9F0861309C005C04A
S113167081818430A1F0861303C08E2F9F2F08959B
S11316808081E80FF11DE217F30790F380E090E00A
S1131690089580E090E0089580E090E0089580E06F
S11316A090E0089580919C238F770C94DB13089528
S11316B09091A220992381F1E0919F20F091A020A4
S11316C00190F081E02D9481891740F5E0939D20ED
S11316D0F0939E20228133812E0F3F1FE217F307E0
S11316E0F8F49181943061F49281981309C0938144
S11316F0961306C0E0939D20F0939E2081E0089508
S11317009081E90FF11DE217F30758F3E0939D2050
S1131710F0939E2080E0089580E0089580E008958D
S113172080E00895EF92FF921F93CF93DF93C82F29
S113173060E0BEDF182F882381F1A0919F20B09133
S1131740A020EC2FF0E0EE0FFF1F12968D919C91DC
S11317501397E80FF91FE080F180D7011696ED91F9
S1131760FC9117970995682F8C2FA2DF182F8823D7
S1131770A1F0C0919D20D0919E2065E0CE0160DF54
S1131780EC01892B21F08A810E94B015F6CFD70194
S11317901296ED91FC9113970995812FDF91CF91CA
S11317A01F91FF90EF9008951F93CF93DF93182F0D
S11317B07FDF882339F1C0919D20D0919E2065E080
S11317C0CE013EDFEC01892B41F04C815D816B81C0
S11317D08A81FED78111F3CF15C0A0919F20B091CB
S11317E0A020E12FF0E0EE0FFF1F12968D919C9147
S11317F01397E80FF91F0190F081E02D0190F0811B
S1131800E02D0995DF91CF911F91089580919D203E
S113181090919E20089568C70895CF938091A22047
S11318208823C1F0E0919F20F091A0200190F081E5
S1131830E02D8481882371F0C0E08C2F73DFCF5FAB
S1131840E0919F20F091A0200190F081E02D84810F
S1131850C81798F31092A2201092A6201092A720E5
S1131860CF910895CF938091A220882349F1A0912C
S11318709F20B091A020ED91FC9111978481882341
S1131880F9F0C0E0EC2FF0E0EE0FFF1F12968D91FF
S11318909C911397E80FF91F0190F081E02D0084CB
S11318A0F185E02D309709F00995CF5FA0919F2035
S11318B0B091A020ED91FC9111978481C81710F389
S11318C0CF9108950F931F93CF93DF93EAE9F3E247
S11318D01286138614861586168617868081282F0D
S11318E088233CF44091A0235091A123452B09F473
S11318F06CC3982F9076903409F00DC1E0919B232E
S11319004E2F50E0FA01E05AF109E930F10508F0F0
S113191002C1E25FFE4F0C94BC1781E080939220D9
S11319208091072090910820EEE7F1E2858780916D
S11319300720909108209687809172218787809153
S11319406F21808BA8E6B0E012968C911297818B60
S113195013968C91828B6091A0237091A123CF0167
S113196030D737C3E0E0F8E01082CAE9D3E28A81D5
S11319709B8186AB97AB8C818F7080836E817F81D6
S11319808AE991E21ED78E819F8120910D203091AA
S11319900E208217930709F41CC380930D209093A3
S11319A00E2080910920BED814C3E0E4F8E0108230
S11319B0CAE9D3E28A819B8186AB97AB8C818F7015
S11319C080836E817F818BEA93E2FBD68E819F8137
S11319D020910B2030910C208217930709F4F9C24F
S11319E080930B2090930C20809109209BD8F1C206
S11319F0109268091092690980919C238093952024
S1131A00E8C280919C2380932406E3C2E0919C2346
S1131A10F0919D23E830F10508F07DC0E95EFE4FAA
S1131A200C94BC1760E080E00E94F80480919E232F
S1131A300E94CC0480E076D8CCC260E080E00E94B2
S1131A40F80480919E230E94CC0481E06BD8C1C22B
S1131A5061E081E00E94F804CAE9D3E28C810E942B
S1131A60CC048D810E94DB0482E05CD8B2C283E0A6
S1131A7059D8AFC284E056D8ACC260E080E00E947E
S1131A80F80480919E230E94CC0485E04BD8A1C227
S1131A9061E080E00E94F80480919E230E94CC04BF
S1131AA086E040D896C262E080E00E94F80480910B
S1131AB09E2380680E94CC0487E034D88AC2809137
S1131AC09C238093840685C280919C2390919D23BE
S1131AD0892B91F00E948D0380E2E8EAFBE2ABEAF5
S1131AE0B5E201900D928A95E1F781E08093AB25F0
S1131AF00E94A2030E948D03E9E7F0E091E088EDE3
S1131B00F89484BF90836091A0237091A1238AE804
S1131B1090E257D65EC29111E1C122230CF005C1B7
S1131B202091A0233091A1232115310509F4D6C1B8
S1131B308F7109F0A3C090919B23963079F098306F
S1131B4009F492C091119AC02230310509F0C6C13E
S1131B5062E070E086EA90E234D63DC280919C2334
S1131B6090919D23292F332722303105A9F024F4A5
S1131B702130310541F0A9C123303105D9F12F308D
S1131B80310551F1A2C18091192090911A20DC01F4
S1131B906C9170E016D659C0E0911920F0911A208A
S1131BA02189821708F09AC19927880F991F880FF5
S1131BB0991FE0911B20F0911C20E80FF91F8081F0
S1131BC09181FC0162817381FCD5E091A223F091A3
S1131BD0A32382E0818339C080911D2090911E202F
S1131BE0009709F47BC1DC0112966D917C911397E7
S1131BF0E8D52BC099278130910571F038F0029710
S1131C0009F06CC12AE630E288E009C064E070E0C3
S1131C108CE790E2D6D519C023E730E287E0422F63
S1131C20AAE5B0E2E22FF32F219130E02D933D930A
S1131C309E2F941B9817C0F3682F660F6E5F6093F6
S1131C40582070E088E590E2BCD5EAE9F3E28681A9
S1131C509781228533858217930708F0BCC180934E
S1131C60A4239093A523B7C12130310509F036C1CF
S1131C7061E070E082EA90E2A4D5ADC18130E1F583
S1131C8090919B239A30C1F52130310509F026C18A
S1131C908091A220882309F421C1C0919E23D09170
S1131CA09F2300919F201091A020D801ED91FC91D9
S1131CB08481C81708F012C160E08C2FF9DC8823F6
S1131CC009F40CC1CE019927880F991FD8011296E7
S1131CD0ED91FC911397E80FF91F0190F081E02D2D
S1131CE086819781FC0109958093A42061E070E0CE
S1131CF084EA90E266D56FC1823009F0EFC080912A
S1131D009B238111E4C02230310509F0E7C08091A2
S1131D109E23D3D590E080939B2090939C2062E0F7
S1131D2070E08BE990E24DD556C18F7109F083C004
S1131D3090919B23933009F4CCC018F49130A1F016
S1131D407AC0953019F0993039F175C08091A0238B
S1131D509091A123892B09F0C1C082E59BE0809377
S1131D60A6239093A72337C18091A0239091A12308
S1131D70892B09F0B3C080919C2390919D230197F6
S1131D8009F0ACC08091A6209091A7208D7F80930C
S1131D90A6209093A7201FC18091A0239091A123F6
S1131DA0892B09F09BC00AD5882309F497C0209198
S1131DB09C2330919D233327E0911920F0911A2020
S1131DC0818990E08217930708F488C026DD80910A
S1131DD09C2390919D238093A220882309F4FBC027
S1131DE099278150904C880F991F880F991FE09173
S1131DF01B20F0911C20E80FF91FE0939F20F09323
S1131E00A0200190F081E02D8481882309F4E3C0AF
S1131E10C0E060E08C2FC8DC882309F45FC0CF5F8A
S1131E20E0919F20F091A0200190F081E02D848129
S1131E30C81778F3D0C08130E1F490919B239B3094
S1131E40C1F48091A0239091A123892B09F046C06D
S1131E508091A220882309F441C0EAE9F3E2C48115
S1131E60D2818C2F5FDC8823C9F16D2F8C2F9CDCF1
S1131E7033C0823099F580919B23813019F08330EF
S1131E8089F029C08091A0239091A123892B31F559
S1131E9080919C2390919D23892B01F580919E2311
S1131EA027D51AC08091A0239091A123892BB1F446
S1131EB080919C2390919D23892B81F4CAE9D3E2DC
S1131EC08C8105D68C8168D607C080E005C080E08F
S1131ED003C080E001C080E081117EC080919A231C
S1131EE08F71813071F58091A220882351F1009186
S1131EF09E2310919F23C0919F20D091A020E88120
S1131F00F98184810817E8F460E0802FD1DB88230D
S1131F10C1F0F801FF27CF01880F991FEA81FB81E7
S1131F20E80FF91FC081D181EE81FF810995682FE7
S1131F30802FBEDB882329F0EC81FD810995811176
S1131F404BC080919A238F71823009F040C08091F8
S1131F50A2208823B1F1A0919F20B091A020ED91FF
S1131F60FC9111978481882371F1C0E0EC2FF0E09B
S1131F70EE0FFF1F12968D919C911397E80FF91F96
S1131F8000811181D8011696ED91FC91179709955E
S1131F90682F8C2F8DDB8823F9F0D8011496ED91EE
S1131FA0FC9115970995811117C0CF5FA0919F20CF
S1131FB0B091A020ED91FC9111979481C917B0F2D2
S1131FC00BC080E009C080E007C080E005C080E06D
S1131FD003C081E001C081E0DF91CF911F910F9197
S1131FE008951BBEFC0128ED24BF60830895CF93A0
S1131FF0DF939C01DB01E0ECF1E097859923ECF39E
S1132000CCECD1E0988198609883B901705FCD01E0
S1132010B9D78881877F8883DF91CF910895E0ECD9
S1132020F1E097859923ECF3ACECB1E09C919860D6
S11320309C93E82FF0E0F05F60838C91877F8C9312
S11320400895EF92FF920F931F93CF93DF938C0128
S1132050E0ECF1E087858823ECF3780180E2E80E78
S1132060F11CE8018C2F801B6991D9DFCE15DF05A7
S1132070C9F7DF91CF911F910F91FF90EF900895D1
S11320801F93CF93DF93E0ECF1E097859923ECF372
S113209020E2829FC0011124C0ECD1E01A8299830E
S11320A088831A8585E38A8761E08BEC91E099DF68
S11320B01A87DF91CF911F9108954091CA01E62FAD
S11320C0F72F8093CA0184914093CA010895811126
S11320D022C090916C219923D9F09091CB2B91112E
S11320E001C0FFCF2FB7F894EAECFBE29181915045
S11320F091832FBF0DC09091CB2B9F3F09F4FFCF4D
S11321002FB7F894EAECFBE291819F5F91832FBF94
S113211080936C21089590916C21992361F3F8CFF9
S11321200F93E8ECF4E080818F7D808380818F7D44
S11321308083E0E5F1E202E00593109252211092CF
S1132140532100E2069300E40693E8E4F1E200E29E
S1132150069300E40693EAE9F3E2148615861686EC
S113216017861286138610923F210F9108950F93BC
S113217085E080933F21E1E5F1E204E00593E9E4A1
S1132180F1E204E005930F9108950F9383E08093A7
S11321903F211092522110925321E0E5F1E202E036
S11321A006930F910895E091A623F091A723309709
S11321B009F0099508950F93CF93DF9380913F2100
S11321C0833019F4F0DFACDF5EC080913B21909145
S11321D03C21C091A423D091A523C81BD90B71F530
S11321E020913D2130913E21820F931F80933D2108
S11321F090933E212091A0233091A123821793072D
S113220021F08091A820882341F084E080933F212D
S1132210E8E4F1E202E0069336C0E091A823F091ED
S1132220A923309799F00995882381F010923B21D6
S113223010923C21C091A423D091A523C034D10590
S113224028F01092A820C0E4D0E003C081E080937D
S1132250A820E0E4F1E2C28BD38B80913B219091E2
S11322603C212091A2233091A323280F391F248BD2
S1132270358BC80FD91FC0933B21D0933C21E0E597
S1132280F1E202E00693DF91CF910F910895FC01F2
S11322908181E82FE7708E2F90E0FC013197E730C1
S11322A0F105C0F4E15EFE4F67C680E190E0089559
S11322B080E290E0089580E490E0089580E890E062
S11322C0089580E091E0089580E092E008958FEF12
S11322D093E0089588E090E00895282F2F7030E06F
S11322E0220F331F082E000C990B8827990F881F83
S11322F09927820F931F02979C01220F331F220FED
S1132300331F220F331F820F931F87519F4D089550
S11323100F93CF938091CC0480FF62C081E08093BF
S1132320CC04E8E4F1E200E80693E0E5F1E200E839
S113233006938093CA04E8E4F1E200E106938091F5
S11323403F21882329F08350823008F42CDFE8DE13
S113235080914A2190914B21089709F043C088E06D
S1132360EBEFF0E2AAE9B3E201900D928A95E1F76E
S1132370E8ECF4E0808180628083808180628083E5
S1132380A1DAC82F811103C0F2DEC1E02CC0809114
S11323909A2388236CF410923D2110923E211092CE
S11323A03B2110923C2182E080933F2104DF1BC03B
S11323B08091A0239091A123892B11F4E6DE13C010
S11323C010923D2110923E2110923B2110923C210B
S11323D081E080933F21E8E4F1E202E0069303C048
S11323E0C0E001C0C1E08C2FCF910F9108958F926E
S11323F09F92AF92BF92DF92EF92FF920F931F933F
S1132400CF93DF93D82E69DF8C01BD2CBB1CBB247A
S1132410BB1CCD2DCF70D0E0CC0FDD1FCB0DD11D5B
S1132420CE01880F991F880F991F880F991F9C014F
S1132430285B3E4D7901C9012ADF4C01BB2009F418
S113244070C0FE01EE0FFF1FEE0FFF1FEE0FFF1F08
S1132450E05CFE4D26853785D80115968D919C91BB
S11324601697820F931F15968D939C931697139628
S11324702D913C9114978217930709F43CC0281BB3
S1132480390B2115B4E03B0738F02FEF33E0C901D5
S1132490B4014BD5281B390BF801808181FF09C099
S11324A0C901B40142D541E0892B09F040E0842FF1
S11324B001C080E0D8019C9180FB91F99C93CC0FE2
S11324C0DD1FCC0FDD1FCC0FDD1FC05CDE4D1E8673
S11324D01F862A873B8711962D913C91129715965A
S11324E08D919C911697820F931F8C879D87F7017E
S11324F002E00693CAC0D8018C9181FFB3C08D7FDE
S11325008C93CC0FDD1FCC0FDD1FCC0FDD1FC05C07
S1132510DE4D1E861F861A861B86F70102E006938F
S1132520B4C0FE01EE0FFF1FEE0FFF1FEE0FFF1FE3
S1132530E05CFE4DA284B384D8018C9182FF19C063
S11325401196ED91FC91129715962D913C91169749
S113255013968D919C911497B401E7D4B0E4DB9E5B
S1132560B001112467597F4DAC01CF01820F931F35
S113257009D5F801258136812A0D3B1D2583368333
S1132580838194818217930768F485839683CC0FA3
S1132590DD1FCC0FDD1FCC0FDD1FC05CDE4D8E8533
S11325A09F8560C0FE01EE0FFF1FEE0FFF1FEE0FB1
S11325B0FF1FE05CFE4D468557854A155B0509F013
S11325C051C02817390709F44DC0AC01421B530B05
S11325D09A01211554E0350750F02FEF33E0C9017B
S11325E0B401A3D4D901A81BB90BCD0107C0C901FB
S11325F0B4019BD4F901E81BF90BCF01FE01EE0FE6
S1132600FF1FEE0FFF1FEE0FFF1FE05CFE4D128653
S113261013868815990578F4D8018C9184608C937D
S1132620B0E4DB9EC001112487599F4D84879587B0
S11326308686978613C0F8014181528125813681AF
S1132640240F351FCC0FDD1FCC0FDD1FCC0FDD1F7A
S1132650C05CDE4D2C873D878E879F87F70102E0A3
S1132660069313C0D8018C9180FF0FC08E7F8C938A
S11326701796ED91FC911897309739F015966D9156
S11326807C9116974D2D80E00995DF91CF911F9194
S11326900F91FF90EF90DF90BF90AF909F908F903D
S11326A00895CF93CFB7F89481E011DDEAECF4E01C
S11326B080E4808380E28083E1ECF4E080818160C7
S11326C08083A9ECB4E08C9182608C93E8ECF4E014
S11326D08081806480838C9181608C938081806808
S11326E08083CFBFCF910895CF93DF93C0E6D0E02E
S11326F0188280E30E94AF0AE0ECF4E080818064F9
S1132700808381E08883CFB7F894E0E4F1E2118616
S1132710118A118E11A2E9EEF0E280818E7F80830E
S1132720E2EFF0E280818E7F80836AE170E082E0F4
S1132730C4DC8F3F19F08093FA0403C08FE18093C7
S1132740FA046BE170E082E0B8DC8F3F19F080930B
S1132750FB0403C08FE18093FB04E0ECF4E0808190
S113276081608083808180688083808180618083B0
S113277088E491E2868397838081806280838FEFEF
S11327808093C504E8ECF4E0808182608083109239
S11327906C218091CF2B8F3F09F4FFCF9FB7F89422
S11327A0EAECFBE285818F5F85839FBF7ADFCFBF31
S11327B0DF91CF9108958093C30408958091C30459
S11327C00895EAE9F3E28087918762877387089521
S11327D0282F2F7030E0220F331F082E000C990B86
S11327E08827990F881F9927820F931FFC01EE0FEA
S11327F0FF1FEE0FFF1FEE0FFF1FE05CFE4D218554
S1132800207C09F058C06370613011F018F404C0E2
S113281020EC03C020E801C020E440385105E9F071
S113282050F440325105A9F040345105A1F0403133
S11328305105D9F40CC0411532E0530791F04F3FD4
S113284033E0530781F04115514079F408C041E069
S11328500DC042E00BC043E009C044E007C045E0BE
S113286005C046E003C047E001C040E0FC01EE0FB4
S1132870FF1FEE0FFF1FEE0FFF1FE05CFE4D1186E2
S1132880DC01AA0FBB1FAA0FBB1FAA0FBB1FA85BAB
S1132890BE4D36E03C93242B2187880F991F880F67
S11328A0991F880F991FFC01E05CFE4D81858062B1
S11328B0818781E0089580E00895E82FEF70F0E0CB
S11328C0EE0FFF1F082E000C990B8827990F881F05
S11328D09927E80FF91FEE0FFF1FEE0FFF1FEE0FF2
S11328E0FF1FE05CFE4D818582FB882780F90895F7
S11328F0282F2F7030E0A901440F551F282F082ED0
S1132900000C330B2227330F221F3327240F351FCC
S1132910F901EE0FFF1FEE0FFF1FEE0FFF1FE05C2C
S1132920FE4D918592FF17C0220F331F220F331FD4
S1132930220F331FF901E05CFE4D91859B7F918747
S1132940CCDCFC01808180FF06C08E7F8083078001
S1132950F085E02D099581E008957F928F929F92F2
S1132960AF92BF92CF92DF92EF92FF920F931F9399
S1132970CF93DF93982E862E6A017901AEDC5C0139
S1132980792C771C7724771CC92DCF70D0E0CC0F1D
S1132990DD1FC70DD11DFE01EE0FFF1FEE0FFF1F40
S11329A0EE0FFF1FE05CFE4D8185807C09F47DC045
S11329B0FE01EE0FFF1FEE0FFF1FEE0FFF1FE05C87
S11329C0FE4D8185807C803C61F0FE01EE0FFF1F8F
S11329D0EE0FFF1FEE0FFF1FE05CFE4D818582FDB1
S11329E066C08FB7F894F501908190FF03C08FBF44
S11329F0712C5EC0F5019081916090838FBFC1827C
S1132A00D282E382F48215821682078310878110B2
S1132A1006C091E0E114F10419F090E001C091E0E6
S1132A20F501808190FB81F98B7F8083772059F0B9
S1132A30CC0FDD1FCC0FDD1FCC0FDD1FC05CDE4DC6
S1132A401E861F862DC0FE01EE0FFF1FEE0FFF1F17
S1132A50EE0FFF1FE05CFE4D8185807C803CA1F47D
S1132A60CE01880F991F880F991F880F991F885BC3
S1132A709E4D0DDCBC01C70158D2892B29F0F5010C
S1132A8080818E7F808314C0CC0FDD1FCC0FDD1FAF
S1132A90CC0FDD1FC05CDE4D1A861B861E861F868A
S1132AA0892DA5DC7724739403C0712C01C0712C8B
S1132AB0872DDF91CF911F910F91FF90EF90DF90C1
S1132AC0CF90BF90AF909F908F907F900895FF928A
S1132AD00F931F93CF93DF93182FF82EFF1CFF241F
S1132AE0FF1CC82FCF70D0E0CC0FDD1FCF0DD11D40
S1132AF0F4DBDC01FE01EE0FFF1FEE0FFF1FEE0FF4
S1132B00FF1FE85BFE4D02E005938C9180FF22C01D
S1132B108E7F8C931796ED91FC9118973097D1F096
S1132B20FF2059F0CC0FDD1FCC0FDD1FCC0FDD1FB4
S1132B30C05CDE4D6E857F850AC0CC0FDD1FCC0FD7
S1132B40DD1FCC0FDD1FC05CDE4D6A857B85412F08
S1132B5081E00995DF91CF911F910F91FF90089526
S1132B60CF93C82FB4DFEC2FEF70F0E0EE0FFF1F10
S1132B708C2FCC0F990B8827990F881F9927E80F62
S1132B80F91FEE0FFF1FEE0FFF1FEE0FFF1FE05C9C
S1132B90FE4D1186CF9108950F93E82FEF70F0E06A
S1132BA0EE0FFF1F282F082E000C330B2227330FA4
S1132BB0221F3327E20FF31FDF01AA0FBB1FAA0F47
S1132BC0BB1FAA0FBB1FA05CBE4D19969C91199701
S1132BD0946019969C93EE0FFF1FEE0FFF1FEE0FEC
S1132BE0FF1FE85BFE4D01E0069371DF81E00F916A
S1132BF008951F920F920FB60F9211240F932F93E3
S1132C003F934F935F936F937F938F939F93AF9370
S1132C10BF93EF93FF938091CB04882344F480E81F
S1132C208093CA040E94320C0E94350482C08091B1
S1132C30CB0482FF20C084E08093CA048091502199
S1132C4086FF77C08091CC0481FD73C061DB811164
S1132C5070C080913F21813011F497DA6AC08430CA
S1132C6009F067C0E1E5F1E204E00593E9E4F1E28B
S1132C7004E005935EC08091CB0481FF55C082E0DF
S1132C808093CA048091482186FF53C08091CC046C
S1132C9081FD4FC03DDB81114CC080913F218230CA
S1132CA041F484E080933F21E8E4F1E202E00693FA
S1132CB040C0833009F03DC0E1E5F1E204E0059352
S1132CC0E9E4F1E204E0059334C080E18093CA04AE
S1132CD00E940D0C1092C304E0E4F1E2118696E028
S1132CE0908783E48187118A908B818B8BEF90E2AC
S1132CF08487958715DA1DC08091CB0486FF08C0B0
S1132D0080E48093CA0480E0E2D90E94330411C0B5
S1132D108091CB0485FF0DC080E28093CA0481E0DA
S1132D20D6D90E94340405C08091CB0484FFE4CF3B
S1132D30CCCFFF91EF91BF91AF919F918F917F91F4
S1132D406F915F914F913F912F910F910F900FBE13
S1132D500F901F9018951F920F920FB60F92112487
S1132D600F931F932F933F934F935F936F937F938F
S1132D708F939F93AF93BF93CF93DF93EF93FF937F
S1132D808091CC0481FD03C0C3DA8111B9C082E013
S1132D908093CC048091C5048195880FE8E4F1E226
S1132DA0E81BF10920813181285431423695279559
S1132DB03695279536952795822F869520FD02C056
S1132DC090E001C090E8890FE82FEF70F0E0EE0F7B
S1132DD0FF1F282F082E000C330B2227330F221F2E
S1132DE03327E20FF31FDF01AA0FBB1FAA0FBB1F7C
S1132DF0AA0FBB1FA85BBE4D9C9195FF81C0FD012E
S1132E0000E20693811177C080913F21843019F448
S1132E10CAD986D975C000914A2110914B2180915D
S1132E20A4239091A523C0913B21D0913C219E01E4
S1132E30200F311F8217930718F48C010C1B1D0BF4
S1132E408091A2239091A323A8016BEF70E28C0FD1
S1132E509D1F98D0C00FD11FC0933B21D0933C211C
S1132E600034110569F480913D2190913E218C0F2D
S1132E709D1F2091A0233091A1238217930780F0F6
S1132E80EAE9F3E2C287D3870684F785E02D309719
S1132E9029F00995811102C06AD932C076D930C0AF
S1132EA08091A4239091A523C817D907F9F4E09140
S1132EB0A823F091A923309711F459D921C0099579
S1132EC0811102C054D91CC020913D2130913E2172
S1132ED080913B2190913C21820F931F80933D214F
S1132EE090933E2110923B2110923C21E8E4F1E2C0
S1132EF002E0069305C0803811F45DD901C077DA89
S1132F00FF91EF91DF91CF91BF91AF919F918F91FD
S1132F107F916F915F914F913F912F911F910F91ED
S1132F200F900FBE0F901F901895AA1BBB1B51E169
S1132F3007C0AA1FBB1FA617B70710F0A61BB70B25
S1132F40881F991F5A95A9F780959095BC01CD01CA
S1132F50089597FB072E16F4009406D077FD08D049
S1132F60E4DF07FC05D03EF4909581959F4F0895CA
S1132F70709561957F4F0895EE0FFF1F0590F491B2
S1132F80E02D0994FB01DC0102C001900D92415037
S10D2F905040D8F70895F894FFCFDD
S1132F9A40000CE02E0AFFFFFFFF5580008000E985
S1132FAA0AF40AFA0AE60A000044201F200000284C
S1132FBA2023200F200000000902190001010080CB
S1132FCAFA0904000001FFFFFF0007058101FF035E
S1132FDA010000001201000200000040EB0394BA51
S1132FEA00020102000100000003000000000000CA
S1132FFA000000000000000000004C61627261647D
S113300A6F72004573706F54656B00000403090402
S10F301A64656275673132330000020007
S9030000FC
