S01500005553425F42554C4B5F544553542E73726563F9
S11300001EC1000038C1000036C1000034C1000028
S113001032C1000030C100000C945D090C946C09DD
S11300202AC1000028C1000026C1000024C100002C
S113003022C1000020C100001EC100001CC100003C
S11300401AC1000018C1000016C1000014C100004C
S113005012C1000010C100000EC100000CC100005C
S11300600C945F0A0C946A0A06C1000004C10000E3
S113007002C1000000C10000FEC00000FCC000007E
S1130080FAC00000F8C00000F6C00000F4C0000090
S1130090F2C00000F0C00000EEC00000ECC00000A0
S11300A0EAC00000E8C00000E6C00000E4C00000B0
S11300B0E2C00000E0C00000DEC00000DCC00000C0
S11300C0DAC00000D8C00000D6C00000D4C00000D0
S11300D0D2C00000D0C00000CEC00000CCC00000E0
S11300E0CAC00000C8C00000C6C00000C4C00000F0
S11300F0C2C00000C0C00000BEC00000BCC0000000
S1130100BAC00000B8C00000B6C00000B4C000000F
S1130110B2C00000B0C00000AEC00000ECC40000DB
S1130120AAC00000A8C00000A6C00000A4C000002F
S1130130A2C00000A0C000009EC000009CC000003F
S11301409AC0000098C0000096C000000C94BD093D
S113015092C0000090C000008EC000008CC000005F
S11301608AC0000088C0000086C0000084C000006F
S113017082C0000080C000007EC000007CC000007F
S11301807AC0000078C0000076C0000074C000008F
S113019072C0000070C000006EC000006CC000009F
S11301A06AC0000068C0000066C0000064C00000AF
S11301B062C0000060C000005EC000005CC00000BF
S11301C05AC0000058C0000056C0000054C00000CF
S11301D052C0000050C000004EC000004CC00000DF
S11301E04AC0000048C0000046C0000044C00000EF
S11301F042C000000C94FB150C94B8164404460449
S113020048044A044C044E0450045204690C8E0CF5
S1130210B10CD40CDD0CE20C310D360D550D5D0D19
S1130220EE0CF70C000D0C0D0F0D120D1C0D260D10
S11302302F113211351138113B113E114111112486
S11302401FBECFEFCDBFDFE2DEBF10E2A0E0B0E221
S1130250E4ECFFE202C005900D92AC3AB107D9F785
S11302602DE2ACEAB0E201C01D92A03FB207E1F773
S1130270BFD20C94E017C4CECF93DF93C0E5D0E097
S113028084E08E838CE1F1D3E0E6F0E083838BEBB2
S1130290868380E8858381E0808388ED84BF109223
S11302A0410083E08883E0E5F0E081818330E9F771
S11302B0E0E5F0E080818160808388E1858381814D
S11302C080FFFDCFE0E5F0E0808180618083818163
S11302D084FFFDCF88ED84BF84E080934000DF91EC
S11302E0CF910895E0E7F0E085818E7F8583E0E09B
S11302F0FAE08FEB9DE586A397A380EE9EE280A3B0
S113030091A382E0808308958091200A9091210A2C
S1130310813E2EE2920720F02091922320936A00DE
S1130320803E2EE2920720F420918F2320936A00CE
S113033020910520222331F0809105208150809363
S1130340052035C0885F9A42813D974080F1109224
S1130350AC208091AD209091AE20A091AF20B091BF
S1130360B0200196A11DB11D8093AD209093AE20C5
S1130370A093AF20B093B0208091AD209091AE2097
S1130380A091AF20B091B020892F9A2FAB2FBB271B
S1130390EEE9F3E2848B8091AD209091AE20A091A0
S11303A0AF20B091B020838B86E0809305208091AC
S11303B00720909108200196B1F4809109208F3F85
S11303C091F080910620811106C080910620815011
S11303D080930620089580911401909115018093D3
S11303E00720909308200895009709F466C00CF044
S11303F09C01992334F422273327281B390B51E01D
S113040001C050E0E8E6F0E0838190E0809390231F
S11304109093912380919023909191239695982F76
S11304208827979587958093902390939123428171
S11304308091902390919123840F911D8093902318
S1130440909391230000809190239091912382179F
S1130450930728F410929023109291230895809189
S1130460902390919123820F931F8115904238F02D
S11304708FEF9FE1809390239093912308955523C8
S113048059F08091902390919123821B930B809338
S11304909023909391230AC080919023909191236B
S11304A0280F391F20939023309391238091902318
S11304B0909191238F7780936A000895CF93DF936F
S11304C0C091200AD091210A8091032090910420A8
S11304D09E01281B390B20939323309394238091FE
S11304E0AC2081114DC080919323909194238E3C34
S11304F09F4FE4F480919323909194238B369F4FE4
S1130500ACF080910220882331F080910220815048
S11305108093022035C080916A008093922381E009
S11305208093AC208CE0809302202AC08CE08093DE
S1130530022080919323909194238A369F4F1CF03C
S11305408FEF9FEF02C081E090E080938D23909322
S11305508E23809193239091942320918D23309125
S11305608E2360E370E00E94BE17261B370B209396
S11305708D2330938E2380918D2390918E2334DFAD
S11305808091AC20813029F580919323909194231C
S1130590C39794F080910220882331F08091022047
S11305A081508093022015C080916A0080938F232C
S11305B083E08093AC200DC0809193239091942389
S11305C0873991051CF481E090E002C08FEF9FEF22
S11305D00BDFC0930320D0930420DF91CF910895C3
S11305E08617970779F06817790728F49C01261B6A
S11305F0370BB90109C08617970718F4681B790BE4
S113060003C0089560E070E0862F972F08950F933C
S11306101F93CF93DF938091002090910120892B29
S113062051F0809100209091012001978093002047
S1130630909301204DC080E490E08093002090933B
S113064001208091072090910820019609F440C070
S1130650809114019091150120910920263018F4FD
S113066067E771E002C06EEE72E00E94AA17082FDD
S1130670192FC82FD12F80910720909108208C1713
S11306809D0780F46091072070910820802F912F9E
S1130690A7DF029738F080EC9DE58093360A9093AB
S11306A0370A16C08091072090910820C817D907EF
S11306B078F46091072070910820802F912F90DFAB
S11306C0029730F08FEB9DE58093360A9093370ABA
S11306D0DF91CF911F910F910895AC01460F571FE1
S11306E0861B970BE0E0FAE020A131A1241735071F
S11306F0D8F720A131A182179307B0F70895E0E855
S1130700F6E08FE0808385E0848308951F93CF9380
S1130710DF93C0E4D0E0198180E4898340E250E0B3
S113072068EC7DE280E290E00E94D10F1983DF91B2
S1130730CF911F9108951F93CF93DF93C0E4D0E02E
S1130740198180E489838BEC97E20E94FB0F81E09E
S11307500E941A101983DF91CF911F910895089573
S11307600F931F93842F242F30E0215831099DE7E4
S1130770929FB001939F700D1124909109209530A0
S1130780D0F4443810F069587E4F9091B62047E772
S113079051E0949F9001959F300D1124620F731FB7
S11307A0AB014451584D00EB13E02DE730E060E01D
S11307B00E94B51415C09091B6202EEE32E0929F9F
S11307C0A001939F500D1124640F751FAB01445178
S11307D0584D00EB13E02DE730E060E00E94B514C3
S11307E01F910F9108951CBEEEEFF0E40995089552
S11307F08DDF8091C82D882369F080E2E8ECFDE26A
S1130800ABECB7E201900D928A95E1F71092CB27F9
S113081092DFE9DF87E08093A20078942DDD9FDFEB
S1130820D6D77CD19FD160E080E028D114D18CE070
S113083008D161D51CD635D662DF89E0E0EAF0E262
S1130840AEE9B3E201900D928A95E1F70000000051
S11308500000000000000000000000000000000094
S113086000000000000000008091B120882371F393
S1130870E091CA258E2F90E088309105A0F4FC0108
S1130880E250FF4F0C94D11799D10DC009D20BC07F
S113089090D209C014D307C0A0D305C026D403C086
S11308A025D401C096D41092B120D0CF08950895D4
S11308B0CF93DF93A0E0B1E054968C915497EEE986
S11308C0F3E2818755968C915597828794968C9103
S11308D09497838795968C9195978487C0E0DAE006
S11308E088A1858B89A1868B54968D919C9155976F
S11308F08634914080F08091140190911501893AD9
S1130900914048F480911401909115018093E82D51
S11309109093E92D00008091B420882339F0E2DC23
S11309201092B42081E08093B32035C08091B3202D
S1130930882341F08091AC20833019F4E5DC67DE34
S113094001C0BCDD8091B220882351F08091140154
S1130950909115018093E82D9093E92D1092B22087
S113096080910920853060F42091140130911501A3
S113097081E02737314008F080E08093B6200BC037
S1130980209114013091150181E02E3E324008F08F
S113099080E08093B620DF91CF9108950F931F9349
S11309A081E08093B9208093B42000EB13E02DE71D
S11309B030E04CEE57E260E081E80E94B5142DE788
S11309C030E049E658E260E082E80E94B5142DE781
S11309D030E046EE58E260E083E80E94B5142DE76B
S11309E030E043E659E260E084E80E94B5142DE764
S11309F030E040EE59E260E085E80E94B5142DE74E
S1130A0030E04DE55AE260E086E80E94B51481E0EA
S1130A101F910F9108951092B920089581E00895CF
S1130A2081E00895E0E0F2E010A2982F9C719368B1
S1130A3090A3881F8827881F880F81A312A216A25B
S1130A400895E0E0F2E010AA836880AB80E181AB16
S1130A5012AA16AA0895E0E0F2E010A683E880A79F
S1130A608FE281A712A616A60895AAECB1E092E03F
S1130A709C93E82FF0E084911C920895CF93DF9328
S1130A80E0E7F0E091819D7F918310920002623053
S1130A9031F1E0E0F2E09CE1918390E492838111F2
S1130AA002C080E401C080EC80930302613011F045
S1130AB084E001C083E0C0E0D2E08C8380E2D5DF33
S1130AC08C8781E2D2DF8D87188E198E81E088832E
S1130AD0C2DF0EC080EC8093030284E0ECCFE0E040
S1130AE0F2E09EE1918390E492838111F3CFD9CF18
S1130AF0DF91CF9108951F920F920FB60F92112498
S1130B008F93000000000000000081E08093230226
S1130B108F910F900FBE0F901F901895CF93DF9376
S1130B20E0E7F0E082818B7F8283C0E2D3E08DE056
S1130B30888380E4898389E08A8383E396DF8887D6
S1130B4082E393DF898787E390DF8A8786E38DDFFB
S1130B508B87E0E2F6E08081836080831482DF91FA
S1130B60CF910895E0E7F0E080818E7F808383E871
S1130B70809300010895E0E0F1E0108A80E4808B26
S1130B8010A280A310AA80ABE0E4F1E0108280837D
S1130B901092B8201092B72081E08093B620109272
S1130BA09C2310929D2310929A2310929B230895C4
S1130BB08093CA2581E08093B1200895CF93DF9379
S1130BC010920920D8DFC0E0D1E01EAA84E288ABED
S1130BD019AA49E54AAB32E03BAB60910B20709116
S1130BE00C206CAB7DAB6BEC75E268AF79AF1AAEE1
S1130BF09BE39CAF93E090933D0110923E0128A9A2
S1130C00206828AB10924601E0E4F1E08083109262
S1130C104101409342019093430140910D20509132
S1130C200E2040934401509345014AEB53E2409314
S1130C3048015093490110924A0129E320934C0141
S1130C4090934D0110924E01908190689083188A80
S1130C5090E4988B888B198A95E99A8B90E19B8B09
S1130C604EEE52E04C8B5D8B888F398F1A8E8CEE52
S1130C7097E28C8F9D8F1E8E68EC70E084EF91E07C
S1130C802CDD88EC90E0809307209093082081E08D
S1130C908093062088898068888BDF91CF9108959E
S1130CA01F93CF93DF9311E01093092064DFC0E01A
S1130CB0D1E018AA80E488AB84E088AB19AA1AAA08
S1130CC04BE44BAB1CAA1DAA1EAA8AE090E288AF93
S1130CD099AF1AAE60EA6CAF38E030933D011092E0
S1130CE03E0188A9806A88ABE0EAF8E085E5808364
S1130CF0808310924601E0E4F1E084E28083109264
S1130D00410199E59093420122E020934301A0918F
S1130D100B20B0910C20A0934401B0934501ABEC9F
S1130D20B5E2A0934801B093490110924A019BE3B4
S1130D3090934C0193E090934D0110924E01908159
S1130D409068908388A319A295E99AA34BA34EEEC9
S1130D5052E04CA35DA368A739A71AA66AED7AE20C
S1130D606CA77DA71EA6888B198A9A8B90E19B8B12
S1130D704C8B5D8B888F298F1A8E8CEE97E28C8F2B
S1130D809D8F1E8E68EC70E084EF91E0A6DC88EC09
S1130D9090E080930720909308201093062088A168
S1130DA0806888A388898068888BDF91CF911F91A0
S1130DB008951F93CF93DF9312E010930920DBDE95
S1130DC0C0E0D1E01EAA84E288AB19AA39E53AABA7
S1130DD01BAB40910B2050910C204CAB5DAB4BEC0A
S1130DE055E248AF59AF1AAE9BE39CAF93E09093A2
S1130DF03D0110923E0128A9206828AB10924601BB
S1130E00E0E4F1E080831092410130934201909339
S1130E10430120910D2030910E2020934401309302
S1130E2045012AEB33E220934801309349011092A3
S1130E304A0129E320934C0190934D0110924E01F5
S1130E40908190689083188A90E4988B888B198A93
S1130E5045E94A8B90E19B8B2EEE32E02C8B3D8B47
S1130E60888F198F1A8E6CEE77E26C8F7D8F1E8EB1
S1130E7088A319A24AA39BA32CA33DA384E388A718
S1130E8019A71AA68AED9AE28CA79DA71EA668EC5C
S1130E9070E084EF91E021DC88EC90E080930720FF
S1130EA09093082081E08093062088898068888B4D
S1130EB088A1806888A3DF91CF911F9108951F9323
S1130EC0CF93DF9313E01093092055DEC0E0D1E007
S1130ED010924601E0E4F1E084E280831092410143
S1130EE029E52093420192E09093430140910B2025
S1130EF050910C2040934401509345014BEC55E232
S1130F00409348015093490110924A019BE3909306
S1130F104C0110934D0110924E0190819068908382
S1130F201EAA88AB19AA2AAB1BAB20910D203091C5
S1130F300E202CAB3DAB2AEB33E228AF39AF1AAE0F
S1130F4099E39CAF10933D0110923E0198A99068DB
S1130F5098AB18A250E458A394E098A319A21AA23B
S1130F604BE44BA31CA21DA21EA22AE030E228A738
S1130F7039A71AA630EA3CA728E02DA71EA698A1F7
S1130F80906A98A395E59093A008188A588B888B4B
S1130F90198A85E98A8B4B8B8EEE92E08C8B9D8B24
S1130FA0388F298F1A8E8CEE97E28C8F9D8F1E8E30
S1130FB068EC70E084EF91E090DB88EC90E0809343
S1130FC007209093082081E0809306208889806818
S1130FD0888BDF91CF911F9108951F93CF93DF9357
S1130FE014E010930920C7DDC0E0D1E018AA80E422
S1130FF088AB18AB19AA1AAA3BE43BAB1CAA1DAADE
S11310001EAA8AE090E288AF99AF1AAE50EA5CAFAC
S113101088E080933D0110923E0198A9906A98ABB4
S113102095E59093A00810924601E0E4F1E094E283
S113103090831092410129E52093420122E02093FC
S1131040430160910B2070910C20609344017093D4
S113105045016BEC75E2609348017093490110926D
S11310604A012BE320934C0123E020934D0110927D
S11310704E01208120682083988B198A45E94A8B88
S11310803B8B2EEE32E02C8B3D8B588F898F1A8E42
S11310906CEE77E26C8F7D8F1E8E98A319A24AA303
S11310A09AE49BA32CA33DA393EC98A789A71AA623
S11310B08AED9AE28CA79DA71EA668EC70E084EFE7
S11310C091E00BDB88EC90E080930720909308205C
S11310D081E08093062088898068888B88A1806855
S11310E088A3DF91CF911F910895FFCFCF93DF9312
S11310F086E0809309203FDDC0E0D1E01EAA84E2AF
S113110088AB19AA39E53AAB93E09BAB40910D202B
S113111050910E204CAB5DAB4AEB53E248AF59AF54
S11311201AAE29E32CAF90933D0110923E0128A9F9
S1131130206828AB10924601E0E4F1E0808310922D
S113114041013093420132E03093430140910B203E
S113115050910C2040934401509345014BEC55E2CF
S1131160409348015093490110924A012BE3209384
S11311704C0190934D0110924E01208120682083F0
S1131180188A20E4288B888B998B95E99A8B90E1B7
S11311909B8B4CED55E04C8B5D8B888F398F1A8E71
S11311A08CEE97E28C8F9D8F1E8E68EC70E084EF3E
S11311B091E093DA80E991E08093072090930820EE
S11311C081E08093062088898068888BDF91CF91A5
S11311D00895CF93DF9387E080930920CCDCC0E0AF
S11311E0D1E01EAA94E298AB19AA39E53AAB83E0A0
S11311F08BAB40910D2050910E204CAB5DAB4AEB74
S113120053E248AF59AF1AAE29E32CAF80933D01A6
S113121010923E0128A9206828AB10924601E0E410
S1131220F1E09083109241013093420132E0309317
S1131230430140910B2050910C2040934401509362
S113124045014BEC55E240934801509349011092FB
S11312504A012BE320934C0180934D0110924E01DF
S1131260208120682083188A20E4288B25E2288B9B
S1131270898B85E98A8B80E18B8B4CED55E04C8B17
S11312805D8B988F398F1A8E8CEE97E28C8F9D8FA1
S11312901E8E68EC70E084EF91E01FDA80E991E043
S11312A0809307209093082081E08093062088890A
S11312B08068888BDF91CF9108951F920F920FB6AB
S11312C00F9211248F9381E0809303018F910F90EB
S11312D00FBE0F901F9018951F920F920FB60F928A
S11312E011248F9382E0809303018F910F900FBE9E
S11312F00F901F901895E0E7F0E083818C7F838343
S113130084818C7F848380818D7F8083E0E8F1E019
S113131080EC8283128688EC81831186A0E0B8E099
S113132034E03C9323E011962C93119714961C926D
S1131330149785ED91E096968D939C9397971696C6
S11313401C921697E0E4F8E030832183148286A38C
S113135097A31682E0E6F6E0808180618083E0E472
S1131360F9E083E18183148282E08683A6A3B7A394
S113137010A611A681E0808308951F920F920FB6E4
S11313800F9211242F933F934F935F938F939F93C7
S1131390EF93FF93CF93DF931F92CDB7DEB78FEF19
S11313A080934C0980910920873031F4E0E0F2E029
S11313B084A5898395A502C090912C028091B520C3
S11313C0891B209168093091690991E082300CF4FD
S11313D090E09923C9F091E02A3F374008F090E06B
S11313E0992391F0209168093091690989301CF49E
S11313F081E090E002C086E090E0820F931F80932A
S113140078099093790923C020916809309169097A
S113141091E08F3F0CF090E09923C9F091E02730E0
S1131420310508F490E0992391F0209168093091F6
S11314306909883F1CF081E090E002C086E090E0FA
S1131440A901481B590B40937809509379090F90CF
S1131450DF91CF91FF91EF919F918F915F914F9188
S11314603F912F910F900FBE0F901F901895E0E7BA
S1131470F0E083818F7E8383E0E4F6E080818A6AF2
S113148080838FEF848388E5828BE0EAF8E080E351
S1131490838384EC858387E08683178288E1848351
S11314A00895E0E7F0E08381877F8383E0ECF8E050
S11314B080E48083118288E58093550608951F9205
S11314C00F920FB60F92112400000F900FBE0F90D1
S11314D01F9018951F920F920FB60F9211248F939D
S11314E0EF93FF93E0EAF8E080818083FF91EF912E
S11314F08F910F900FBE0F901F9018959FB7F8947F
S1131500E82FF0E0E059FF4F609580816823608305
S11315109FBF0895863011F060E001C068E18091BA
S1131520510081FD26C09FB7F894E0E5F0E080818A
S1131530826080839FBF818181FFFDCF9FB7F89434
S1131540A0E5B0E016968C911697897F16968C9339
S11315501697E0E6F0E080E885838BEB86831696A9
S11315608C911697846016968C9380818160808319
S11315709FBF636084E490E00ED560E480E0BECF5A
S113158008958091BA2008951DD1FC018381809330
S1131590BA20811102C002CA089581E008958091A1
S11315A0BA20813009F437CA08958091BA25882376
S11315B04CF480768034A9F48091BB25811113C04A
S11315C02FCA08958076803481F48091BB258111DF
S11315D00EC08091C0259091C125892B51F01ECA5F
S11315E0089580E0089580E0089580E0089580E003
S11315F0089580E00895E091BF20F091C02001900B
S1131600F081E02D228133812E0F3F1FFC014081A8
S1131610E40FF11DE217F307B8F481818430B9F0C7
S1131620861309C005C081818430A1F0861303C0EC
S11316308E2F9F2F08958081E80FF11DE217F30785
S113164090F380E090E0089580E090E0089580E0D9
S113165090E0089580E090E008958091BC258F7714
S11316600C94EC1308959091C220992381F1E09198
S1131670BF20F091C0200190F081E02D9481891762
S113168040F5E093BD20F093BE20228133812E0FDC
S11316903F1FE217F307F8F49181943061F49281CB
S11316A0981309C09381961306C0E093BD20F0936C
S11316B0BE2081E008959081E90FF11DE217F30740
S11316C058F3E093BD20F093BE2080E0089580E0BD
S11316D0089580E0089580E00895EF92FF921F93AB
S11316E0CF93DF93C82F60E0BEDF182F882381F1EA
S11316F0A091BF20B091C020EC2FF0E0EE0FFF1FAF
S113170012968D919C911397E80FF91FE080F18058
S1131710D7011696ED91FC9117970995682F8C2F98
S1131720A2DF182F8823A1F0C091BD20D091BE2044
S113173065E0CE0160DFEC01892B21F08A810E94F3
S1131740B815F6CFD7011296ED91FC911397099530
S1131750812FDF91CF911F91FF90EF9008951F93F8
S1131760CF93DF93182F7FDF882341F1C091BD20F1
S1131770D091BE2065E0CE013EDFEC01892B49F01B
S11317804C815D816B818A810E94F9138111F2CFB2
S113179015C0A091BF20B091C020E12FF0E0EE0F62
S11317A0FF1F12968D919C911397E80FF91F0190DA
S11317B0F081E02D0190F081E02D0995DF91CF912A
S11317C01F9108958091BD209091BE20089589C7EE
S11317D00895CF938091C2208823C1F0E091BF2067
S11317E0F091C0200190F081E02D8481882371F074
S11317F0C0E08C2F72DFCF5FE091BF20F091C0205A
S11318000190F081E02D8481C81798F31092C220D2
S11318101092C6201092C720CF910895CF93809143
S1131820C220882349F1A091BF20B091C020ED913E
S1131830FC91119784818823F9F0C0E0EC2FF0E04B
S1131840EE0FFF1F12968D919C911397E80FF91FCD
S11318500190F081E02D0084F185E02D309709F0AE
S11318600995CF5FA091BF20B091C020ED91FC916C
S113187011978481C81710F3CF9108950F931F9384
S1131880CF93DF93EAEBF5E212861386148615866E
S1131890168617868081282F88233CF44091C02522
S11318A05091C125452B09F46AC3982F9076903442
S11318B009F00BC1E091BB254E2F50E0FA01E05A2C
S11318C0F109EA30F10508F000C1EA5FFE4F0C941B
S11318D0D11781E08093B220809107209091082055
S11318E0EEE9F3E28587809107209091082096879E
S11318F080919223878780918F23808BA8E6B0E024
S113190012968C911297818B13968C91828B609195
S1131910C0257091C125CF0165D735C3E0E0F8E05B
S11319201082CAEBD5E28A819B8186AB97AB8C810E
S11319308F7080836E817F818AEB93E253D78E818F
S11319409F8120910D2030910E208217930709F476
S11319501AC380930D2090930E208091092028D9DA
S113196012C3E0E4F8E01082CAEBD5E28A819B81DD
S113197086AB97AB8C818F7080836E817F818BEC7B
S113198095E230D78E819F8120910B2030910C20DD
S11319908217930709F4F7C280930B2090930C20CD
S11319A08091092005D9EFC2109268091092690943
S11319B08091BC258093B520E6C28091BC2580939C
S11319C02406E1C2E091BC25F091BD25E830F10583
S11319D008F07BC0E05FFE4F0C94D11760E080E01C
S11319E04DD88091BE251ED880E0E2D8CCC260E0FC
S11319F080E044D88091BE2515D881E0D9D8C3C2EF
S1131A0061E081E03BD8CAEBD5E28C810BD88D81B3
S1131A1018D882E0CDD8B7C283E0CAD8B4C284E073
S1131A20C7D8B1C260E080E029D88091BE250E9469
S1131A30120585E0BDD8A7C261E080E01FD880917F
S1131A40BE250E94120586E0B3D89DC262E080E004
S1131A5015D88091BE2580680E94120587E0A8D819
S1131A6092C28091BC25809384068DC28091BC254E
S1131A709091BD25892B91F00E94860380E2E8ECC9
S1131A80FDE2ABECB7E201900D928A95E1F781E0BB
S1131A908093CB270E949B030E948603E9E7F0E032
S1131AA091E088EDF89484BF90836091C025709193
S1131AB0C1258AEA90E296D666C26091C0257091EB
S1131AC0C12589EA90E28ED65EC29111E1C122233A
S1131AD00CF005C12091C0253091C1252115310597
S1131AE009F4D6C18F7109F0A3C09091BB2596303B
S1131AF079F0983009F492C091119AC022303105DE
S1131B0009F0C6C162E070E086EC90E26BD63DC29B
S1131B108091BC259091BD25292F33272230310592
S1131B20A9F024F42130310541F0A9C12330310555
S1131B30D9F12F30310551F1A2C180911920909132
S1131B401A20DC016C9170E04DD659C0E091192047
S1131B50F0911A202189821708F09AC19927880FD9
S1131B60991F880F991FE0911B20F0911C20E80F0A
S1131B70F91F80819181FC016281738133D6E091E8
S1131B80C225F091C32582E0818339C080911D2054
S1131B9090911E20009709F47BC1DC0112966D918F
S1131BA07C9113971FD62BC099278130910571F032
S1131BB038F0029709F06CC12AE830E288E009C0E5
S1131BC064E070E08CE990E20DD619C023E930E2BC
S1131BD087E0422FAAE7B0E2E22FF32F219130E011
S1131BE02D933D939E2F941B9817C0F3682F660F77
S1131BF06E5F6093782070E088E790E2F3D5EAEBBB
S1131C00F5E286819781228533858217930708F050
S1131C10BCC18093C4259093C525B7C1213031053B
S1131C2009F036C161E070E082EC90E2DBD5ADC131
S1131C308130E1F59091BB259A30C1F52130310511
S1131C4009F026C18091C220882309F421C1C091E2
S1131C50BE25D091BF250091BF201091C020D8018E
S1131C60ED91FC918481C81708F012C160E08C2FBB
S1131C70FADC882309F40CC1CE019927880F991F37
S1131C80D8011296ED91FC911397E80FF91F01907A
S1131C90F081E02D86819781FC0109958093C42011
S1131CA061E070E084EC90E29DD56FC1823009F070
S1131CB0EFC08091BB258111E4C02230310509F0C9
S1131CC0E7C08091BE2501D690E08093BB2090931D
S1131CD0BC2062E070E08BEB90E284D556C18F713A
S1131CE009F083C09091BB25933009F4CCC018F45B
S1131CF09130A1F07AC0953019F0993039F175C05E
S1131D008091C0259091C125892B09F0C1C08DE235
S1131D109BE08093C6259093C72537C18091C02549
S1131D209091C125892B09F0B3C08091BC25909175
S1131D30BD25019709F0ACC08091C6209091C720C1
S1131D408D7F8093C6209093C7201FC18091C025AA
S1131D509091C125892B09F09BC041D5882309F4B2
S1131D6097C02091BC253091BD253327E0911920DF
S1131D70F0911A20818990E08217930708F488C0B3
S1131D8028DD8091BC259091BD258093C2208823B5
S1131D9009F4FBC099278150904C880F991F880F34
S1131DA0991FE0911B20F0911C20E80FF91FE0938C
S1131DB0BF20F093C0200190F081E02D848188231E
S1131DC009F4E3C0C0E060E08C2FC9DC882309F487
S1131DD05FC0CF5FE091BF20F091C0200190F081FF
S1131DE0E02D8481C81778F3D0C08130E1F490915C
S1131DF0BB259B30C1F48091C0259091C125892BCE
S1131E0009F046C08091C220882309F441C0EAEB5E
S1131E10F5E2C481D2818C2F60DC8823C9F16D2F57
S1131E208C2F9DDC33C0823099F58091BB258130A5
S1131E3019F0833089F029C08091C0259091C12583
S1131E40892B31F58091BC259091BD25892B01F515
S1131E508091BE2555D51AC08091C0259091C12589
S1131E60892BB1F48091BC259091BD25892B81F4F7
S1131E70CAEBD5E28C8133D68C8196D607C080E03C
S1131E8005C080E003C080E001C080E081117EC015
S1131E908091BA258F71813071F58091C220882399
S1131EA051F10091BE251091BF25C091BF20D09162
S1131EB0C020E881F98184810817E8F460E0802F6C
S1131EC0D2DB8823C1F0F801FF27CF01880F991FC7
S1131ED0EA81FB81E80FF91FC081D181EE81FF8186
S1131EE00995682F802FBFDB882329F0EC81FD81C1
S1131EF0099581114BC08091BA258F71823009F008
S1131F0040C08091C2208823B1F1A091BF20B0913C
S1131F10C020ED91FC9111978481882371F1C0E078
S1131F20EC2FF0E0EE0FFF1F12968D919C9113970A
S1131F30E80FF91F00811181D8011696ED91FC91EB
S1131F4017970995682F8C2F8EDB8823F9F0D80119
S1131F501496ED91FC9115970995811117C0CF5FE7
S1131F60A091BF20B091C020ED91FC911197948174
S1131F70C917B0F20BC080E009C080E007C080E060
S1131F8005C080E003C081E001C081E0DF91CF9112
S1131F901F910F9108951BBEFC0128ED24BF60839F
S1131FA00895CF93DF939C01DB01E0ECF1E097858A
S1131FB09923ECF3CCECD1E0988198609883B90133
S1131FC0705FCD01F4D78881877F8883DF91CF91BB
S1131FD00895E0ECF1E097859923ECF3ACECB1E0E3
S1131FE09C9198609C93E82FF0E0F05F60838C9163
S1131FF0877F8C930895EF92FF920F931F93CF9353
S1132000DF938C01E0ECF1E087858823ECF3780121
S113201080E2E80EF11CE8018C2F801B6991D9DF66
S1132020CE15DF05C9F7DF91CF911F910F91FF9076
S1132030EF9008951F93CF93DF93E0ECF1E0978541
S11320409923ECF320E2829FC0011124C0ECD1E07B
S11320501A82998388831A8585E38A8761E08BECE9
S113206091E099DF1A87DF91CF911F9108954091F4
S1132070CA01E62FF72F8093CA0184914093CA01C5
S11320800895811122C090918C239923D9F09091C5
S1132090EB2D911101C0FFCF2FB7F894EAEEFDE2CA
S11320A09181915091832FBF0DC09091EB2D9F3F53
S11320B009F4FFCF2FB7F894EAEEFDE291819F5F18
S11320C091832FBF80938C23089590918C2399231F
S11320D061F3F8CF0F93E8ECF4E080818F7D808387
S11320E080818F7D8083E0E2F3E202E00593109229
S11320F022231092232300E2069300E40693E8E1EE
S1132100F3E200E2069300E40693EAEBF5E21486B8
S1132110158616861786128613861092F9220F9159
S113212008950F9385E08093F922E1E2F3E204E05D
S11321300593E9E1F3E204E005930F9108950F9309
S113214083E08093F9221092222310922323E0E269
S1132150F3E202E006930F910895E091C625F09111
S1132160C725309709F0099508950F93CF93DF930E
S11321708091F922833019F4F0DFACDF5EC08091E6
S1132180F5229091F622C091C425D091C525C81B93
S1132190D90B71F52091F7223091F822820F931F09
S11321A08093F7229093F8222091C0253091C12585
S11321B08217930721F08091C820882341F084E09E
S11321C08093F922E8E1F3E202E0069336C0E0915D
S11321D0C825F091C925309799F00995882381F095
S11321E01092F5221092F622C091C425D091C525F3
S11321F0C034D10528F01092C820C0E4D0E003C058
S113220081E08093C820ECEFF2E2C6A3D7A38091CB
S1132210F5229091F6222091C2253091C325280FF2
S1132220391F20A731A7C80FD91FC093F522D09317
S1132230F622E0E2F3E202E00693DF91CF910F9100
S11322400895FC018181E82FE7708E2F90E0FC0156
S11322503197E730F105C0F4E85EFE4FA2C680E195
S113226090E0089580E290E0089580E490E008957D
S113227080E890E0089580E091E0089580E092E0A5
S113228008958FEF93E0089588E090E00895282F53
S11322902F7030E0220F331F082E000C990B882773
S11322A0990F881F9927820F931F02979C01220F71
S11322B0331F220F331F220F331F820F931F875B9D
S11322C09D4D08950F93CF938091CC0480FF62C0FD
S11322D081E08093CC04E8E1F3E200E80693E0E2D5
S11322E0F3E200E806938093CA04E8E1F3E200E134
S11322F006938091F922882329F08350823008F4D0
S11323002CDFE8DE80911A2390911B23089709F0B3
S113231043C088E0E5EBF2E2AAEBB5E201900D924E
S11323208A95E1F7E8ECF4E0808180628083808123
S113233080628083A3DAC82F811103C0F2DEC1E07A
S11323402CC08091BA2588236CF41092F722109245
S1132350F8221092F5221092F62282E08093F9225C
S113236004DF1BC08091C0259091C125892B11F4F5
S1132370E6DE13C01092F7221092F8221092F52292
S11323801092F62281E08093F922E8E1F3E202E080
S1132390069303C0C0E001C0C1E08C2FCF910F9120
S11323A008958F929F92AF92BF92DF92EF92FF9225
S11323B00F931F93CF93DF93D82E69DF8C01BD2C2D
S11323C0BB1CBB24BB1CCD2DCF70D0E0CC0FDD1FBC
S11323D0CB0DD11DCE01880F991F880F991F880F2F
S11323E0991F9C01285E3C4D7901C9012ADF4C01EB
S11323F0BB2009F479C0FE01EE0FFF1FEE0FFF1F93
S1132400EE0FFF1FE450FD4D22A133A1D801159614
S11324108D919C911697820F931F15968D939C9383
S1132420169713962D913C9114978217930709F4EC
S113243045C0281B390B2115B4E03B0738F02FEFBA
S113244033E0C901B40186D5281B390BF80180811A
S113245081FF09C0C901B4017DD541E0892B09F090
S113246040E0842F01C080E0D8019C9180FB91F969
S11324709C93FE01EE0FFF1FEE0FFF1FEE0FFF1FD9
S1132480E450FD4D12A213A2268F378F11962D9181
S11324903C91129715968D919C911697820F931FDC
S11324A0CC0FDD1FCC0FDD1FCC0FDD1FC45EDC4D58
S11324B088839983F70102E00693E4C0D8018C91E4
S11324C081FFCDC08D7F8C93CC0FDD1FCC0FDD1F22
S11324D0CC0FDD1FC450DD4D1AA21BA21E8E1F8E11
S11324E0F70102E00693CEC0FE01EE0FFF1FEE0FD0
S11324F0FF1FEE0FFF1FE450FD4DA68CB78CD801D3
S11325008C9182FF19C01196ED91FC91129715964A
S11325102D913C91169713968D919C911497B4012B
S113252019D5B0E4DB9EB001112467577F4DAC018F
S1132530CF01820F931F3BD5F801258136812A0DE7
S11325403B1D25833683838194818217930768F426
S113255085839683CC0FDD1FCC0FDD1FCC0FDD1FD1
S1132560C450DD4D8AA19BA17AC0FE01EE0FFF1F6E
S1132570EE0FFF1FEE0FFF1FE450FD4D42A153A1CC
S11325804A155B0509F06BC02817390709F467C0C1
S1132590AC01421B530B9A01211554E0350750F04E
S11325A02FEF33E0C901B401D5D4D901A81BB90B6D
S11325B0CD0107C0C901B401CDD4F901E81BF90B61
S11325C0CF01FE01EE0FFF1FEE0FFF1FEE0FFF1FE7
S11325D0E450FD4D168E178E8815990500F5D80127
S11325E08C9184608C93B0E4DB9EC00111248757E6
S11325F09F4DFE01EE0FFF1FEE0FFF1FEE0FFF1F9B
S1132600E45EFC4D80839183CC0FDD1FCC0FDD1F76
S1132610CC0FDD1FC450DD4D8AA29BA21CC0F80163
S11326204181528125813681240F351FFE01EE0F31
S1132630FF1FEE0FFF1FEE0FFF1FE45EFC4D208314
S11326403183CC0FDD1FCC0FDD1FCC0FDD1FC45039
S1132650DD4D8AA39BA3F70102E0069313C0D801C2
S11326608C9180FF0FC08E7F8C931796ED91FC9117
S11326701897309739F015966D917C9116974D2DDA
S113268080E00995DF91CF911F910F91FF90EF901A
S1132690DF90BF90AF909F908F900895CF93CFB766
S11326A0F89481E0EEDCEAECF4E080E4808380E2FC
S11326B08083E1ECF4E0808181608083A9ECB4E064
S11326C08C9182608C93E8ECF4E080818064808358
S11326D08C9181608C93808180688083CFBFCF91FF
S11326E00895CF93DF93C0E6D0E0188280E30E9480
S11326F08A0AE0ECF4E080818064808381E088834E
S1132700CFB7F89480E090E0FC01EE0FFF1FEE0FCE
S1132710FF1FEE0FFF1FE450FD4D158E01968E3006
S1132720910591F780E090E0FC01EE0FFF1FEE0FA2
S1132730FF1FEE0FFF1FE80FF91FE75BFD4D208120
S11327402E7F208301968C30910571F76AE170E049
S113275082E08DDC8F3F19F08093FA0403C08FE18F
S11327608093FA046BE170E082E081DC8F3F19F022
S11327708093FB0403C08FE18093FB04E0ECF4E05E
S1132780808186608083808180688083808180618D
S1132790808388E193E2868397838081806280834B
S11327A08FEF8093C504E8ECF4E08081826080833D
S11327B010928C238091EF2D8F3F09F4FFCF9FB7A8
S11327C0F894EAEEFDE285818F5F85839FBF66DF23
S11327D0CFBFDF91CF9108958093C3040895809172
S11327E0C3040895EAEBF5E28087918762877387D3
S11327F00895282F2F7030E0220F331F082E000C6D
S1132800990B8827990F881F9927820F931FFC0122
S1132810EE0FFF1FEE0FFF1FEE0FFF1FE450FD4DE5
S1132820258D207C09F04FC06370613011F018F4DD
S113283004C020EC03C020E801C020E44038510566
S1132840E9F050F440325105A9F040345105A1F0AB
S113285040315105D9F40CC0411532E0530791F0D1
S11328604F3F33E0530781F04115514079F408C0DC
S113287041E00DC042E00BC043E009C044E007C0A2
S113288045E005C046E003C047E001C040E0FC016C
S1132890EE0FFF1FEE0FFF1FEE0FFF1FE450FD4D65
S11328A0158E36E0348F242B258F880F991F880FBF
S11328B0991F880F991FFC01E450FD4D858D80629E
S11328C0858F81E0089580E00895E82FEF70F0E0AF
S11328D0EE0FFF1F082E000C990B8827990F881FF5
S11328E09927E80FF91FEE0FFF1FEE0FFF1FEE0FE2
S11328F0FF1FE450FD4D858D82FB882780F90895E4
S1132900282F2F7030E0A901440F551F282F082EBF
S1132910000C330B2227330F221F3327240F351FBC
S1132920F901EE0FFF1FEE0FFF1FEE0FFF1FE45024
S1132930FD4D958D92FF17C0220F331F220F331FB9
S1132940220F331FF901E450FD4D958D9B7F958F28
S11329509EDCFC01808180FF06C08E7F808307801F
S1132960F085E02D099581E008957F928F929F92E2
S1132970AF92BF92CF92DF92EF92FF920F931F9389
S1132980CF93DF93982E862E6A01790180DC5C0157
S1132990792C771C7724771CC92DCF70D0E0CC0F0D
S11329A0DD1FC70DD11DFE01EE0FFF1FEE0FFF1F30
S11329B0EE0FFF1FE450FD4D858D807C09F47DC032
S11329C0FE01EE0FFF1FEE0FFF1FEE0FFF1FE4507F
S11329D0FD4D858D807C803C61F0FE01EE0FFF1F74
S11329E0EE0FFF1FEE0FFF1FE450FD4D858D82FD9E
S11329F066C08FB7F894F501908190FF03C08FBF34
S1132A00712C5EC0F5019081916090838FBFC1826B
S1132A10D282E382F48215821682078310878110A2
S1132A2006C091E0E114F10419F090E001C091E0D6
S1132A30F501808190FB81F98B7F8083772059F0A9
S1132A40CC0FDD1FCC0FDD1FCC0FDD1FC450DD4DBF
S1132A501AA21BA22DC0FE01EE0FFF1FEE0FFF1FD7
S1132A60EE0FFF1FE450FD4D858D807C803CA1F46A
S1132A70CE01880F991F880F991F880F991F885EB0
S1132A809C4DDFDBBC01C70165D2892B29F0F50120
S1132A9080818E7F808314C0CC0FDD1FCC0FDD1F9F
S1132AA0CC0FDD1FC450DD4D1E8E1F8E1AA21BA23B
S1132AB0892D77DC7724739403C0712C01C0712CA9
S1132AC0872DDF91CF911F910F91FF90EF90DF90B1
S1132AD0CF90BF90AF909F908F907F900895FF927A
S1132AE00F931F93CF93DF93182FF82EFF1CFF240F
S1132AF0FF1CC82FCF70D0E0CC0FDD1FCF0DD11D30
S1132B00C6DBDC01FE01EE0FFF1FEE0FFF1FEE0F11
S1132B10FF1FE85EFC4D02E005938C9180FF22C00C
S1132B208E7F8C931796ED91FC9118973097D1F086
S1132B30FF2059F0CC0FDD1FCC0FDD1FCC0FDD1FA4
S1132B40C450DD4D6AA17BA10AC0CC0FDD1FCC0FA0
S1132B50DD1FCC0FDD1FC450DD4D6E8D7F8D412FE9
S1132B6081E00995DF91CF911F910F91FF90089516
S1132B70CF93C82FB4DFEC2FEF70F0E0EE0FFF1F00
S1132B808C2FCC0F990B8827990F881F9927E80F52
S1132B90F91FEE0FFF1FEE0FFF1FEE0FFF1FE45094
S1132BA0FD4D158ECF9108950F93E82FEF70F0E04F
S1132BB0EE0FFF1F282F082E000C330B2227330F94
S1132BC0221F3327E20FF31FEE0FFF1FEE0FFF1F2D
S1132BD0EE0FFF1FDF01A450BD4D5D969C915D97E4
S1132BE094605D969C93E85EFC4D01E0069377DF6C
S1132BF081E00F9108951F920F920FB60F92112446
S1132C000F932F933F934F935F936F937F938F9380
S1132C109F93AF93BF93CF93EF93FF938091CB0494
S1132C20882344F480E88093CA040E940E0C0E9416
S1132C3058048BC08091CB0482FF20C084E0809331
S1132C40CA048091202386FF80C08091CC0481FD3A
S1132C507CC038DB811179C08091F922813011F474
S1132C606EDA73C0843009F070C0E1E2F3E204E08C
S1132C700593E9E1F3E204E0059367C08091CB0496
S1132C8081FF5EC082E08093CA048091182386FF8E
S1132C905CC08091CC0481FD58C014DB811155C007
S1132CA08091F922823041F484E08093F922E8E1B2
S1132CB0F3E202E0069349C0833009F046C0E1E242
S1132CC0F3E204E00593E9E1F3E204E005933DC097
S1132CD080E18093CA04C1E08C2F01DF8C2F8068CF
S1132CE0FEDECF5FC630C1F70E94E90B1092C30429
S1132CF0ECEFF2E2158E96E0948F83E4858F15A2B3
S1132D0094A385A385EB92E280A391A3E3D91DC08C
S1132D108091CB0486FF08C080E48093CA0480E0DD
S1132D20B0D90E94560411C08091CB0485FF0DC018
S1132D3080E28093CA0481E0A4D90E94570405C0AC
S1132D408091CB0484FDC4CFE3CFFF91EF91CF9169
S1132D50BF91AF919F918F917F916F915F914F91AF
S1132D603F912F910F910F900FBE0F901F901895C8
S1132D701F920F920FB60F9211240F931F932F934C
S1132D803F934F935F936F937F938F939F93AF93EF
S1132D90BF93CF93DF93EF93FF938091CC0481FD96
S1132DA003C090DA8111C1C082E08093CC04809189
S1132DB0C5048195880FE8E1F3E2E81BF10920815D
S1132DC03181285133423695279536952795369586
S1132DD02795822F869520FD02C090E001C090E8DF
S1132DE0890FE82FEF70F0E0EE0FFF1F282F082E59
S1132DF0000C330B2227330F221F3327E20FF31F5C
S1132E00DF01AA0FBB1FAA0FBB1FAA0FBB1FA45031
S1132E10BD4D5C969C9195FF88C0EE0FFF1FEE0F91
S1132E20FF1FEE0FFF1FE85EFC4D00E206938111C9
S1132E3077C08091F922843019F48FD94BD975C0A9
S1132E4000911A2310911B238091C4259091C525CC
S1132E50C091F522D091F6229E01200F311F8217D6
S1132E60930718F48C010C1B1D0B8091C2259091C3
S1132E70C325A80165EB72E28C0F9D1F98D0C00F8B
S1132E80D11FC093F522D093F6220034110569F4C2
S1132E908091F7229091F8228C0F9D1F2091C025DC
S1132EA03091C1258217930780F0EAEBF5E2C287DF
S1132EB0D3870684F785E02D309729F00995811191
S1132EC002C02FD932C03BD930C08091C425909123
S1132ED0C525C817D907F9F4E091C825F091C9258B
S1132EE0309711F41ED921C00995811102C019D956
S1132EF01CC02091F7223091F8228091F522909104
S1132F00F622820F931F8093F7229093F822109257
S1132F10F5221092F622E8E1F3E202E0069305C0FE
S1132F20803811F422D901C03CDAFF91EF91DF918E
S1132F30CF91BF91AF919F918F917F916F915F914D
S1132F404F913F912F911F910F910F900FBE0F90B2
S1132F501F901895AA1BBB1B51E107C0AA1FBB1FDA
S1132F60A617B70710F0A61BB70B881F991F5A9511
S1132F70A9F780959095BC01CD01089597FB072E84
S1132F8016F4009406D077FD08D0E4DF07FC05D0E2
S1132F903EF4909581959F4F0895709561957F4F6C
S1132FA00895EE0FFF1F0590F491E02D0994FB01A5
S1132FB0DC0102C001900D9241505040D8F70895B1
S1072FC0F894FFCFAF
S1132FC440000CE02E0AFFFFFFFF5580008000C480
S1132FD40ACF0AD50AC10A000064201F2000002871
S1132FE42023200F2000000009023C00010100807E
S1132FF4FA0904000006FFFFFF00070581018000B1
S1133004010705820180000107058301800001078F
S113301405840180000107058501800001070586F8
S1133024018000011201000200000040EB0394BA85
S1133034000201020001000000030000000000007F
S1133044000000000000000000004C616272616432
S11330546F72004573706F54656B000004030904B8
S10F3064646562756731323300000200BD
S9030000FC
