S01500005553425F42554C4B5F544553542E73726563F9
S11300002CC1000046C1000044C1000042C10000F0
S113001040C100003EC1000026C6000065C60000C5
S1130020A3C60000ABC6000034C1000032C100000A
S113003030C100002EC100002CC100002AC1000004
S113004028C1000026C1000024C1000022C1000014
S113005020C100001EC100001CC100001AC1000024
S11300607CC7000016C1000014C1000012C10000CA
S113007010C100000EC100000CC100000AC1000044
S113008008C1000006C1000004C1000002C1000054
S113009000C10000FEC00000FCC00000FAC0000067
S11300A0F8C00000F6C00000F4C00000F2C0000078
S11300B0F0C00000EEC00000ECC00000EAC0000088
S11300C0E8C00000E6C00000E4C00000E2C0000098
S11300D0E0C00000DEC00000DCC00000DAC00000A8
S11300E0D8C00000D6C00000D4C00000D2C00000B8
S11300F0D0C00000CEC00000CCC00000CAC00000C8
S1130100C8C00000C6C00000C4C00000C2C00000D7
S1130110C0C00000BEC00000BCC00000BAC00000E7
S1130120B8C00000B6C00000B4C00000B2C00000F7
S1130130B0C00000AEC00000ACC00000AAC0000007
S1130140A8C00000A6C00000A4C0000066C600004D
S1130150A0C000009EC000009CC000009AC0000027
S113016098C0000096C0000094C0000092C0000037
S113017090C000008EC000008CC000008AC0000047
S113018088C0000086C0000084C0000082C0000057
S113019080C000007EC000007CC000007AC0000067
S11301A078C0000076C0000074C0000072C0000077
S11301B070C000006EC000006CC000006AC0000087
S11301C068C0000066C0000064C0000062C0000097
S11301D060C000005EC000005CC000005AC00000A7
S11301E058C0000056C0000054C0000052C00000B7
S11301F050C000000C944D130C940714E401E60164
S1130200E801EA01EC01F101EE01F001340A360AD9
S1130210720AAE0AB70ABC0A0E0B130B620A640A0E
S1130220660A680A6A0A6C0A6E0A700A9E0AA00ABA
S1130230A20AA40AA60AA80AAA0AAC0AC80AD30AE5
S1130240DD0AEB0AED0AEF0AF90A030B8B0E8E0E98
S1130250910E940E970E9A0E9D0E11241FBECFEF91
S1130260CDBFDFE2DEBF10E2A0E0B0E2ECE2FAE2F2
S113027002C005900D92A23BB107D9F72CE2A2EB84
S1130280B0E201C01D92A535B207E1F73ED00C944F
S11302901415B6CEE0E8F6E08FE0808385E0848331
S11302A0089508954091B3202EEE32E0429FC0019C
S11302B0439F900D112442E551E06AEF70E08E589F
S11302C0994D43C708954091B3202EEE32E0429FEA
S11302D0C001439F900D112443E651E06AEF70E0A2
S11302E08459984D3EC708954091B3202EEE32E0D4
S11302F0429FC001439F900D112444E751E06AEFEF
S113030070E08A59974D39C7089587E08093A20019
S113031078942ED6C6DF0E94B409FDD020D160E0C7
S113032080E0BCD0A8D08CE09CD032D5F0D507D6E4
S1130330B1DF22E736E220936F2480E699E28093CE
S1130340702430935D2290935C2229EE37E220934F
S1130350572287ED9AE280934E2C30935E2490933B
S113036056228091582290915922A0915A22B091FC
S11303705B220196A11DB11D813021EE920725EF6C
S1130380A20725E0B20718F080E090E0DC0100004D
S11303900000000000000000000000000000000059
S11303A000000000000000000000E3CF089508955D
S11303B0E09100208E2F90E08830910590F4FC01AC
S11303C0E250FF4F0C9405155AD10BC0D1D109C08E
S11303D047D207C0C2D205C037D303C0E0D301C09F
S11303E041D4F8949091B32081E0911180E08093FE
S11303F0B3207894089581E08093B62042E551E0DB
S11304006EEE72E082E796E2A0D643E651E06EEE2D
S113041072E08CE697E2A5D644E751E06EEE72E016
S113042086E698E2AAD681E008951092B62008954F
S113043081E0089581E00895E0E0F2E010A2982FB1
S11304409C71936890A388231CF490E182E002C01D
S113045090E080E0892BE0E0F2E081A312A216A2F2
S11304600895E0E0F2E010AA836880AB80E181ABFC
S113047012AA16AA0895E0E0F2E010A683E880A785
S11304808FE281A712A616A60895AAECB1E092E025
S11304909C93E82FF0E084911C920895CF93DF930E
S11304A0E0E7F0E091819D7F918310920002623039
S11304B031F1E0E0F2E09CE1918390E492838111D8
S11304C002C080E401C080EC80930302613011F02B
S11304D083E001C082E0C0E0D2E08C8380E2D5DF1B
S11304E08C8781E2D2DF8D87188E198E81E0888314
S11304F0C2DF0EC080EC8093030283E0ECCFE0E027
S1130500F2E09EE1918390E492838111F3CFD9CFFD
S1130510DF91CF910895CF93DF93E0E7F0E08281FC
S11305208B7F8283C0E2D3E08DE0888380E489837B
S113053089E08A8383E3A9DF888782E3A6DF89874A
S113054087E3A3DF8A8786E3A0DF8B87E0E2F6E018
S11305508081836080831482DF91CF910895E0E7E6
S1130560F0E080818E7F808382E88093000108958B
S1130570E0E0F1E0108A80E4808B10A280A310AA4E
S113058080ABE0E4F1E0108280831092B5201092F9
S1130590B4201092B320089510920020E9DFE0E027
S11305A0F1E016AA94E290AB11AA49E542AB32E01D
S11305B033AB609102207091032064AB75AB61E7AB
S11305C074E260AF71AF12AE8BE384AF83E08093CB
S11305D03D0110923E0120A9206820AB10924601F3
S11305E0A0E4B1E09C9310924101409342018093B6
S11305F043014091042050910520409344015093BD
S113060045014EE552E2409348015093490110924E
S11306104A0129E320934C0180934D0110924E012D
S11306202C9120682C93108A20E4208B24E0208BCA
S1130630818B81E9828B80E1838B47E751E0448B96
S1130640558B908F318F128E4091B5202EEE32E073
S1130650429FC001439F900D11248E58994D848F61
S11306604091B520429FC001439F900D11248E58A4
S1130670994D958F168E80898068808B0895089592
S1130680CF93DF9381E08093002072DFE0E0F1E01C
S113069010AA80E480AB94E090AB11AA12AA5BE4A8
S11306A053AB14AA15AA16AA21E030E220AF31AF49
S11306B012AE40EA44AF38E030933D0110923E015F
S11306C080A9806A80AB85E58093A00810924601DA
S11306D0A0E4B1E0D4E2DC931092410189E5809377
S11306E04201C2E0C0934301609102207091032053
S11306F0609344017093450161E774E2609348019B
S11307007093490110924A018BE380934C0183E07A
S113071080934D0110924E012C9120682C93908B64
S1130720818BA1E9A28B20E1238B67E771E0648BC5
S1130730758BD08FC18F128EC2E7D6E2C48FD58F4E
S1130740168E20892068208B90A381A3A2A353A393
S113075064A375A340A731A712A689EE97E284A7E4
S113076095A716A680A1806880A3DF91CF910895F4
S11307700895CF93F894C2E0C0930020F9DEE0E03E
S1130780F1E016AA94E290AB11AA39E532AB83E00A
S113079083AB409104205091052044AB55AB4EE50A
S11307A052E240AF51AF12AE29E324AF80933D0132
S11307B010923E0120A9206820AB10924601A0E4CB
S11307C0B1E09C9310924101309342018093430124
S11307D0209102203091032020934401309345015D
S11307E021E734E2209348013093490110924A01F1
S11307F02BE320934C0180934D0110924E012C91D8
S113080020682C9354E0508B818B41E9428BC38B3D
S113081027E731E0248B358B908FC18F128E62E7EE
S113082076E2648F758F168E50A381A342A381E074
S113083083A324A335A384E380A7C1A712A689EECA
S113084097E284A795A716A680898068808B00C04C
S113085000C0000080A1806880A37894CF9108959F
S11308600895CF93C3E0C093002082DEE0E0F1E07E
S113087010A250E450A344E040A311A212A23BE40E
S113088033A314A215A216A281E090E280A791A737
S113089012A620EA24A798E095A716A680A1806A4C
S11308A080A385E58093A00816AA74E270AB11AA10
S11308B069E562ABC3ABA0910420B0910520A4AB61
S11308C0B5ABAEE5B2E2A0AFB1AF12AE89E384AF8F
S11308D0C0933D0110923E0180A9806880AB1092C4
S11308E04601A0E4B1E07C9310924101609342017F
S11308F082E0809343016091022070910320609311
S113090044017093450161E774E260934801709378
S1130910490110924A018BE380934C01C0934D012D
S113092010924E018C9180688C93108A508B408B6E
S1130930C18B81E9828B338B47E751E0448B558B24
S1130940208F918F128E82E796E2848F958F168E78
S113095080898068808BCF9108950895CF93C4E0F7
S1130960C093002005DEE0E0F1E010A280E480A363
S1130970C0A311A212A24BE443A314A215A216A26F
S113098081E090E280A791A712A660EA64A788E0BC
S113099085A716A690A1906A90A395E59093A008C8
S11309A010924601A0E4B1E094E29C9310924101BC
S11309B099E59093420192E09093430120910220A3
S11309C030910320209344013093450121E734E220
S11309D0209348013093490110924A019BE390937C
S11309E04C0193E090934D0110924E012C9120689C
S11309F02C93C08B918B31E9328B438B47E751E0C9
S1130A00448B558B608F818F128E62E776E2648F00
S1130A10758F168E20892068208BC0AB91AB32ABCA
S1130A209AE493AB44AB55AB93EC90AF81AF12AE69
S1130A3089EE97E284AF90933D0110923E0180A924
S1130A40806880ABCF910895089585E0809300205D
S1130A508FDDE0E0F1E016AA34E230AB11AA29E51B
S1130A6022AB83E083AB409104205091052044AB3A
S1130A7055AB4EE552E240AF51AF12AE99E394AF9D
S1130A8080933D0110923E0190A9906890AB109222
S1130A904601E0E4F1E030831092410120934201E9
S1130AA08093430120910420309105202093440138
S1130AB03093450121E734E2209348013093490102
S1130AC010924A019BE390934C0180934D01109244
S1130AD04E01808180688083089586E080930020A1
S1130AE047DDE0E0F1E016AA94E290AB11AA39E503
S1130AF032AB83E083AB409104205091052044AB9A
S1130B0055AB4EE552E240AF51AF12AE29E324AFEC
S1130B1080933D0110923E0120A9206820AB1092E1
S1130B204601A0E4B1E09C9310924101309342014C
S1130B3032E03093430140910220509103204093CE
S1130B4044015093450141E754E2409348015093D6
S1130B50490110924A012BE320934C0180934D01EB
S1130B6010924E012C9120682C93108A20E4208B43
S1130B7024E0208B818B81E9828B80E1838B4EEE94
S1130B8052E0448B558B908F318F128E82E796E220
S1130B90848F958F168E80898068808B0895089540
S1130BA087E080930020E4DCE0E0F1E016AA94E220
S1130BB090AB11AA39E532AB83E083AB40910420BA
S1130BC05091052044AB55AB4EE552E240AF51AFD6
S1130BD012AE29E324AF80933D0110923E0120A977
S1130BE0206820AB10924601A0E4B1E09C931092DF
S1130BF041013093420132E030934301409102209D
S1130C0050910320409344015093450141E754E23D
S1130C10409348015093490110924A012BE32093D9
S1130C204C0180934D0110924E012C9120682C931D
S1130C30108A20E4208B25E0208B818B81E9828B34
S1130C4080E1838B4EEE52E0448B558B908F318F35
S1130C50128E82E796E2848F958F168E8089806843
S1130C60808B089508951F920F920FB60F9211244E
S1130C708F939F93EF93FF9387E791E08093140101
S1130C80909315018091B520882349F080917024B8
S1130C90E0E0F1E0848F80915C22858F08C0809130
S1130CA06F24E0E0F1E0848F80915D22858F000065
S1130CB00000E0E0F1E080898068808B82E080932E
S1130CC090019091B52081E0911180E08093B5204E
S1130CD081E080930301FF91EF919F918F910F9099
S1130CE00FBE0F901F9018951F920F920FB60F9280
S1130CF011248F939F93EF93FF9387E791E0809361
S1130D002401909325018091B420882349F0809197
S1130D104E2CE0E0F1E084A78091562285A708C01C
S1130D2080915722E0E0F1E084A780915E2485A7BA
S1130D3000000000E0E0F1E080A1806880A381E091
S1130D40809390019091B420911180E08093B4201D
S1130D5082E080930301FF91EF919F918F910F9017
S1130D600FBE0F901F9018951F920F920FB60F92FF
S1130D7011240F900FBE0F901F9018951F920F9281
S1130D800FB60F9211240F900FBE0F901F9018955D
S1130D90E0E7F0E083818C7F838384818C7F84838C
S1130DA080818D7F8083E0E8F1E080EC828312868D
S1130DB080E28183118682E280831086A0E0B8E01D
S1130DC034E03C9323E011962C93119714961C92D3
S1130DD0149785ED91E096968D939C93979716962C
S1130DE01C921697E0E4F8E030832183148286A3F2
S1130DF097A31682E0E6F6E0808180618083E0E4D8
S1130E00F9E083E18183148282E08683A6A3B7A3F9
S1130E1010A611A681E0808308951F920F920FB649
S1130E200F9211242F933F934F935F938F939F932C
S1130E30EF93FF93CF93DF931F92CDB7DEB78FEF7E
S1130E4080934C0980910020873031F4E0E0F2E097
S1130E5084A5898395A502C090912C028091B2202B
S1130E60891B209168093091690991E082300CF462
S1130E7090E09923C9F091E02A3F374008F090E0D0
S1130E80992391F0209168093091690989301CF403
S1130E9081E090E002C086E090E0820F931F80938F
S1130EA078099093790923C02091680930916909E0
S1130EB091E08F3F0CF090E09923C9F091E0273046
S1130EC0310508F490E0992391F02091680930915C
S1130ED06909883F1CF081E090E002C086E090E060
S1130EE0A901481B590B40937809509379090F9035
S1130EF0DF91CF91FF91EF919F918F915F914F91EE
S1130F003F912F910F900FBE0F901F901895E0E71F
S1130F10F0E083818F7E8383E0E4F6E080818A6A57
S1130F2080838FEF848388E5828BE0EAF8E084ECA9
S1130F30858383E08683178288E184830895E0E7CC
S1130F40F0E08381877F8383E0ECF8E080E48083B2
S1130F50118288E58093550608951F920F920FB66B
S1130F600F92112400000F900FBE0F901F90189540
S1130F700F931F93CF93DF9300D000D0CDB7DEB78C
S1130F808FEF809370008093710080937200809340
S1130F90730080937400809375008093760064E0FE
S1130FA081E490E0BAD56CE170E082E0BCD58A833C
S1130FB06DE170E082E0B7D5898389819A810196D9
S1130FC021F480E493E289839A8389819A818B83D3
S1130FD09C83E0E6F0E082838C8183839FB7F8945E
S1130FE0E0E5F0E08081826080839FBF818181FFA2
S1130FF0FDCF9FB7F89400E510E0D80116968C91C8
S11310001697897F16968C931697E0E6F0E080E8B1
S113101085838BEB868316968C911697846016963F
S11310208C938081816080839FBF61E080E490E045
S113103074D59FB7F894F80180818E7F80839FBF19
S11310402496CDBFDEBFDF91CF911F910F910895FC
S11310509FB7F894E82FF0E0E059FF4F6095808146
S1131060682360839FBF0895863011F060E001C05B
S113107068E18091510081FD26C09FB7F894E0E5B6
S1131080F0E08081826080839FBF818181FFFDCFFA
S11310909FB7F894A0E5B0E016968C911697897FD7
S11310A016968C931697E0E6F0E080E885838BEB48
S11310B0868316968C911697846016968C938081FD
S11310C0816080839FBF636084E490E026D560E400
S11310D080E0BECF08958091B720089540D1FC01EF
S11310E083818093B720811102C085C9089581E06E
S11310F008958091B720813009F497C908958091AB
S11311005F2488234CF480768034A9F48091602491
S1131110811113C08FC908958076803481F4809141
S1131120602481110EC08091652490916624892BDE
S113113051F07EC9089580E0089580E0089580E02C
S1131140089580E0089580E008950F931F939B0114
S11311508A01AC0160E081E80E9401121F910F91A5
S113116008950F931F939B018A01AC0160E082E80C
S11311700E9401121F910F9108950F931F939B01D9
S11311808A01AC0160E083E80E9401121F910F9173
S11311900895E091BC20F091BD200190F081E02DF4
S11311A0228133812E0F3F1FFC014081E40FF11D8A
S11311B0E217F307B8F481818430B9F0861309C0CB
S11311C005C081818430A1F0861303C08E2F9F2F28
S11311D008958081E80FF11DE217F30790F380E092
S11311E090E0089580E090E0089580E090E0089514
S11311F080E090E00895809161248F770C942F1102
S113120008959091BE20992381F1E091BC20F09142
S1131210BD200190F081E02D9481891740F5E09381
S1131220BA20F093BB20228133812E0F3F1FE21797
S1131230F307F8F49181943061F49281981309C012
S11312409381961306C0E093BA20F093BB2081E00B
S113125008959081E90FF11DE217F30758F3E09325
S1131260BA20F093BB2080E0089580E0089580E0E8
S1131270089580E00895EF92FF921F93CF93DF9338
S1131280C82F60E0BEDF182F882381F1A091BC2015
S1131290B091BD20EC2FF0E0EE0FFF1F12968D9160
S11312A09C911397E80FF91FE080F180D7011696FF
S11312B0ED91FC9117970995682F8C2FA2DF182FB9
S11312C08823A1F0C091BA20D091BB2065E0CE0163
S11312D060DFEC01892B21F08A810E940413F6CF90
S11312E0D7011296ED91FC9113970995812FDF9107
S11312F0CF911F91FF90EF9008951F93CF93DF93A9
S1131300182F7FDF882339F1C091BA20D091BB20F8
S113131065E0CE013EDFEC01892B41F04C815D811B
S11313206B818A81A9D78111F3CF15C0A091BC200C
S1131330B091BD20E12FF0E0EE0FFF1F12968D91CA
S11313409C911397E80FF91F0190F081E02D019013
S1131350F081E02D0995DF91CF911F91089580913F
S1131360BA209091BB200895F5C60895CF9380913B
S1131370BE208823C1F0E091BC20F091BD200190F3
S1131380F081E02D8481882371F0C0E08C2F73DF1D
S1131390CF5FE091BC20F091BD200190F081E02D61
S11313A08481C81798F31092BE201092C220109224
S11313B0C320CF910895CF938091BE20882349F113
S11313C0A091BC20B091BD20ED91FC911197848136
S11313D08823F9F0C0E0EC2FF0E0EE0FFF1F129627
S11313E08D919C911397E80FF91F0190F081E02DE6
S11313F00084F185E02D309709F00995CF5FA09125
S1131400BC20B091BD20ED91FC9111978481C81747
S113141010F3CF9108950F931F93CF93DF93EFE5CC
S1131420F4E2128613861486158616861786808142
S113143088233CF42091652430916624232B09F4FD
S113144060C38076803409F0FEC0E09160248E2F62
S113145090E0FC01E05AF109E830F10508F0EAC037
S1131460EA5FFE4F0C94051500004FC3E0E0F8E07E
S11314701082CFE5D4E28A819B8186AB97AB8C81C5
S11314808F7080836E817F818EE592E2EED68E81AD
S11314909F8120910420309105208217930709F43D
S11314A034C38093042090930520E09100208E2F74
S11314B090E08830910508F0BFC0FC01E25FFE4F68
S11314C00C94051569D821C3DBD81FC352D91DC399
S11314D0C8D91BC343DA19C3B8DA17C3FEDA15C374
S11314E05FDB13C3E0E4F8E01082CFE5D4E28A8145
S11314F09B8186AB97AB8C818F7080836E817F815B
S113150081E794E2B2D68E819F81209102203091AE
S113151003208217930709F4F8C280930220909362
S11315200320E09100208E2F90E08830910508F090
S113153085C0FC01EA5EFE4F0C9405152DD8E5C26A
S11315409FD8E3C216D9E1C28CD9DFC207DADDC263
S11315507CDADBC2C2DAD9C223DBD7C210926809B3
S113156010926909809161248093B220CEC2809147
S1131570612480932406C9C2E0916124F09162241D
S1131580E830F10508F05CC0E25EFE4F0C940515EE
S113159060E080E00E944E02809163240E941C025D
S11315A00E94CC02B2C260E080E00E944E028091B0
S11315B063240E941C0264D8A8C261E081E00E94F6
S11315C04E02CFE5D4E28C810E941C028D810E94E0
S11315D03102CFD89AC245D998C2C0D996C260E028
S11315E080E00E944E02809163240E941C022DDA46
S11315F08CC261E080E00E944E02809163240E94CC
S11316001C026BDA82C262E080E00E944E0280918A
S1131610632480680E941C02C3DA77C2809161242B
S11316208093840672C2E9E7F0E091E088EDF894D3
S113163084BF908380E005C081E003C081E001C0E5
S113164080E0811165C280915F24982F907609F023
S1131650E1C188230CF005C12091652430916624F2
S11316602115310509F4D6C18F7109F0A3C09091F9
S11316706024963079F0983009F492C091119AC0A0
S11316802230310509F0C6C162E070E082EC90E2DC
S1131690ECD53DC28091612490916224292F332797
S11316A022303105A9F024F42130310541F0A9C1DB
S11316B023303105D9F12F30310551F1A2C1809188
S11316C0102090911120DC016C9170E0CED559C0AE
S11316D0E0911020F09111202189821708F09AC11D
S11316E09927880F991F880F991FE0911220F09174
S11316F01320E80FF91F80819181FC0162817381BD
S1131700B4D5E0916724F091682482E0818339C0E4
S11317108091142090911520009709F47BC1DC017D
S113172012966D917C911397A0D52BC09927813087
S1131730910571F038F0029709F06CC18AE890E2E3
S113174028E109C064E070E08EEA90E28ED519C009
S113175083EA90E229E0382FAAE5B0E2E82FF92FD6
S1131760819190E08D939D938E2F831B8217C0F3FC
S1131770622F660F6E5F6093582070E088E590E2F8
S113178074D5EFE5F4E2868197812285338582174B
S1131790930708F0BCC18093692490936A24B7C16D
S11317A02130310509F036C161E070E08EEB90E242
S11317B05CD5ADC18130E1F5909160249A30C1F5DA
S11317C02130310509F026C18091BE20882309F417
S11317D021C1C0916324D09164240091BC20109154
S11317E0BD20D801ED91FC918481C81708F012C185
S11317F060E08C2F06DD882309F40CC1CE01992703
S1131800880F991FD8011296ED91FC911397E80F58
S1131810F91F0190F081E02D86819781FC010995E3
S11318208093C02061E070E080EC90E21ED56FC12F
S1131830823009F0EFC0809160248111E4C022302D
S1131840310509F0E7C0809163248BD590E0809343
S1131850B8209093B92062E070E088EB90E205D55F
S113186056C18F7109F083C090916024933009F4BC
S1131870CCC018F49130A1F07AC0953019F09930A9
S113188039F175C08091652490916624892B09F003
S1131890C1C08BEF98E080936B2490936C2437C184
S11318A08091652490916624892B09F0B3C08091BE
S11318B0612490916224019709F0ACC08091C22008
S11318C09091C3208D7F8093C2209093C3201FC129
S11318D08091652490916624892B09F09BC0C2D421
S11318E0882309F497C0209161243091622433271E
S11318F0E0911020F0911120818990E082179307E4
S113190008F488C033DD809161249091622480932F
S1131910BE20882309F4FBC099278150904C880F7E
S1131920991F880F991FE0911220F0911320E80F5E
S1131930F91FE093BC20F093BD200190F081E02DCD
S11319408481882309F4E3C0C0E060E08C2FD5DCF7
S1131950882309F45FC0CF5FE091BC20F091BD20E3
S11319600190F081E02D8481C81778F3D0C08130D4
S1131970E1F4909160249B30C1F4809165249091AE
S11319806624892B09F046C08091BE20882309F47F
S113199041C0EFE5F4E2C481D2818C2F6CDC882352
S11319A0C9F16D2F8C2FA9DC33C0823099F5809159
S11319B06024813019F0833089F029C08091652436
S11319C090916624892B31F5809161249091622451
S11319D0892B01F580916324DFD41AC0809165249A
S11319E090916624892BB1F48091612490916224B2
S11319F0892B81F4CFE5D4E28C81BDD58C8120D6AE
S1131A0007C080E005C080E003C080E001C080E042
S1131A1081117EC080915F248F71813071F5809136
S1131A20BE20882351F10091632410916424C09155
S1131A30BC20D091BD20E881F98184810817E8F4A5
S1131A4060E0802FDEDB8823C1F0F801FF27CF019F
S1131A50880F991FEA81FB81E80FF91FC081D181AA
S1131A60EE81FF810995682F802FCBDB882329F035
S1131A70EC81FD81099581114BC080915F248F71A8
S1131A80823009F040C08091BE208823B1F1A0913A
S1131A90BC20B091BD20ED91FC91119784818823E5
S1131AA071F1C0E0EC2FF0E0EE0FFF1F12968D9164
S1131AB09C911397E80FF91F00811181D8011696A4
S1131AC0ED91FC9117970995682F8C2F9ADB882349
S1131AD0F9F0D8011496ED91FC91159709958111AF
S1131AE017C0CF5FA091BC20B091BD20ED91FC91B7
S1131AF011979481C917B0F20BC080E009C080E04F
S1131B0007C080E005C080E003C081E001C081E03F
S1131B10DF91CF911F910F9108951BBEFC0128ED19
S1131B2024BF608308954091CA01E62FF72F809364
S1131B30CA0184914093CA010895811122C09091F1
S1131B4054229923D9F09091502C911101C0FFCFC8
S1131B502FB7F894EFE4FCE29181915091832FBF69
S1131B600DC09091502C9F3F09F4FFCF2FB7F894EC
S1131B70EFE4FCE291819F5F91832FBF8093542215
S1131B80089590915422992361F3F8CF0F93E8ECD0
S1131B90F4E080818F7D808380818F7D8083E8E184
S1131BA0F2E202E0059310921A2210921B2200E244
S1131BB0069300E40693E0E1F2E200E2069300E417
S1131BC00693EFE5F4E214861586168617861286C8
S1131BD013861092FF210F9108950F9385E080934F
S1131BE0FF21E9E1F2E204E00593E1E1F2E204E03D
S1131BF005930F9108950F9383E08093FF21109232
S1131C001A2210921B22E8E1F2E202E006930F91FD
S1131C100895E0916B24F0916C24309709F00995B4
S1131C2008950F93CF93DF938091FF21833019F4AC
S1131C30F0DFACDF5EC08091FB219091FC21C0916C
S1131C406924D0916A24C81BD90B71F52091FD2118
S1131C503091FE21820F931F8093FD219093FE21EA
S1131C6020916524309166248217930721F0809196
S1131C70C420882341F084E08093FF21E0E1F2E274
S1131C8002E0069336C0E0916D24F0916E24309703
S1131C9099F00995882381F01092FB211092FC2180
S1131CA0C0916924D0916A24C034D10528F01092DF
S1131CB0C420C0E4D0E003C081E08093C420E0E00D
S1131CC0F2E2C28FD38F8091FB219091FC2120916D
S1131CD0672430916824280F391F248F358FC80F4B
S1131CE0D91FC093FB21D093FC21E8E1F2E202E08A
S1131CF00693DF91CF910F910895FC018181E82F24
S1131D00E7708E2F90E0FC013197E730F105C0F4C5
S1131D10EA5DFE4F7AC680E190E0089580E290E0AB
S1131D20089580E490E0089580E890E0089580E0CC
S1131D3091E0089580E092E008958FEF93E0089594
S1131D4088E090E00895282F2F7030E0220F331F91
S1131D50082E000C990B8827990F881F9927820F4A
S1131D60931F02979C01220F331F220F331F220F50
S1131D70331F820F931F8B579E4D08950F93CF935C
S1131D808091CC0480FF62C081E08093CC04E0E1C8
S1131D90F2E200E80693E8E1F2E200E806938093B9
S1131DA0CA04E0E1F2E200E106938091FF21882376
S1131DB029F08350823008F42CDFE8DE809112226F
S1131DC090911322089709F043C088E0EBEBF1E20D
S1131DD0AFE5B4E201900D928A95E1F7E8ECF4E006
S1131DE080818062808380818062808314DBC82F3D
S1131DF0811103C0F2DEC1E02CC080915F248823EE
S1131E006CF41092FD211092FE211092FB2110928D
S1131E10FC2182E08093FF2104DF1BC080916524B4
S1131E2090916624892B11F4E6DE13C01092FD21F3
S1131E301092FE211092FB211092FC2181E08093EC
S1131E40FF21E0E1F2E202E0069303C0C0E001C03A
S1131E50C1E08C2FCF910F9108958F929F92AF92F2
S1131E60BF92DF92EF92FF920F931F93CF93DF9372
S1131E70D82E69DF8C01BD2CBB1CBB24BB1CCD2D13
S1131E80CF70D0E0CC0FDD1FCB0DD11DCE01880F5C
S1131E90991F880F991F880F991F9C01205F3D4D42
S1131EA07901C9012ADF4C01BB2009F470C0FE018D
S1131EB0EE0FFF1FEE0FFF1FEE0FFF1FE050FE4D52
S1131EC026893789D80115968D919C911697820F92
S1131ED0931F15968D939C93169713962D913C9171
S1131EE014978217930709F43CC0281B390B21155A
S1131EF0B4E03B0738F02FEF33E0C901B40171D5EA
S1131F00281B390BF801808181FF09C0C901B40184
S1131F1068D541E0892B09F040E0842F01C080E0BE
S1131F20D8019C9180FB91F99C93CC0FDD1FCC0FC1
S1131F30DD1FCC0FDD1FC050DE4D1E8A1F8A2A8B89
S1131F403B8B11962D913C91129715968D919C91F6
S1131F501697820F931F8C8B9D8BF70102E00693DB
S1131F60CAC0D8018C9181FFB3C08D7F8C93CC0FF4
S1131F70DD1FCC0FDD1FCC0FDD1FC050DE4D1E8AD0
S1131F801F8A1A8A1B8AF70102E00693B4C0FE0175
S1131F90EE0FFF1FEE0FFF1FEE0FFF1FE050FE4D71
S1131FA0A288B388D8018C9182FF19C01196ED9153
S1131FB0FC91129715962D913C91169713968D913D
S1131FC09C911497B4010DD5B0E4DB9EB0011124AB
S1131FD06B577F4DAC01CF01820F931F1CD5F801C5
S1131FE0258136812A0D3B1D258336838381948187
S1131FF08217930768F485839683CC0FDD1FCC0F7B
S1132000DD1FCC0FDD1FC050DE4D8E899F8960C05F
S1132010FE01EE0FFF1FEE0FFF1FEE0FFF1FE0503C
S1132020FE4D468957894A155B0509F051C02817AA
S1132030390709F44DC0AC01421B530B9A01211519
S113204054E0350750F02FEF33E0C901B401C9D48F
S1132050D901A81BB90BCD0107C0C901B401C1D472
S1132060F901E81BF90BCF01FE01EE0FFF1FEE0F84
S1132070FF1FEE0FFF1FE050FE4D128A138A8815D2
S1132080990578F4D8018C9184608C93B0E4DB9E3C
S1132090C00111248B579F4D848B958B868A978A18
S11320A013C0F8014181528125813681240F351FE7
S11320B0CC0FDD1FCC0FDD1FCC0FDD1FC050DE4D5C
S11320C02C8B3D8B8E8B9F8BF70102E0069313C004
S11320D0D8018C9180FF0FC08E7F8C931796ED9161
S11320E0FC911897309739F015966D917C9116975D
S11320F04D2D80E00995DF91CF911F910F91FF90B5
S1132100EF90DF90BF90AF909F908F900895CF9302
S1132110CFB7F89481E011DDEAECF4E080E4808349
S113212080E28083E1ECF4E0808181608083A9EC2B
S1132130B4E08C9182608C93E8ECF4E0808180645C
S113214080838C9181608C93808180688083CFBFF1
S1132150CF910895CF93DF93C0E6D0E0188280E357
S11321600E943408E0ECF4E080818064808381E0A4
S11321708883CFB7F89480E090E0FC01EE0FFF1F56
S1132180EE0FFF1FEE0FFF1FE050FE4D118A019668
S11321908830910591F7E5E8F1E280818E7F8083B4
S11321A0EEE8F1E280818E7F8083E7E9F1E28081CD
S11321B08E7F8083E0EAF1E280818E7F8083E9EA8A
S11321C0F1E280818E7F8083E2EBF1E280818E7F79
S11321D080836AE170E082E0A6DC8F3F19F080938F
S11321E0FA0403C08FE18093FA046BE170E082E0AB
S11321F09ADC8F3F19F08093FB0403C08FE1809336
S1132200FB04E0ECF4E0808183608083808180685B
S1132210808380818061808380E192E286839783DA
S11322208081806280838FEF8093C504E8ECF4E0C2
S1132230808182608083109254228091542C8F3F3D
S113224009F4FFCF9FB7F894EFE4FCE285818F5F38
S113225085839FBF5CDFCFBFDF91CF9108958093CB
S1132260C30408958091C3040895EFE5F4E28087E0
S11322709187628773870895282F2F7030E0220F8B
S1132280331F082E000C990B8827990F881F992754
S1132290820F931FFC01EE0FFF1FEE0FFF1FEE0FC7
S11322A0FF1FE050FE4D2189207C09F058C0637067
S11322B0613011F018F404C020EC03C020E801C020
S11322C020E440385105E9F050F440325105A9F0BA
S11322D040345105A1F040315105D9F40CC04115E9
S11322E032E0530791F04F3F33E0530781F041153B
S11322F0514079F408C041E00DC042E00BC043E016
S113230009C044E007C045E005C046E003C047E01B
S113231001C040E0FC01EE0FFF1FEE0FFF1FEE0FA8
S1132320FF1FE050FE4D118ADC01AA0FBB1FAA0F4C
S1132330BB1FAA0FBB1FA05FBD4D36E03C93242BEF
S1132340218B880F991F880F991F880F991FFC01F3
S1132350E050FE4D81898062818B81E0089580E0A8
S11323600895E82FEF70F0E0EE0FFF1F082E000C29
S1132370990B8827990F881F9927E80FF91FEE0FEB
S1132380FF1FEE0FFF1FEE0FFF1FE050FE4D818970
S113239082FB882780F90895282F2F7030E0A90147
S11323A0440F551F282F082E000C330B2227330F00
S11323B0221F3327240F351FF901EE0FFF1FEE0FE5
S11323C0FF1FEE0FFF1FE050FE4D918992FF17C0D3
S11323D0220F331F220F331F220F331FF901E05046
S11323E0FE4D91899B7F918BAEDCFC01808180FF47
S11323F006C08E7F80830780F085E02D099581E0FB
S113240008957F928F929F92AF92BF92CF92DF9264
S1132410EF92FF920F931F93CF93DF93982E862E04
S11324206A01790190DC5C01792C771C7724771C94
S1132430C92DCF70D0E0CC0FDD1FC70DD11DFE011B
S1132440EE0FFF1FEE0FFF1FEE0FFF1FE050FE4DBC
S11324508189807C09F47DC0FE01EE0FFF1FEE0F21
S1132460FF1FEE0FFF1FE050FE4D8189807C803CF2
S113247061F0FE01EE0FFF1FEE0FFF1FEE0FFF1FB7
S1132480E050FE4D818982FD66C08FB7F894F50156
S1132490908190FF03C08FBF712C5EC0F5019081C5
S11324A0916090838FBFC182D282E382F4821582CD
S11324B0168207831087811006C091E0E114F104AD
S11324C019F090E001C091E0F501808190FB81F961
S11324D08B7F8083772059F0CC0FDD1FCC0FDD1F5D
S11324E0CC0FDD1FC050DE4D1E8A1F8A2DC0FE0199
S11324F0EE0FFF1FEE0FFF1FEE0FFF1FE050FE4D0C
S11325008189807C803CA1F4CE01880F991F880FBB
S1132510991F880F991F805F9D4DEFDBBC01C70198
S113252060D2892B29F0F50180818E7F808314C0CD
S1132530CC0FDD1FCC0FDD1FCC0FDD1FC050DE4DD7
S11325401A8A1B8A1E8A1F8A892D87DC7724739432
S113255003C0712C01C0712C872DDF91CF911F9185
S11325600F91FF90EF90DF90CF90BF90AF909F902E
S11325708F907F900895FF920F931F93CF93DF93D3
S1132580182FF82EFF1CFF24FF1CC82FCF70D0E09B
S1132590CC0FDD1FCF0DD11DD6DBDC01FE01EE0F0C
S11325A0FF1FEE0FFF1FEE0FFF1FE05FFD4D02E068
S11325B005938C9180FF22C08E7F8C931796ED91AA
S11325C0FC9118973097D1F0FF2059F0CC0FDD1F04
S11325D0CC0FDD1FCC0FDD1FC050DE4D6E897F890F
S11325E00AC0CC0FDD1FCC0FDD1FCC0FDD1FC05088
S11325F0DE4D6A897B89412F81E00995DF91CF9176
S11326001F910F91FF900895CF93C82FB4DFEC2F43
S1132610EF70F0E0EE0FFF1F8C2FCC0F990B882783
S1132620990F881F9927E80FF91FEE0FFF1FEE0F70
S1132630FF1FEE0FFF1FE050FE4D118ACF9108954A
S11326400F93E82FEF70F0E0EE0FFF1F282F082EF6
S1132650000C330B2227330F221F3327E20FF31F03
S1132660DF01AA0FBB1FAA0FBB1FAA0FBB1FA050DD
S1132670BE4D51969C915197946051969C93EE0F48
S1132680FF1FEE0FFF1FEE0FFF1FE05FFD4D01E088
S1132690069371DF81E00F9108951F920F920FB698
S11326A00F9211240F932F933F934F935F936F9344
S11326B07F938F939F93AF93BF93EF93FF938091F7
S11326C0CB04882344F480E88093CA040E94DB0985
S11326D00E94D8018AC08091CB0482FF20C084E08C
S11326E08093CA048091182286FF7FC08091CC0415
S11326F081FD7BC043DB811178C08091FF21813053
S113270011F479DA72C0843009F06FC0E9E1F2E2C1
S113271004E00593E1E1F2E204E0059366C08091F0
S1132720CB0481FF5DC082E08093CA0480911022B3
S113273086FF5BC08091CC0481FD57C01FDB8111F3
S113274054C08091FF21823041F484E08093FF21C2
S1132750E0E1F2E202E0069348C0833009F045C0AC
S1132760E9E1F2E204E00593E1E1F2E204E0059339
S11327703CC080E18093CA0481E0FDDE81E8FBDE99
S113278082E0F9DE82E8F7DE0E94B6091092C30403
S1132790E0E0F2E2118A96E0908B83E4818B118E63
S11327A0908F818F8BEB91E2848B958BEFD91DC039
S11327B08091CB0486FF08C080E48093CA0480E043
S11327C0BCD90E94D60111C08091CB0485FF0DC0F5
S11327D080E28093CA0481E0B0D90E94D70105C089
S11327E08091CB0484FDC5CFE3CFFF91EF91BF91DE
S11327F0AF919F918F917F916F915F914F913F9195
S11328002F910F910F900FBE0F901F9018951F924C
S11328100F920FB60F9211240F931F932F933F9390
S11328204F935F936F937F938F939F93AF93BF93D4
S1132830CF93DF93EF93FF938091CC0481FD03C08A
S11328409DDA8111B9C082E08093CC048091C504E3
S11328508195880FE0E1F2E2E81BF10920813181E2
S113286020513242369527953695279536952795EA
S1132870822F869520FD02C090E001C090E8890F68
S1132880E82FEF70F0E0EE0FFF1F282F082E000C4A
S1132890330B2227330F221F3327E20FF31FDF01ED
S11328A0AA0FBB1FAA0FBB1FAA0FBB1FA05FBD4D62
S11328B09C9195FF81C0FD0100E20693811177C0D0
S11328C08091FF21843019F4A4D960D975C0009196
S11328D01222109113228091692490916A24C0914C
S11328E0FB21D091FC219E01200F311F82179307F9
S11328F018F48C010C1B1D0B8091672490916824A3
S1132900A8016BEB71E28C0F9D1F85D0C00FD11F06
S1132910C093FB21D093FC210034110569F480910C
S1132920FD219091FE218C0F9D1F209165243091F3
S113293066248217930780F0EFE5F4E2C287D38719
S11329400684F785E02D309729F00995811102C09E
S113295044D932C050D930C08091692490916A24FE
S1132960C817D907F9F4E0916D24F0916E243097DB
S113297011F433D921C00995811102C02ED91CC08C
S11329802091FD213091FE218091FB219091FC2129
S1132990820F931F8093FD219093FE211092FB21BF
S11329A01092FC21E0E1F2E202E0069305C08038D7
S11329B011F437D901C051DAFF91EF91DF91CF9132
S11329C0BF91AF919F918F917F916F915F914F9143
S11329D03F912F911F910F910F900FBE0F901F9059
S11329E01895AA1BBB1B51E107C0AA1FBB1FA61742
S11329F0B70710F0A61BB70B881F991F5A95A9F7A4
S1132A0080959095BC01CD010895EE0FFF1F0590B0
S1132A10F491E02D0994FB01DC0102C001900D92B8
S10F2A2041505040D8F70895F894FFCFBF
S1132A2CFF55800080006E0879087F086B08000051
S1132A3C4420162000001C201A200620090227001E
S1132A4C01010080FA0904000003FFFFFF000705E1
S1132A5C81010001010705820100010107058301C1
S1132A6C000101001201000200000040EB0300A071
S1132A7C000201020001000000030000000000003D
S1132A8C0000000000000000000000000000000036
S1132A9C0000000000000000000000000000000026
S1132AAC00000000000000000000555342476F6214
S1132ABC696E6461722044756D6D79204465766924
S1132ACC63650054617069725465636800000403A3
S1052ADC0904E7
S9030000FC
