S01500005553425F42554C4B5F544553542E73726563F9
S11300002CC1000046C1000044C1000042C10000F0
S113001040C100003EC100003CC100003AC10000E4
S113002038C1000036C1000034C1000032C10000F4
S113003030C100002EC100002CC100002AC1000004
S113004028C1000026C1000024C1000022C1000014
S113005020C100001EC100001CC100001AC1000024
S11300604FC7000016C1000014C1000012C10000F7
S113007010C100000EC100000CC100000AC1000044
S113008008C1000006C1000004C1000002C1000054
S113009000C10000FEC00000FCC00000FAC0000067
S11300A0F8C00000F6C00000F4C00000F2C0000078
S11300B0F0C00000EEC00000ECC00000EAC0000088
S11300C0E8C00000E6C00000E4C00000E2C0000098
S11300D0E0C00000DEC00000DCC00000DAC00000A8
S11300E0D8C00000D6C00000D4C00000D2C00000B8
S11300F0D0C00000CEC00000CCC00000CAC00000C8
S1130100C8C00000C6C00000C4C00000C2C00000D7
S1130110C0C00000BEC00000BCC00000BAC00000E7
S1130120B8C00000B6C00000B4C00000B2C00000F7
S1130130B0C00000AEC00000ACC00000AAC0000007
S1130140A8C00000A6C00000A4C0000039C600007A
S1130150A0C000009EC000009CC000009AC0000027
S113016098C0000096C0000094C0000092C0000037
S113017090C000008EC000008CC000008AC0000047
S113018088C0000086C0000084C0000082C0000057
S113019080C000007EC000007CC000007AC0000067
S11301A078C0000076C0000074C0000072C0000077
S11301B070C000006EC000006CC000006AC0000087
S11301C068C0000066C0000064C0000062C0000097
S11301D060C000005EC000005CC000005AC00000A7
S11301E058C0000056C0000054C0000052C00000B7
S11301F050C000000C940C130C94C613A101A3016D
S1130200A501A701A901AE01AB01AD01EF09F109F7
S11302102D0A6D0A760A7B0ACD0AD20A1D0A1F0A24
S1130220210A230A250A270A290A2B0A5D0A5F0ADA
S1130230610A630A650A670A690A6B0A870A920AED
S11302409C0AAA0AAC0AAE0AB80AC20A4A0E4D0EA1
S1130250500E530E560E590E5C0E11241FBECFEFD6
S1130260CDBFDFE2DEBF10E2A0E0B0E2EAEAF9E2ED
S113027002C005900D92A23BB107D9F72CE2A2EB84
S1130280B0E201C01D92AC34B207E1F71CD00C946B
S1130290D314B6CEE0E8F6E08FE0808385E0848373
S11302A0089508958091B420882319F080E090E0A7
S11302B002C08EEE92E042E551E06EEE72E08659A5
S11302C0994D16C7089587E08093A200789423D6A9
S11302D0E8DF0E946F09CCD0EFD060E080E08BD0E3
S11302E077D08CE06BD031D5E2D5FBD5D3DF5091FC
S11302F05622409157223091582220915922852F1D
S1130300942FA32FB22F0196A11DB11D50E040E000
S113031030E020E0813061EE960765EFA60765E0E6
S1130320B60788F3ECCF08950895E09100208E2F4E
S113033090E08830910590F4FC01E250FF4F0C945A
S1130340C4141DD10BC099D109C038D207C0F4D24E
S113035005C060D303C054D401C0C9D49091B42063
S113036081E0911180E08093B420089581E080932E
S1130370B52042E551E06EEE72E08AE696E2B8D628
S113038081E008951092B520089581E0089581E0F8
S11303900895E0E0F2E010A2982F9C71936890A376
S11303A088231CF490E182E002C090E080E0892B75
S11303B0E0E0F2E081A312A216A20895E0E0F2E0E8
S11303C010AA836880AB80E181AB12AA16AA0895B3
S11303D0E0E0F2E010A683E880A78FE281A712A6EE
S11303E016A60895AAECB1E092E09C93E82FF0E001
S11303F084911C920895CF93DF93E0E7F0E091811C
S11304009D7F918310920002623031F1E0E0F2E0CE
S11304109CE1918390E49283811102C080E401C045
S113042080EC80930302613011F083E001C082E02C
S1130430C0E0D2E08C8380E2D5DF8C8781E2D2DF1A
S11304408D87188E198E81E08883C2DF0EC080EC00
S11304508093030283E0ECCFE0E0F2E09EE191833D
S113046090E492838111F3CFD9CFDF91CF91089596
S1130470CF93DF93E0E7F0E082818B7F8283C0E259
S1130480D3E08DE0888380E4898389E08A8383E3F1
S1130490A9DF888782E3A6DF898787E3A3DF8A87CA
S11304A086E3A0DF8B87E0E2F6E0808183608083CF
S11304B01482DF91CF910895E0E7F0E080818E7F90
S11304C0808380E8809300010895E0E0F1E0108AE1
S11304D080E4808B10A280A310AA80ABE0E4F1E05A
S11304E0108280831092B4201092B3200895109249
S11304F00020EBDFE0E0F1E016AA34E230AB11AA11
S113050029E522AB82E083AB809102209091032005
S113051084AB95AB8AE694E280AF91AF12AE8BE3E5
S113052084AF83E080933D0110923E0190A99068CE
S113053090AB10924601E0E4F1E030831092410167
S1130540209342018093430120910420309105209F
S113055020934401309345012AE532E22093480177
S11305603093490110924A0199E390934C0180938E
S11305704D0110924E018081806880830895E0E0EF
S1130580F1E0108A80E4808B84E0808B118A81E919
S1130590828B80E1838B87E791E0848B958B84E267
S11305A0808F82E0818F128E4091B4202EEE32E053
S11305B0429FC001439F900D11248659994D848F09
S11305C04091B420429FC001439F900D112486594D
S11305D0994D958F168E80898068808B089581E06F
S11305E08093002072DFE0E0F1E010AA80E480ABA9
S11305F084E080AB11AA12AA8BE483AB14AA15AAD7
S113060016AA81E090E280AF91AF12AE80EA84AF87
S113061088E080933D0110923E0180A9806A80ABFE
S113062085E58093A00810924601E0E4F1E084E2BD
S113063080831092410189E58093420182E0809396
S11306404301809102209091032080934401909370
S113065045018AE694E280934801909349011092FF
S11306604A018BE380934C0183E080934D01109207
S11306704E018081806880830895E0E0F1E0108A73
S1130680A0E4A08B74E0708B118A61E9628B80E135
S1130690838B47E751E0448B558B84E2808F82E063
S11306A0818F128EB091B4208EEE92E0B89F9001AB
S11306B0B99F300D11242659394D248FB091B4209F
S11306C0B89F9001B99F300D11242659394D358FAB
S11306D0168E20892068208B10A2A0A370A311A2DB
S11306E062A32BE423A344A355A320EA20A728E074
S11306F021A712A64091B420489F9001499F300D34
S113070011242F51384D24A74091B420489F9001C3
S1130710499F300D1124C9018F51984D95A716A6F4
S113072080A1806880A30895CF93C2E0C093002085
S1130730CCDEE0E0F1E016AA34E230AB11AA29E500
S113074022AB83E083AB409104205091052044AB5D
S113075055AB4AE552E240AF51AF12AE99E394AFC4
S113076080933D0110923E0190A9906890AB109245
S11307704601E0E4F1E0308310924101209342010C
S1130780C09343012091022030910320209344011F
S1130790309345012AE634E220934801309349011D
S11307A010924A019BE390934C0180934D01109267
S11307B04E01808180688083CF910895CF93E0E0DB
S11307C0F1E0108AB0E4B08BA4E0A08B118A51E967
S11307D0528B80E1838B67E771E0648B758B84E2D5
S11307E0808F42E0418F128EC091B4208EEE92E051
S11307F0C89F9001C99F300D11242659394D248F6B
S1130800C091B420C89F9001C99F300D112426596E
S1130810394D358F168E20892068208B10A2B0A305
S1130820A0A311A252A322E123A364A375A324E3EA
S113083020A741A712A64091B420489F9001499F48
S1130840300D11242F51384D24A74091B420489FD6
S11308509001499F300D1124C9018F51984D95A7DE
S113086016A680A1806880A3CF910895CF93C3E09A
S1130870C09300202ADEE0E0F1E010A280E480A32F
S113088084E080A311A212A28BE483A314A215A274
S113089016A281E090E280A791A712A680EA84A71D
S11308A088E085A716A680A1806A80A385E5809349
S11308B0A00816AA24E220AB11AA99E592AB82E023
S11308C083AB409102205091032044AB55AB4AE6E0
S11308D054E240AF51AF12AE8BE384AFC0933D01FD
S11308E010923E0180A9806880AB10924601E0E43A
S11308F0F1E020831092410190934201C09343019F
S113090080910420909105208093440190934501A7
S11309108AE592E2809348019093490110924A013A
S113092089E380934C01C0934D0110924E01808164
S113093080688083CF910895E0E0F1E0108A80E43C
S1130940808B84E0808B118A81E9828B8BE4838B9A
S113095087E791E0848B958B80EA808F88E0818F94
S1130960128E4091B4202EEE32E0429FC001439F8C
S1130970900D11248659994D848F4091B420429F43
S1130980C001439F900D11248659994D958F168E61
S113099080898068808B0895CF93C4E0C093002041
S11309A094DDE0E0F1E010A280E480A3C0A311A2F2
S11309B012A28BE483A314A215A216A281E090E2F2
S11309C080A791A712A680EA84A788E085A716A627
S11309D080A1806A80A316AA84E280AB11AA89E56B
S11309E082AB82E083AB809102209091032084ABA0
S11309F095AB8AE694E280AF91AF12AE8BE384AFFD
S1130A0083E080933D0110923E0180A9806880AB11
S1130A10CF910895CF93E0E0F1E0108AB0E4B08B79
S1130A20A4E0A08B118A51E9528B8BE4838B67E796
S1130A3071E0648B758B80EA808F48E0418F128E61
S1130A40C091B4208EEE92E0C89F9001C99F300DF2
S1130A5011242659394D248FC091B420C89F900188
S1130A60C99F300D11242659394D358F168E208992
S1130A702068208BE0E4F1E01082B083A083109220
S1130A804101509342012AE42093430160934401BD
S1130A907093450123EC209348014093490110923F
S1130AA04A014091B420489F9001499F300D112480
S1130AB02F51384D20934C014091B420489F900110
S1130AC0499F300D1124C9018F51984D90934D01C8
S1130AD010924E01808180688083CF91089585E0D3
S1130AE080930020F2DCE0E0F1E016AA34E230ABBF
S1130AF011AA29E522AB83E083AB409104205091F5
S1130B00052044AB55AB4AE552E240AF51AF12AEBB
S1130B1099E394AF80933D0110923E0190A99068AF
S1130B2090AB10924601E0E4F1E030831092410171
S1130B3020934201809343012091042030910520A9
S1130B4020934401309345012AE634E2209348017E
S1130B503093490110924A019BE390934C01809396
S1130B604D0110924E01808180688083089586E053
S1130B7080930020AADCE0E0F1E016AA34E230AB76
S1130B8011AA29E522AB83E083AB40910420509164
S1130B90052044AB55AB4AE552E240AF51AF12AE2B
S1130BA099E394AF80933D0110923E0190A990681F
S1130BB090AB10924601E0E4F1E0308310924101E1
S1130BC02093420192E090934301209102203091BE
S1130BD0032020934401309345012AE634E2209314
S1130BE048013093490110924A019BE390934C01D0
S1130BF080934D0110924E01808180688083089516
S1130C00E0E0F1E0108A80E4808B84E0808B118A3C
S1130C1081E9828B80E1838B2EEE32E0248B358B4D
S1130C2084E2808F82E0818F128E4091B420429FB3
S1130C30C001439F900D11248659994D848F409192
S1130C40B420429FC001439F900D11248659994DB1
S1130C50958F168E80898068808B089587E08093B5
S1130C60002033DCE0E0F1E016AA34E230AB11AA54
S1130C7029E522AB83E083AB409104205091052009
S1130C8044AB55AB4AE552E240AF51AF12AE99E3E3
S1130C9094AF80933D0110923E0190A9906890AB6F
S1130CA010924601E0E4F1E0308310924101209378
S1130CB0420192E09093430120910220309103205D
S1130CC020934401309345012AE634E220934801FD
S1130CD03093490110924A019BE390934C01809315
S1130CE04D0110924E018081806880830895E0E078
S1130CF0F1E0108A80E4808B85E0808B118A81E9A1
S1130D00828B80E1838B2EEE32E0248B358B84E260
S1130D10808F82E0818F128E4091B420429FC00167
S1130D20439F900D11248659994D848F4091B4208E
S1130D30429FC001439F900D11248659994D958F70
S1130D40168E80898068808B0895E0E7F0E08381C7
S1130D508C7F838384818C7F848380818D7F808357
S1130D60E0E8F1E080EC8283128688EC81831186CE
S1130D70E0E0F8E034E0308323E02183148285ED61
S1130D8091E086A397A31682E0E4F8E03083218300
S1130D90148286A397A31682E0E6F6E08081806140
S1130DA08083E0E4F9E083E18183148281E0868337
S1130DB028EB3BE026A337A310A611A68083089551
S1130DC01F920F920FB60F9211242F933F934F93BC
S1130DD05F938F939F93EF93FF93CF93DF931F9230
S1130DE0CDB7DEB780910020873031F4E0E0F2E047
S1130DF084A5898395A502C090912C028091B2208C
S1130E00891B209168093091690991E082300CF4C2
S1130E1090E09923C9F091E0223B3B4008F090E038
S1130E20992391F0209168093091690989301CF463
S1130E3081E090E002C086E090E0820F931F8093EF
S1130E4078099093790923C0209168093091690940
S1130E5091E08F3F0CF090E09923C9F091E02730A6
S1130E60310508F490E0992391F0209168093091BC
S1130E706909883F1CF081E090E002C086E090E0C0
S1130E80A901481B590B40937809509379090F9095
S1130E90DF91CF91FF91EF919F918F915F914F914E
S1130EA03F912F910F900FBE0F901F901895E0E780
S1130EB0F0E083818F7E8383E0E4F6E080818A64BE
S1130EC080838FEF848388E5828B80E28687E0EAE3
S1130ED0F8E084EC858383E08683178288E1848349
S1130EE00895E0E7F0E08381877F8383E0ECF8E016
S1130EF080E4808383E0818388E5809357060895A6
S1130F001F920F920FB60F92112400000F900FBE84
S1130F100F901F9018950F931F93CF93DF9300D0DA
S1130F2000D0CDB7DEB78FEF80937000809371004F
S1130F308093720080937300809374008093750093
S1130F408093760064E081E490E0A6D56CE170E0E3
S1130F5082E0A8D58A836DE170E082E0A3D589831D
S1130F6089819A81019621F480E493E289839A83AA
S1130F7089819A818B839C83E0E6F0E082838C8173
S1130F8083839FB7F894E0E5F0E0808182608083FA
S1130F909FBF818181FFFDCF9FB7F89400E510E0EA
S1130FA0D80116968C911697897F16968C9316976E
S1130FB0E0E6F0E080E885838BEB868316968C91DF
S1130FC01697846016968C938081816080839FBF7E
S1130FD061E080E490E060D59FB7F894F8018081E7
S1130FE08E7F80839FBF2496CDBFDEBFDF91CF91DC
S1130FF01F910F9108959FB7F894E82FF0E0E059FE
S1131000FF4F60958081682360839FBF0895863079
S113101011F060E001C068E18091510081FD26C0BB
S11310209FB7F894E0E5F0E08081826080839FBF01
S1131030818181FFFDCF9FB7F894A0E5B0E01696BB
S11310408C911697897F16968C931697E0E6F0E0BC
S113105080E885838BEB868316968C911697846043
S113106016968C938081816080839FBF636084E443
S113107090E012D560E480E0BECF08958091B62060
S1131080089528D1FC0183818093B620811102C088
S11310906DC9089581E008958091B620813009F4E6
S11310A071C9089580915A2488234CF48076803441
S11310B0A9F480915B24811113C069C908958076D5
S11310C0803481F480915B2481110EC0809160246E
S11310D090916124892B51F058C9089580E00895B6
S11310E080E0089580E0089580E0089580E0089508
S11310F00F931F939B018A01AC0160E083E80E9477
S1131100C0111F910F910895E091BB20F091BC2074
S11311100190F081E02D228133812E0F3F1FFC01CD
S11311204081E40FF11DE217F307B8F481818430A4
S1131130B9F0861309C005C081818430A1F08613FB
S113114003C08E2F9F2F08958081E80FF11DE217B1
S1131150F30790F380E090E0089580E090E0089534
S113116080E090E0089580E090E0089580915C2410
S11311708F770C94EE1008959091BE20992381F1FD
S1131180E091BB20F091BC200190F081E02D94818E
S1131190891740F5E093B920F093BA202281338176
S11311A02E0F3F1FE217F307F8F49181943061F496
S11311B09281981309C09381961306C0E093B920D5
S11311C0F093BA2081E008959081E90FF11DE217B0
S11311D0F30758F3E093B920F093BA2080E0089520
S11311E080E0089580E0089580E00895EF92FF92F2
S11311F01F93CF93DF93C82F60E0BEDF182F88239F
S113120081F1A091BB20B091BC20EC2FF0E0EE0F57
S1131210FF1F12968D919C911397E80FF91FE080A0
S1131220F180D7011696ED91FC9117970995682FD7
S11312308C2FA2DF182F8823A1F0C091B920D09160
S1131240BA2065E0CE0160DFEC01892B21F08A81B0
S11312500E94C312F6CFD7011296ED91FC91139719
S11312600995812FDF91CF911F91FF90EF90089501
S11312701F93CF93DF93182F7FDF882339F1C09119
S1131280B920D091BA2065E0CE013EDFEC01892B74
S113129041F04C815D816B818A81ADD78111F3CF9F
S11312A015C0A091BB20B091BC20E12FF0E0EE0F5F
S11312B0FF1F12968D919C911397E80FF91F0190CF
S11312C0F081E02D0190F081E02D0995DF91CF911F
S11312D01F9108958091B9209091BA200895F9C67C
S11312E00895CF938091BE208823C1F0E091BB2064
S11312F0F091BC200190F081E02D8481882371F06D
S1131300C0E08C2F73DFCF5FE091BB20F091BC2055
S11313100190F081E02D8481C81798F31092BE20CB
S11313201092C2201092C320CF910895CF93809140
S1131330BE20882349F1A091BB20B091BC20ED913F
S1131340FC91119784818823F9F0C0E0EC2FF0E040
S1131350EE0FFF1F12968D919C911397E80FF91FC2
S11313600190F081E02D0084F185E02D309709F0A3
S11313700995CF5FA091BB20B091BC20ED91FC9169
S113138011978481C81710F3CF9108950F931F9379
S1131390CF93DF93EAE5F4E212861386148615866A
S11313A016861786808188233CF42091602430912E
S11313B06124232B09F464C38076803409F002C1CC
S11313C0E0915B248E2F90E0FC01E05AF109E830B3
S11313D0F10508F0EEC0EA5FFE4F0C94C41400005F
S11313E053C3E0E0F8E01082CAE5D4E28A819B812D
S11313F086AB97AB8C818F7080836E817F818AE509
S113140092E2F2D68E819F812091042030910520B2
S11314108217930709F438C380930420909305201E
S1131420E09100208E2F90E08830910508F0C3C031
S1131430FC01E25FFE4F0C94C41459D825C3CFD8E5
S113144023C372D921C312DA1FC3A6DA1DC347DB33
S11314501BC38DDB19C302DC17C3E0E4F8E0108280
S1131460CAE5D4E26E817F816093022070930320E9
S11314708A819B8186AB97AB8C818F7080838AE64F
S113148094E2B2D68E819F81209104203091052070
S11314908217930709F4F8C28093042090930520DF
S11314A0E09100208E2F90E08830910508F085C0EF
S11314B0FC01EA5EFE4F0C94C41419D8E5C28FD81F
S11314C0E3C232D9E1C2D2D9DFC266DADDC207DBB8
S11314D0DBC24DDBD9C2C2DBD7C2109268091092BD
S11314E0690980915C248093B220CEC280915C24EF
S11314F080932406C9C2E0915C24F0915D24E83015
S1131500F10508F05CC0E25EFE4F0C94C41460E088
S113151080E00E94FB0180915E240E94C9010E9428
S11315207702B2C260E080E00E94FB0180915E24F9
S11315300E94C90154D8A8C261E081E00E94FB0165
S1131540CAE5D4E28C810E94C9018D810E94DE012A
S1131550EBD89AC28BD998C21FDA96C260E080E0B9
S11315600E94FB0180915E240E94C901B8DA8CC2FA
S113157061E080E00E94FB0180915E240E94C90129
S1131580F6DA82C262E080E00E94FB0180915E2470
S113159080680E94C90162DB77C280915C248093D9
S11315A0840672C2E9E7F0E091E088EDF89484BF24
S11315B0908380E005C081E003C081E001C080E049
S11315C0811165C280915A24982F907609F0E1C167
S11315D088230CF005C120916024309161242115E9
S11315E0310509F4D6C18F7109F0A3C090915B2431
S11315F0963079F0983009F492C091119AC0223053
S1131600310509F0C6C162E070E082EC90E2ECD5ED
S11316103DC280915C2490915D24292F3327223090
S11316203105A9F024F42130310541F0A9C123305A
S11316303105D9F12F30310551F1A2C1809110202B
S113164090911120DC016C9170E0CED559C0E091ED
S11316501020F09111202189821708F09AC199274E
S1131660880F991F880F991FE0911220F091132081
S1131670E80FF91F80819181FC0162817381B4D5E7
S1131680E0916224F091632482E0818339C08091E7
S1131690142090911520009709F47BC1DC01129667
S11316A06D917C911397A0D52BC09927813091051A
S11316B071F038F0029709F06CC18AE890E228E1F1
S11316C009C064E070E08EEA90E28ED519C083EA26
S11316D090E229E0382FAAE5B0E2E82FF92F8191B2
S11316E090E08D939D938E2F831B8217C0F3622FFE
S11316F0660F6E5F6093582070E088E590E274D5C1
S1131700EAE5F4E28681978122853385821793077F
S113171008F0BCC18093642490936524B7C1213040
S1131720310509F036C161E070E08EEB90E25CD5E2
S1131730ADC18130E1F590915B249A30C1F521303F
S1131740310509F026C18091BE20882309F421C106
S1131750C0915E24D0915F240091BB201091BC20E5
S1131760D801ED91FC918481C81708F012C160E0A2
S11317708C2F02DD882309F40CC1CE019927880F30
S1131780991FD8011296ED91FC911397E80FF91F58
S11317900190F081E02D86819781FC010995809369
S11317A0C02061E070E080EC90E21ED56FC1823011
S11317B009F0EFC080915B248111E4C0223031052F
S11317C009F0E7C080915E248BD590E08093B72028
S11317D09093B82062E070E087EB90E205D556C1A3
S11317E08F7109F083C090915B24933009F4CCC0CD
S11317F018F49130A1F07AC0953019F0993039F18C
S113180075C08091602490916124892B09F0C1C036
S113181086EB98E0809366249093672437C1809187
S1131820602490916124892B09F0B3C080915C24D9
S113183090915D24019709F0ACC08091C2209091F1
S1131840C3208D7F8093C2209093C3201FC18091B9
S1131850602490916124892B09F09BC0C2D4882311
S113186009F497C020915C2430915D243327E091E2
S11318701020F0911120818990E08217930708F4D9
S113188088C02FDD80915C2490915D248093BE20DC
S1131890882309F4FBC099278150904C880F991F25
S11318A0880F991FE0911220F0911320E80FF91F7F
S11318B0E093BB20F093BC200190F081E02D848163
S11318C0882309F4E3C0C0E060E08C2FD1DC8823D6
S11318D009F45FC0CF5FE091BB20F091BC20019080
S11318E0F081E02D8481C81778F3D0C08130E1F411
S11318F090915B249B30C1F4809160249091612489
S1131900892B09F046C08091BE20882309F441C088
S1131910EAE5F4E2C481D2818C2F68DC8823C9F122
S11319206D2F8C2FA5DC33C0823099F580915B2418
S1131930813019F0833089F029C08091602490911E
S11319406124892B31F580915C2490915D24892B4D
S113195001F580915E24DFD41AC0809160249091B7
S11319606124892BB1F480915C2490915D24892BAE
S113197081F4CAE5D4E28C81BDD58C8120D607C020
S113198080E005C080E003C080E001C080E08111F8
S11319907EC080915A248F71813071F58091BE2070
S11319A0882351F100915E2410915F24C091BB20E3
S11319B0D091BC20E881F98184810817E8F460E0C3
S11319C0802FDADB8823C1F0F801FF27CF01880FCD
S11319D0991FEA81FB81E80FF91FC081D181EE8153
S11319E0FF810995682F802FC7DB882329F0EC81BC
S11319F0FD81099581114BC080915A248F718230E9
S1131A0009F040C08091BE208823B1F1A091BB2091
S1131A10B091BC20ED91FC9111978481882371F1E0
S1131A20C0E0EC2FF0E0EE0FFF1F12968D919C9119
S1131A301397E80FF91F00811181D8011696ED91D3
S1131A40FC9117970995682F8C2F96DB8823F9F062
S1131A50D8011496ED91FC9115970995811117C041
S1131A60CF5FA091BB20B091BC20ED91FC91119768
S1131A709481C917B0F20BC080E009C080E007C0B0
S1131A8080E005C080E003C081E001C081E0DF9117
S1131A90CF911F910F9108951BBEFC0128ED24BF27
S1131AA0608308954091CA01E62FF72F8093CA01FD
S1131AB084914093CA010895811122C090915422C7
S1131AC09923D9F09091472C911101C0FFCF2FB7E2
S1131AD0F894E6E4FCE29181915091832FBF0DC00C
S1131AE09091472C9F3F09F4FFCF2FB7F894E6E479
S1131AF0FCE291819F5F91832FBF809354220895CC
S1131B0090915422992361F3F8CF0F93E8ECF4E019
S1131B1080818F7D808380818F7D8083E8E1F2E204
S1131B2002E0059310921A2210921B2200E20693FF
S1131B3000E40693E0E1F2E200E2069300E4069397
S1131B40EAE5F4E21486158616861786128613864D
S1131B501092FF210F9108950F9385E08093FF2148
S1131B60E9E1F2E204E00593E1E1F2E204E0059345
S1131B700F9108950F9383E08093FF2110921A220E
S1131B8010921B22E8E1F2E202E006930F9108951D
S1131B90E0916624F0916724309709F0099508953F
S1131BA00F93CF93DF938091FF21833019F4F0DFFB
S1131BB0ACDF5EC08091FB219091FC21C091642434
S1131BC0D0916524C81BD90B71F52091FD2130916A
S1131BD0FE21820F931F8093FD219093FE2120917B
S1131BE06024309161248217930721F08091C420EE
S1131BF0882341F084E08093FF21E0E1F2E202E0F7
S1131C00069336C0E0916824F0916924309799F0E6
S1131C100995882381F01092FB211092FC21C09138
S1131C206424D0916524C034D10528F01092C420D6
S1131C30C0E4D0E003C081E08093C420E0E0F2E29D
S1131C40C28FD38F8091FB219091FC21209162243B
S1131C5030916324280F391F248F358FC80FD91F63
S1131C60C093FB21D093FC21E8E1F2E202E0069369
S1131C70DF91CF910F910895FC018181E82FE770E6
S1131C808E2F90E0FC013197E730F105C0F4EA5D56
S1131C90FE4F7AC680E190E0089580E290E00895D6
S1131CA080E490E0089580E890E0089580E091E079
S1131CB0089580E092E008958FEF93E0089588E01E
S1131CC090E00895282F2F7030E0220F331F082E44
S1131CD0000C990B8827990F881F9927820F931F4F
S1131CE002979C01220F331F220F331F220F331F31
S1131CF0820F931F8B579E4D08950F93CF9380911E
S1131D00CC0480FF62C081E08093CC04E0E1F2E285
S1131D1000E80693E8E1F2E200E806938093CA043F
S1131D20E0E1F2E200E106938091FF21882329F0AB
S1131D308350823008F42CDFE8DE809112229091E7
S1131D401322089709F043C088E0EBEBF1E2AAE51F
S1131D50B4E201900D928A95E1F7E8ECF4E0808119
S1131D608062808380818062808310DBC82F811130
S1131D7003C0F2DEC1E02CC080915A2488236CF4A5
S1131D801092FD211092FE211092FB211092FC2151
S1131D9082E08093FF2104DF1BC080916024909136
S1131DA06124892B11F4E6DE13C01092FD211092F8
S1131DB0FE211092FB211092FC2181E08093FF21EF
S1131DC0E0E1F2E202E0069303C0C0E001C0C1E03A
S1131DD08C2FCF910F9108958F929F92AF92BF92C3
S1131DE0DF92EF92FF920F931F93CF93DF93D82E3E
S1131DF069DF8C01BD2CBB1CBB24BB1CCD2DCF705B
S1131E00D0E0CC0FDD1FCB0DD11DCE01880F991F63
S1131E10880F991F880F991F9C01205F3D4D790100
S1131E20C9012ADF4C01BB2009F470C0FE01EE0F8A
S1131E30FF1FEE0FFF1FEE0FFF1FE050FE4D268920
S1131E403789D80115968D919C911697820F931F0F
S1131E5015968D939C93169713962D913C911497F8
S1131E608217930709F43CC0281B390B2115B4E0F1
S1131E703B0738F02FEF33E0C901B40171D5281BBB
S1131E80390BF801808181FF09C0C901B40168D50B
S1131E9041E0892B09F040E0842F01C080E0D801A3
S1131EA09C9180FB91F99C93CC0FDD1FCC0FDD1F1F
S1131EB0CC0FDD1FC050DE4D1E8A1F8A2A8B3B8B40
S1131EC011962D913C91129715968D919C91169790
S1131ED0820F931F8C8B9D8BF70102E00693CAC07F
S1131EE0D8018C9181FFB3C08D7F8C93CC0FDD1F03
S1131EF0CC0FDD1FCC0FDD1FC050DE4D1E8A1F8AA4
S1131F001A8A1B8AF70102E00693B4C0FE01EE0FA1
S1131F10FF1FEE0FFF1FEE0FFF1FE050FE4DA288C4
S1131F20B388D8018C9182FF19C01196ED91FC9170
S1131F30129715962D913C91169713968D919C911D
S1131F401497B4010DD5B0E4DB9EB00111246B5796
S1131F507F4DAC01CF01820F931F1CD5F801258161
S1131F6036812A0D3B1D2583368383819481821714
S1131F70930768F485839683CC0FDD1FCC0FDD1F98
S1131F80CC0FDD1FC050DE4D8E899F8960C0FE01DD
S1131F90EE0FFF1FEE0FFF1FEE0FFF1FE050FE4D71
S1131FA0468957894A155B0509F051C02817390736
S1131FB009F44DC0AC01421B530B9A01211554E0A6
S1131FC0350750F02FEF33E0C901B401C9D4D9016A
S1131FD0A81BB90BCD0107C0C901B401C1D4F901D3
S1131FE0E81BF90BCF01FE01EE0FFF1FEE0FFF1FE1
S1131FF0EE0FFF1FE050FE4D128A138A88159905D3
S113200078F4D8018C9184608C93B0E4DB9EC00199
S113201011248B579F4D848B958B868A978A13C086
S1132020F8014181528125813681240F351FCC0F5F
S1132030DD1FCC0FDD1FCC0FDD1FC050DE4D2C8B00
S11320403D8B8E8B9F8BF70102E0069313C0D80162
S11320508C9180FF0FC08E7F8C931796ED91FC912D
S11320601897309739F015966D917C9116974D2DF0
S113207080E00995DF91CF911F910F91FF90EF9030
S1132080DF90BF90AF909F908F900895CF93CFB77C
S1132090F89481E011DDEAECF4E080E4808380E2EE
S11320A08083E1ECF4E0808181608083A9ECB4E07A
S11320B08C9182608C93E8ECF4E08081806480836E
S11320C08C9181608C93808180688083CFBFCF9115
S11320D00895CF93DF93C0E6D0E0188280E30E9496
S11320E00708E0ECF4E080818064808381E08883E9
S11320F0CFB7F89480E090E0FC01EE0FFF1FEE0FE5
S1132100FF1FEE0FFF1FE050FE4D118A019688302D
S1132110910591F7E5E8F1E280818E7F8083EEE816
S1132120F1E280818E7F8083E7E9F1E280818E7F16
S11321308083E0EAF1E280818E7F8083E9EAF1E244
S113214080818E7F8083E2EBF1E280818E7F8083C9
S11321506AE170E082E0A6DC8F3F19F08093FA0414
S113216003C08FE18093FA046BE170E082E09ADCB3
S11321708F3F19F08093FB0403C08FE18093FB042D
S1132180E0ECF4E0808183608083808180688083D8
S113219080818061808380E192E28683978380815D
S11321A0806280838FEF8093C504E8ECF4E0808143
S11321B0826080831092542280914B2C8F3F09F4CB
S11321C0FFCF9FB7F894E6E4FCE285818F5F8583B7
S11321D09FBF5CDFCFBFDF91CF9108958093C3048D
S11321E008958091C3040895EAE5F4E28087918715
S11321F0628773870895282F2F7030E0220F331FD2
S1132200082E000C990B8827990F881F9927820F95
S1132210931FFC01EE0FFF1FEE0FFF1FEE0FFF1FBA
S1132220E050FE4D2189207C09F058C06370613074
S113223011F018F404C020EC03C020E801C020E42D
S113224040385105E9F050F440325105A9F04034CA
S11322505105A1F040315105D9F40CC0411532E0CB
S1132260530791F04F3F33E0530781F0411551403C
S113227079F408C041E00DC042E00BC043E009C05E
S113228044E007C045E005C046E003C047E001C0A4
S113229040E0FC01EE0FFF1FEE0FFF1FEE0FFF1FCC
S11322A0E050FE4D118ADC01AA0FBB1FAA0FBB1F11
S11322B0AA0FBB1FA05FBD4D36E03C93242B218B9E
S11322C0880F991F880F991F880F991FFC01E050F0
S11322D0FE4D81898062818B81E0089580E00895BC
S11322E0E82FEF70F0E0EE0FFF1F082E000C990BA3
S11322F08827990F881F9927E80FF91FEE0FFF1FF2
S1132300EE0FFF1FEE0FFF1FE050FE4D818982FB91
S1132310882780F90895282F2F7030E0A901440FF1
S1132320551F282F082E000C330B2227330F221F92
S11323303327240F351FF901EE0FFF1FEE0FFF1F88
S1132340EE0FFF1FE050FE4D918992FF17C0220F40
S1132350331F220F331F220F331FF901E050FE4DAC
S113236091899B7F918BAEDCFC01808180FF06C04C
S11323708E7F80830780F085E02D099581E00895A4
S11323807F928F929F92AF92BF92CF92DF92EF9201
S1132390FF920F931F93CF93DF93982E862E6A019B
S11323A0790190DC5C01792C771C7724771CC92D8A
S11323B0CF70D0E0CC0FDD1FC70DD11DFE01EE0F95
S11323C0FF1FEE0FFF1FEE0FFF1FE050FE4D818930
S11323D0807C09F47DC0FE01EE0FFF1FEE0FFF1F8E
S11323E0EE0FFF1FE050FE4D8189807C803C61F040
S11323F0FE01EE0FFF1FEE0FFF1FEE0FFF1FE05059
S1132400FE4D818982FD66C08FB7F894F5019081F5
S113241090FF03C08FBF712C5EC0F5019081916065
S113242090838FBFC182D282E382F48215821682A6
S113243007831087811006C091E0E114F10419F0BC
S113244090E001C091E0F501808190FB81F98B7FE0
S11324508083772059F0CC0FDD1FCC0FDD1FCC0F0C
S1132460DD1FC050DE4D1E8A1F8A2DC0FE01EE0FF7
S1132470FF1FEE0FFF1FEE0FFF1FE050FE4D81897F
S1132480807C803CA1F4CE01880F991F880F991F8E
S1132490880F991F805F9D4DEFDBBC01C70160D29F
S11324A0892B29F0F50180818E7F808314C0CC0FA5
S11324B0DD1FCC0FDD1FCC0FDD1FC050DE4D1A8A8F
S11324C01B8A1E8A1F8A892D87DC7724739403C094
S11324D0712C01C0712C872DDF91CF911F910F9129
S11324E0FF90EF90DF90CF90BF90AF909F908F9030
S11324F07F900895FF920F931F93CF93DF93182F2C
S1132500F82EFF1CFF24FF1CC82FCF70D0E0CC0F87
S1132510DD1FCF0DD11DD6DBDC01FE01EE0FFF1F49
S1132520EE0FFF1FEE0FFF1FE05FFD4D02E005936E
S11325308C9180FF22C08E7F8C931796ED91FC9135
S113254018973097D1F0FF2059F0CC0FDD1FCC0F36
S1132550DD1FCC0FDD1FC050DE4D6E897F890AC0A0
S1132560CC0FDD1FCC0FDD1FCC0FDD1FC050DE4DA7
S11325706A897B89412F81E00995DF91CF911F9171
S11325800F91FF900895CF93C82FB4DFEC2FEF7015
S1132590F0E0EE0FFF1F8C2FCC0F990B8827990FBB
S11325A0881F9927E80FF91FEE0FFF1FEE0FFF1F7B
S11325B0EE0FFF1FE050FE4D118ACF9108950F9347
S11325C0E82FEF70F0E0EE0FFF1F282F082E000C0D
S11325D0330B2227330F221F3327E20FF31FDF01B0
S11325E0AA0FBB1FAA0FBB1FAA0FBB1FA050BE4D33
S11325F051969C915197946051969C93EE0FFF1FB6
S1132600EE0FFF1FEE0FFF1FE05FFD4D01E006938D
S113261071DF81E00F9108951F920F920FB60F9210
S113262011240F932F933F934F935F936F937F9353
S11326308F939F93AF93BF93EF93FF938091CB04BA
S1132640882344F480E88093CA040E9496090E9477
S113265095018AC08091CB0482FF20C084E08093DE
S1132660CA048091182286FF7FC08091CC0481FD2A
S11326707BC043DB811178C08091FF21813011F44C
S113268079DA72C0843009F06FC0E9E1F2E204E063
S11326900593E1E1F2E204E0059366C08091CB0486
S11326A081FF5DC082E08093CA048091102286FF7E
S11326B05BC08091CC0481FD57C01FDB811154C0E5
S11326C08091FF21823041F484E08093FF21E0E196
S11326D0F2E202E0069348C0833009F045C0E9E124
S11326E0F2E204E00593E1E1F2E204E005933CC088
S11326F080E18093CA0481E0FDDE81E8FBDE82E0B4
S1132700F9DE82E8F7DE0E9471091092C304E0E06A
S1132710F2E2118A96E0908B83E4818B118E908F84
S1132720818F8BEB91E2848B958BEFD91DC08091C7
S1132730CB0486FF08C080E48093CA0480E0BCD93F
S11327400E94930111C08091CB0485FF0DC080E2EB
S11327508093CA0481E0B0D90E94940105C080919D
S1132760CB0484FDC5CFE3CFFF91EF91BF91AF912F
S11327709F918F917F916F915F914F913F912F9195
S11327800F910F900FBE0F901F9018951F920F92EC
S11327900FB60F9211240F931F932F933F934F93D0
S11327A05F936F937F938F939F93AF93BF93CF93D5
S11327B0DF93EF93FF938091CC0481FD03C09DDAF6
S11327C08111B9C082E08093CC048091C5048195C5
S11327D0880FE0E1F2E2E81BF10920813181205108
S11327E03242369527953695279536952795822F2B
S11327F0869520FD02C090E001C090E8890FE82F83
S1132800EF70F0E0EE0FFF1F282F082E000C330BA3
S11328102227330F221F3327E20FF31FDF01AA0FF2
S1132820BB1FAA0FBB1FAA0FBB1FA05FBD4D9C916E
S113283095FF81C0FD0100E20693811177C080916C
S1132840FF21843019F4A4D960D975C000911222F3
S1132850109113228091642490916524C091FB21EE
S1132860D091FC219E01200F311F8217930718F489
S11328708C010C1B1D0B8091622490916324A80190
S11328806BEB71E28C0F9D1F85D0C00FD11FC093DD
S1132890FB21D093FC210034110569F48091FD21C2
S11328A09091FE218C0F9D1F209160243091612412
S11328B08217930780F0EAE5F4E2C287D38706849F
S11328C0F785E02D309729F00995811102C044D98C
S11328D032C050D930C08091642490916524C817C7
S11328E0D907F9F4E0916824F0916924309711F440
S11328F033D921C00995811102C02ED91CC0209161
S1132900FD213091FE218091FB219091FC21820FC9
S1132910931F8093FD219093FE211092FB2110922E
S1132920FC21E0E1F2E202E0069305C0803811F4F4
S113293037D901C051DAFF91EF91DF91CF91BF9167
S1132940AF919F918F917F916F915F914F913F9143
S11329502F911F910F910F900FBE0F901F901895FC
S1132960AA1BBB1B51E107C0AA1FBB1FA617B707B1
S113297010F0A61BB70B881F991F5A95A9F78095CD
S11329809095BC01CD010895EE0FFF1F0590F491C1
S1132990E02D0994FB01DC0102C001900D9241502D
S10D29A05040D8F70895F894FFCFD3
S11329AAFF558000800041084C0852083E08000088
S11329BA4420162000001C201A20062009022700A1
S11329CA01010080FA0904000003FFFFFF00070564
S11329DA8102400000070502024000000705830146
S11329EAFF0301001201000200000040EB0300A0F3
S11329FA00020102000100000003000000000000C0
S1132A0A00000000000000000000000000000000B8
S1132A1A00000000000000000000000000000000A8
S1132A2A00000000000000000000555342476F6296
S1132A3A696E6461722044756D6D792044657669A6
S1132A4A6365005461706972546563680000040325
S1052A5A090469
S9030000FC
